:100000000C9438010C9469010C9469010C946901F9
:100010000C9469010C9469010C9469010C946901B8
:100020000C9469010C9469010C9469010C946901A8
:100030000C9469010C9469010C9469010C94690198
:100040000C9469010C9469010C9469010C94690188
:100050000C9469010C9469010C9469010C94E706F5
:100060000C9469010C94B1060C9487060C946901F8
:100070000C9469010C9469010C9469010C94690158
:100080000C9469010C9469010C9469010C94690148
:100090000C9469010C9469010C9469010C94690138
:1000A0000C9469010C9469010C9469010C94690128
:1000B0000C9469010C9469010C9469010C94690118
:1000C0000C9469010C9469010C9469010C94690108
:1000D0000C9469010C9469010C9469010C946901F8
:1000E0000C9469010C94E8010C946D020C94C60107
:1000F0000C94DC020C9417030C9413030C941C0353
:100100000C94C20E0C94F1020C94FB020C94E202CB
:100110000C94B7010C94DA010C9421030C94F702AF
:100120000C94EE020C941D030C9401030C948A01B0
:100130000C9405030C940F030C9420020C94EA0217
:100140000C9431070C9409030C94E6020000200083
:100150002300260029002C002F003200000100009F
:1001600003010601090100000A0B02090C0D0E082B
:100170000703040100000000000000000000000070
:10018000000000000000000000000000000000006F
:10019000000012111000000000000000000000002C
:1001A000000000000000000000000000000022002D
:1001B000250028002B002E00310034000201000031
:1001C000050108010B0100002100240027002A007E
:1001D0002D003000330001010000040107010A0175
:1001E00005050505070508080808020202020A0AB3
:1001F00008080404040401010101010101010303D1
:10020000030303030303040707070C0C0C0C0C0C7B
:100210000C0C0202020206060606060606060B0B78
:100220000B0B0B0B0B0B01021020200808102040B9
:1002300010204080020102010804020101020408AA
:100240001020408080402010080402018004020138
:100250008040201008040201080402010102040881
:100260001020408001020408102040803107C20E97
:1002700011241FBECFEFD1E2DEBFCDBF00E00CBF27
:1002800015E0A0E0B2E0E6E6F4E200E00BBF02C059
:1002900007900D92A63BB107D9F727E0A6EBB5E092
:1002A00001C01D92A036B207E1F711E0C7E3D1E02B
:1002B00000E006C021970109802FFE010E94E60F91
:1002C000C633D10780E00807A9F70E9421080C94E3
:1002D00021120C94000090E0FC01EA5DFD4F249196
:1002E00080529E4FFC018491882399F090E0880F02
:1002F000991FFC01EA53FE4FA591B491FC01E4550E
:10030000FE4F859194918FB7F894EC91E22BEC938A
:100310008FBF0895AF92BF92CF92DF92EF92FF927C
:100320000F931F93CF93DF936C017B018B01040F1D
:10033000151FEB015E01AE18BF08C017D10759F0B9
:100340006991D601ED91FC910190F081E02DC601FB
:100350001995892B79F7C501DF91CF911F910F91E5
:10036000FF90EF90DF90CF90BF90AF900895FC0189
:10037000538D448D252F30E0842F90E0821B930B0A
:10038000541710F0CF96089501970895FC01918DB0
:10039000828D981761F0A28DAE0FBF2FB11D5D96B3
:1003A0008C91928D9F5F9F73928F90E008958FEF55
:1003B0009FEF0895FC01918D828D981731F0828D09
:1003C000E80FF11D858D90E008958FEF9FEF089560
:1003D000FC01918D228D892F90E0805C9F4F821BC4
:1003E00091098F73992708958DE596E00E94E801A1
:1003F00021E0892B09F420E0822F0895FC01A48DCF
:10040000A80FB92FB11DA35ABF4F2C91848D90E036
:1004100001968F739927848FA689B7892C93A08919
:10042000B1898C91837080648C93938D848D9813A3
:1004300006C00288F389E02D80818F7D8083089536
:10044000EF92FF920F931F93CF93DF93EC0181E024
:10045000888F9B8D8C8D98131AC0E889F9898081CB
:1004600085FF15C09FB7F894EE89FF896083E889FE
:10047000F98980818370806480839FBF81E090E0F0
:10048000DF91CF911F910F91FF90EF900895F62E7D
:100490000B8D10E00F5F1F4F0F731127E02E8C8D17
:1004A0008E110CC00FB607FCFACFE889F98980815C
:1004B00085FFF5CFCE010E94FE01F1CFEB8DEC0F51
:1004C000FD2FF11DE35AFF4FF0829FB7F8940B8F79
:1004D000EA89FB8980818062CFCFCF93DF93EC01E3
:1004E000888D8823B9F0AA89BB89E889F9898C911C
:1004F00085FD03C0808186FD0DC00FB607FCF7CFD8
:100500008C9185FFF2CF808185FFEDCFCE010E94D7
:10051000FE01E9CFDF91CF91089580E090E0892B33
:1005200029F00E94F40181110E94000080E090E017
:10053000892B49F080E090E0892B29F00E9400008F
:1005400081110E94000080E090E0892B49F080E05A
:1005500090E0892B29F00E94000081110E94000088
:1005600080E090E0892B49F080E090E0892B29F031
:100570000E94000081110C94000008958150823186
:1005800008F05AC0E82FF0E08827E653FD4F8F4F60
:100590000C94E60FEA02EE02DC02E202E6021C0321
:1005A000F102F702FB020103050309030F03130322
:1005B0001C0317031D032103809180008F77809314
:1005C00080000895809180008F7DF9CF8091800018
:1005D000877FF5CF84B58F7784BD089584B58F7DEF
:1005E000FBCF8091B0008F778093B0000895809109
:1005F000B0008F7DF9CF809190008F77809390002D
:100600000895809190008F7DF9CF80919000877F31
:10061000F5CF8091A0008F778093A00008958091FE
:10062000A0008F7DF9CF8091A000877FF5CF8091CA
:1006300020018F77809320010895809120018F7D84
:10064000F9CF80912001877FF5CFCF93DF93282FBB
:1006500030E0F901EA59FE4F8491F901EA5DFD4F5E
:10066000D491F901E052FE4FC491CC23A1F0811145
:100670000E94BE02EC2FF0E0EE0FFF1FE45BFE4F86
:10068000A591B491EC91ED2381E090E009F480E034
:10069000DF91CF91089580E090E0FACF1F93CF9340
:1006A000DF93282F30E0F901EA59FE4F8491F901D8
:1006B000EA5DFD4FD491F901E052FE4FC491CC2385
:1006C000A9F0162F81110E94BE02EC2FF0E0EE0F70
:1006D000FF1FE455FE4FA591B4918FB7F894EC91AC
:1006E000111108C0D095DE23DC938FBFDF91CF912D
:1006F0001F910895DE2BF8CF3FB7F8948091BB058A
:100700009091BC05A091BD05B091BE0526B5A89BF2
:1007100005C02F3F19F00196A11DB11D3FBFBA2F93
:10072000A92F982F8827BC01CD01620F711D811D53
:10073000911D42E0660F771F881F991F4A95D1F7D8
:100740000895CF92DF92EF92FF920E947C036B019B
:100750007C010E947C036C197D098E099F09683E0B
:10076000734081059105A8F3FF90EF90DF90CF9043
:1007700008952FB7F8946091B7057091B8058091EE
:10078000B9059091BA052FBF0895209102023091CA
:100790000302E0915006F091510660915206CF019C
:1007A0000196662309F441C02031310550F4A4E0DC
:1007B000EE0FFF1FAA95E1F7E154FA4FE20FF31F86
:1007C00010822031310558F4FC0174E0EE0FFF1F58
:1007D0007A95E1F7E154FA4FE20FF31F1082A90175
:1007E000415051094031510558F4FC0164E0EE0FCD
:1007F000FF1F6A95E1F7E154FA4FE40FF51F1082ED
:10080000225031092031310558F4FC0184E0EE0F0B
:10081000FF1F8A95E1F7E154FA4FE20FF31F1082B0
:10082000509303024093020208952031310550F4A1
:10083000B4E0EE0FFF1FBA95E1F7E154FA4FE20F73
:10084000F31F108237FD0BC0FC01A4E0EE0FFF1F69
:10085000AA95E1F7E154FA4FE20FF31F1082A901C4
:100860004F5F5F4F57FD0BC0FC0174E0EE0FFF1FA1
:100870007A95E1F7E154FA4FE40FF51F10822E5FED
:100880003F4F37FDCDCF64E0880F991F6A95E1F7A0
:1008900081549A4F280F391FF901C1CF0F931F932D
:1008A000CF938C01C62F85E20115110521F001308F
:1008B000110549F484E20E944E036C2F80E205305A
:1008C0001105E9F006C00230110549F483E20E94E7
:1008D0004E036C2F8FE10630110589F006C00330FE
:1008E000110549F482E20E944E030730110561F4BC
:1008F0006C2F8EE104C081E204301105F1F6CF9136
:100900001F910F910C944E03CF911F910F91089559
:10091000CF93DF93EC01892B39F560E08DE10E94E4
:100920004E0361E08CE10E944E03C230D10539F5DF
:1009300060E08BE10E944E0361E08AE10E944E0379
:10094000C430D10539F560E089E10E944E0361E0D1
:1009500088E10E944E03C630D10539F560E087E199
:100960000E944E0361E028C061E08DE10E944E03C9
:10097000C130D105B1F660E08CE10E944E0361E028
:100980008BE10E944E03C330D105B1F660E08AE1ED
:100990000E944E0361E089E10E944E03C530D105FB
:1009A000B1F660E088E10E944E0361E087E10E94B9
:1009B0004E0360E02797B1F686E1DF91CF910C946A
:1009C0004E03CF92DF92EF92FF920F931F93CF933C
:1009D000DF931F921F92CDB7DEB769834A83880FDA
:1009E000991F00915A0710915B07000F111FE4E057
:1009F000F7E09F01245037402017310714F411927B
:100A0000F8CF2981FC01EC5FF84F21838A81808334
:100A100060E0809158070E944E031016110604F5FD
:100A200001501109F801EC5FF84FE080D0905607B3
:100A3000C090540788E0F82E6E2D661F6627661F4B
:100A40008C2D0E944E03EE0C61E08D2D0E944E0312
:100A500060E08D2D0E944E03FA94F110EDCFDDCFB2
:100A600061E0809158070F900F90DF91CF911F9117
:100A70000F91FF90EF90DF90CF900C944E03EF9288
:100A8000FF920F931F93CF937C018C0183E0000FA3
:100A9000111F8A95E1F70C5E184FC1E0F801119221
:100AA0008F0140E06C2FC7010E94E104CF5FC93085
:100AB000A9F7CF911F910F91FF90EF90089520918A
:100AC0005A0730915B0712161306E4F4883091053B
:100AD000C9F020E830E002C0359527956A95E2F725
:100AE000FC01EC5FF84F5089442349F0252B208B03
:100AF00061E0680F408990E080E00C94E10420956B
:100B00002523F5CF08958F929F92AF92BF920F93B6
:100B10001F93CF93DF93CDB7DEB7A1970FB6F894AD
:100B2000DEBF0FBECDBF19A2423008F44AE08E01ED
:100B30000F5D1F4F842E912CB12CA12CA501940187
:100B40000E94A10FE62FB901CA01EA3044F5E05D29
:100B5000D801EE938D01232B242B252B79F790E0E0
:100B600080E0109769F0FD0101900020E9F73197CE
:100B7000AF014A1B5B0BBD018DE596E00E948A0127
:100B8000A1960FB6F894DEBF0FBECDBFDF91CF9117
:100B90001F910F91BF90AF909F908F900895E95C47
:100BA000D7CFCF92DF92EF92FF92CF93DF936C017A
:100BB000092E000CEE08FF0897FF23C06DE28DE5BB
:100BC00096E00E942002EC0166277727CB016C1982
:100BD0007D098E099F094AE00E948305C80FD91F2D
:100BE00042E050E060E875E08DE596E00E948A0101
:100BF0008C0F9D1FDF91CF91FF90EF90DF90CF90F2
:100C000008954AE0C701B6010E948305EC01E8CFD0
:100C1000CF93DF93EC018091FE069091FF06009741
:100C200059F020910007309101072C173D0720F063
:100C300081E0DF91CF910895BE016F5F7F4F0E94E9
:100C40002711009789F09093FF068093FE06D093BA
:100C50000107C09300072091020730910307232B5F
:100C600039F7FC011082E4CF80E0E3CF0F931F93AC
:100C7000CF93DF938C01EC0109900020E9F72197D5
:100C8000C81BD90BCE010E9408062091FE063091A8
:100C9000FF06811117C02115310519F0C9010E9405
:100CA0009E101092FF061092FE06109203071092FB
:100CB00002071092010710920007DF91CF911F9158
:100CC0000F910895D0930307C0930207B801C9019B
:100CD000DF91CF911F910F910C941A12209102076E
:100CE00030910307232B39F421E0FC018081882314
:100CF00061F020E00AC0BC018091FE069091FF06E1
:100D00000E94111221E0892BA1F7822F08951F92D2
:100D10000F920FB60F9211240BB60F922F933F93A1
:100D20004F935F936F937F938F939F93AF93BF93F3
:100D3000EF93FF938DE596E00E94FE01FF91EF9106
:100D4000BF91AF919F918F917F916F915F914F91E3
:100D50003F912F910F900BBE0F900FBE0F901F90E1
:100D600018951F920F920FB60F9211240BB60F9287
:100D70002F938F939F93EF93FF93E0916D06F091E4
:100D80006E068081E0917306F091740682FD1DC0AD
:100D90009081809176068F5F8F73209177068217FE
:100DA00041F0E0917606F0E0E35AF94F958F809399
:100DB0007606FF91EF919F918F912F910F900BBE2F
:100DC0000F900FBE0F901F9018958081F2CF1F9249
:100DD0000F920FB60F9211242F933F938F939F93EF
:100DE000AF93BF938091B7059091B805A091B905D5
:100DF000B091BA053091B60523E0230F2D3758F591
:100E00000196A11DB11D2093B6058093B70590935F
:100E1000B805A093B905B093BA058091BB05909130
:100E2000BC05A091BD05B091BE050196A11DB11DE7
:100E30008093BB059093BC05A093BD05B093BE0500
:100E4000BF91AF919F918F913F912F910F900FBEC6
:100E50000F901F90189526E8230F0296A11DB11D33
:100E6000D2CFCF93DF931092600610925F0688EE88
:100E700093E0A0E0B0E08093610690936206A093B7
:100E80006306B093640682E795E090935E068093D4
:100E90005D0685EC90E090936A068093690684EC89
:100EA00090E090936C0680936B0680EC90E09093BA
:100EB0006E0680936D0681EC90E0909370068093AF
:100EC0006F0682EC90E0909372068093710686EC38
:100ED00090E09093740680937306109276061092B9
:100EE00077061092780610927906C3E3D0E0D0938B
:100EF0005507C093540785E390E09093570780937C
:100F0000560784E390E0909359078093580781E057
:100F100090E090935B0780935A0783E30E946B01F4
:100F2000809156070E946B01809158070E946B01C7
:100F300061E0809158070E944E03D0935507C093FB
:100F40005407E4E1F7E0119287E0E435F807D9F7B8
:100F5000D0E0C0E080915A0790915B07C817D9078D
:100F600074F540E06FE0CE010E94E10480915A07E1
:100F700090915B07C817D9072CF447E06BE0CE01CE
:100F80000E94E10440E069E0CE010E94E10480910A
:100F90005A0790915B07C817D9071CF4CE010E942D
:100FA0003F0580915A0790915B07C817D9072CF429
:100FB00040E06CE0CE010E94E1042196CBCF10927C
:100FC000FF061092FE061092010710920007109281
:100FD00003071092020787E090E00E940806209124
:100FE000FE063091FF06811120C02115310519F050
:100FF000C9010E949E101092FF061092FE061092E8
:1010000003071092020710920107109200070E9436
:10101000B9036093FA067093FB068093FC069093E5
:10102000FD06DF91CF910C94B90387E090E0909397
:1010300003078093020763E875E0C9010E941A1252
:10104000E6CF789484B5826084BD84B5816084BD28
:1010500085B5826085BD85B5816085BD80916E0056
:10106000816080936E001092810080918100826087
:1010700080938100809181008160809381008091C4
:1010800080008160809380008091B10084608093B3
:10109000B1008091B00081608093B0008091910098
:1010A0008260809391008091910081608093910093
:1010B000809190008160809390008091A100826077
:1010C0008093A1008091A10081608093A100809114
:1010D000A00081608093A0008091210182608093B4
:1010E0002101809121018160809321018091200163
:1010F00081608093200180917A00846080937A00DF
:1011000080917A00826080937A0080917A00816079
:1011100080937A0080917A00806880937A001092A0
:10112000C100CEE5D2E00EE412E0888122960E9452
:101130006B01D8018C910E5F1F4F0E946B01B2E0D2
:10114000CE36DB0791F7E0916D06F0916E0682E0F6
:101150008083E0916906F0916A061082E0916B0647
:10116000F0916C068FEC808310927506E091710609
:10117000F091720686E08083E0916F06F091700630
:10118000808180618083E0916F06F091700680819C
:1011900088608083E0916F06F0917006808180689E
:1011A0008083E0916F06F091700680818F7D80834F
:1011B00080915A0790915B071816190634F441E0A4
:1011C0006CE090E080E00E94E10480915A079091E9
:1011D0005B071816190634F448E06AE090E080E0F6
:1011E0000E94E10480915A0790915B071816190636
:1011F00024F490E080E00E943F0588248A94982C93
:1012000083E895E00E946E06882309F496C10E9447
:10121000B9030091FA061091FB062091FC0630916B
:10122000FD06601B710B820B930B683C71058105F9
:1012300091059CF080915B0690915C0601969093DD
:101240005C0680935B060E94B9036093FA06709374
:10125000FB068093FC069093FD06F12CE12C38E10F
:10126000B32EC7010E94880410E000E0BE9CC001BC
:10127000BF9C900D1124FC01E259FD4F6F01C091FC
:101280005B06D0915C06C831D10514F0D0E0C0E017
:10129000D0935C06C0935B0630904906332009F476
:1012A00037C1CE01800F911F68E170E00E94D20F1C
:1012B000F601E80FF91F6081C8010E944E040F5F1C
:1012C0001F4F08301105D9F60E94A103BFEFEB1A9A
:1012D000FB0AE9E0EE16F10421F62E01440C551C40
:1012E00010E000E028E1222E3E01F9E06F1A7108BB
:1012F000B8E0AB2EB12CAC1ABD0A87E0E82EF12C79
:10130000209EC001219E900D11249C0122593D4F29
:101310006901C501332009F409C1840D951D883187
:1013200091051CF0C3018E199F098C0D9D1DDC01D8
:101330004C91B701C8010E945F05F1E0EF1AF10876
:101340002FEFA21AB20A3FEFE316F30611F70F5F71
:101350001F4F0830110561F68FE20E94250340906F
:101360003F065090400660904106709042060197FB
:1013700009F05BC445284628472851F40E94B90368
:1013800060933F0670934006809341069093420617
:1013900081E30E942503EC01809148068C171D060D
:1013A00051F00E94B9036093440670934506809300
:1013B0004606909347060E94B90311E0209709F46E
:1013C00010E0C0904406D0904506E0904606F090AC
:1013D00047066C197D098E099F09633371058105E4
:1013E000910590F0809143068C171D0669F01093CB
:1013F0004306CD2B49F483E895E00E946E068823CE
:1014000009F45CC4109249061093480680E30E94D8
:101410002503EC0180914F068C171D0651F00E94A8
:10142000B90360934B0670934C0680934D069093DE
:101430004E060E94B90311E0209709F410E0C09015
:101440004B06D0904C06E0904D06F0904E066C197D
:101450007D098E099F09633371058105910598F017
:1014600080914A068C171D0671F010934A06CD2B09
:1014700051F483E895E00E946E06882309F435C490
:1014800081E08093490610934F0682E30E94250372
:10149000EC01809158068C171D0651F00E94B9038B
:1014A00060935406709355068093560690935706A2
:1014B0000E94B90311E0209709F410E0C09054068F
:1014C000D0905506E0905606F09057066C197D09AD
:1014D0008E099F096333710581059105A0F0809104
:1014E00053068C171D0679F010935306209759F474
:1014F0008BE895E00E946E06882309F40EC48AEA00
:1015000095E00E943606109358060E948D0278CE10
:10151000C8018C1B9D0B97FF04C0C80148968C1B0B
:101520009D0B8C0D9D1DDC016C91C6CEB7FC4896C1
:101530008C0D9D1DFC014081FCCE8BE895E00E9446
:101540006E068823E9F1AEE2EA2EA3E0FA2E6701E7
:1015500010E000E0C8010E948804D0E0C0E0F6017D
:10156000EC0FFD1F6081CE010E944E042196C83011
:10157000D105A9F70E94A1030F5F1F4F40E1C40EE0
:10158000D11C0930110531F710E000E0C8E0D0E0CF
:10159000F701EC0FFD1F6FE070E06C1B7D0B4081CD
:1015A000C8010E945F052196C031D10589F70F5F00
:1015B0001F4F50E1E50EF11C0830110539F7CCCE74
:1015C00080E995E00E946E06882309F4C8C28091E4
:1015D000590690915A06892B09F0C8C00E94B90398
:1015E0002B013C01F3E02F2E312C0E94B90364192A
:1015F000750986099709603D77408105910508F0D6
:1016000079C00EEA13E0D0E0C0E0CE010E94880469
:10161000F12CE12CF801EE0DFF1D6081C7010E9445
:101620004E04BFEFEB1AFB0AE8E0EE16F10491F767
:101630000E94A1032196085F1F4FC930D10529F7E9
:10164000C0900002D0900102C6016AE070E00E94E2
:10165000D20F5B01EB01E5E0CC0FDD1FEA95E1F76E
:10166000C251DC4FF12CE12C10E000E0FE01E00F54
:10167000F11F67E070E0601B710B4081C7010E94A1
:101680005F050F5F1F4F0430110581F7FFEFEF1A61
:10169000FF0A249628E0E216F10431F726EFA501AF
:1016A0002403E001259FD00D1124CC0DDD1D75E034
:1016B000CC0FDD1F7A95E1F7C251DC4FF12CE12C04
:1016C00010E000E0FE01E00FF11FB101601B710BA3
:1016D0004081C7010E945F050F5F1F4F0430110555
:1016E00089F73FEFE31AF30A249648E0E416F10481
:1016F00039F77BCF00910002109101020E5F1F4F5E
:1017000010935A0600935906BB24B3941016110681
:101710006CF50E94170F20E130E040E050E00E949D
:101720006F0F6B010E94170FE601C154DA4FFE01E3
:10173000E059FF4F20812111E9CF24E030E040E063
:1017400050E00E946F0F6F5F7F4F8F4F9F4F90E071
:1017500080E060978617970734F4FE01E058FF4F4A
:10176000B0820196F6CF01501109D0CF0E94B90383
:101770000091FA061091FB062091FC063091FD06BF
:10178000601B710B820B930B683C71058105910501
:101790000CF487C080915B0690915C060196909353
:1017A0005C0680935B060E94B9036093FA0670930F
:1017B000FB068093FC069093FD06C4E0D2E04881CE
:1017C00059814F3F540709F464C02A813B812F3F60
:1017D000320709F45EC0CA010196FA0164E0EE0F17
:1017E000FF1F6A95E1F7E152FA4FE20FF31F6081A4
:1017F000662309F432C1DA0104E0AA0FBB1F0A957F
:10180000E1F7A20FB31F70E060E06F5F7F4FFB0155
:10181000E40FF51F389764F4FB0114E0EE0FFF1F8F
:101820001A95E1F7EA0FFB1FE154FA4F1082EDCF52
:1018300004E0880F991F0A95E1F781549A4F820FAF
:10184000931FFC011082998288829B828A828091F8
:10185000590690915A06019790935A06809359061B
:10186000892BB9F4109152068091000290910102E7
:10187000019690930102809300020E94C50382E1C9
:1018800090E0111102C08DEF9FEF909303028093BF
:1018900002022496F2E0C434DF0709F090CF0E94E0
:1018A000C5032091020230910302C0915006D091ED
:1018B000510640915206CE010196442309F4E6C038
:1018C0002031310560F4FE01B4E0EE0FFF1FBA9540
:1018D000E1F7E154FA4FE20FF31F41E0408320317A
:1018E000310560F4FC01A4E0EE0FFF1FAA95E1F7BB
:1018F000E154FA4FE20FF31F41E04083B901615018
:1019000071096031710568F4AC01F4E0440F551FB2
:10191000FA95E1F741545A4F460F571F61E0DA013B
:101920006C93B901625071096031710568F4AC01C2
:10193000E4E0440F551FEA95E1F741545A4F460F32
:10194000571F61E0FA016083A901435051094031FA
:101950005105A0F464E0880F991F6A95E1F7820FA2
:10196000931FFC01E454FA4F8081882339F00E94D0
:10197000C5032397D0935106C0935006809102026D
:101980009091030297FF0FC082E190E090930302D1
:101990008093020280915006909151060196909397
:1019A000510680935006E4E0F2E041E080819181AD
:1019B0008F3F980781F0228133812F3F320759F002
:1019C000A4E0880F991FAA95E1F781539A4F820FDF
:1019D000931FDC014C933496B2E0E434FB0731F7FB
:1019E0007FEBE72E75E0F72E670110E000E0C801FD
:1019F0000E948804D0E0C0E0F601EC0FFD1F60817A
:101A0000CE010E944E042196C830D105A9F70E944C
:101A1000A1030F5F1F4FE0E1CE0ED11C093011056D
:101A200031F710E000E0C8E0D0E0F701EC0FFD1F57
:101A30006FE070E06C1B7D0B4081C8010E945F0568
:101A40002196C031D10589F70F5F1F4FF0E1EF0EEE
:101A5000F11C0830110539F77FCCBC0114E0660F8A
:101A6000771F1A95E1F761547A4F620F731F463062
:101A700051053CF0DB011C92998288829B828A820C
:101A800008CFFB0110829983888303CF2031310571
:101A900060F4FE0154E0EE0FFF1F5A95E1F7E154A8
:101AA000FA4FE20FF31F41E040832031310560F42B
:101AB000FC0144E0EE0FFF1F4A95E1F7E154FA4FB5
:101AC000E20FF31F41E04083B9016F5F7F4F603148
:101AD000710568F4AC0104E0440F551F0A95E1F765
:101AE00041545A4F460F571F61E0DA016C93B90118
:101AF0006E5F7F4F6031710568F4AC0114E0440FF4
:101B0000551F1A95E1F741545A4F460F571F61E090
:101B1000FA016083A9014D5F5F4F40315105A8F480
:101B2000B4E0880F991FBA95E1F781549A4F820F5C
:101B3000931FDC0113968C91882339F00E94C50312
:101B40002397D0935106C093500680910202909142
:101B5000030241970CF427CF8DEF9FEF17CF86E953
:101B600095E00E946E06882309F4F6CB90E080E0B1
:101B70000E94D10583E090E00E94D1056EE2E62E3E
:101B800065E0F62E10E000E0C8010E948804D0E075
:101B9000C0E0F701EC0FFD1F6081CE010E944E04F2
:101BA0002196C830D105A9F70E94A1030F5F1F4FEE
:101BB00028E0E20EF11C0930110531F75EEEE52E4A
:101BC00053E0F52ED0E0C0E0670107E010E0D60159
:101BD0004D916D01B801CE010E945F0501501109C0
:101BE00003301105A1F72196B4E0EB0EF11CC830CB
:101BF000D10551F74EE4E42E44E0F42ED0E0C0E0ED
:101C0000670103E010E0F60141916F01B801CE01D8
:101C10000E945F0501501109B0F7219624E0E20E01
:101C2000F11CC830D10561F797CB41145104610410
:101C3000710409F4ADCB0E94B9036B017C01C41897
:101C4000D508E608F70810923F0610924006109259
:101C500041061092420683E895E00E946E068823B2
:101C600049F08BE895E030EDC31637E0D306E10488
:101C7000F10408F580E995E00E946E06882339F0AA
:101C800040EDC41647E0D406E104F10490F486E97F
:101C900095E00E946E06882309F47ACB50EDC516B4
:101CA00057E0D506E104F10408F472CB80E995E031
:101CB00002C086E995E00E9436066ACB8BE895E083
:101CC0000E946E06882329F08CE995E00E94360672
:101CD0009BCB80E995E00E946E06882309F494CBA3
:101CE0000E94C503109252068FCB8BE895E00E94AC
:101CF0006E06882329F080E995E00E943606C3CB62
:101D000080E995E00E946E06882309F4BCCB0E940E
:101D1000C50381E080935206B6CB80E995E00E942E
:101D20006E06882309F4EFCBE4E0F2E08081918134
:101D3000019611F5828193810196F1F4809102025E
:101D40009091030220915206CC0FDD1FCC0FDD1FB6
:101D5000FE01EC5FFD4F222369F00197938382839C
:101D6000CC5FDD4F8091500690915106019699838A
:101D70008883C9CB0196F2CF21963496C031D10524
:101D8000A9F6C1CB8091FE069091FF06009711F055
:101D90000C949E1008958F929F92AF92BF92CF9213
:101DA000DF92EF92FF92CF93DF93EC01688179810C
:101DB0008A819B81611571058105910521F464E299
:101DC00079ED8BE597E02DE133EF41E050E00E94A3
:101DD0006F0F49015A019B01AC01A7EAB1E40E94CF
:101DE0008E0F6B017C01ACEEB4EFA50194010E9453
:101DF0009C0FC60ED71EE81EF91EF7FE06C081E036
:101E0000C81AD108E10880E8F80AC882D982EA82B3
:101E1000FB82C701B6019F77DF91CF91FF90EF90D2
:101E2000DF90CF90BF90AF909F908F9008958F924A
:101E30009F92AF92BF92CF92DF92EF92FF9260910A
:101E400044027091450280914602909147026115CB
:101E500071058105910521F464E279ED8BE597E048
:101E60002DE133EF41E050E00E946F0F49015A012C
:101E70009B01AC01A7EAB1E40E948E0F6B017C01CB
:101E8000ACEEB4EFA50194010E949C0FC60ED71EC4
:101E9000E81EF91EF7FE06C081E0C81AD108E10865
:101EA00080E8F80AC0924402D0924502E0924602CD
:101EB000F0924702C701B6019F77FF90EF90DF9045
:101EC000CF90BF90AF909F908F9008956093440201
:101ED0007093450280934602909347020895052E21
:101EE00097FB1EF400940E94860F57FD07D00E94B6
:101EF000A10F07FC03D04EF40C94860F509540952B
:101F0000309521953F4F4F4F5F4F089590958095A5
:101F1000709561957F4F8F4F9F4F08950E94C30F1B
:101F2000A59F900DB49F900DA49F800D911D11242D
:101F30000895B7FF0C948E0F0E948E0F821B930B97
:101F40000895A1E21A2EAA1BBB1BFD010DC0AA1FFA
:101F5000BB1FEE1FFF1FA217B307E407F50720F012
:101F6000A21BB30BE40BF50B661F771F881F991F8D
:101F70001A9469F760957095809590959B01AC01D6
:101F8000BD01CF010895A29FB001B39FC001A39FDF
:101F9000700D811D1124911DB29F700D811D1124A2
:101FA000911D089597FB072E16F4009407D077FD36
:101FB00009D00E94EE0F07FC05D03EF49095819564
:101FC0009F4F0895709561957F4F0895EE0FFF1F05
:101FD000881F8BBF0790F691E02D1994AA1BBB1B9D
:101FE00051E107C0AA1FBB1FA617B70710F0A61B19
:101FF000B70B881F991F5A95A9F780959095BC013A
:10200000CD0108950F931F93CF93DF9382309105F5
:1020100010F482E090E0E0915E07F0915F0730E01D
:1020200020E0B0E0A0E0309799F42115310509F4E3
:102030004AC0281B390B24303105D8F58A819B8191
:102040006115710589F1FB0193838283FE0111C043
:10205000408151810281138148175907E0F04817E8
:10206000590799F4109761F012960C9312971396F2
:102070001C933296CF01DF91CF911F910F9108955C
:1020800000935E0710935F07F4CF2115310551F0DF
:102090004217530738F0A901DB019A01BD01DF01A6
:1020A000F801C1CFEF01F9CF90935F0780935E07EE
:1020B000CDCFFE01E20FF31F81939193225031099E
:1020C00039832883D7CF20915C0730915D07232B7C
:1020D00041F420914A0230914B0230935D072093E6
:1020E0005C0720914802309149022115310541F4E5
:1020F0002DB73EB740914C0250914D02241B350B39
:10210000E0915C07F0915D07E217F307A0F42E1B46
:102110003F0B2817390778F0AC014E5F5F4F24174B
:10212000350748F04E0F5F1F50935D0740935C07E3
:10213000819391939FCFF0E0E0E09CCFCF93DF932A
:102140000097E9F0FC01329713821282A0915E079A
:10215000B0915F07ED0130E020E01097A1F42081FD
:102160003181820F931F20915C0730915D07281702
:10217000390709F061C0F0935D07E0935C07DF91D8
:10218000CF910895EA01CE17DF07E8F54A815B8118
:102190009E0141155105B1F7E901FB83EA8349919D
:1021A0005991C40FD51FEC17FD0761F4808191810F
:1021B0000296840F951FE901998388838281938118
:1021C0009B838A83F0E0E0E012968D919C911397B7
:1021D0000097B9F52D913C911197CD010296820F90
:1021E000931F20915C0730915D072817390739F656
:1021F000309751F510925F0710925E07B0935D071C
:10220000A0935C07BCCFD383C28340815181840FEC
:10221000951FC817D90761F44E5F5F4F8881998178
:10222000480F591F518340838A819B819383828306
:102230002115310509F0B0CFF0935F07E0935E07F9
:102240009ECFFD01DC01C0CF13821282D7CF4F9207
:102250005F926F927F928F929F92AF92BF92CF9236
:10226000DF92EF92FF920F931F93CF93DF938C0136
:10227000009799F4CB01DF91CF911F910F91FF90BF
:10228000EF90DF90CF90BF90AF909F908F907F9016
:102290006F905F904F900C940210FC01E60FF71FB7
:1022A0009C0122503109E217F30708F4AEC0D901AE
:1022B000CD91DC911197C617D70720F1C530D10514
:1022C00078F0CE0104978617970750F0C61BD70BFE
:1022D0002297C193D1936D937C93CF010E949E105E
:1022E000C801DF91CF911F910F91FF90EF90DF9088
:1022F000CF90BF90AF909F908F907F906F905F90A6
:102300004F9008955B01AC1ABD0A4C018C0E9D1EC6
:10231000A0915E07B0915F07512C412CF12CE12C6C
:10232000109731F580915C0790915D0788159905AC
:1023300009F05CC04616570608F058C08091480264
:1023400090914902009741F48DB79EB740914C029D
:1023500050914D02841B950BE817F90708F055C002
:10236000F0935D07E0935C07F90171836083B8CF58
:102370008D919C91119712966C90129713967C9068
:102380001397A815B90559F56C0142E0C40ED11C8C
:10239000CA14DB0420F1AC014A195B09DA01129678
:1023A000159780F06282738251834083D9016D93C7
:1023B0007C93E114F10471F0D7011396FC93EE9332
:1023C00012978ECF22968C0F9D1FF90191838083E7
:1023D000F301EFCFF0935F07E0935E0781CF4816DC
:1023E000590608F42C017D01D3019ACFCB010E943C
:1023F00002107C01009749F0AE01B8010E9408125A
:10240000C8010E949E1087016BCF10E000E068CFEA
:10241000FB01DC0102C001900D9241505040D8F701
:102420000895FB01DC018D91019080190110D9F311
:10243000990B0895FB01DC0101900D920020E1F75A
:10244000089511E0C7E3D1E000E006C0802FFE014F
:102450000E94E60F2196011DC833D10780E00807CE
:06246000A9F7F894FFCF7C
:102466000100FDFFFFFFFFFFFFFFFFFFFFFFFFFF75
:10247600FFFFFFFFFFFFFFFFFFFFFFFFFFFFFFFF66
:10248600FFFFFFFFFFFFFFFFFFFFFFFFFFFFFFFF56
:10249600FFFFFFFFFFFFFFFFFFFFFFFFFFFFFFFF46
:1024A600FFFFFFFF0100000000006007800025001D
:1024B600240023002200210020001F001E001D0012
:1024C6001C001B001A001900180017001600010056
:1024D60000000100000101010000010000000000F1
:1024E60000010101000001000000010001000000E0
:1024F60001000100000000000100000001000100D1
:1025060000000100010000000100010000000000C1
:1025160001000000010001010101010001000000AD
:10252600010001000000000001000000010001019F
:10253600010101000100000001000100000000008F
:10254600010101010100010000000100010000007D
:102556000100010000000000010000000100010070
:102566000000010001000000010001000000000061
:10257600010000000100010000000100000101014E
:10258600000001010101010001000000010000003E
:10259600000000010101010101000000000000002F
:1025A600000000010101010101000000000000011E
:1025B600000000010001010101000001010000010D
:1025C60001010001000101000100010000000000FE
:1025D60000000001000001000100010000000000F1
:1025E60001000001000000000100000101000000E0
:1025F60000000001010101010100000000000000CF
:1026060000000001010101010100000000000000BE
:1026160000000000000000010000000001000001B1
:10262600010000000100000100010000010000019E
:10263600000001000100000100000001010000018E
:102646000000000001000000000000000000000083
:10265600000001010101010000010100000101006B
:10266600000101000001010000010101010100005B
:10267600000000010100000101000101010000014C
:10268600010000010100000101000101010100003B
:10269600000001010101000000010000000101012C
:1026A600010101000000010000000101010100001C
:1026B600000001010101000000010000000101010C
:1026C60001010000000100000001010101010000FC
:1026D60000000100000101000001010000010101EC
:1026E60001010000000100000001000000010000DF
:1026F60000000101010101000000010000000101CC
:1027060001010000000100000001010101010000BB
:1027160000000101010101000000010000000101AB
:102726000101010000010100000101010101000099
:10273600000001010101000000010000000100018C
:10274600010100000001000000010000000100007E
:102756000000010101010100000101000001010169
:102766000101010000010100000101010101000059
:102776000000010101010100000101000001010149
:10278600010100000001000000010000000100013D
:102796000100000101000101010101010101010126
:1027A6000101010101010101010101010101010113
:1027B6000101010101010001010101010100000007
:1027C60001010101000000000001010000000000FD
:1027D600000020028A01B7016D02E801C601DA0194
:1027E6000D0A004D454E53414A45004D454E550094
:1027F6004A5547415200504155534100434F4E46BA
:10280600494755524143494F4E0045535441444967
:0628160053544943410048
:00000001FF
