:020000040000FA
:100000000C9438010C9469010C9469010C946901F9
:100010000C9469010C9469010C9469010C946901B8
:100020000C9469010C9469010C9469010C946901A8
:100030000C9469010C9469010C9469010C94690198
:100040000C9469010C9469010C9469010C94690188
:100050000C9469010C9469010C9469010C94C0051D
:100060000C9469010C9434060C940A060C946901F2
:100070000C9469010C9469010C9469010C94690158
:100080000C9469010C9469010C9469010C94690148
:100090000C9469010C9469010C9469010C94690138
:1000A0000C9469010C9469010C9469010C94690128
:1000B0000C9469010C9469010C9469010C94690118
:1000C0000C9469010C9469010C9469010C94690108
:1000D0000C9469010C9469010C9469010C946901F8
:1000E0000C9469010C94BA010C94DB010C94D101BD
:1000F0000C94E9010C94E3010C94B2010C94BE023F
:100100000C94AE010C94DF010C94CD010C946A06A2
:100110000C94E1020C9427030C94A8010C94BD01EB
:100120000C94CD020C94C3010C9491020C94B60172
:100130000C9474030C94D5010C94E8010C94C70141
:100140000C94ED010C94010D0C94EF0200002000C2
:100150002300260029002C002F003200000100009F
:1001600003010601090100000A0B02090C0D0E082B
:100170000703040100000000000000000000000070
:10018000000000000000000000000000000000006F
:10019000000012111000000000000000000000002C
:1001A000000000000000000000000000000022002D
:1001B000250028002B002E00310034000201000031
:1001C000050108010B0100002100240027002A007E
:1001D0002D003000330001010000040107010A0175
:1001E00005050505070508080808020202020A0AB3
:1001F00008080404040401010101010101010303D1
:10020000030303030303040707070C0C0C0C0C0C7B
:100210000C0C0202020206060606060606060B0B78
:100220000B0B0B0B0B0B01021020200808102040B9
:1002300010204080020102010804020101020408AA
:100240001020408080402010080402018004020138
:100250008040201008040201080402010102040881
:100260001020408001020408102040806A06010D21
:1002700011241FBECFEFD1E2DEBFCDBF00E00CBF27
:1002800013E0A0E0B2E0E4EEF0E200E00BBF02C059
:1002900007900D92A43FB107D9F725E0A4EFB3E092
:1002A00001C01D92AC39B207E1F711E0C7E3D1E01C
:1002B00000E006C021970109802FFE010E94250E53
:1002C000C633D10780E00807A9F70E945A070C94AB
:1002D00060100C94000090E0FC01EA5DFD4F249159
:1002E00080529E4FFC018491882399F090E0880F02
:1002F000991FFC01EA53FE4FA591B491FC01E4550E
:10030000FE4F859194918FB7F894EC91E22BEC938A
:100310008FBF08958150823108F05AC0E82FF0E075
:100320008827EA56FE4F8F4F0C94250EB601BA016E
:10033000A801AE01B201E801BD01C301C701CD01B1
:10034000D101D501DB01DF01E801E301E901ED01A4
:10035000809180008F778093800008958091800045
:100360008F7DF9CF80918000877FF5CF84B58F771F
:1003700084BD089584B58F7DFBCF8091B0008F77C9
:100380008093B00008958091B0008F7DF9CF809167
:1003900090008F77809390000895809190008F7DDA
:1003A000F9CF80919000877FF5CF8091A0008F7763
:1003B0008093A00008958091A0008F7DF9CF809157
:1003C000A000877FF5CF809120018F778093200157
:1003D0000895809120018F7DF9CF80912001877F42
:1003E000F5CFCF93DF93282F30E0F901EA59FE4F84
:1003F0008491F901EA5DFD4FD491F901E052FE4F7D
:10040000C491CC23A1F081110E948A01EC2FF0E06D
:10041000EE0FFF1FE45BFE4FA591B491EC91ED232D
:1004200081E090E009F480E0DF91CF91089580E0D1
:1004300090E0FACF1F93CF93DF93282F30E0F9019C
:10044000EA59FE4F8491F901EA5DFD4FD491F9011B
:10045000E052FE4FC491CC23A9F0162F81110E94C7
:100460008A01EC2FF0E0EE0FFF1FE455FE4FA5913F
:10047000B4918FB7F894EC91111108C0D095DE2398
:10048000DC938FBFDF91CF911F910895DE2BF8CFC2
:100490003FB7F8948091950490919604A0919704A9
:1004A000B091980426B5A89B05C02F3F19F001967E
:1004B000A11DB11D3FBFBA2FA92F982F8827BC01BE
:1004C000CD01620F711D811D911D42E0660F771FE6
:1004D000881F991F4A95D1F70895CF92DF92EF9226
:1004E000FF920E9448026B017C010E9448026C1935
:1004F0007D098E099F09683E734081059105A8F327
:10050000FF90EF90DF90CF9008952FB7F89460910F
:1005100091047091920480919304909194042FBF60
:100520000895AF92BF92CF92DF92EF92FF920F9316
:100530001F93CF93DF936C017B018B01040F151F79
:10054000EB015E01AE18BF08C017D10759F06991E1
:10055000D601ED91FC910190F081E02DC601199535
:10056000892B79F7C501DF91CF911F910F91FF90F2
:10057000EF90DF90CF90BF90AF900895FC01538D26
:10058000448D252F30E0842F90E0821B930B54176D
:1005900010F0CF96089501970895FC01918D828DFA
:1005A000981761F0A28DAE0FBF2FB11D5D968C9193
:1005B000928D9F5F9F73928F90E008958FEF9FEFD2
:1005C0000895FC01918D828D981731F0828DE80F8E
:1005D000F11D858D90E008958FEF9FEF0895FC0148
:1005E000918D228D892F90E0805C9F4F821B910915
:1005F0008F739927089589E994E00E94EF0221E022
:10060000892B09F420E0822F0895FC01A48DA80F06
:10061000B92FB11DA35ABF4F2C91848D90E0019644
:100620008F739927848FA689B7892C93A089B18964
:100630008C91837080648C93938D848D981306C005
:100640000288F389E02D80818F7D80830895EF9269
:10065000FF920F931F93CF93DF93EC0181E0888F7C
:100660009B8D8C8D98131AC0E889F989808185FF4C
:1006700015C09FB7F894EE89FF896083E889F989EE
:1006800080818370806480839FBF81E090E0DF91F0
:10069000CF911F910F91FF90EF900895F62E0B8D43
:1006A00010E00F5F1F4F0F731127E02E8C8D8E11FE
:1006B0000CC00FB607FCFACFE889F989808185FF65
:1006C000F5CFCE010E940503F1CFEB8DEC0FFD2F8E
:1006D000F11DE35AFF4FF0829FB7F8940B8FEA8920
:1006E000FB8980818062CFCFCF93DF93EC01888D2F
:1006F0008823B9F0AA89BB89E889F9898C9185FD9D
:1007000003C0808186FD0DC00FB607FCF7CF8C912A
:1007100085FFF2CF808185FFEDCFCE010E940503DA
:10072000E9CFDF91CF91089580E090E0892B29F007
:100730000E94FB0281110E94000080E090E0892B62
:1007400049F080E090E0892B29F00E94000081119F
:100750000E94000080E090E0892B49F080E090E06A
:10076000892B29F00E94000081110E94000080E086
:1007700090E0892B49F080E090E0892B29F00E94DD
:10078000000081110C940000089580910202909164
:10079000030220918504222309F18031910520F480
:1007A000FC01EC50FC4F10828031910520F4FC01DB
:1007B000EC50FC4F108A9C01215031092031310549
:1007C00020F4F901EC50FC4F108A0297803191051A
:1007D000F0F48C509C4FFC01108A19C080319105B7
:1007E00020F4FC01EC50FC4F108297FD04C0FC018A
:1007F000EC50FC4F108A9C012F5F3F4F37FD04C027
:10080000F901EC50FC4F108A029697FFE2CF30932B
:1008100003022093020208950F931F93CF938C013C
:10082000C62F85E20115110521F00130110549F4AB
:1008300084E20E941A026C2F80E205301105E9F073
:1008400006C00230110549F483E20E941A026C2F9F
:100850008FE10630110589F006C00330110549F417
:1008600082E20E941A020730110561F46C2F8EE1BA
:1008700004C081E204301105F1F6CF911F910F9170
:100880000C941A02CF911F910F910895CF93DF938B
:10089000EC01892B39F560E08DE10E941A0261E0DC
:1008A0008CE10E941A02C230D10539F560E08BE17B
:1008B0000E941A0261E08AE10E941A02C430D10546
:1008C00039F560E089E10E941A0261E088E10E9446
:1008D0001A02C630D10539F560E087E10E941A029C
:1008E00061E028C061E08DE10E941A02C130D105AB
:1008F000B1F660E08CE10E941A0261E08BE10E9497
:100900001A02C330D105B1F660E08AE10E941A02F2
:1009100061E089E10E941A02C530D105B1F660E0BC
:1009200088E10E941A0261E087E10E941A0260E0F9
:100930002797B1F686E1DF91CF910C941A02CF92FE
:10094000DF92EF92FF920F931F93CF93DF931F924B
:100950001F92CDB7DEB769834A83880F991F009134
:10096000960510919705000F111FE0E4F5E09F0137
:10097000205435402017310714F41192F8CF298103
:10098000FC01E05CFA4F21838A81808360E08091E2
:1009900094050E941A021016110604F5015011095F
:1009A000F801E05CFA4FE080D0909205C09090058D
:1009B00088E0F82E6E2D661F6627661F8C2D0E941C
:1009C0001A02EE0C61E08D2D0E941A0260E08D2D5E
:1009D0000E941A02FA94F110EDCFDDCF61E0809110
:1009E00094050F900F90DF91CF911F910F91FF9081
:1009F000EF90DF90CF900C941A02EF92FF920F933A
:100A00001F93CF937C018C0183E0000F111F8A9507
:100A1000E1F7005B1A4FC1E0F80111928F0140E04D
:100A20006C2FC7010E949F04CF5FC930A9F7CF91F7
:100A30001F910F91FF90EF900895209196053091AE
:100A4000970512161306E4F488309105C9F020E8E2
:100A500030E002C0359527956A95E2F7FC01E05C2D
:100A6000FA4F5089442349F0252B208B61E0680F11
:100A7000408990E080E00C949F0420952523F5CFD9
:100A80000895CF93DF93EC0180913A0590913B0557
:100A9000009759F020913C0530913D052C173D07FA
:100AA00020F081E0DF91CF910895BE016F5F7F4F0D
:100AB0000E94660F009789F090933B0580933A055A
:100AC000D0933D05C0933C0520913E0530913F05F4
:100AD000232B39F7FC011082E4CF80E0E3CF0F93A2
:100AE0001F93CF93DF938C01EC0109900020E9F76D
:100AF0002197C81BD90BCE010E94410520913A05D0
:100B000030913B05811117C02115310519F0C9013C
:100B10000E94DD0E10923B0510923A0510923F059F
:100B200010923E0510923D0510923C05DF91CF9149
:100B30001F910F910895D0933F05C0933E05B801D2
:100B4000C901DF91CF911F910F910C945910209101
:100B50003E0530913F05232B39F421E0FC018081D3
:100B6000882361F020E00AC0BC0180913A05909191
:100B70003B050E94501021E0892BA1F7822F089598
:100B80001F920F920FB60F9211242F933F938F93C2
:100B90009F93AF93BF938091910490919204A09101
:100BA0009304B09194043091900423E0230F2D37E7
:100BB00058F50196A11DB11D2093900480939104D6
:100BC00090939204A0939304B0939404809195041D
:100BD00090919604A0919704B09198040196A11D5C
:100BE000B11D8093950490939604A0939704B093BD
:100BF0009804BF91AF919F918F913F912F910F904A
:100C00000FBE0F901F90189526E8230F0296A11D86
:100C1000B11DD2CF1F920F920FB60F9211240BB6B7
:100C20000F922F933F934F935F936F937F938F9385
:100C30009F93AF93BF93EF93FF9389E994E00E9452
:100C40000503FF91EF91BF91AF919F918F917F919C
:100C50006F915F914F913F912F910F900BBE0F902D
:100C60000FBE0F901F9018951F920F920FB60F9204
:100C700011240BB60F922F938F939F93EF93FF93B3
:100C8000E091A904F091AA048081E091AF04F09171
:100C9000B00482FD1DC090818091B2048F5F8F737C
:100CA0002091B304821741F0E091B204F0E0E756DE
:100CB000FB4F958F8093B204FF91EF919F918F919D
:100CC0002F910F900BBE0F900FBE0F901F90189595
:100CD0008081F2CFCF93DF9310929C0410929B04FB
:100CE00088EE93E0A0E0B0E080939D0490939E0492
:100CF000A0939F04B093A00482EB93E090939A0496
:100D00008093990485EC90E09093A6048093A504C9
:100D100084EC90E09093A8048093A70480EC90E08A
:100D20009093AA048093A90481EC90E09093AC0482
:100D30008093AB0482EC90E09093AE048093AD047A
:100D400086EC90E09093B0048093AF041092B204CC
:100D50001092B3041092B4041092B504C3E3D0E02F
:100D6000D0939105C093900585E390E0909393050F
:100D70008093920584E390E0909395058093940589
:100D800081E090E0909397058093960583E30E941D
:100D90006B01809192050E946B01809194050E94E5
:100DA0006B0161E0809194050E941A02D093910535
:100DB000C0939005E0E5F5E0119285E0E039F80791
:100DC000D9F7D0E0C0E08091960590919705C817BB
:100DD000D90774F540E06FE0CE010E949F04809136
:100DE000960590919705C817D9072CF447E06BE05A
:100DF000CE010E949F0440E069E0CE010E949F0462
:100E00008091960590919705C817D9071CF4CE01DB
:100E10000E94FD048091960590919705C817D90707
:100E20002CF440E06CE0CE010E949F042196CBCFD1
:100E300010923B0510923A0510923D0510923C0528
:100E400010923F0510923E0587E090E00E94410518
:100E500020913A0530913B05811120C021153105C3
:100E600019F0C9010E94DD0E10923B0510923A055F
:100E700010923F0510923E0510923D0510923C05E0
:100E80000E9485026093360570933705809338057C
:100E900090933905DF91CF910C94850287E090E023
:100EA00090933F0580933E0560EC73E0C9010E947A
:100EB0005910E6CFCF93DF9300D000D0CDB7DEB787
:100EC000789484B5826084BD84B5816084BD85B525
:100ED000826085BD85B5816085BD80916E00816031
:100EE00080936E00109281008091810082608093D7
:100EF00081008091810081608093810080918000D9
:100F00008160809380008091B10084608093B10003
:100F10008091B00081608093B000809191008260E8
:100F200080939100809191008160809391008091E5
:100F300090008160809390008091A10082608093F6
:100F4000A1008091A10081608093A1008091A00008
:100F500081608093A00080912101826080932101B3
:100F60008091210181608093210180912001816025
:100F70008093200180917A00846080937A00809130
:100F80007A00826080937A0080917A0081608093F9
:100F90007A0080917A00806880937A001092C10074
:100FA0002EE532E03A8329830EE412E0E981FA81EA
:100FB00080813296FA83E9830E946B01F801808177
:100FC0000E5F1F4F0E946B0129813A812E563240DD
:100FD00069F7E091A904F091AA0482E08083E0918E
:100FE000A504F091A6041082E091A704F091A80452
:100FF0008FEC80831092B104E091AD04F091AE04C7
:1010000086E08083E091AB04F091AC048081806144
:101010008083E091AB04F091AC0480818860808390
:10102000E091AB04F091AC04808180688083E09112
:10103000AB04F091AC0480818F7D80838091960514
:10104000909197051816190634F441E06CE090E091
:1010500080E00E949F048091960590919705181654
:10106000190634F448E06AE090E080E00E949F04B2
:1010700080919605909197051816190624F490E032
:1010800080E00E94FD04EE24EA94FE2C34E0432E1E
:10109000512C612C712C80EC93E00E94A7058823D1
:1010A00009F4B7C10E9485020091360510913705F9
:1010B0002091380530913905601B710B820B930B21
:1010C000683C7105810591059CF080918E0490919A
:1010D0008F04019690938F0480938E040E94850262
:1010E00060933605709337058093380590933905E2
:1010F000D12CC12C98E1892EC6010E94460410E033
:1011000000E08C9CC0018D9C900D1124FC01E259E3
:10111000FD4F5F0120918E0430918F043E832D831B
:101120002831310514F01E821D824D815E8150935D
:101130008F0440938E0490907E04992009F455C149
:10114000CA01800F911F68E170E00E94110EF50145
:10115000E80FF91F6081C8010E940C040F5F1F4F48
:1011600008301105B9F60E946D02FFEFCF1ADF0AB1
:1011700029E0C216D10409F0BFCF4D815E81440F32
:10118000551F5A83498310E000E088E1882E8D8145
:101190009E8109979C838B83A8E0AA2EB12CED81B8
:1011A000FE81AE1ABF0AB7E0CB2ED12C809EC001C3
:1011B000819E900D11249C0122593D4F19019920C7
:1011C00009F422C189819A818A0D9B1D883191057C
:1011D00024F08B819C818C199D09820D931DFC014B
:1011E0004081B601C8010E941D05F1E0CF1AD10867
:1011F0002FEFA21AB20A3FEFC316D30601F70F5F13
:101200001F4F0830110541F68FE20E94F1018090D6
:10121000740490907504A0907604B09077040197C0
:1012200009F030C389288A288B2851F40E9485024E
:10123000609374047093750480937604909377049C
:1012400081E30E94F1019A83898380917D04E98181
:10125000FA818E171F0651F00E948502609379046F
:1012600070937A0480937B0490937C040E9485029F
:1012700011E029813A81232B09F410E08090790450
:1012800090907A04A0907B04B0907C04681979094E
:101290008A099B096333710581059105A0F080914E
:1012A000780449815A818417150669F010937804EF
:1012B000452B49F480EC93E00E94A705882309F4AC
:1012C0002CC310927E0410937D0480E30E94F101F0
:1012D0009A83898380918404E981FA818E171F069D
:1012E00051F00E9485026093800470938104809382
:1012F0008204909383040E94850211E029813A813F
:10130000232B09F410E08090800490908104A09039
:101310008204B0908304681979098A099B096333B0
:10132000710581059105A8F080917F0449815A815A
:101330008417150671F010937F04452B51F480EC4F
:1013400093E00E94A705882309F4FEC281E0809300
:101350007E041093840482E30E94F1019A838983BE
:1013600080918B04E981FA818E171F0651F00E944B
:101370008502609387047093880480938904909316
:101380008A040E94850211E029813A81232B09F405
:1013900010E08090870490908804A0908904B09019
:1013A0008A04681979098A099B09633371058105E3
:1013B0009105B0F08091860449815A818417150601
:1013C00079F010938604452B59F488EC93E00E9441
:1013D000A705882309F4D0C287EE93E00E946F0529
:1013E00010938B040E94940356CEC801ED81FE81B8
:1013F0008E1B9F0B97FF04C0C80148968E1B9F0B46
:101400008A0D9B1DFC01A6CEC501B7FEE6CE48960F
:10141000E4CE88EC93E00E94A705882309F450C02D
:10142000FEE2CF2EF3E0DF2E560110E000E0C8010F
:101430000E9446041A821982E981FA81EA0DFB1D95
:10144000608189819A810E940C0449815A814F5F91
:101450005F4F5A8349834830510571F70E946D02EE
:101460000F5F1F4F50E1A50EB11C09301105F9F6B1
:1014700010E000E0EFE0AE2EB12C88E090E09A831F
:101480008983E981FA81EC0DFD1DB50129813A813D
:10149000621B730B4081C8010E941D0549815A815E
:1014A0004F5F5F4F5A8349834031510551F70F5FBA
:1014B0001F4F50E1C50ED11C08301105F1F6A4CE26
:1014C0008DEC93E00E94A705882309F49DCE8091BE
:1014D0008C0490918D04892B09F040C0009100028A
:1014E000109101020E5F1F4F10938D0400938C0426
:1014F000DD24D394101611068CF50E94560D20E1C0
:1015000030E040E050E00E94AE0D4B010E94560DCD
:10151000F401EC50FC4FFA83E983E059FF4F20813E
:101520002111E8CFA30192010E94AE0D6F5F7F4FA2
:101530008F4F9F4F90E080E029813A8120513109FF
:101540003A8329838617970734F4F901E058FF4F4F
:10155000D0820196F1CF01501109CCCF0E948502B3
:1015600000913605109137052091380530913905E5
:10157000601B710B820B930B683C71058105910513
:101580000CF496C080918E0490918F0401969093F4
:101590008F0480938E040E948502609336057093B9
:1015A0003705809338059093390544E052E05A831B
:1015B000498304E412E0E981FA81408151814F3F7F
:1015C000540709F469C0E981FA81228133812F3FF0
:1015D000320709F461C0CA010196FA0174E0EE0F06
:1015E000FF1F7A95E1F7EC5EFB4FE20FF31F60817E
:1015F000662309F401C1DA0164E0AA0FBB1F6A95F2
:10160000E1F7A20FB31F70E060E06F5F7F4FFA0158
:10161000E60FF71F38976CF4FB01E295F295F07F27
:10162000FE27E07FFE27EA0FFB1FEC50FC4F1082E5
:10163000ECCFF4E0880F991FFA95E1F78C509C4F9E
:10164000820F931FFC011082E981FA81F182E0820E
:10165000F382E28280918C0490918D0401979093A3
:101660008D0480938C04892BB9F4D09085048091EB
:101670000002909101020196909301028093000272
:101680000E94C50382E190E0D11002C08DEF9FEF70
:10169000909303028093020229813A812C5F3F4F8D
:1016A0003A8329830217130709F085CF0E94C503E7
:1016B000809102029091030220918504222309F473
:1016C000B4C08031910528F421E0FC01EC50FC4FBE
:1016D00020838031910528F421E0FC01EC50FC4F7F
:1016E000208B9C01215031092031310528F42C50E8
:1016F0003C4F41E0F901408B9C01225031092031DF
:10170000310528F42C503C4F41E0F901408B97FF04
:1017100002C082E190E09093030280930202A4E071
:10172000B2E021E0ED91FC911197EF3FFE0789F0C7
:1017300012968D919C9113978F3F980751F064E01A
:10174000EE0FFF1F6A95E1F7EC5FFB4FE80FF91F03
:101750002083149652E0A434B50721F754EFC52E28
:1017600053E0D52E560110E000E0C8010E94460467
:101770001A821982E981FA81EA0DFB1D6081898153
:101780009A810E940C0489819A8101969A838983A7
:10179000089781F70E946D020F5F1F4F90E1A90E1D
:1017A000B11C0930110509F710E000E04FE0A42E4C
:1017B000B12CE8E0F0E0FA83E983E981FA81EC0DED
:1017C000FD1DB50129813A81621B730B4081C8015F
:1017D0000E941D0549815A814F5F5F4F5A8349839B
:1017E0004031510551F70F5F1F4F50E1C50ED11C1D
:1017F00008301105F1F608CDBC01E4E0660F771F53
:10180000EA95E1F76C507C4F620F731FFB01108269
:10181000E981FA81463051052CF0F182E082F382B1
:10182000E2823ACF9183808337CF8031910528F4CB
:1018300021E0FC01EC50FC4F20838031910528F41D
:1018400021E0FC01EC50FC4F208B9C012F5F3F4FAF
:101850002031310528F42C503C4F41E0F901408BF8
:101860009C012E5F3F4F2031310528F42C503C4F16
:1018700041E0F901408B813191050CF44CCF8DEFA3
:101880009FEF49CF81149104A104B10409F4D8CC8D
:101890000E9485029B01AC01281939094A095B099C
:1018A00049015A0110927404109275041092760442
:1018B0001092770480EC93E00E94A705882349F0FA
:1018C00088EC93E030ED831637E09306A104B10471
:1018D00008F58DEC93E00E94A705882339F040EDD0
:1018E000841647E09406A104B10490F483ED93E0DC
:1018F0000E94A705882309F4A3CC50ED851657E074
:101900009506A104B10408F49BCC8DEC93E002C0D1
:1019100083ED93E00E946F0593CC88EC93E00E94E6
:10192000A705882329F089ED93E00E946F05CBCCB1
:101930008DEC93E00E94A705882309F4C4CC0E9493
:10194000C50310928504BFCC88EC93E00E94A705E4
:10195000882329F08DEC93E00E946F05FACC8DEC82
:1019600093E00E94A705882309F4F3CC0E94C503E5
:1019700081E080938504EDCC8DEC93E00E94A70577
:10198000882309F42DCDE4E0F2E080819181019675
:1019900069F582819381019649F5809102029091C7
:1019A00003022091850449815A81440F551F440F39
:1019B000551F5A834983222399F0FA01EC5FFD4FAA
:1019C00001979383828389819A818C5F9D4F9A834B
:1019D000898381E090E0E981FA819183808300CD61
:1019E000E981FA81EC5FFD4F0196EBCF29813A81C5
:1019F0002F5F3F4F3A83298334962031310529F6F2
:101A0000EFCC80913A0590913B05009711F00C9432
:101A1000DD0E08958F929F92AF92BF92CF92DF9288
:101A2000EF92FF92CF93DF93EC01688179818A81F5
:101A30009B81611571058105910521F464E279EDC1
:101A40008BE597E02DE133EF41E050E00E94AE0DD1
:101A500049015A019B01AC01A7EAB1E40E94CD0DF6
:101A60006B017C01ACEEB4EFA50194010E94DB0D8B
:101A7000C60ED71EE81EF91EF7FE06C081E0C81A82
:101A8000D108E10880E8F80AC882D982EA82FB829C
:101A9000C701B6019F77DF91CF91FF90EF90DF9064
:101AA000CF90BF90AF909F908F9008958F929F920C
:101AB000AF92BF92CF92DF92EF92FF926091440279
:101AC000709145028091460290914702611571051F
:101AD0008105910521F464E279ED8BE597E02DE134
:101AE00033EF41E050E00E94AE0D49015A019B01E5
:101AF000AC01A7EAB1E40E94CD0D6B017C01ACEE14
:101B0000B4EFA50194010E94DB0DC60ED71EE81E9E
:101B1000F91EF7FE06C081E0C81AD108E10880E886
:101B2000F80AC0924402D0924502E0924602F09236
:101B30004702C701B6019F77FF90EF90DF90CF90EB
:101B4000BF90AF909F908F900895609344027093E0
:101B5000450280934602909347020895052E97FB15
:101B60001EF400940E94C50D57FD07D00E94E00DA1
:101B700007FC03D04EF40C94C50D5095409530955C
:101B800021953F4F4F4F5F4F0895909580957095E9
:101B900061957F4F8F4F9F4F08950E94020EA59F22
:101BA000900DB49F900DA49F800D911D1124089558
:101BB000B7FF0C94CD0D0E94CD0D821B930B0895A1
:101BC000A1E21A2EAA1BBB1BFD010DC0AA1FBB1F41
:101BD000EE1FFF1FA217B307E407F50720F0A21BB3
:101BE000B30BE40BF50B661F771F881F991F1A9420
:101BF00069F760957095809590959B01AC01BD014A
:101C0000CF010895A29FB001B39FC001A39F700DA3
:101C1000811D1124911DB29F700D811D1124911DF4
:101C2000089597FB072E16F4009407D077FD09D08E
:101C30000E942D0E07FC05D03EF4909581959F4F94
:101C40000895709561957F4F0895EE0FFF1F881FCF
:101C50008BBF0790F691E02D1994AA1BBB1B51E195
:101C600007C0AA1FBB1FA617B70710F0A61BB70B0C
:101C7000881F991F5A95A9F780959095BC01CD01B1
:101C800008950F931F93CF93DF938230910510F443
:101C900082E090E0E0919A05F0919B0530E020E031
:101CA000B0E0A0E0309799F42115310509F44AC05D
:101CB000281B390B24303105D8F58A819B816115A9
:101CC000710589F1FB0193838283FE0111C040817C
:101CD00051810281138148175907E0F048175907CD
:101CE00099F4109761F012960C93129713961C9327
:101CF0003296CF01DF91CF911F910F9108950093FC
:101D00009A0510939B05F4CF2115310551F0421728
:101D1000530738F0A901DB019A01BD01DF01F80189
:101D2000C1CFEF01F9CF90939B0580939A05CDCF5A
:101D3000FE01E20FF31F8193919322503109398301
:101D40002883D7CF2091980530919905232B41F412
:101D500020914A0230914B023093990520939805C7
:101D600020914802309149022115310541F42DB7E7
:101D70003EB740914C0250914D02241B350BE0912F
:101D80009805F0919905E217F307A0F42E1B3F0B7D
:101D90002817390778F0AC014E5F5F4F24173507DD
:101DA00048F04E0F5F1F509399054093980581931B
:101DB00091939FCFF0E0E0E09CCFCF93DF9300972B
:101DC000E9F0FC01329713821282A0919A05B0913A
:101DD0009B05ED0130E020E01097A1F420813181D6
:101DE000820F931F20919805309199052817390784
:101DF00009F061C0F0939905E0939805DF91CF91C8
:101E00000895EA01CE17DF07E8F54A815B819E015C
:101E100041155105B1F7E901FB83EA8349915991D5
:101E2000C40FD51FEC17FD0761F4808191810296E4
:101E3000840F951FE90199838883828193819B8315
:101E40008A83F0E0E0E012968D919C9113970097C1
:101E5000B9F52D913C911197CD010296820F931FF8
:101E600020919805309199052817390739F6309750
:101E700051F510929B0510929A05B0939905A09385
:101E80009805BCCFD383C28340815181840F951FB5
:101E9000C817D90761F44E5F5F4F88819981480F59
:101EA000591F518340838A819B81938382832115AB
:101EB000310509F0B0CFF0939B05E0939A059ECFD2
:101EC000FD01DC01C0CF13821282D7CF4F925F9207
:101ED0006F927F928F929F92AF92BF92CF92DF923A
:101EE000EF92FF920F931F93CF93DF938C01009794
:101EF00099F4CB01DF91CF911F910F91FF90EF905B
:101F0000DF90CF90BF90AF909F908F907F906F9019
:101F10005F904F900C94410EFC01E60FF71F9C015F
:101F200022503109E217F30708F4AEC0D901CD9170
:101F3000DC911197C617D70720F1C530D10578F08D
:101F4000CE0104978617970750F0C61BD70B229730
:101F5000C193D1936D937C93CF010E94DD0EC80194
:101F6000DF91CF911F910F91FF90EF90DF90CF9075
:101F7000BF90AF909F908F907F906F905F904F90A9
:101F800008955B01AC1ABD0A4C018C0E9D1EA091F8
:101F90009A05B0919B05512C412CF12CE12C109706
:101FA00031F580919805909199058815990509F06A
:101FB0005CC04616570608F058C0809148029091C0
:101FC0004902009741F48DB79EB740914C02509161
:101FD0004D02841B950BE817F90708F055C0F093E4
:101FE0009905E0939805F90171836083B8CF8D91CD
:101FF0009C91119712966C90129713967C90139760
:10200000A815B90559F56C0142E0C40ED11CCA14DB
:10201000DB0420F1AC014A195B09DA01129615972D
:1020200080F06282738251834083D9016D937C93E7
:10203000E114F10471F0D7011396FC93EE9312971B
:102040008ECF22968C0F9D1FF90191838083F3011F
:10205000EFCFF0939B05E0939A0581CF4816590680
:1020600008F42C017D01D3019ACFCB010E94410ECF
:102070007C01009749F0AE01B8010E944710C801E9
:102080000E94DD0E87016BCF10E000E068CFFB01FE
:10209000DC0102C001900D9241505040D8F70895E4
:1020A000FB01DC018D91019080190110D9F3990B8E
:1020B0000895FB01DC0101900D920020E1F70895E5
:1020C00011E0C7E3D1E000E006C0802FFE010E94CE
:1020D000250E2196011DC833D10780E00807A9F716
:1020E000F894FFCF0100FDFFFFFFFFFFFFFFFFFFA1
:1020F000FFFFFFFFFFFFFFFFFFFFFFFFFFFFFFFFF0
:10210000FFFFFFFFFFFFFFFFFFFFFFFFFFFFFFFFDF
:10211000FFFFFFFFFFFFFFFFFFFFFFFFFFFFFFFFCF
:10212000FFFFFFFFFFFFFFFF0100000000009C0515
:1021300080002500240023002200210020001F0031
:102140001E001D001C001B001A00190018001700BB
:102150001600010000000100000101010000010063
:10216000000000000001010100000100000001006A
:10217000010000000100010000000000010000005B
:102180000100010000000100010000000100010049
:102190000000000001000000010001010101010038
:1021A000010000000100010000000000010000002B
:1021B0000100010101010100010000000100010016
:1021C0000000000001010101010001000000010008
:1021D00001000000010001000000000001000000FB
:1021E00001000100000001000100000001000100E9
:1021F00000000000010000000100010000000100DB
:1022000000010101000001010101010001000000C5
:1022100001000000000000010101010101000000B7
:1022200000000000000000010101010101000000A8
:102230000000000100000001000101010100000197
:102240000100000101010001000101000100010085
:10225000000000000000000100000100010001007A
:10226000000000000100000100000000010000016A
:102270000100000000000001010101010100000057
:102280000000000000000001010101010100000048
:1022900000000000000027039102BE027403EF0259
:1022A000CD02E1024D454E53414A45004D454E5544
:1022B000004A5547415200504155534100434F4E4B
:1022C00046494755524143494F4E004553544144B6
:0822D000495354494341000049
:020000040003F7
:10E000000D9489F10D94B2F10D94B2F10D94B2F129
:10E010000D94B2F10D94B2F10D94B2F10D94B2F1F0
:10E020000D94B2F10D94B2F10D94B2F10D94B2F1E0
:10E030000D94B2F10D94B2F10D94B2F10D94B2F1D0
:10E040000D94B2F10D94B2F10D94B2F10D94B2F1C0
:10E050000D94B2F10D94B2F10D94B2F10D94B2F1B0
:10E060000D94B2F10D94B2F10D94B2F10D94B2F1A0
:10E070000D94B2F10D94B2F10D94B2F10D94B2F190
:10E080000D94B2F10D94B2F10D94B2F10D94B2F180
:10E090000D94B2F10D94B2F10D94B2F10D94B2F170
:10E0A0000D94B2F10D94B2F10D94B2F10D94B2F160
:10E0B0000D94B2F10D94B2F10D94B2F10D94B2F150
:10E0C0000D94B2F10D94B2F10D94B2F10D94B2F140
:10E0D0000D94B2F10D94B2F10D94B2F10D94B2F130
:10E0E0000D94B2F141546D656761323536300041AF
:10E0F000726475696E6F206578706C6F72657220DE
:10E1000073746B3530305632206279204D4C530099
:10E11000426F6F746C6F616465723E004875683F52
:10E1200000436F6D70696C6564206F6E203D200048
:10E130004350552054797065202020203D20005FF9
:10E140005F4156525F415243485F5F3D2000415658
:10E1500052204C696243205665723D20004743437C
:10E160002056657273696F6E203D20004350552024
:10E1700049442020202020203D20004C6F7720663D
:10E18000757365202020203D20004869676820665F
:10E190007573652020203D200045787420667573D6
:10E1A00065202020203D20004C6F636B2066757336
:10E1B000652020203D20004D617220203720323024
:10E1C000313300312E362E3800342E332E350056A2
:10E1D00023202020414444522020206F7020636F70
:10E1E00064652020202020696E73747275637469E1
:10E1F0006F6E2061646472202020496E74657272B3
:10E20000757074006E6F20766563746F7200726A49
:10E210006D702020006A6D70200057686174207056
:10E220006F72743A00506F7274206E6F7420737541
:10E2300070706F72746564004D7573742062652030
:10E2400061206C6574746572002000577269747483
:10E25000696E672045450052656164696E672045B7
:10E26000450045452065727220636E743D00504F35
:10E27000525400303D5A65726F2061646472003FF1
:10E280003D43505520737461747300403D454550C3
:10E29000524F4D207465737400423D426C696E6B41
:10E2A000204C454400453D44756D70204545505215
:10E2B0004F4D00463D44756D7020464C415348001B
:10E2C000483D48656C70004C3D4C69737420492F83
:10E2D0004F20506F72747300513D51756974005234
:10E2E0003D44756D702052414D00563D73686F7707
:10E2F00020696E7465727275707420566563746FF0
:10E30000727300593D506F727420626C696E6B00BD
:10E310002A0011241FBECFEFD1E2DEBFCDBF01E046
:10E320000CBF12E0A0E0B2E0EEE1FDEF03E00BBFB6
:10E3300002C007900D92A030B107D9F712E0A0E01B
:10E34000B2E001C01D92AE30B107E1F70F9460F367
:10E350000D948DFE01E20EBF0FEF0DBF11241FBE05
:10E360000D9460F30D9400F020E030E040ED57E0B4
:10E3700005C0FA013197F1F72F5F3F4F2817390792
:10E38000C0F308959C01260F311DC901A0E0B0E043
:10E390002F5F3F4FABBFFC018791882361F08093D3
:10E3A000C6008091C00086FFFCCF8091C0008064D1
:10E3B0008093C000EACF08958DE08093C6008091DD
:10E3C000C00086FFFCCF8091C00080648093C000B5
:10E3D0008AE08093C6008091C00086FFFCCF8091C8
:10E3E000C00080648093C00008950F94C2F10F9420
:10E3F000DCF10895FC019081992359F09093C600B7
:10E400008091C00086FFFCCF8091C0008064809323
:10E41000C0003196992379F70895282F982F929567
:10E420009F70892F805D8A3308F0895F8093C600D2
:10E430008091C00086FFFCCF8091C00080648093F3
:10E44000C000822F8F70982F905D9A3308F0995FEB
:10E450009093C6008091C00086FFFCCF8091C000E1
:10E4600080648093C00008959C01FB01853691056E
:10E470001CF46330710594F0C90164E670E00F94F8
:10E480002EFE605D7F4F6093C6008091C00086FFC6
:10E49000FCCF8091C00080648093C0002B30310598
:10E4A00014F43297B4F0C90164E670E00F942EFEC4
:10E4B0006AE070E00F942EFE605D7F4F6093C600AF
:10E4C0008091C00086FFFCCF8091C0008064809363
:10E4D000C000C9016AE070E00F942EFEC0968093E0
:10E4E000C6008091C00086FFFCCF8091C000806490
:10E4F0008093C00008951F93182F8EE692EE60E07F
:10E500000F94C2F11093C6008091C00086FFFCCF2B
:10E510008091C00080648093C0000F94DCF11F9153
:10E5200008952F923F924F925F926F927F928F92B7
:10E530009F92AF92BF92CF92DF92EF92FF920F9392
:10E540001F93DF93CF93CDB7DEB762970FB6F894E2
:10E55000DEBF0FBECDBF382E622ECA01DB015C01CB
:10E560006D01772420E2222E2E010894411C511CBB
:10E570008BC081E0A81680E0B80681E0C80680E084
:10E58000D80628F0C601AA27BB270F940DF2BB2797
:10E59000AD2D9C2D8B2D0F940DF28A2D0F940DF225
:10E5A0002092C6008091C00086FFFCCF8091C00001
:10E5B00080648093C0009DE29093C6008091C0006B
:10E5C00086FFFCCF8091C00080648093C0002092C1
:10E5D000C6008091C00086FFFCCF8091C00080649F
:10E5E0008093C00019828601750188249924A1E0D6
:10E5F0003A1651F03A1620F0B2E03B1661F409C029
:10E600000BBFF701779007C0C7010F9477FE782EF4
:10E6100002C0F7017080872D0F940DF22092C60082
:10E620008091C00086FFFCCF8091C0008064809301
:10E63000C000872D8052F401EF70F0708F3520F408
:10E64000E40DF51D708204C0E40DF51D8EE280839B
:10E650000894E11CF11C011D111D0894811C911CE2
:10E6600090E18916910409F0C2CF80E190E0A0E02A
:10E67000B0E0A80EB91ECA1EDB1E198AC2010F9493
:10E68000FAF10F94DCF16A94662009F072CF629679
:10E690000FB6F894DEBF0FBECDBFCF91DF911F91B3
:10E6A0000F91FF90EF90DF90CF90BF90AF909F9031
:10E6B0008F907F906F905F904F903F902F90089534
:10E6C0002F923F924F925F926F927F928F929F9282
:10E6D000AF92BF92CF92DF92EF92FF920F931F9370
:10E6E000DF93CF93CDB7DEB7CD53D1400FB6F894BB
:10E6F000DEBF0FBECDBF01E20EBF0FEF0DBF94B75F
:10E70000F894A89514BE80916000886180936000A1
:10E7100010926000789493FF05C0E0910002F091A0
:10E7200001021995279A2F9A8091C00082608093E8
:10E73000C00080E18093C40088E18093C1000000A4
:10E74000EE24FF24870144E0A42EB12CCC24DD2448
:10E7500024C0C5010197F1F70894E11CF11C011DCB
:10E76000111D21E2E2162EE4F20620E0020720E06D
:10E77000120718F031E0C32ED12CC801B70127ECE5
:10E780003BE140E050E00F9441FE611571058105C9
:10E79000910519F485B1805885B98091C00087FD35
:10E7A00003C0C114D104A9F2A6014F5F5F4FC25E3E
:10E7B000DE4F59834883CE51D140C25EDE4F8881FF
:10E7C0009981CE51D140019711F00D9410FEC05D9A
:10E7D000DE4F19821882C053D14060E0C15DDE4F28
:10E7E0001882CF52D14088249924C35DDE4F19820C
:10E7F0001882CD52D140C05EDE4F188219821A8233
:10E800001B82C052D140CE5CDE4F188219821A8220
:10E810001B82C253D140EE24FF2487010BBFF701B6
:10E8200007911691C45CDE4F19830883CC53D14005
:10E830000D940BFEC25EDE4F28813981CE51D1404E
:10E840002130310509F52091C600C25EDE4F1982E4
:10E850001882CE51D14022C02F5F3F4F4F4F5F4FA4
:10E86000213082E138078AE7480780E0580780F0C6
:10E87000C45CDE4FE881F981CC53D140EF5FFF4F9C
:10E8800019F0EE27FF27099420E030E040E050E047
:10E890008091C00087FFE0CF2091C600C35DDE4FAE
:10E8A00048815981CD52D1404F5F5F4FC35DDE4FEC
:10E8B00059834883CD52D140213209F063C64A3092
:10E8C000510508F05FC60894811C911C53E0851621
:10E8D000910409F059C600E010E018C081E280936D
:10E8E000C6008091C00086FFFCCF8091C00080648C
:10E8F0008093C0002F5F3F4F2931310579F70F9486
:10E90000DCF10F5F1F4F0530110519F020E030E0FA
:10E91000E5CF10920A0210920B0210920C02109294
:10E920000D02109206021092070210920802109235
:10E930000902109202021092030210920402109235
:10E9400005028FEE90EE60E00F94F5F180E191EE1C
:10E9500060E00F94C2F18091C00087FFFCCF9091DE
:10E96000C600903608F09F759032B8F09093C600BC
:10E970008091C00086FFFCCF8091C00080648093AE
:10E98000C000A0E2A093C6008091C00086FFFCCF2B
:10E990008091C00080648093C000983409F4D7C18E
:10E9A0009934B8F4923409F459C1933458F490333B
:10E9B00019F1903308F4E3C59F33A1F1903409F0C5
:10E9C000DEC5BDC0953409F470C1963409F0D7C5D1
:10E9D00098C1923509F42BC2933538F49C3409F46C
:10E9E000F5C1913509F0CBC518C2963509F445C279
:10E9F000993509F0C4C567C483E792EE62E00F94CD
:10EA0000F5F110920602109207021092080210927D
:10EA1000090210920A0210920B0210920C0210923C
:10EA20000D0213C18FE792EE62E00F94F5F18FEEC5
:10EA300090EE60E00F94F5F181E291EE60E00F94CA
:10EA4000C2F187EB91EE60E00F94F5F180E391EE77
:10EA500060E00F94C2F184EE90EE60E00F94F5F167
:10EA60008FE391EE60E00F94C2F186E090E061E008
:10EA700070E00F9434F20F94DCF18DE591EE60E0DC
:10EA80000F94C2F189EC91EE60E00F94F5F18EE401
:10EA900091EE60E00F94C2F183EC91EE60E00F9490
:10EAA000F5F18CE691EE60E00F94C2F18EE10F94E7
:10EAB0000DF288E90F940DF281E00F940DF20F949E
:10EAC000DCF18BE791EE60E00F94C2F119E0E0E039
:10EAD000F0E010935700E4918E2F0F940DF20F94F5
:10EAE000DCF18AE891EE60E00F94C2F1E3E0F0E03F
:10EAF00010935700E4918E2F0F940DF20F94DCF1D8
:10EB000089E991EE60E00F94C2F1E2E0F0E0109349
:10EB10005700E4918E2F0F940DF20F94DCF188EAE8
:10EB200091EE60E00F94C2F1E1E0F0E01093570045
:10EB30001491812F0F940DF20F94DCF107CF8BE825
:10EB400092EE62E00F94F5F18BE492EE60E00F94A8
:10EB5000F5F10F94DCF100E010E019C0C8016F2D51
:10EB60000F947FFEFF2031F489E492EE60E00F9471
:10EB7000C2F10BC0F092C6008091C00086FFFCCFAE
:10EB80008091C00080648093C0000F5F1F4FC80158
:10EB900081519F41A0E0B0E0ABBFFC01F790BAE229
:10EBA000FB1621F0E2E000301E07C1F60F94DCF105
:10EBB0000F94DCF187E592EE60E00F94F5F10F948D
:10EBC000DCF1CC24DD2400E010E01EC0C8010F946D
:10EBD00077FEF82E882331F489E492EE60E00F94FA
:10EBE000C2F10BC08093C6008091C00086FFFCCFAD
:10EBF0008091C00080648093C000FE1419F00894D6
:10EC0000C11CD11C0F5F1F4FC80181519F41A0E063
:10EC1000B0E0ABBFFC01E790FAE2EF1621F022E092
:10EC20000030120799F60F94DCF10F94DCF182E6C4
:10EC300092EE60E00F94C2F1C60161E070E00F94C3
:10EC400034F20F94DCF10F94DCF110920202109276
:10EC50000302109204021092050278CE89E992EE26
:10EC600062E00F94F5F1279A2F9A16C02F9880E052
:10EC700090E0E0EDF7E03197F1F7019684369105E9
:10EC8000C1F72F9A80E090E0E0EDF7E03197F1F7DF
:10EC9000019684369105C1F78091C00087FFE6CFC9
:10ECA0008091C00087FFFCCF64C485EA92EE62E0E9
:10ECB0000F94F5F140910202509103026091040219
:10ECC0007091050281E020E10F9491F2809102029F
:10ECD00090910302A0910402B091050280509F4FD1
:10ECE000AF4FBF4F8093020290930302A0930402A0
:10ECF000B093050280509041A040B04008F426CE69
:10ED0000A4CF83EB92EE62E00F94F5F140910602FE
:10ED100050910702609108027091090280E020E1A1
:10ED20000F9491F28091060290910702A09108023F
:10ED3000B091090280509F4FAF4FBF4F80930602A2
:10ED400090930702A0930802B0930902FFCD80ECD4
:10ED500092EE62E00F94F5F183E792EE60E00F949B
:10ED6000F5F18FE792EE60E00F94F5F18BE892EE0B
:10ED700060E00F94F5F189E992EE60E00F94F5F10F
:10ED800085EA92EE60E00F94F5F183EB92EE60E09D
:10ED90000F94F5F180EC92EE60E00F94F5F187ECC2
:10EDA00092EE60E00F94F5F188ED92EE60E00F9442
:10EDB000F5F18FED92EE60E00F94F5F18AEE92EEB0
:10EDC00060E00F94F5F183E093EEBDCD87EC92EE19
:10EDD00062E00F94F5F181E40F947BF282E40F94EA
:10EDE0007BF283E40F947BF284E40F947BF285E45E
:10EDF0000F947BF286E40F947BF287E40F947BF20E
:10EE000088E40F947BF28AE40F947BF28BE40F94F6
:10EE10007BF28CE40F947BF299CD88ED92EE62E068
:10EE20000F94F5F1772473948824992409C48FED05
:10EE300092EE62E00F94F5F140910A0250910B02BC
:10EE400060910C0270910D0282E020E10F9491F22A
:10EE500080910A0290910B02A0910C02B0910D02D8
:10EE600080509F4FAF4FBF4F80930A0290930B0289
:10EE7000A0930C02B0930D0269CD8AEE92EE62E08F
:10EE80000F94F5F184EE90EE60E00F94F5F18FECC5
:10EE900091EE60E00F94F5F1662477244301CC5D98
:10EEA000DE4F19821882C452D140D401C301B695F5
:10EEB000A79597958795CA5DDE4F88839983AA8326
:10EEC000BB83C652D140CC5DDE4FA881B981C4520C
:10EED000D1401196CC5DDE4FB983A883C452D14096
:10EEE000CD0162E070E00F9434F2B0E2B093C6005E
:10EEF0008091C00086FFFCCF8091C0008064809329
:10EF0000C000EDE2E093C6008091C00086FFFCCF18
:10EF10008091C00080648093C000F0E2F093C6004E
:10EF20008091C00086FFFCCF8091C00080648093F8
:10EF3000C000CA5DDE4FE880F9800A811B81C6529D
:10EF4000D140BB27A12F902F8F2D0F940DF2CA5DBA
:10EF5000DE4F8881C652D1400F940DF2B0E2FB2EF5
:10EF6000F092C6008091C00086FFFCCF8091C00067
:10EF700080648093C0000DE30093C6008091C000C0
:10EF800086FFFCCF8091C00080648093C00010E2B7
:10EF90001093C6008091C00086FFFCCF8091C00016
:10EFA00080648093C0008BBEF3012791C65DDE4F65
:10EFB0002883CA52D140A22EBB24CC24DD2408943D
:10EFC000611C711C811C911C8BBEF3018791282E42
:10EFD0003324442455240894611C711C811C911C09
:10EFE0008BBEF3013791C55DDE4F3883CB52D140E4
:10EFF0000894611C711C811C911C8BBEF30147910C
:10F00000C45DDE4F4883CC52D140ADEFEA2EAFEF66
:10F01000FA2EAFEF0A2FAFEF1A2F6E0C7F1C801E57
:10F02000911E142D032DF22CEE24EA0CFB1C0C1D5A
:10F030001D1D0F940DF220E22093C6008091C000A8
:10F0400086FFFCCF8091C00080648093C000C65DC5
:10F05000DE4F8881CA52D1400F940DF230E23093D6
:10F06000C6008091C00086FFFCCF8091C000806404
:10F070008093C000C45DDE4F8881CC52D1400F9494
:10F080000DF240E24093C6008091C00086FFFCCFA5
:10F090008091C00080648093C000C55DDE4F888190
:10F0A000CB52D1400F940DF250E25093C6008091A4
:10F0B000C00086FFFCCF8091C00080648093C000B8
:10F0C0008FEFE8168FEFF80680E0080780E018075A
:10F0D00031F484E092EE60E00F94C2F1DFC0D80119
:10F0E000C7018070907CA070B0708050904CA040A0
:10F0F000B040D1F52FEF3FE340E050E0E222F322B1
:10F1000004231523CA5DDE4FA880B980CA80DB8046
:10F11000C652D140AE0CBF1CC01ED11EAA0CBB1CD7
:10F12000CC1CDD1C8EE092EE60E00F94C2F1BB2798
:10F13000A12F902F8F2D0F940DF28E2D0F940DF285
:10F1400030E23093C6008091C00086FFFCCF8091F2
:10F15000C00080648093C0004EE34093C60080915D
:10F16000C00086FFFCCF87C08EE09EEFA0E0B0E03D
:10F17000E822F9220A231B239CE0E91694E9F90608
:10F1800090E0090790E0190709F088C0C45DDE4FE0
:10F19000A881CC52D140EA2EFF2400E010E0102FCD
:10F1A0000F2DFE2CEE24C55DDE4FB881CB52D14031
:10F1B000EB0EF11C011D111DD601C501817090706F
:10F1C000A070B070DC0199278827E80EF91E0A1F8D
:10F1D0001B1F20EF30E040E050E0A222B322C42207
:10F1E000D52241E1AA0CBB1CCC1CDD1C4A95D1F7F1
:10F1F000EA0CFB1C0C1D1D1D81E090E0A0E0B0E0BE
:10F20000282239224A225B2235E1220C331C441C7D
:10F21000551C3A95D1F7E20CF31C041D151D57013E
:10F220006801AA0CBB1CCC1CDD1C85E192EE60E0E1
:10F230000F94C2F1C801AA27BB270F940DF2BB2778
:10F24000A12F902F8F2D0F940DF28E2D0F940DF274
:10F2500090E29093C6008091C00086FFFCCF809121
:10F26000C00080648093C000AEE3A093C60080918C
:10F27000C00086FFFCCF8091C00080648093C000F6
:10F28000C601AA27BB270F940DF2BB27AD2D9C2DDD
:10F290008B2D0F940DF28A2D0F940DF20F94DCF14B
:10F2A000CC5DDE4FE881F981C452D140F99709F471
:10F2B0004DCBF4E0EF2EF12C012D112D6E0C7F1CA7
:10F2C000801E911EF2CD83E093EE62E00F94F5F183
:10F2D0008AE192EE60E00F94C2F18091C00087FF56
:10F2E000FCCF1091C6001F751093C6008091C0001E
:10F2F00086FFFCCF8091C00080648093C0000F9493
:10F30000DCF1812F81548A3108F036C1163409F4BA
:10F3100095C0173490F4133409F44EC0143430F40B
:10F320001134F1F0123409F01DC130C0143409F465
:10F3300059C0153409F016C16BC01A3409F4C4C0A1
:10F340001B3438F4173409F48FC0183409F00AC19B
:10F35000A1C01B3409F4D2C01C3409F003C1E8C0B9
:10F360008FEF81B90DC082B1809582B980E090E0C5
:10F37000E0EDF7E03197F1F70196883C9105C1F790
:10F380008091C00087FFEFCF12B8EFC08FEF84B934
:10F390000DC085B1809585B980E090E0E0EDF7E0A3
:10F3A0003197F1F70196883C9105C1F78091C00033
:10F3B00087FFEFCF15B8D9C08FEF87B90DC088B1DF
:10F3C000809588B980E090E0E0EDF7E03197F1F7C3
:10F3D0000196883C9105C1F78091C00087FFEFCF6F
:10F3E00018B8C3C08FEF8AB90DC08BB180958BB9A7
:10F3F00080E090E0E0EDF7E03197F1F70196883C8E
:10F400009105C1F78091C00087FFEFCF1BB8ADC059
:10F410008FEF8DB90DC08EB180958EB980E090E0F0
:10F42000E0EDF7E03197F1F70196883C9105C1F7DF
:10F430008091C00087FFEFCF1EB897C08FEF80BBD1
:10F440000DC081B3809581BB80E090E0E0EDF7E0F6
:10F450003197F1F70196883C9105C1F78091C00082
:10F4600087FFEFCF11BA81C08FEF83BB0DC084B38C
:10F47000809584BB80E090E0E0EDF7E03197F1F714
:10F480000196883C9105C1F78091C00087FFEFCFBE
:10F4900014BA6BC08FEF809301010FC080910201FD
:10F4A00080958093020180E090E0E0EDF7E03197F5
:10F4B000F1F70196883C9105C1F78091C00087FF64
:10F4C000EDCF1092020151C08FEF809304010FC065
:10F4D0008091050180958093050180E090E0E0ED4A
:10F4E000F7E03197F1F70196883C9105C1F78091DB
:10F4F000C00087FFEDCF1092050137C08FEF8093DA
:10F5000007010FC08091080180958093080180E079
:10F5100090E0E0EDF7E03197F1F70196883C910536
:10F52000C1F78091C00087FFEDCF109208011DC088
:10F530008FEF80930A010FC080910B01809580931B
:10F540000B0180E090E0E0EDF7E03197F1F70196F4
:10F55000883C9105C1F78091C00087FFEDCF1092E4
:10F560000B0103C085E292EEEEC98091C00087FFD7
:10F57000FCCF8091C600EAC988E392EEE4C98CE131
:10F5800091EEE1C988249924933011F1943028F444
:10F59000913089F09230B8F408C0953061F195301F
:10F5A000F0F0963009F048C043C02B3109F042C951
:10F5B00091E06BE13FC96227C15DDE4F2883CF52E6
:10F5C000D14092E037C9B22FA0E0622793E032C960
:10F5D000822F90E0A82BB92B622794E02BC92E3004
:10F5E00009F039C3622795E0C05DDE4F19821882A9
:10F5F000C053D1401FC9E1E0F0E0EC0FFD1FC05D3A
:10F60000DE4F08811981C053D140E00FF11F2083E4
:10F610000F5F1F4FC05DDE4F19830883C053D14079
:10F6200062270A171B0709F005C9D80196E002C92D
:10F63000261709F010C303C0973009F0FBC87724E0
:10F640009981933109F412C19431C8F4963009F4C8
:10F65000D8C0973050F4923009F406C1933009F4C1
:10F660006DC0913009F059C253C0913109F477C08F
:10F67000923108F0BBC0903109F04FC2F5C098310B
:10F6800009F487C0993150F4953109F4EFC09531F0
:10F6900008F4C6C1963109F040C2C2C19A3109F4DA
:10F6A0006CC09A3108F491C09B3109F45BC09D3164
:10F6B00009F033C29D81903359F48F81882311F46E
:10F6C0009EE11CC0813011F091E018C098E916C08D
:10F6D000892F807591F0903539F4E0E0F0E089E011
:10F6E0008093570094910AC0983539F4E3E0F0E034
:10F6F00089E080935700949101C090E01A821B82A8
:10F700008D818C831D829E831F8227E030E009C299
:10F710001A8288E08B8381E48C8386E58D8382E581
:10F720008E8389E48F8383E5888780E589878FE5E9
:10F730008A8782E38B872BE030E0F3C18A818139AD
:10F7400041F0823941F0803911F48FE005C080E04A
:10F7500003C082E001C08AE01A828B8344C0772410
:10F76000739482C08D81882311F48EE12CC0813086
:10F7700011F081E028C088E926C01A82E1E0F0E0BB
:10F7800089E08093570084918B831C8224E030E0D1
:10F79000C8C18B81803589F48C81883039F4E2E0EE
:10F7A000F0E089E08093570084910DC0E0E0F0E044
:10F7B00089E080935700849106C0E3E0F0E089E09F
:10F7C0008093570084911A82DFCF8D81836C99E0FA
:10F7D000E1E0F0E0082E90935700E89507B600FCB2
:10F7E000FDCF1A821B8223E030E09BC180EC8A832C
:10F7F000CE5CDE4F188219821A821B82C253D1401E
:10F800008EC18A8190E0A0E0B0E0582F44273327D2
:10F8100022278B8190E0A0E0B0E0DC0199278827C7
:10F82000282B392B4A2B5B2B8D8190E0A0E0B0E098
:10F83000282B392B4A2B5B2B8C8190E0A0E0B0E089
:10F84000BA2FA92F982F8827282B392B4A2B5B2BCF
:10F85000220F331F441F551FC05EDE4F288339839C
:10F860004A835B83C052D1401A8259C13A81C95C34
:10F87000DE4F3883C753D140CA5CDE4F1882C6536F
:10F88000D1408B81C82EDD24CA5CDE4F488159816E
:10F89000C653D140C42AD52A933109F082C0CE5C28
:10F8A000DE4F88819981AA81BB81C253D1408050AB
:10F8B000904CA340B04030F583E0CE5CDE4FE88052
:10F8C000F9800A811B81C253D140F70100935B008C
:10F8D00080935700E89507B600FCFDCFCE5CDE4F65
:10F8E000088119812A813B81C253D14000501F4FAA
:10F8F0002F4F3F4FCE5CDE4F088319832A833B8313
:10F90000C253D140C05EDE4F488159816A817B81FC
:10F91000C052D140DE011B9631E08C9111962C91A2
:10F9200011971296C75CDE4F2883C953D140C85C3B
:10F93000DE4F1882C853D14090E0C85CDE4FE881AA
:10F94000F981C853D1408E2B9F2B0C01FA01609393
:10F950005B0030935700E89511244E5F5F4F6F4F67
:10F960007F4F0EEFE02E0FEFF02ECE0CDF1CC114F8
:10F97000D10499F685E0C05EDE4F088119812A81A5
:10F980003B81C052D140F80120935B008093570027
:10F99000E89507B600FCFDCF81E180935700E8951C
:10F9A00035C0C05EDE4F88819981AA81BB81C0527B
:10F9B000D140B695A795979587957C018601ABE0D8
:10F9C000AA2EB12CAC0EBD1E0BC0D5016D915D01F0
:10F9D000C7010F947FFE0894E11CF11C01501040F8
:10F9E0000115110591F7A60160E070E0440F551F65
:10F9F000661F771FC05EDE4FE880F9800A811B8199
:10FA0000C052D1404E0D5F1D601F711F1A82C05E33
:10FA1000DE4F488359836A837B83C052D1407FC0C5
:10FA2000FA80C55CDE4FF882CB53D140C65CDE4F16
:10FA30001882CA53D1408B81C82EDD24C65CDE4FAC
:10FA400008811981CA53D140C02AD12A1A828981DA
:10FA5000BE016D5F7F4F843121F59601C05EDE4FA0
:10FA6000E880F9800A811B81C052D1400BBFF701A9
:10FA700087919691DB018C9311969C936E5F7F4FDB
:10FA8000D801C7010296A11DB11DC05EDE4F88835B
:10FA90009983AA83BB83C052D14022503040F1F6F3
:10FAA00036C0C05EDE4F288139814A815B81C052F9
:10FAB000D1400894C108D108760100E010E0089414
:10FAC000C11CD11C0894E11CF11C011D111DE20E8A
:10FAD000F31E041F151F21BDBB27A52F942F832FB5
:10FAE00082BD2F5F3F4F4F4F5F4FF89A80B5DB01CC
:10FAF0008D93BD012E153F054007510761F7C05E8C
:10FB0000DE4F288339834A835B83C052D1409601FC
:10FB10002D5F3F4FFB01108204C080EC8A8322E0FE
:10FB200030E08BE18093C6008091C00086FFFCCF5F
:10FB30008091C00080648093C000C15DDE4FF88179
:10FB4000CF52D140F093C6008091C00086FFFCCF19
:10FB50008091C00080648093C000432F3093C60022
:10FB60008091C00086FFFCCF8091C00080648093AC
:10FB7000C000922F2093C6008091C00086FFFCCF6A
:10FB80008091C00080648093C0008EE08093C600A6
:10FB90008091C00086FFFCCF8091C000806480937C
:10FBA000C00065E1C15DDE4FE880CF52D1406E25D7
:10FBB00069276427FE01319610C090819093C6009A
:10FBC0008091C00086FFFCCF31968091C000806498
:10FBD0008093C0006927215030402115310569F715
:10FBE0006093C6008091C00086FFFCCF8091C0006A
:10FBF00080648093C00085B1805885B9772081F4F6
:10FC0000C15DDE4F0881CF52D1400F5FC15DDE4F35
:10FC10000883CF52D14090E0A0E0B0E00D941AF4F8
:10FC200027982F9880E090E020ED37E0F901319798
:10FC3000F1F7019684369105C9F700008091C00064
:10FC40008D7F8093C00081E180935700E895EE2777
:10FC5000FF270994FFCF90E00D941AF497FB092E2B
:10FC600007260AD077FD04D02ED006D000201AF443
:10FC7000709561957F4F0895F6F7909581959F4F08
:10FC80000895A1E21A2EAA1BBB1BFD010DC0AA1FDD
:10FC9000BB1FEE1FFF1FA217B307E407F50720F0F5
:10FCA000A21BB30BE40BF50B661F771F881F991F70
:10FCB0001A9469F760957095809590959B01AC01B9
:10FCC000BD01CF010895AA1BBB1B51E107C0AA1FAC
:10FCD000BB1FA617B70710F0A61BB70B881F991FED
:10FCE0005A95A9F780959095BC01CD010895F99991
:10FCF000FECF92BD81BDF89A992780B50895262F31
:10FD0000F999FECF1FBA92BD81BD20BD0FB6F89400
:0EFD1000FA9AF99A0FBE01960895F894FFCF63
:00000001FF
