:020000040000FA
:100000000C9438010C9469010C9469010C946901F9
:100010000C9469010C9469010C9469010C946901B8
:100020000C9469010C9469010C9469010C946901A8
:100030000C9469010C9469010C9469010C94690198
:100040000C9469010C9469010C9469010C94690188
:100050000C9469010C9469010C9469010C946F076C
:100060000C9469010C9439070C940F070C946901E6
:100070000C9469010C9469010C9469010C94690158
:100080000C9469010C9469010C9469010C94690148
:100090000C9469010C9469010C9469010C94690138
:1000A0000C9469010C9469010C9469010C94690128
:1000B0000C9469010C9469010C9469010C94690118
:1000C0000C9469010C9469010C9469010C94690108
:1000D0000C9469010C9469010C9469010C946901F8
:1000E0000C9469010C94DC020C94B9070C94EA029C
:1000F0000C94F7020C94F1020C94E2020C946D0241
:100100000C9413030C94FB020C94E8010C941C0354
:100110000C9409030C94C6010C94E6020C948A0119
:100120000C94DA010C940F030C94D2110C94EE028F
:100130000C9401030C94B7010C9420020C9421033D
:100140000C9405030C941D030C941703000020006D
:100150002300260029002C002F003200000100009F
:1001600003010601090100000A0B02090C0D0E082B
:100170000703040100000000000000000000000070
:10018000000000000000000000000000000000006F
:10019000000012111000000000000000000000002C
:1001A000000000000000000000000000000022002D
:1001B000250028002B002E00310034000201000031
:1001C000050108010B0100002100240027002A007E
:1001D0002D003000330001010000040107010A0175
:1001E00005050505070508080808020202020A0AB3
:1001F00008080404040401010101010101010303D1
:10020000030303030303040707070C0C0C0C0C0C7B
:100210000C0C0202020206060606060606060B0B78
:100220000B0B0B0B0B0B01021020200808102040B9
:1002300010204080020102010804020101020408AA
:100240001020408080402010080402018004020138
:100250008040201008040201080402010102040881
:10026000102040800102040810204080B907D211FC
:1002700011241FBECFEFD1E2DEBFCDBF00E00CBF27
:100280001AE0A0E0B2E0E4E9FAE200E00BBF02C04D
:1002900007900D92A039B107D9F72CE0A0E9BAE098
:1002A00001C01D92A634B207E1F711E0C7E3D1E027
:1002B00000E006C021970109802FFE010E94F6127E
:1002C000C633D10780E00807A9F70E94A9080C945B
:1002D00038150C94000090E0FC01EA5DFD4F24917C
:1002E00080529E4FFC018491882399F090E0880F02
:1002F000991FFC01EA53FE4FA591B491FC01E4550E
:10030000FE4F859194918FB7F894EC91E22BEC938A
:100310008FBF0895AF92BF92CF92DF92EF92FF927C
:100320000F931F93CF93DF936C017B018B01040F1D
:10033000151FEB015E01AE18BF08C017D10759F0B9
:100340006991D601ED91FC910190F081E02DC601FB
:100350001995892B79F7C501DF91CF911F910F91E5
:10036000FF90EF90DF90CF90BF90AF900895FC0189
:10037000538D448D252F30E0842F90E0821B930B0A
:10038000541710F0CF96089501970895FC01918DB0
:10039000828D981761F0A28DAE0FBF2FB11D5D96B3
:1003A0008C91928D9F5F9F73928F90E008958FEF55
:1003B0009FEF0895FC01918D828D981731F0828D09
:1003C000E80FF11D858D90E008958FEF9FEF089560
:1003D000FC01918D228D892F90E0805C9F4F821BC4
:1003E00091098F739927089583E49BE00E94E801A7
:1003F00021E0892B09F420E0822F0895FC01A48DCF
:10040000A80FB92FB11DA35ABF4F2C91848D90E036
:1004100001968F739927848FA689B7892C93A08919
:10042000B1898C91837080648C93938D848D9813A3
:1004300006C00288F389E02D80818F7D8083089536
:10044000EF92FF920F931F93CF93DF93EC0181E024
:10045000888F9B8D8C8D98131AC0E889F9898081CB
:1004600085FF15C09FB7F894EE89FF896083E889FE
:10047000F98980818370806480839FBF81E090E0F0
:10048000DF91CF911F910F91FF90EF900895F62E7D
:100490000B8D10E00F5F1F4F0F731127E02E8C8D17
:1004A0008E110CC00FB607FCFACFE889F98980815C
:1004B00085FFF5CFCE010E94FE01F1CFEB8DEC0F51
:1004C000FD2FF11DE35AFF4FF0829FB7F8940B8F79
:1004D000EA89FB8980818062CFCFCF93DF93EC01E3
:1004E000888D8823B9F0AA89BB89E889F9898C911C
:1004F00085FD03C0808186FD0DC00FB607FCF7CFD8
:100500008C9185FFF2CF808185FFEDCFCE010E94D7
:10051000FE01E9CFDF91CF91089580E090E0892B33
:1005200029F00E94F40181110E94000080E090E017
:10053000892B49F080E090E0892B29F00E9400008F
:1005400081110E94000080E090E0892B49F080E05A
:1005500090E0892B29F00E94000081110E94000088
:1005600080E090E0892B49F080E090E0892B29F031
:100570000E94000081110C94000008958150823186
:1005800008F05AC0E82FF0E08827E653FD4F8F4F60
:100590000C94F612EA02EE02DC02E202E6021C030E
:1005A000F102F702FB020103050309030F03130322
:1005B0001C0317031D032103809180008F77809314
:1005C00080000895809180008F7DF9CF8091800018
:1005D000877FF5CF84B58F7784BD089584B58F7DEF
:1005E000FBCF8091B0008F778093B0000895809109
:1005F000B0008F7DF9CF809190008F77809390002D
:100600000895809190008F7DF9CF80919000877F31
:10061000F5CF8091A0008F778093A00008958091FE
:10062000A0008F7DF9CF8091A000877FF5CF8091CA
:1006300020018F77809320010895809120018F7D84
:10064000F9CF80912001877FF5CFCF93DF93282FBB
:1006500030E0F901EA59FE4F8491F901EA5DFD4F5E
:10066000D491F901E052FE4FC491CC23A1F0811145
:100670000E94BE02EC2FF0E0EE0FFF1FE45BFE4F86
:10068000A591B491EC91ED2381E090E009F480E034
:10069000DF91CF91089580E090E0FACF1F93CF9340
:1006A000DF93282F30E0F901EA59FE4F8491F901D8
:1006B000EA5DFD4FD491F901E052FE4FC491CC2385
:1006C000A9F0162F81110E94BE02EC2FF0E0EE0F70
:1006D000FF1FE455FE4FA591B4918FB7F894EC91AC
:1006E000111108C0D095DE23DC938FBFDF91CF912D
:1006F0001F910895DE2BF8CF90917B00977F909308
:100700007B008653806480937C0080917A008064B3
:1007100080937A0080917A0086FDFCCF80917800EA
:100720009091790008953FB7F8948091950A90913F
:10073000960AA091970AB091980A26B5A89B05C081
:100740002F3F19F00196A11DB11D3FBFBA2FA92F50
:10075000982F8827BC01CD01620F711D811D911D4D
:1007600042E0660F771F881F991F4A95D1F70895B9
:10077000CF92DF92EF92FF920E9493036B017C0174
:100780000E9493036C197D098E099F09683E73408E
:1007900081059105A8F3FF90EF90DF90CF90089529
:1007A0002FB7F8946091910A7091920A8091930A00
:1007B0009091940A2FBF0895EBE1FBE0DF0190E0F8
:1007C00080E02D913D91232B61F4880F991FFC014E
:1007D000E55EF44F8091990A90919A0A9183808303
:1007E000089501968530910561F72091990A30911D
:1007F0009A0A90E080E0419151914217530744F4E6
:10080000880F991FFC01E55EF44F31832083089522
:1008100001968530910579F7089581E090E09093F5
:100820000102809300021092400B10923F0B109235
:10083000370B1092360B8DEF9FEF9093050280934C
:10084000040210929A0A1092990A809102029091E1
:10085000030290934702809346028BE99AE030E0CE
:1008600020E0FC01E20FF31F10822F5F3F4F203189
:100870003105B9F740962BE08B31920781F7089547
:100880002091040230910502E091360BF091370B74
:100890006091380BCF010196662309F441C02031E5
:1008A000310550F4A4E0EE0FFF1FAA95E1F7E556DD
:1008B000F54FE20FF31F10822031310558F4FC018F
:1008C00074E0EE0FFF1F7A95E1F7E556F54FE20F62
:1008D000F31F1082A901415051094031510558F4CC
:1008E000FC0164E0EE0FFF1F6A95E1F7E556F54F56
:1008F000E40FF51F1082225031092031310558F4E0
:10090000FC0184E0EE0FFF1F8A95E1F7E556F54FF5
:10091000E20FF31F108250930502409304020895E2
:100920002031310550F4B4E0EE0FFF1FBA95E1F726
:10093000E556F54FE20FF31F108237FD0BC0FC01A7
:10094000A4E0EE0FFF1FAA95E1F7E556F54FE20F81
:10095000F31F1082A9014F5F5F4F57FD0BC0FC01D1
:1009600074E0EE0FFF1F7A95E1F7E556F54FE40FBF
:10097000F51F10822E5F3F4F37FDCDCF64E0880F0B
:10098000991F6A95E1F78556954F280F391FF90190
:10099000C1CF0F931F93CF938C01C62F85E2011512
:1009A000110521F00130110549F484E20E944E0343
:1009B0006C2F80E205301105E9F006C00230110508
:1009C00049F483E20E944E036C2F8FE1063011053B
:1009D00089F006C00330110549F482E20E944E03FB
:1009E0000730110561F46C2F8EE104C081E2043000
:1009F0001105F1F6CF911F910F910C944E03CF91F9
:100A00001F910F910895CF93DF93EC01892B39F556
:100A100060E08DE10E944E0361E08CE10E944E0394
:100A2000C230D10539F560E08BE10E944E0361E0F0
:100A30008AE10E944E03C430D10539F560E089E1B6
:100A40000E944E0361E088E10E944E03C630D1054A
:100A500039F560E087E10E944E0361E028C061E063
:100A60008DE10E944E03C130D105B1F660E08CE10A
:100A70000E944E0361E08BE10E944E03C330D1051A
:100A8000B1F660E08AE10E944E0361E089E10E94D4
:100A90004E03C530D105B1F660E088E10E944E03F7
:100AA00061E087E10E944E0360E02797B1F686E19E
:100AB000DF91CF910C944E03CF92DF92EF92FF9291
:100AC0000F931F93CF93DF931F921F92CDB7DEB783
:100AD00069834A83880F991F0091400C1091410C43
:100AE000000F111FEAEEFBE09F012A5E3B4020173A
:100AF000310714F41192F8CF2981FC01E651F44F2B
:100B000021838A81808360E080913E0C0E944E03A5
:100B10001016110604F501501109F801E651F44FC1
:100B2000E080D0903C0CC0903A0C88E0F82E6E2DFE
:100B3000661F6627661F8C2D0E944E03EE0C61E037
:100B40008D2D0E944E0360E08D2D0E944E03FA947D
:100B5000F110EDCFDDCF61E080913E0C0F900F9052
:100B6000DF91CF911F910F91FF90EF90DF90CF9089
:100B70000C944E03EF92FF920F931F93CF937C013F
:100B80008C0183E0000F111F8A95E1F70650144F86
:100B9000C1E0F80111928F0140E06C2FC7010E9463
:100BA0005C05CF5FC930A9F7CF911F910F91FF90DE
:100BB000EF9008952091400C3091410C12161306CD
:100BC000E4F488309105C9F020E830E002C03595A2
:100BD00027956A95E2F7FC01E651F44F50894423CA
:100BE00049F0252B208B61E0680F408990E080E080
:100BF0000C945C0520952523F5CF0895FC01019008
:100C00000020E9F73197AF01481B590BBC0183E481
:100C10009BE00C948A018F929F92AF92BF92CF92E9
:100C2000DF92EF92FF920F931F93CF93DF93CDB795
:100C3000DEB7A1970FB6F894DEBF0FBECDBF6C0133
:100C4000990FEE08FF08F7FE47C06DE283E49BE0D2
:100C50000E9420028C0122273327A9012C193D096B
:100C60004E095F0919A2CE0181967C019AE0892E76
:100C7000912CA12CB12CCA01B901A50194010E94AB
:100C8000B112605DF70162937F01211531054105C5
:100C9000510589F790E080E0309719F0CF010E946C
:100CA000FE05080F191F86E49AE00E94FE05800FDA
:100CB000911FA1960FB6F894DEBF0FBECDBFDF9196
:100CC000CF911F910F91FF90EF90DF90CF90BF9049
:100CD000AF909F908F900895A701960119A28E0161
:100CE0000F5D1F4F8AE0C82ED12CE12CF12CCA01D8
:100CF000B901A70196010E94B112605DF8016293EB
:100D00008F01211531054105510589F7309729F0EB
:100D1000CF010E94FE058C01C6CF10E000E0C3CFDA
:100D2000CF93DF93EC018091E40B9091E50B00975A
:100D300059F02091E60B3091E70B2C173D0720F07E
:100D400081E0DF91CF910895BE016F5F7F4F0E94D8
:100D50003E14009789F09093E50B8093E40BD093B9
:100D6000E70BC093E60B2091E80B3091E90B232BA6
:100D700039F7FC011082E4CF80E0E3CF0F931F939B
:100D8000CF93DF938C01EC0109900020E9F72197C4
:100D9000C81BD90BCE010E9490062091E40B309124
:100DA000E50B811117C02115310519F0C9010E9409
:100DB000B5131092E50B1092E40B1092E90B109210
:100DC000E80B1092E70B1092E60BDF91CF911F9189
:100DD0000F910895D093E90BC093E80BB801C901B6
:100DE000DF91CF911F910F910C9431152091E80B59
:100DF0003091E90B232B39F421E0FC018081882319
:100E000061F020E00AC0BC018091E40B9091E50BF9
:100E10000E94281521E0892BA1F7822F08951F92A7
:100E20000F920FB60F9211240BB60F922F933F9390
:100E30004F935F936F937F938F939F93AF93BF93E2
:100E4000EF93FF9383E49BE00E94FE01FF91EF91FB
:100E5000BF91AF919F918F917F916F915F914F91D2
:100E60003F912F910F900BBE0F900FBE0F901F90D0
:100E700018951F920F920FB60F9211240BB60F9276
:100E80002F938F939F93EF93FF93E091530BF091E8
:100E9000540B8081E091590BF0915A0B82FD1DC0DB
:100EA000908180915C0B8F5F8F7320915D0B821717
:100EB00041F0E0915C0BF0E0ED5BF44F958F809397
:100EC0005C0BFF91EF919F918F912F910F900BBE33
:100ED0000F900FBE0F901F9018958081F2CF1F9238
:100EE0000F920FB60F9211242F933F938F939F93DE
:100EF000AF93BF938091910A9091920AA091930A27
:100F0000B091940A3091900A23E0230F2D3758F5C1
:100F10000196A11DB11D2093900A8093910A909390
:100F2000920AA093930AB093940A8091950A9091A3
:100F3000960AA091970AB091980A0196A11DB11D39
:100F40008093950A9093960AA093970AB093980A73
:100F5000BF91AF919F918F913F912F910F900FBEB5
:100F60000F901F90189526E8230F0296A11DB11D22
:100F7000D2CFCF93DF931092460B1092450B88EEA1
:100F800093E0A0E0B0E08093470B9093480BA093D0
:100F9000490BB0934A0B88E39AE09093440B8093FB
:100FA000430B85EC90E09093500B80934F0B84ECB7
:100FB00090E09093520B8093510B80EC90E09093D3
:100FC000540B8093530B81EC90E09093560B8093DD
:100FD000550B82EC90E09093580B8093570B86EC66
:100FE00090E090935A0B8093590B10925C0B1092E7
:100FF0005D0B10925E0B10925F0BC3E3D0E0D093B9
:101000003B0CC0933A0C85E390E090933D0C8093A9
:101010003C0C84E390E090933F0C80933E0C81E085
:1010200090E09093410C8093400C83E30E946B010D
:1010300080913C0C0E946B0180913E0C0E946B01E0
:1010400061E080913E0C0E944E03D0933B0CC09314
:101050003A0CEAEFFBE011928CE0EA33F807D9F79B
:10106000D0E0C0E08091400C9091410CC817D907A6
:1010700074F540E06FE0CE010E945C058091400C69
:101080009091410CC817D9072CF447E06BE0CE01D2
:101090000E945C0540E069E0CE010E945C05809101
:1010A000400C9091410CC817D9071CF4CE010E9446
:1010B000BA058091400C9091410CC817D9072CF4C7
:1010C00040E06CE0CE010E945C052196CBCF1092EF
:1010D000E50B1092E40B1092E70B1092E60B1092C6
:1010E000E90B1092E80B87E090E00E9490062091B7
:1010F000E40B3091E50B811120C02115310519F069
:10110000C9010E94B5131092E50B1092E40B1092E6
:10111000E90B1092E80B1092E70B1092E60B0E947D
:10112000D0036093E00B7093E10B8093E20B9093FC
:10113000E30BDF91CF910C94D00387E090E0909384
:10114000E90B8093E80B69E47AE0C9010E9431154C
:10115000E6CFCF93DF93CDB7DEB7C258D1090FB634
:10116000F894DEBF0FBECDBF789484B5826084BD95
:1011700084B5816084BD85B5826085BD85B581609B
:1011800085BD80916E00816080936E001092810019
:1011900080918100826080938100809181008160D4
:1011A0008093810080918000816080938000809195
:1011B000B10084608093B1008091B0008160809321
:1011C000B0008091910082608093910080919100A5
:1011D0008160809391008091900081608093900065
:1011E0008091A10082608093A1008091A100816024
:1011F0008093A1008091A00081608093A0008091E5
:10120000210182608093210180912101816080937E
:1012100021018091200181608093200180917A00DA
:10122000846080937A0080917A00826080937A0053
:1012300080917A00816080937A0080917A00806842
:1012400080937A001092C10004E612E084E5E82E53
:1012500082E0F82ED8018C910E5F1F4F0E946B0127
:10126000F7018081F2E0EF0EF11C0E946B0122E099
:101270000437120779F7E091530BF091540B82E099
:101280008083E0914F0BF091500B1082E091510B55
:10129000F091520B8FEC808310925B0BE091570B17
:1012A000F091580B86E08083E091550BF091560B3E
:1012B000808180618083E091550BF091560B808195
:1012C00088608083E091550BF091560B8081806897
:1012D0008083E091550BF091560B80818F7D808348
:1012E0008091400C9091410C1816190634F441E09D
:1012F0006CE090E080E00E945C058091400C909151
:10130000410C1816190634F448E06AE090E080E0D9
:101310000E945C058091400C9091410C18161906B2
:1013200024F490E080E00E94BA05CE010196CF57E8
:10133000DF4F99838883C158D04089E49AE00E94A6
:10134000F606882309F4B5C10E94D0030091E00B92
:101350001091E10B2091E20B3091E30B6B017C01CA
:10136000C01AD10AE20AF30A970186016091480285
:10137000709149028CE291E00E94E212CB01770F5A
:10138000AA0BBB0B081719072A073B079CF0809193
:10139000410B9091420B01969093420B8093410B2D
:1013A0000E94D0036093E00B7093E10B8093E20BFB
:1013B0009093E30BD12CC12C14E8912EC6010E940E
:1013C0000305F12CE12C9C9CC0019D9C900D1124E7
:1013D0009C012C583D4F59010091410B1091420B3B
:1013E0000438110514F010E000E01093420B009354
:1013F000410B30902F0B332009F442C1C8018E0DF0
:101400009F1D64E870E00E94E212F501E80FF91FE9
:101410006081C7010E94C904BFEFEB1AFB0AE8E034
:10142000EE16F104C9F60E94B803FFEFCF1ADF0AE7
:1014300029E0C216D10411F62801440C551CF12CE8
:10144000E12CB4E82B2E380135E7631A7108E8E087
:10145000AE2EB12CA01AB10AF7E0CF2ED12C2E9CC3
:10146000C0012F9C900D1124DC01AC58BD4F4D01E3
:10147000332009F414C1C2018A0D9B1D84389105E3
:101480001CF0C3018C199D09880D991DFC01408138
:10149000B601C7010E94DA05B1E0CB1AD108EFEF1F
:1014A000AE1ABE0AFFEFCF16DF0611F72FEFE21AD2
:1014B000F20A38E0E316F10451F68FE20E942503A8
:1014C0008090250B9090260BA090270BB090280BB6
:1014D000019709F07FC689288A288B2851F40E9439
:1014E000D0036093250B7093260B8093270B90936A
:1014F000280B81E30E9425038C0180912E0B80171D
:10150000110651F00E94D00360932A0B70932B0BAD
:1015100080932C0B90932D0B0E94D003FF24F39407
:101520000115110509F4F12C80902A0B90902B0BDA
:10153000A0902C0BB0902D0B681979098A099B0992
:10154000633371058105910590F08091290B801717
:10155000110669F0F092290B012B49F489E49AE015
:101560000E94F606882309F4B7C610922F0BF0925A
:101570002E0B80E30E9425038C018091350B801790
:10158000110651F00E94D0036093310B7093320B1F
:101590008093330B9093340B0E94D003FF24F39479
:1015A0000115110509F4F12C8090310B9090320B4C
:1015B000A090330BB090340B681979098A099B0904
:1015C000633371058105910598F08091300B801788
:1015D000110671F0F092300B012B51F489E49AE07E
:1015E0000E94F606882309F48EC681E080932F0BB3
:1015F000F092350B82E30E9425038C0180913E0B13
:101600008017110651F00E94D00360933A0B70933B
:101610003B0B80933C0B90933D0B0E94D003FF2427
:10162000F3940115110509F4F12C80903A0B909078
:101630003B0BA0903C0BB0903D0B681979098A09CF
:101640009B096333710581059105A8F08091390BE1
:101650008017110681F0F092390B0115110559F42C
:1016600081E59AE00E94F606882309F464C684E8BE
:101670009AE00E94BE06F0923E0B0E948D025DCE63
:10168000C701801B910B97FF05C0C7018C579F4F67
:10169000801B910B8A0D9B1DDC016C91BACEC5019C
:1016A000B7FE02C08C579F4F880D991DDC014C91ED
:1016B000EFCE81E59AE00E94F606882309F443C044
:1016C00074E9C72E76E0D72E5601F12CE12CC70124
:1016D0000E94030510E000E0F501E00FF11F6081BA
:1016E000C8010E94C9040F5F1F4F08301105A1F700
:1016F0000E94B8034FEFE41AF40A70E1A70EB11C80
:1017000089E0E816F10419F7F12CE12C08E010E06B
:10171000F601E00FF11F6FE070E0601B710B40817C
:10172000C7010E94DA050F5F1F4F0031110581F7D5
:101730009FEFE91AF90AA0E1CA0ED11CB8E0EB1636
:10174000F10421F7BACE86E59AE00E94F6068823D6
:1017500009F449C380913F0B9091400B892B09F00C
:10176000D4C00E94D0032B013C016AE0262E312C0C
:101770000E94D0036419750986099709603D774076
:101780008105910508F083C054E1E52E57E0F52E60
:1017900010E000E0C8010E940305D12CC12CF70124
:1017A000EC0DFD1D6081C6010E94C904FFEFCF1A38
:1017B000DF0A28E0C216D10491F70E94B8030F5F38
:1017C0001F4F38E0E30EF11C0930110519F7A09006
:1017D0000002B0900102C501B1010E94E2124B016A
:1017E0008B0145E0000F111F4A95E1F70C5A184F85
:1017F000D12CC12CF12CE12CF801EE0DFF1D67E07E
:1018000070E06E197F094081C6010E94DA054FEF32
:10181000E41AF40A74E0E716F10471F78FEFC81ABE
:10182000D80A0C5F1F4F98E0C916D10419F746EF8C
:10183000940142038001439F100D11240A0D1B1DCA
:1018400035E0000F111F3A95E1F70C5A184FD12CD3
:10185000C12CF12CE12CF801EE0DFF1D63E070E0CE
:101860006E197F094081C6010E94DA057FEFE71AF1
:10187000F70A84E0E816F10471F79FEFC91AD90A54
:101880000C5F1F4FA8E0CA16D10419F771CF009161
:101890000002109101020E5F1F4F1093400B009346
:1018A0003F0BBB24B394101611067CF50E9427123F
:1018B00020E130E040E050E00E947F126B010E9486
:1018C0002712F601E556F54F6F01E059FF4F2081D1
:1018D0002111E9CF24E030E040E050E00E947F1287
:1018E0006F5F7F4F8F4F9F4F90E080E0F0E1CF1A06
:1018F000D1088617970734F4F601E058FF4FB082FD
:101900000196F4CF01501109CECF0E94D00300916F
:10191000E00B1091E10B2091E20B3091E30B6B0196
:101920007C01C01AD10AE20AF30A9701860160918C
:101930004802709149028CE291E00E94E212CB01D0
:10194000770FAA0BBB0B081719072A073B070CF4E4
:10195000A9C08091410B9091420B01969093420B4C
:101960008093410B0E94D0036093E00B7093E10BD6
:101970008093E20B9093E30B06E012E0EE24EA94EE
:10198000FE2C25E0C22ED12CD801AD90BC90BFEF2B
:10199000AB16BB0609F47DC0D8011296ED91FC91FF
:1019A000EF3FFE0709F475C095012F5F3F4FD5014A
:1019B00084E0AA0FBB1F8A95E1F7A554B54FAE0F7F
:1019C000BF1F8C91882309F46DC18091990A909171
:1019D0009A0A019690939A0A8093990AB6010E94F6
:1019E000E212892B49F480914602909147020196B8
:1019F0009093470280934602A50174E0440F551F5F
:101A00007A95E1F74E0F5F1F90E080E00196BC01F0
:101A10006A0D7B1D6830710564F4DC0164E0AA0F77
:101A2000BB1F6A95E1F7A40FB51FA556B54F1C92D1
:101A3000EDCF54E0220F331F5A95E1F72556354F6D
:101A4000E20FF31F1082F801F182E082F382E2825A
:101A500080913F0B9091400B01979093400B8093A6
:101A60003F0B892BB1F4B090380B8091000290911C
:101A70000102019690930102809300020B970CF4EF
:101A800000C10E94DC030E940D0489E49AE00E94D8
:101A9000BE060C5F1F4FF2E006341F0709F074CF3B
:101AA0000E94400420910402309105020091360BFF
:101AB0001091370B4091380BC8010196442309F46B
:101AC00016C12031310560F4F801B4E0EE0FFF1FBC
:101AD000BA95E1F7E556F54FE20FF31F41E0408379
:101AE0002031310560F4FC01A4E0EE0FFF1FAA9540
:101AF000E1F7E556F54FE20FF31F41E04083A901FE
:101B0000415051094031510560F4FC0174E0EE0F81
:101B1000FF1F7A95E1F7E556F54FE40FF51F41E019
:101B20004083A901425051094031510560F4FC0144
:101B300064E0EE0FFF1F6A95E1F7E556F54FE40FFD
:101B4000F51F41E04083A90143505109403151053F
:101B500010F5FC0184E0EE0FFF1F8A95E1F7E20F1C
:101B6000F31FE856F54F80818823A9F08091460243
:101B7000909147020197909347028093460218166E
:101B800019060CF0ABC00E944004035011091093D9
:101B9000370B0093360B809104029091050297FF5A
:101BA0000FC082E190E0909305028093040280913F
:101BB000360B9091370B01969093370B8093360B31
:101BC000E6E0F2E046E452E061E0808191818F3FFF
:101BD000980781F0228133812F3F320759F0A4E02A
:101BE000880F991FAA95E1F78555954F820F931F8E
:101BF000DC016C9334964E175F0739F7EBE9CE2E74
:101C0000EAE0DE2E5601F12CE12CC7010E9403050B
:101C100010E000E0F501E00FF11F6081C8010E94B3
:101C2000C9040F5F1F4F08301105A1F70E94B803C8
:101C3000BFEFEB1AFB0AE0E1AE0EB11CF9E0EF16C4
:101C4000F10419F7F12CE12C08E010E0F601E00FA7
:101C5000F11F6FE070E0601B710B4081C7010E94B3
:101C6000DA050F5F1F4F0031110581F72FEFE21AE0
:101C7000F20A30E1C30ED11C48E0E416F10421F76A
:101C80001CCC0E94400482E190E0B11002C08DEFB4
:101C90009FEF90930502809304021092370B1092ED
:101CA000360BF7CEC90144E0880F991F4A95E1F73A
:101CB0008556954FE80FF91F108246E0A416B1042F
:101CC0004CF0D8011196FC92EE921396FC92EE9293
:101CD0001297DFCEF80131832083DBCE0E94DC0334
:101CE0000E940D0489E49AE00E94BE0654CF203180
:101CF000310560F4F801B4E0EE0FFF1FBA95E1F78B
:101D0000E556F54FE20FF31F41E0408320313105E6
:101D100060F4FC01A4E0EE0FFF1FAA95E1F7E55681
:101D2000F54FE20FF31F41E04083A9014F5F5F4F82
:101D30004031510560F4FC0174E0EE0FFF1F7A950D
:101D4000E1F7E556F54FE40FF51F41E04083A901A7
:101D50004E5F5F4F4031510560F4FC0164E0EE0FCF
:101D6000FF1F6A95E1F7E556F54FE40FF51F41E0D7
:101D70004083A9014D5F5F4F4031510508F5FC01DB
:101D8000B4E0EE0FFF1FBA95E1F7E556F54FE20F0D
:101D9000F31F83818823A1F080914602909147022E
:101DA000019790934702809346021816190694F4FF
:101DB0000E944004035011091093370B0093360B17
:101DC000809104029091050241970CF4F9CE8DEFB9
:101DD0009FEFE9CE0E94DC030E940D0489E49AE0A3
:101DE0000E94BE06EDCF8CE59AE00E94F60688239D
:101DF00009F489C080914602909147026AE070E040
:101E00000E94E2127B018C01CB010E940B06C801EB
:101E10000E940B0674E9872E78E0972EB12CA12C36
:101E2000C5010E940305D12CC12CF401EC0DFD1D50
:101E30006081C6010E94C9047FEFC71AD70A88E0F3
:101E4000C816D10491F70E94B8039FEFA91AB90AE6
:101E5000A8E08A0E911CB9E0AB16B10409F755E071
:101E6000EE0CFF1C5A95E1F7F701EC5AF84F7F0191
:101E7000B12CA12C67E0862E912CD12CC12CF7011E
:101E8000EC0DFD1DB4016C197D094081C5010E9456
:101E9000DA05FFEFCF1ADF0A24E0C216D10479F782
:101EA0003FEFA31AB30A44E0E40EF11C78E0A71652
:101EB000B10419F735E0000F111F3A95E1F70C5AFC
:101EC000184FD12CC12C43E0A42EB12CF12CE12CC5
:101ED000F801EE0DFF1DB5016E197F094081C601A5
:101EE0000E94DA058FEFE81AF80A94E0E916F10487
:101EF00079F7AFEFCA1ADA0A0C5F1F4FB8E0CB16BA
:101F0000D10421F7DACA82E69AE00E94F606882315
:101F100009F4CAC0009148021091490286E30E9468
:101F20007C03BC01990F880B990B660F771F881FE4
:101F3000991F2FEF33E040E050E00E947F1229010B
:101F40003A01EFEF4E1A5E0A6E0A7E0A80E79AE0C7
:101F50000E94FE05C2010E940B060B3011050CF019
:101F600052C087E30E947C0327E030E0DC010E943E
:101F7000FE122FEF33E040E050E00E947F12490153
:101F80005A01F3E08F0E911CA11CB11C8CE79AE062
:101F90000E94FE05C4010E940B0684010F5F1F4FC3
:101FA000F5E0000F111FFA95E1F70C5E164FA4E063
:101FB000CA2ED12CB7E02B2E312CF12CE12CF701BD
:101FC000E058F109E00FF11FB1016E197F0940815E
:101FD000C6010E94DA052FEFE21AF20A38E0E31692
:101FE000F10469F74FEFC41AD40A085F1F4F78E075
:101FF000C716D10411F790920302809202029092C8
:10200000470280924602E4EDEE2EE8E0FE2E10E05C
:1020100000E0C8010E940305D12CC12CF701EC0D92
:10202000FD1D6081C6010E94C9048FEFC81AD80A3D
:1020300098E0C916D10491F70E94B8030F5F1F4FB3
:10204000A8E0EA0EF11C0930110519F7820165E0DC
:10205000000F111F6A95E1F70C5E164FD12CC12CB1
:1020600077E0A72EB12CF12CE12CF801EE0DFF1D2D
:10207000B5016E197F094081C6010E94DA05BFEFE4
:10208000EB1AFB0AE8E0EE16F10479F7FFEFCF1A3E
:10209000DF0A085F1F4F24E0C216D10421F75092D7
:1020A00049024092480209CA84E89AE00E94F60672
:1020B000882309F402CA80E8CF57DF4FA881B9818D
:1020C000C158D0401D928A95E9F720911D0B30919F
:1020D0001E0B80911B0B90911C0B280F391F8091B8
:1020E0001F0B9091200B280F391F8091210B90918D
:1020F000220B280F391F8091230B9091240B280F5E
:10210000391F0BE11BE0E1E0F0E041E0D8018D91E7
:102110009D918D0153E0880F991F5A95E1F7B90100
:102120000E94E212A1E7B0E0AC0FBD1FAE0FBF1FCF
:1021300090E080E0861797073CF44C9311964C93FF
:10214000119701965097F6CF3396E031F105F1F6ED
:10215000FE0131966F015F01F12CE12CC7010E9455
:10216000030510E000E0F501E00FF11F6081C801F8
:102170000E94C9040F5F1F4F08301105A1F70E948C
:10218000B8033FEFE31AF30A40E1A40EB11C79E073
:10219000E716F10419F7F12CE12C08E010E0F60144
:1021A000E00FF11F6FE070E0601B710B4081C70111
:1021B0000E94DA050F5F1F4F0031110581F78FEF85
:1021C000E81AF80A90E1C90ED11CA8E0EA16F10459
:1021D00021F773C981149104A104B10409F489C9D8
:1021E0000E94D0036B017C01C818D908EA08FB08DB
:1021F0001092250B1092260B1092270B1092280B91
:1022000089E49AE00E94F606882351F0B0EDCB16DF
:10221000B7E0DB06E104F10418F081E59AE038C08C
:1022200086E59AE00E94F606882339F0E0EDCE16A6
:10223000E7E0DE06E104F10448F58CE59AE00E944F
:10224000F606811128C082E69AE00E94F606811106
:1022500038C081E59AE00E94F606882339F041ED06
:10226000C41647E0D406E104F10498F584E89AE046
:102270000E94F606882309F43CC978EBC7167BE078
:10228000D706E104F10408F434C9C7CF8CE59AE01D
:102290000E94BE062EC9F8EBCF16FBE0DF06E10474
:1022A000F10428F00E94DC030E940D04B6CF20ED5B
:1022B000C21627E0D206E104F10428F286E59AE08E
:1022C000E7CF38EBC3163BE0D306E104F10408F294
:1022D000A4CF89E49AE0DCCF81E59AE00E94F6067B
:1022E000882329F082E69AE00E94BE0640C986E56E
:1022F0009AE00E94F606882309F439C90E94400436
:102300001092380B34C981E59AE00E94F6068823C2
:1023100029F086E59AE00E94BE066AC986E59AE041
:102320000E94F606882309F463C90E94400481E0F4
:102330008093380B5DC986E59AE00E94F6068823F3
:1023400009F499C9E6E0F2E080819181019619F5DE
:10235000828193810196F9F48091040290910502A3
:102360002091380B000F111F000F111FF801EA5FB9
:10237000FD4F222371F0019793838283F801EA5F76
:10238000FD4F8091360B9091370B0196918380839E
:1023900072C90196F1CF0F5F1F4F349600311105BE
:1023A00099F669C98091E40B9091E50B009711F0C3
:1023B0000C94B51308958F929F92AF92BF92CF92D3
:1023C000DF92EF92FF92CF93DF93EC0168817981E6
:1023D0008A819B81611571058105910521F464E273
:1023E00079ED8BE597E02DE133EF41E050E00E947D
:1023F0007F1249015A019B01AC01A7EAB1E40E9496
:102400009E126B017C01ACEEB4EFA50194010E9419
:10241000AC12C60ED71EE81EF91EF7FE06C081E0FC
:10242000C81AD108E10880E8F80AC882D982EA828D
:10243000FB82C701B6019F77DF91CF91FF90EF90AC
:10244000DF90CF90BF90AF909F908F9008958F9224
:102450009F92AF92BF92CF92DF92EF92FF926091E4
:102460004A0270914B0280914C0290914D0261158D
:1024700071058105910521F464E279ED8BE597E022
:102480002DE133EF41E050E00E947F1249015A01F3
:102490009B01AC01A7EAB1E40E949E126B017C0192
:1024A000ACEEB4EFA50194010E94AC12C60ED71E8B
:1024B000E81EF91EF7FE06C081E0C81AD108E1083F
:1024C00080E8F80AC0924A02D0924B02E0924C0295
:1024D000F0924D02C701B6019F77FF90EF90DF9019
:1024E000CF90BF90AF909F908F90089560934A02D5
:1024F00070934B0280934C0290934D020895052EE9
:1025000097FB1EF400940E94961257FD07D00E947C
:10251000B11207FC03D04EF40C94961250954095DE
:10252000309521953F4F4F4F5F4F0895909580957F
:10253000709561957F4F8F4F9F4F08950E94D312E2
:10254000A59F900DB49F900DA49F800D911D112407
:102550000895B7FF0C949E120E949E12821B930B4B
:102560000895A1E21A2EAA1BBB1BFD010DC0AA1FD4
:10257000BB1FEE1FFF1FA217B307E407F50720F0EC
:10258000A21BB30BE40BF50B661F771F881F991F67
:102590001A9469F760957095809590959B01AC01B0
:1025A000BD01CF010895A29FB001B39FC001A39FB9
:1025B000700D811D1124911DB29F700D811D11247C
:1025C000911D089597FB072E16F4009407D077FD10
:1025D00009D00E94051307FC05D03EF49095819523
:1025E0009F4F0895709561957F4F0895EE0FFF1FDF
:1025F000881F8BBF0790F691E02D19940E94D3128B
:10260000B7FF0895821B930B0895AA1BBB1B51E1D2
:1026100007C0AA1FBB1FA617B70710F0A61BB70B52
:10262000881F991F5A95A9F780959095BC01CD01F7
:1026300008950F931F93CF93DF938230910510F489
:1026400082E090E0E091440CF091450C30E020E015
:10265000B0E0A0E0309799F42115310509F44AC0A3
:10266000281B390B24303105D8F58A819B816115EF
:10267000710589F1FB0193838283FE0111C04081C2
:1026800051810281138148175907E0F04817590713
:1026900099F4109761F012960C93129713961C936D
:1026A0003296CF01DF91CF911F910F910895009342
:1026B000440C1093450CF4CF2115310551F042170D
:1026C000530738F0A901DB019A01BD01DF01F801D0
:1026D000C1CFEF01F9CF9093450C8093440CCDCF3F
:1026E000FE01E20FF31F8193919322503109398348
:1026F0002883D7CF2091420C3091430C232B41F4F7
:1027000020915002309151023093430C2093420C9F
:1027100020914E0230914F022115310541F42DB721
:102720003EB74091520250915302241B350BE09169
:10273000420CF091430CE217F307A0F42E1B3F0B61
:102740002817390778F0AC014E5F5F4F2417350723
:1027500048F04E0F5F1F5093430C4093420C8193FF
:1027600091939FCFF0E0E0E09CCFCF93DF93009771
:10277000E9F0FC01329713821282A091440CB091CF
:10278000450CED0130E020E01097A1F4208131816B
:10279000820F931F2091420C3091430C2817390768
:1027A00009F061C0F093430CE093420CDF91CF91AC
:1027B0000895EA01CE17DF07E8F54A815B819E01A3
:1027C00041155105B1F7E901FB83EA83499159911C
:1027D000C40FD51FEC17FD0761F48081918102962B
:1027E000840F951FE90199838883828193819B835C
:1027F0008A83F0E0E0E012968D919C911397009708
:10280000B9F52D913C911197CD010296820F931F3E
:102810002091420C3091430C2817390739F6309734
:1028200051F51092450C1092440CB093430CA093B8
:10283000420CBCCFD383C28340815181840F951F4A
:10284000C817D90761F44E5F5F4F88819981480F9F
:10285000591F518340838A819B81938382832115F1
:10286000310509F0B0CFF093450CE093440C9ECFB6
:10287000FD01DC01C0CF13821282D7CF4F925F924D
:102880006F927F928F929F92AF92BF92CF92DF9280
:10289000EF92FF920F931F93CF93DF938C010097DA
:1028A00099F4CB01DF91CF911F910F91FF90EF90A1
:1028B000DF90CF90BF90AF909F908F907F906F9060
:1028C0005F904F900C941913FC01E60FF71F9C01C9
:1028D00022503109E217F30708F4AEC0D901CD91B7
:1028E000DC911197C617D70720F1C530D10578F0D4
:1028F000CE0104978617970750F0C61BD70B229777
:10290000C193D1936D937C93CF010E94B513C801FD
:10291000DF91CF911F910F91FF90EF90DF90CF90BB
:10292000BF90AF909F908F907F906F905F904F90EF
:1029300008955B01AC1ABD0A4C018C0E9D1EA0913E
:10294000440CB091450C512C412CF12CE12C1097EA
:1029500031F58091420C9091430C8815990509F04E
:102960005CC04616570608F058C080914E02909100
:102970004F02009741F48DB79EB74091520250919B
:102980005302841B950BE817F90708F055C0F09324
:10299000430CE093420CF90171836083B8CF8D91B1
:1029A0009C91119712966C90129713967C901397A6
:1029B000A815B90559F56C0142E0C40ED11CCA1422
:1029C000DB0420F1AC014A195B09DA011296159774
:1029D00080F06282738251834083D9016D937C932E
:1029E000E114F10471F0D7011396FC93EE93129762
:1029F0008ECF22968C0F9D1FF90191838083F30166
:102A0000EFCFF093450CE093440C81CF4816590664
:102A100008F42C017D01D3019ACFCB010E94191338
:102A20007C01009749F0AE01B8010E941F15C80152
:102A30000E94B51387016BCF10E000E068CFFB0167
:102A4000DC0102C001900D9241505040D8F708952A
:102A5000FB01DC018D91019080190110D9F3990BD4
:102A60000895FB01DC0101900D920020E1F708952B
:102A700011E0C7E3D1E000E006C0802FFE010E9414
:102A8000F6122196011DC833D10780E00807A9F787
:102A9000F894FFCF01000300FDFFFFFFFFFFFFFFE2
:102AA000FFFFFFFFFFFFFFFFFFFFFFFFFFFFFFFF36
:102AB000FFFFFFFFFFFFFFFFFFFFFFFFFFFFFFFF26
:102AC000FFFFFFFFFFFFFFFFFFFFFFFFFFFFFFFF16
:102AD000FFFFFFFFFFFFFFFFFFFF030001000100FB
:102AE00000000000460C8000250024002300220086
:102AF000210020001F001E001D001C001B001A00EA
:102B00001900180017001600000000000000010165
:102B100001010100000101010000000001000000AE
:102B200000000000000000000000000000010101A2
:102B30000100000000000000000101010000000190
:102B4000010100000001010100000001010100007D
:102B50000000000001000000000000000101010170
:102B6000010001000000010001010101000000015D
:102B70000101000000000000000000000100000052
:102B80000001010100000100000000000000000041
:102B90000000010000000100010000000100000130
:102BA0000100000000000000000000000000000024
:102BB0000000000100000000000000000100000013
:102BC00001000100000001000100000001000100FF
:102BD00000000100000000010000000101010000F0
:102BE00001000000010001000000010001000000E0
:102BF00001000100000001000000000000000001D1
:102C000001000000010000000100000100000000C0
:102C100001010101010001000000010001000000AC
:102C2000010001010100000000000000000001009F
:102C30000000010000000001000000000000000092
:102C40000000000001000100000001000000000081
:102C50000100000000000100000001000000010070
:102C6000000001000100000001000100000001005F
:102C70000100000001000100000001000000000050
:102C8000000001010100000001000000010000003F
:102C9000010000000100000001000101010101002C
:102CA000010000000100000001000000010101011D
:102CB000010001000000010000000001000001010E
:102CC00001010100000000010000010000010100FD
:102CD00000000001000000000001000000010000F1
:102CE00000000100000001000101010101000100DC
:102CF00000000100010101010100010000000100CC
:102D000000000000000000000100000000010101BF
:102D100000000000000100000100000001000101AE
:102D2000000000000101010101000000010000009D
:102D3000000000000000010000000100010000018F
:102D40000000000000000000000001000000010081
:102D5000010001000000010000000000010000006F
:102D6000010000000000000101010100010100005C
:102D7000000001000000010001000000000001004F
:102D80000000010000000000000000000100000041
:102D9000010000000100000000000100010101012C
:102DA000010001000100000001000000010000001E
:102DB0000100000000000000000000010001000010
:102DC0000100000100000000000000000001000000
:102DD00000000101000001000001000000000000EF
:102DE00000010000000100000000010000000100DF
:102DF00001000100000001000000010001000000CE
:102E000000000100000001000000000000000000C0
:102E100001000000010000000100000000010000AE
:102E2000010000000000010000010000010000009E
:102E3000010001010101010000000000000000008C
:102E4000010000000001010000000000000000007F
:102E5000010000000000010000000100010000006E
:102E6000000000000000010000000100000000015F
:102E7000000100000100000100000100000001004D
:102E8000010000000000010000000100000000003F
:102E9000000001010101010001000000010000002B
:102EA000010000000100000000000100000001001E
:102EB000010000000100010101010100000000000B
:102EC0000000000000000000000000000000000002
:102ED00000000000010101010100000101010000EA
:102EE00001010101010000010101000000000001D9
:102EF00000000000010000000100000001000001CE
:102F000001010000010000000000000101010000BB
:102F100000000000000001010101010000010101A9
:102F2000000000010000000000000000000101019D
:102F3000010101000000000000000000000101018B
:102F4000010101000000000000010000000100017B
:102F50000101010000010100000101010001000167
:102F6000010001000100000000000000000100005D
:102F7000010001000100000000000100000100004C
:102F8000000001000001010000000000000101013B
:102F9000010101000000000000000000000101012B
:102FA000010101000000000000000000000000001E
:102FB000000100000000010000010100000001000C
:102FC00000010001000001000001000001000100FB
:102FD00000010000000101000001000000000100EC
:102FE00000000000000000000000000001010101DD
:102FF00001000001010000010100000101000001C9
:1030000001000001010101010000000000010100B8
:1030100000010100010101000001010000010100A7
:103020000001010001010101000000000101010196
:103030000000000100000001010101010100000089
:103040000100000001010101000000000101010177
:103050000000000100000001010101010000000169
:103060000000000101010101000000000100000159
:103070000100000101000001010101010000000147
:10308000000000010000000100000000010101013A
:103090000100000001000000010101010000000129
:1030A0000000000101010101000000000101010117
:1030B0000100000001000000010101010100000108
:1030C00001000001010101010000000001010101F6
:1030D00000000001000000010001010100000001EA
:1030E00000000001000000010000000001010101DA
:1030F00001000001010000010101010101000001C6
:1031000001000001010101010000000001010101B5
:1031100001000001010000010101010100000001A6
:103120000000000100000001000101000001010099
:10313000010101010101010101010101010101017F
:10314000010101010101010101010101010101016F
:103150000001010101010100000001010101000065
:103160000000000101000000010000000101010158
:103170000100000001000100000100010001010048
:103180000000010000010100010101010000000137
:103190000100000100000001010000000100010029
:1031A000010101000001000000000000000000001B
:1031B000000000000000000000000000000000000F
:1031C00000000000000000000000000000000000FF
:1031D00001000000000000000100000000000000ED
:1031E00000000000000000000000000000000000DF
:1031F00001010000000000000101000000000000CB
:1032000000000000000000000000000000000000BE
:1032100001010100000000000101010000000000A8
:10322000000000000000000000000000000000009E
:103230000101010100000000010101010000000086
:10324000000000000000000000000000000000007E
:103250000101010101000000010101010100000064
:10326000000000000000000000000000000000005E
:103270000101010101010000010101010101000042
:10328000000000000000000000000000000000003E
:103290000101010101010100010101010101010020
:1032A000000000000000000000000000000000001E
:1032B00001010101010101010101010101010101FE
:1032C00000000000000000000000000020028A0151
:1032D000B7016D02E801C601DA010D0A004D454E45
:1032E00053414A45004D454E55004A55474152000D
:1032F000504155534100434F4E4649475552414373
:10330000494F4E0076656C6F63696461643A2000D2
:1033100076696461733A20004553544144495354DB
:0433200049434100DC
:020000040003F7
:10E000000D9489F10D94B2F10D94B2F10D94B2F129
:10E010000D94B2F10D94B2F10D94B2F10D94B2F1F0
:10E020000D94B2F10D94B2F10D94B2F10D94B2F1E0
:10E030000D94B2F10D94B2F10D94B2F10D94B2F1D0
:10E040000D94B2F10D94B2F10D94B2F10D94B2F1C0
:10E050000D94B2F10D94B2F10D94B2F10D94B2F1B0
:10E060000D94B2F10D94B2F10D94B2F10D94B2F1A0
:10E070000D94B2F10D94B2F10D94B2F10D94B2F190
:10E080000D94B2F10D94B2F10D94B2F10D94B2F180
:10E090000D94B2F10D94B2F10D94B2F10D94B2F170
:10E0A0000D94B2F10D94B2F10D94B2F10D94B2F160
:10E0B0000D94B2F10D94B2F10D94B2F10D94B2F150
:10E0C0000D94B2F10D94B2F10D94B2F10D94B2F140
:10E0D0000D94B2F10D94B2F10D94B2F10D94B2F130
:10E0E0000D94B2F141546D656761323536300041AF
:10E0F000726475696E6F206578706C6F72657220DE
:10E1000073746B3530305632206279204D4C530099
:10E11000426F6F746C6F616465723E004875683F52
:10E1200000436F6D70696C6564206F6E203D200048
:10E130004350552054797065202020203D20005FF9
:10E140005F4156525F415243485F5F3D2000415658
:10E1500052204C696243205665723D20004743437C
:10E160002056657273696F6E203D20004350552024
:10E1700049442020202020203D20004C6F7720663D
:10E18000757365202020203D20004869676820665F
:10E190007573652020203D200045787420667573D6
:10E1A00065202020203D20004C6F636B2066757336
:10E1B000652020203D20004D617220203720323024
:10E1C000313300312E362E3800342E332E350056A2
:10E1D00023202020414444522020206F7020636F70
:10E1E00064652020202020696E73747275637469E1
:10E1F0006F6E2061646472202020496E74657272B3
:10E20000757074006E6F20766563746F7200726A49
:10E210006D702020006A6D70200057686174207056
:10E220006F72743A00506F7274206E6F7420737541
:10E2300070706F72746564004D7573742062652030
:10E2400061206C6574746572002000577269747483
:10E25000696E672045450052656164696E672045B7
:10E26000450045452065727220636E743D00504F35
:10E27000525400303D5A65726F2061646472003FF1
:10E280003D43505520737461747300403D454550C3
:10E29000524F4D207465737400423D426C696E6B41
:10E2A000204C454400453D44756D70204545505215
:10E2B0004F4D00463D44756D7020464C415348001B
:10E2C000483D48656C70004C3D4C69737420492F83
:10E2D0004F20506F72747300513D51756974005234
:10E2E0003D44756D702052414D00563D73686F7707
:10E2F00020696E7465727275707420566563746FF0
:10E30000727300593D506F727420626C696E6B00BD
:10E310002A0011241FBECFEFD1E2DEBFCDBF01E046
:10E320000CBF12E0A0E0B2E0EEE1FDEF03E00BBFB6
:10E3300002C007900D92A030B107D9F712E0A0E01B
:10E34000B2E001C01D92AE30B107E1F70F9460F367
:10E350000D948DFE01E20EBF0FEF0DBF11241FBE05
:10E360000D9460F30D9400F020E030E040ED57E0B4
:10E3700005C0FA013197F1F72F5F3F4F2817390792
:10E38000C0F308959C01260F311DC901A0E0B0E043
:10E390002F5F3F4FABBFFC018791882361F08093D3
:10E3A000C6008091C00086FFFCCF8091C0008064D1
:10E3B0008093C000EACF08958DE08093C6008091DD
:10E3C000C00086FFFCCF8091C00080648093C000B5
:10E3D0008AE08093C6008091C00086FFFCCF8091C8
:10E3E000C00080648093C00008950F94C2F10F9420
:10E3F000DCF10895FC019081992359F09093C600B7
:10E400008091C00086FFFCCF8091C0008064809323
:10E41000C0003196992379F70895282F982F929567
:10E420009F70892F805D8A3308F0895F8093C600D2
:10E430008091C00086FFFCCF8091C00080648093F3
:10E44000C000822F8F70982F905D9A3308F0995FEB
:10E450009093C6008091C00086FFFCCF8091C000E1
:10E4600080648093C00008959C01FB01853691056E
:10E470001CF46330710594F0C90164E670E00F94F8
:10E480002EFE605D7F4F6093C6008091C00086FFC6
:10E49000FCCF8091C00080648093C0002B30310598
:10E4A00014F43297B4F0C90164E670E00F942EFEC4
:10E4B0006AE070E00F942EFE605D7F4F6093C600AF
:10E4C0008091C00086FFFCCF8091C0008064809363
:10E4D000C000C9016AE070E00F942EFEC0968093E0
:10E4E000C6008091C00086FFFCCF8091C000806490
:10E4F0008093C00008951F93182F8EE692EE60E07F
:10E500000F94C2F11093C6008091C00086FFFCCF2B
:10E510008091C00080648093C0000F94DCF11F9153
:10E5200008952F923F924F925F926F927F928F92B7
:10E530009F92AF92BF92CF92DF92EF92FF920F9392
:10E540001F93DF93CF93CDB7DEB762970FB6F894E2
:10E55000DEBF0FBECDBF382E622ECA01DB015C01CB
:10E560006D01772420E2222E2E010894411C511CBB
:10E570008BC081E0A81680E0B80681E0C80680E084
:10E58000D80628F0C601AA27BB270F940DF2BB2797
:10E59000AD2D9C2D8B2D0F940DF28A2D0F940DF225
:10E5A0002092C6008091C00086FFFCCF8091C00001
:10E5B00080648093C0009DE29093C6008091C0006B
:10E5C00086FFFCCF8091C00080648093C0002092C1
:10E5D000C6008091C00086FFFCCF8091C00080649F
:10E5E0008093C00019828601750188249924A1E0D6
:10E5F0003A1651F03A1620F0B2E03B1661F409C029
:10E600000BBFF701779007C0C7010F9477FE782EF4
:10E6100002C0F7017080872D0F940DF22092C60082
:10E620008091C00086FFFCCF8091C0008064809301
:10E63000C000872D8052F401EF70F0708F3520F408
:10E64000E40DF51D708204C0E40DF51D8EE280839B
:10E650000894E11CF11C011D111D0894811C911CE2
:10E6600090E18916910409F0C2CF80E190E0A0E02A
:10E67000B0E0A80EB91ECA1EDB1E198AC2010F9493
:10E68000FAF10F94DCF16A94662009F072CF629679
:10E690000FB6F894DEBF0FBECDBFCF91DF911F91B3
:10E6A0000F91FF90EF90DF90CF90BF90AF909F9031
:10E6B0008F907F906F905F904F903F902F90089534
:10E6C0002F923F924F925F926F927F928F929F9282
:10E6D000AF92BF92CF92DF92EF92FF920F931F9370
:10E6E000DF93CF93CDB7DEB7CD53D1400FB6F894BB
:10E6F000DEBF0FBECDBF01E20EBF0FEF0DBF94B75F
:10E70000F894A89514BE80916000886180936000A1
:10E7100010926000789493FF05C0E0910002F091A0
:10E7200001021995279A2F9A8091C00082608093E8
:10E73000C00080E18093C40088E18093C1000000A4
:10E74000EE24FF24870144E0A42EB12CCC24DD2448
:10E7500024C0C5010197F1F70894E11CF11C011DCB
:10E76000111D21E2E2162EE4F20620E0020720E06D
:10E77000120718F031E0C32ED12CC801B70127ECE5
:10E780003BE140E050E00F9441FE611571058105C9
:10E79000910519F485B1805885B98091C00087FD35
:10E7A00003C0C114D104A9F2A6014F5F5F4FC25E3E
:10E7B000DE4F59834883CE51D140C25EDE4F8881FF
:10E7C0009981CE51D140019711F00D9410FEC05D9A
:10E7D000DE4F19821882C053D14060E0C15DDE4F28
:10E7E0001882CF52D14088249924C35DDE4F19820C
:10E7F0001882CD52D140C05EDE4F188219821A8233
:10E800001B82C052D140CE5CDE4F188219821A8220
:10E810001B82C253D140EE24FF2487010BBFF701B6
:10E8200007911691C45CDE4F19830883CC53D14005
:10E830000D940BFEC25EDE4F28813981CE51D1404E
:10E840002130310509F52091C600C25EDE4F1982E4
:10E850001882CE51D14022C02F5F3F4F4F4F5F4FA4
:10E86000213082E138078AE7480780E0580780F0C6
:10E87000C45CDE4FE881F981CC53D140EF5FFF4F9C
:10E8800019F0EE27FF27099420E030E040E050E047
:10E890008091C00087FFE0CF2091C600C35DDE4FAE
:10E8A00048815981CD52D1404F5F5F4FC35DDE4FEC
:10E8B00059834883CD52D140213209F063C64A3092
:10E8C000510508F05FC60894811C911C53E0851621
:10E8D000910409F059C600E010E018C081E280936D
:10E8E000C6008091C00086FFFCCF8091C00080648C
:10E8F0008093C0002F5F3F4F2931310579F70F9486
:10E90000DCF10F5F1F4F0530110519F020E030E0FA
:10E91000E5CF10920A0210920B0210920C02109294
:10E920000D02109206021092070210920802109235
:10E930000902109202021092030210920402109235
:10E9400005028FEE90EE60E00F94F5F180E191EE1C
:10E9500060E00F94C2F18091C00087FFFCCF9091DE
:10E96000C600903608F09F759032B8F09093C600BC
:10E970008091C00086FFFCCF8091C00080648093AE
:10E98000C000A0E2A093C6008091C00086FFFCCF2B
:10E990008091C00080648093C000983409F4D7C18E
:10E9A0009934B8F4923409F459C1933458F490333B
:10E9B00019F1903308F4E3C59F33A1F1903409F0C5
:10E9C000DEC5BDC0953409F470C1963409F0D7C5D1
:10E9D00098C1923509F42BC2933538F49C3409F46C
:10E9E000F5C1913509F0CBC518C2963509F445C279
:10E9F000993509F0C4C567C483E792EE62E00F94CD
:10EA0000F5F110920602109207021092080210927D
:10EA1000090210920A0210920B0210920C0210923C
:10EA20000D0213C18FE792EE62E00F94F5F18FEEC5
:10EA300090EE60E00F94F5F181E291EE60E00F94CA
:10EA4000C2F187EB91EE60E00F94F5F180E391EE77
:10EA500060E00F94C2F184EE90EE60E00F94F5F167
:10EA60008FE391EE60E00F94C2F186E090E061E008
:10EA700070E00F9434F20F94DCF18DE591EE60E0DC
:10EA80000F94C2F189EC91EE60E00F94F5F18EE401
:10EA900091EE60E00F94C2F183EC91EE60E00F9490
:10EAA000F5F18CE691EE60E00F94C2F18EE10F94E7
:10EAB0000DF288E90F940DF281E00F940DF20F949E
:10EAC000DCF18BE791EE60E00F94C2F119E0E0E039
:10EAD000F0E010935700E4918E2F0F940DF20F94F5
:10EAE000DCF18AE891EE60E00F94C2F1E3E0F0E03F
:10EAF00010935700E4918E2F0F940DF20F94DCF1D8
:10EB000089E991EE60E00F94C2F1E2E0F0E0109349
:10EB10005700E4918E2F0F940DF20F94DCF188EAE8
:10EB200091EE60E00F94C2F1E1E0F0E01093570045
:10EB30001491812F0F940DF20F94DCF107CF8BE825
:10EB400092EE62E00F94F5F18BE492EE60E00F94A8
:10EB5000F5F10F94DCF100E010E019C0C8016F2D51
:10EB60000F947FFEFF2031F489E492EE60E00F9471
:10EB7000C2F10BC0F092C6008091C00086FFFCCFAE
:10EB80008091C00080648093C0000F5F1F4FC80158
:10EB900081519F41A0E0B0E0ABBFFC01F790BAE229
:10EBA000FB1621F0E2E000301E07C1F60F94DCF105
:10EBB0000F94DCF187E592EE60E00F94F5F10F948D
:10EBC000DCF1CC24DD2400E010E01EC0C8010F946D
:10EBD00077FEF82E882331F489E492EE60E00F94FA
:10EBE000C2F10BC08093C6008091C00086FFFCCFAD
:10EBF0008091C00080648093C000FE1419F00894D6
:10EC0000C11CD11C0F5F1F4FC80181519F41A0E063
:10EC1000B0E0ABBFFC01E790FAE2EF1621F022E092
:10EC20000030120799F60F94DCF10F94DCF182E6C4
:10EC300092EE60E00F94C2F1C60161E070E00F94C3
:10EC400034F20F94DCF10F94DCF110920202109276
:10EC50000302109204021092050278CE89E992EE26
:10EC600062E00F94F5F1279A2F9A16C02F9880E052
:10EC700090E0E0EDF7E03197F1F7019684369105E9
:10EC8000C1F72F9A80E090E0E0EDF7E03197F1F7DF
:10EC9000019684369105C1F78091C00087FFE6CFC9
:10ECA0008091C00087FFFCCF64C485EA92EE62E0E9
:10ECB0000F94F5F140910202509103026091040219
:10ECC0007091050281E020E10F9491F2809102029F
:10ECD00090910302A0910402B091050280509F4FD1
:10ECE000AF4FBF4F8093020290930302A0930402A0
:10ECF000B093050280509041A040B04008F426CE69
:10ED0000A4CF83EB92EE62E00F94F5F140910602FE
:10ED100050910702609108027091090280E020E1A1
:10ED20000F9491F28091060290910702A09108023F
:10ED3000B091090280509F4FAF4FBF4F80930602A2
:10ED400090930702A0930802B0930902FFCD80ECD4
:10ED500092EE62E00F94F5F183E792EE60E00F949B
:10ED6000F5F18FE792EE60E00F94F5F18BE892EE0B
:10ED700060E00F94F5F189E992EE60E00F94F5F10F
:10ED800085EA92EE60E00F94F5F183EB92EE60E09D
:10ED90000F94F5F180EC92EE60E00F94F5F187ECC2
:10EDA00092EE60E00F94F5F188ED92EE60E00F9442
:10EDB000F5F18FED92EE60E00F94F5F18AEE92EEB0
:10EDC00060E00F94F5F183E093EEBDCD87EC92EE19
:10EDD00062E00F94F5F181E40F947BF282E40F94EA
:10EDE0007BF283E40F947BF284E40F947BF285E45E
:10EDF0000F947BF286E40F947BF287E40F947BF20E
:10EE000088E40F947BF28AE40F947BF28BE40F94F6
:10EE10007BF28CE40F947BF299CD88ED92EE62E068
:10EE20000F94F5F1772473948824992409C48FED05
:10EE300092EE62E00F94F5F140910A0250910B02BC
:10EE400060910C0270910D0282E020E10F9491F22A
:10EE500080910A0290910B02A0910C02B0910D02D8
:10EE600080509F4FAF4FBF4F80930A0290930B0289
:10EE7000A0930C02B0930D0269CD8AEE92EE62E08F
:10EE80000F94F5F184EE90EE60E00F94F5F18FECC5
:10EE900091EE60E00F94F5F1662477244301CC5D98
:10EEA000DE4F19821882C452D140D401C301B695F5
:10EEB000A79597958795CA5DDE4F88839983AA8326
:10EEC000BB83C652D140CC5DDE4FA881B981C4520C
:10EED000D1401196CC5DDE4FB983A883C452D14096
:10EEE000CD0162E070E00F9434F2B0E2B093C6005E
:10EEF0008091C00086FFFCCF8091C0008064809329
:10EF0000C000EDE2E093C6008091C00086FFFCCF18
:10EF10008091C00080648093C000F0E2F093C6004E
:10EF20008091C00086FFFCCF8091C00080648093F8
:10EF3000C000CA5DDE4FE880F9800A811B81C6529D
:10EF4000D140BB27A12F902F8F2D0F940DF2CA5DBA
:10EF5000DE4F8881C652D1400F940DF2B0E2FB2EF5
:10EF6000F092C6008091C00086FFFCCF8091C00067
:10EF700080648093C0000DE30093C6008091C000C0
:10EF800086FFFCCF8091C00080648093C00010E2B7
:10EF90001093C6008091C00086FFFCCF8091C00016
:10EFA00080648093C0008BBEF3012791C65DDE4F65
:10EFB0002883CA52D140A22EBB24CC24DD2408943D
:10EFC000611C711C811C911C8BBEF3018791282E42
:10EFD0003324442455240894611C711C811C911C09
:10EFE0008BBEF3013791C55DDE4F3883CB52D140E4
:10EFF0000894611C711C811C911C8BBEF30147910C
:10F00000C45DDE4F4883CC52D140ADEFEA2EAFEF66
:10F01000FA2EAFEF0A2FAFEF1A2F6E0C7F1C801E57
:10F02000911E142D032DF22CEE24EA0CFB1C0C1D5A
:10F030001D1D0F940DF220E22093C6008091C000A8
:10F0400086FFFCCF8091C00080648093C000C65DC5
:10F05000DE4F8881CA52D1400F940DF230E23093D6
:10F06000C6008091C00086FFFCCF8091C000806404
:10F070008093C000C45DDE4F8881CC52D1400F9494
:10F080000DF240E24093C6008091C00086FFFCCFA5
:10F090008091C00080648093C000C55DDE4F888190
:10F0A000CB52D1400F940DF250E25093C6008091A4
:10F0B000C00086FFFCCF8091C00080648093C000B8
:10F0C0008FEFE8168FEFF80680E0080780E018075A
:10F0D00031F484E092EE60E00F94C2F1DFC0D80119
:10F0E000C7018070907CA070B0708050904CA040A0
:10F0F000B040D1F52FEF3FE340E050E0E222F322B1
:10F1000004231523CA5DDE4FA880B980CA80DB8046
:10F11000C652D140AE0CBF1CC01ED11EAA0CBB1CD7
:10F12000CC1CDD1C8EE092EE60E00F94C2F1BB2798
:10F13000A12F902F8F2D0F940DF28E2D0F940DF285
:10F1400030E23093C6008091C00086FFFCCF8091F2
:10F15000C00080648093C0004EE34093C60080915D
:10F16000C00086FFFCCF87C08EE09EEFA0E0B0E03D
:10F17000E822F9220A231B239CE0E91694E9F90608
:10F1800090E0090790E0190709F088C0C45DDE4FE0
:10F19000A881CC52D140EA2EFF2400E010E0102FCD
:10F1A0000F2DFE2CEE24C55DDE4FB881CB52D14031
:10F1B000EB0EF11C011D111DD601C501817090706F
:10F1C000A070B070DC0199278827E80EF91E0A1F8D
:10F1D0001B1F20EF30E040E050E0A222B322C42207
:10F1E000D52241E1AA0CBB1CCC1CDD1C4A95D1F7F1
:10F1F000EA0CFB1C0C1D1D1D81E090E0A0E0B0E0BE
:10F20000282239224A225B2235E1220C331C441C7D
:10F21000551C3A95D1F7E20CF31C041D151D57013E
:10F220006801AA0CBB1CCC1CDD1C85E192EE60E0E1
:10F230000F94C2F1C801AA27BB270F940DF2BB2778
:10F24000A12F902F8F2D0F940DF28E2D0F940DF274
:10F2500090E29093C6008091C00086FFFCCF809121
:10F26000C00080648093C000AEE3A093C60080918C
:10F27000C00086FFFCCF8091C00080648093C000F6
:10F28000C601AA27BB270F940DF2BB27AD2D9C2DDD
:10F290008B2D0F940DF28A2D0F940DF20F94DCF14B
:10F2A000CC5DDE4FE881F981C452D140F99709F471
:10F2B0004DCBF4E0EF2EF12C012D112D6E0C7F1CA7
:10F2C000801E911EF2CD83E093EE62E00F94F5F183
:10F2D0008AE192EE60E00F94C2F18091C00087FF56
:10F2E000FCCF1091C6001F751093C6008091C0001E
:10F2F00086FFFCCF8091C00080648093C0000F9493
:10F30000DCF1812F81548A3108F036C1163409F4BA
:10F3100095C0173490F4133409F44EC0143430F40B
:10F320001134F1F0123409F01DC130C0143409F465
:10F3300059C0153409F016C16BC01A3409F4C4C0A1
:10F340001B3438F4173409F48FC0183409F00AC19B
:10F35000A1C01B3409F4D2C01C3409F003C1E8C0B9
:10F360008FEF81B90DC082B1809582B980E090E0C5
:10F37000E0EDF7E03197F1F70196883C9105C1F790
:10F380008091C00087FFEFCF12B8EFC08FEF84B934
:10F390000DC085B1809585B980E090E0E0EDF7E0A3
:10F3A0003197F1F70196883C9105C1F78091C00033
:10F3B00087FFEFCF15B8D9C08FEF87B90DC088B1DF
:10F3C000809588B980E090E0E0EDF7E03197F1F7C3
:10F3D0000196883C9105C1F78091C00087FFEFCF6F
:10F3E00018B8C3C08FEF8AB90DC08BB180958BB9A7
:10F3F00080E090E0E0EDF7E03197F1F70196883C8E
:10F400009105C1F78091C00087FFEFCF1BB8ADC059
:10F410008FEF8DB90DC08EB180958EB980E090E0F0
:10F42000E0EDF7E03197F1F70196883C9105C1F7DF
:10F430008091C00087FFEFCF1EB897C08FEF80BBD1
:10F440000DC081B3809581BB80E090E0E0EDF7E0F6
:10F450003197F1F70196883C9105C1F78091C00082
:10F4600087FFEFCF11BA81C08FEF83BB0DC084B38C
:10F47000809584BB80E090E0E0EDF7E03197F1F714
:10F480000196883C9105C1F78091C00087FFEFCFBE
:10F4900014BA6BC08FEF809301010FC080910201FD
:10F4A00080958093020180E090E0E0EDF7E03197F5
:10F4B000F1F70196883C9105C1F78091C00087FF64
:10F4C000EDCF1092020151C08FEF809304010FC065
:10F4D0008091050180958093050180E090E0E0ED4A
:10F4E000F7E03197F1F70196883C9105C1F78091DB
:10F4F000C00087FFEDCF1092050137C08FEF8093DA
:10F5000007010FC08091080180958093080180E079
:10F5100090E0E0EDF7E03197F1F70196883C910536
:10F52000C1F78091C00087FFEDCF109208011DC088
:10F530008FEF80930A010FC080910B01809580931B
:10F540000B0180E090E0E0EDF7E03197F1F70196F4
:10F55000883C9105C1F78091C00087FFEDCF1092E4
:10F560000B0103C085E292EEEEC98091C00087FFD7
:10F57000FCCF8091C600EAC988E392EEE4C98CE131
:10F5800091EEE1C988249924933011F1943028F444
:10F59000913089F09230B8F408C0953061F195301F
:10F5A000F0F0963009F048C043C02B3109F042C951
:10F5B00091E06BE13FC96227C15DDE4F2883CF52E6
:10F5C000D14092E037C9B22FA0E0622793E032C960
:10F5D000822F90E0A82BB92B622794E02BC92E3004
:10F5E00009F039C3622795E0C05DDE4F19821882A9
:10F5F000C053D1401FC9E1E0F0E0EC0FFD1FC05D3A
:10F60000DE4F08811981C053D140E00FF11F2083E4
:10F610000F5F1F4FC05DDE4F19830883C053D14079
:10F6200062270A171B0709F005C9D80196E002C92D
:10F63000261709F010C303C0973009F0FBC87724E0
:10F640009981933109F412C19431C8F4963009F4C8
:10F65000D8C0973050F4923009F406C1933009F4C1
:10F660006DC0913009F059C253C0913109F477C08F
:10F67000923108F0BBC0903109F04FC2F5C098310B
:10F6800009F487C0993150F4953109F4EFC09531F0
:10F6900008F4C6C1963109F040C2C2C19A3109F4DA
:10F6A0006CC09A3108F491C09B3109F45BC09D3164
:10F6B00009F033C29D81903359F48F81882311F46E
:10F6C0009EE11CC0813011F091E018C098E916C08D
:10F6D000892F807591F0903539F4E0E0F0E089E011
:10F6E0008093570094910AC0983539F4E3E0F0E034
:10F6F00089E080935700949101C090E01A821B82A8
:10F700008D818C831D829E831F8227E030E009C299
:10F710001A8288E08B8381E48C8386E58D8382E581
:10F720008E8389E48F8383E5888780E589878FE5E9
:10F730008A8782E38B872BE030E0F3C18A818139AD
:10F7400041F0823941F0803911F48FE005C080E04A
:10F7500003C082E001C08AE01A828B8344C0772410
:10F76000739482C08D81882311F48EE12CC0813086
:10F7700011F081E028C088E926C01A82E1E0F0E0BB
:10F7800089E08093570084918B831C8224E030E0D1
:10F79000C8C18B81803589F48C81883039F4E2E0EE
:10F7A000F0E089E08093570084910DC0E0E0F0E044
:10F7B00089E080935700849106C0E3E0F0E089E09F
:10F7C0008093570084911A82DFCF8D81836C99E0FA
:10F7D000E1E0F0E0082E90935700E89507B600FCB2
:10F7E000FDCF1A821B8223E030E09BC180EC8A832C
:10F7F000CE5CDE4F188219821A821B82C253D1401E
:10F800008EC18A8190E0A0E0B0E0582F44273327D2
:10F8100022278B8190E0A0E0B0E0DC0199278827C7
:10F82000282B392B4A2B5B2B8D8190E0A0E0B0E098
:10F83000282B392B4A2B5B2B8C8190E0A0E0B0E089
:10F84000BA2FA92F982F8827282B392B4A2B5B2BCF
:10F85000220F331F441F551FC05EDE4F288339839C
:10F860004A835B83C052D1401A8259C13A81C95C34
:10F87000DE4F3883C753D140CA5CDE4F1882C6536F
:10F88000D1408B81C82EDD24CA5CDE4F488159816E
:10F89000C653D140C42AD52A933109F082C0CE5C28
:10F8A000DE4F88819981AA81BB81C253D1408050AB
:10F8B000904CA340B04030F583E0CE5CDE4FE88052
:10F8C000F9800A811B81C253D140F70100935B008C
:10F8D00080935700E89507B600FCFDCFCE5CDE4F65
:10F8E000088119812A813B81C253D14000501F4FAA
:10F8F0002F4F3F4FCE5CDE4F088319832A833B8313
:10F90000C253D140C05EDE4F488159816A817B81FC
:10F91000C052D140DE011B9631E08C9111962C91A2
:10F9200011971296C75CDE4F2883C953D140C85C3B
:10F93000DE4F1882C853D14090E0C85CDE4FE881AA
:10F94000F981C853D1408E2B9F2B0C01FA01609393
:10F950005B0030935700E89511244E5F5F4F6F4F67
:10F960007F4F0EEFE02E0FEFF02ECE0CDF1CC114F8
:10F97000D10499F685E0C05EDE4F088119812A81A5
:10F980003B81C052D140F80120935B008093570027
:10F99000E89507B600FCFDCF81E180935700E8951C
:10F9A00035C0C05EDE4F88819981AA81BB81C0527B
:10F9B000D140B695A795979587957C018601ABE0D8
:10F9C000AA2EB12CAC0EBD1E0BC0D5016D915D01F0
:10F9D000C7010F947FFE0894E11CF11C01501040F8
:10F9E0000115110591F7A60160E070E0440F551F65
:10F9F000661F771FC05EDE4FE880F9800A811B8199
:10FA0000C052D1404E0D5F1D601F711F1A82C05E33
:10FA1000DE4F488359836A837B83C052D1407FC0C5
:10FA2000FA80C55CDE4FF882CB53D140C65CDE4F16
:10FA30001882CA53D1408B81C82EDD24C65CDE4FAC
:10FA400008811981CA53D140C02AD12A1A828981DA
:10FA5000BE016D5F7F4F843121F59601C05EDE4FA0
:10FA6000E880F9800A811B81C052D1400BBFF701A9
:10FA700087919691DB018C9311969C936E5F7F4FDB
:10FA8000D801C7010296A11DB11DC05EDE4F88835B
:10FA90009983AA83BB83C052D14022503040F1F6F3
:10FAA00036C0C05EDE4F288139814A815B81C052F9
:10FAB000D1400894C108D108760100E010E0089414
:10FAC000C11CD11C0894E11CF11C011D111DE20E8A
:10FAD000F31E041F151F21BDBB27A52F942F832FB5
:10FAE00082BD2F5F3F4F4F4F5F4FF89A80B5DB01CC
:10FAF0008D93BD012E153F054007510761F7C05E8C
:10FB0000DE4F288339834A835B83C052D1409601FC
:10FB10002D5F3F4FFB01108204C080EC8A8322E0FE
:10FB200030E08BE18093C6008091C00086FFFCCF5F
:10FB30008091C00080648093C000C15DDE4FF88179
:10FB4000CF52D140F093C6008091C00086FFFCCF19
:10FB50008091C00080648093C000432F3093C60022
:10FB60008091C00086FFFCCF8091C00080648093AC
:10FB7000C000922F2093C6008091C00086FFFCCF6A
:10FB80008091C00080648093C0008EE08093C600A6
:10FB90008091C00086FFFCCF8091C000806480937C
:10FBA000C00065E1C15DDE4FE880CF52D1406E25D7
:10FBB00069276427FE01319610C090819093C6009A
:10FBC0008091C00086FFFCCF31968091C000806498
:10FBD0008093C0006927215030402115310569F715
:10FBE0006093C6008091C00086FFFCCF8091C0006A
:10FBF00080648093C00085B1805885B9772081F4F6
:10FC0000C15DDE4F0881CF52D1400F5FC15DDE4F35
:10FC10000883CF52D14090E0A0E0B0E00D941AF4F8
:10FC200027982F9880E090E020ED37E0F901319798
:10FC3000F1F7019684369105C9F700008091C00064
:10FC40008D7F8093C00081E180935700E895EE2777
:10FC5000FF270994FFCF90E00D941AF497FB092E2B
:10FC600007260AD077FD04D02ED006D000201AF443
:10FC7000709561957F4F0895F6F7909581959F4F08
:10FC80000895A1E21A2EAA1BBB1BFD010DC0AA1FDD
:10FC9000BB1FEE1FFF1FA217B307E407F50720F0F5
:10FCA000A21BB30BE40BF50B661F771F881F991F70
:10FCB0001A9469F760957095809590959B01AC01B9
:10FCC000BD01CF010895AA1BBB1B51E107C0AA1FAC
:10FCD000BB1FA617B70710F0A61BB70B881F991FED
:10FCE0005A95A9F780959095BC01CD010895F99991
:10FCF000FECF92BD81BDF89A992780B50895262F31
:10FD0000F999FECF1FBA92BD81BD20BD0FB6F89400
:0EFD1000FA9AF99A0FBE01960895F894FFCF63
:00000001FF
