:100000000C9438010C9469010C9469010C946901F9
:100010000C9469010C9469010C9469010C946901B8
:100020000C9469010C9469010C9469010C946901A8
:100030000C9469010C9469010C9469010C94690198
:100040000C9469010C9469010C9469010C94690188
:100050000C9469010C9469010C9469010C94940648
:100060000C9469010C945E060C9434060C9469019E
:100070000C9469010C9469010C9469010C94690158
:100080000C9469010C9469010C9469010C94690148
:100090000C9469010C9469010C9469010C94690138
:1000A0000C9469010C9469010C9469010C94690128
:1000B0000C9469010C9469010C9469010C94690118
:1000C0000C9469010C9469010C9469010C94690108
:1000D0000C9469010C9469010C9469010C946901F8
:1000E0000C9469010C94E6020C94F1020C94170331
:1000F0000C94C6010C941D030C948A010C94F70215
:100100000C94DE060C9421030C94E8010C94EE028E
:100110000C9401030C9420020C94DA010C94DC0280
:100120000C940F030C9413030C9409030C94B70163
:100130000C941C030C946D020C94290E0C94FB027D
:100140000C94E2020C9405030C94EA0200002000D7
:100150002300260029002C002F003200000100009F
:1001600003010601090100000A0B02090C0D0E082B
:100170000703040100000000000000000000000070
:10018000000000000000000000000000000000006F
:10019000000012111000000000000000000000002C
:1001A000000000000000000000000000000022002D
:1001B000250028002B002E00310034000201000031
:1001C000050108010B0100002100240027002A007E
:1001D0002D003000330001010000040107010A0175
:1001E00005050505070508080808020202020A0AB3
:1001F00008080404040401010101010101010303D1
:10020000030303030303040707070C0C0C0C0C0C7B
:100210000C0C0202020206060606060606060B0B78
:100220000B0B0B0B0B0B01021020200808102040B9
:1002300010204080020102010804020101020408AA
:100240001020408080402010080402018004020138
:100250008040201008040201080402010102040881
:10026000102040800102040810204080DE06290E84
:1002700011241FBECFEFD1E2DEBFCDBF00E00CBF27
:1002800015E0A0E0B2E0E4E3F3E200E00BBF02C05F
:1002900007900D92AE38B107D9F727E0AEE8B5E088
:1002A00001C01D92A833B207E1F711E0C7E3D1E026
:1002B00000E006C021970109802FFE010E944D0F2A
:1002C000C633D10780E00807A9F70E94CE070C9437
:1002D00088110C94000090E0FC01EA5DFD4F249130
:1002E00080529E4FFC018491882399F090E0880F02
:1002F000991FFC01EA53FE4FA591B491FC01E4550E
:10030000FE4F859194918FB7F894EC91E22BEC938A
:100310008FBF0895AF92BF92CF92DF92EF92FF927C
:100320000F931F93CF93DF936C017B018B01040F1D
:10033000151FEB015E01AE18BF08C017D10759F0B9
:100340006991D601ED91FC910190F081E02DC601FB
:100350001995892B79F7C501DF91CF911F910F91E5
:10036000FF90EF90DF90CF90BF90AF900895FC0189
:10037000538D448D252F30E0842F90E0821B930B0A
:10038000541710F0CF96089501970895FC01918DB0
:10039000828D981761F0A28DAE0FBF2FB11D5D96B3
:1003A0008C91928D9F5F9F73928F90E008958FEF55
:1003B0009FEF0895FC01918D828D981731F0828D09
:1003C000E80FF11D858D90E008958FEF9FEF089560
:1003D000FC01918D228D892F90E0805C9F4F821BC4
:1003E00091098F739927089585E396E00E94E801AB
:1003F00021E0892B09F420E0822F0895FC01A48DCF
:10040000A80FB92FB11DA35ABF4F2C91848D90E036
:1004100001968F739927848FA689B7892C93A08919
:10042000B1898C91837080648C93938D848D9813A3
:1004300006C00288F389E02D80818F7D8083089536
:10044000EF92FF920F931F93CF93DF93EC0181E024
:10045000888F9B8D8C8D98131AC0E889F9898081CB
:1004600085FF15C09FB7F894EE89FF896083E889FE
:10047000F98980818370806480839FBF81E090E0F0
:10048000DF91CF911F910F91FF90EF900895F62E7D
:100490000B8D10E00F5F1F4F0F731127E02E8C8D17
:1004A0008E110CC00FB607FCFACFE889F98980815C
:1004B00085FFF5CFCE010E94FE01F1CFEB8DEC0F51
:1004C000FD2FF11DE35AFF4FF0829FB7F8940B8F79
:1004D000EA89FB8980818062CFCFCF93DF93EC01E3
:1004E000888D8823B9F0AA89BB89E889F9898C911C
:1004F00085FD03C0808186FD0DC00FB607FCF7CFD8
:100500008C9185FFF2CF808185FFEDCFCE010E94D7
:10051000FE01E9CFDF91CF91089580E090E0892B33
:1005200029F00E94F40181110E94000080E090E017
:10053000892B49F080E090E0892B29F00E9400008F
:1005400081110E94000080E090E0892B49F080E05A
:1005500090E0892B29F00E94000081110E94000088
:1005600080E090E0892B49F080E090E0892B29F031
:100570000E94000081110C94000008958150823186
:1005800008F05AC0E82FF0E08827E653FD4F8F4F60
:100590000C944D0FEA02EE02DC02E202E6021C03BA
:1005A000F102F702FB020103050309030F03130322
:1005B0001C0317031D032103809180008F77809314
:1005C00080000895809180008F7DF9CF8091800018
:1005D000877FF5CF84B58F7784BD089584B58F7DEF
:1005E000FBCF8091B0008F778093B0000895809109
:1005F000B0008F7DF9CF809190008F77809390002D
:100600000895809190008F7DF9CF80919000877F31
:10061000F5CF8091A0008F778093A00008958091FE
:10062000A0008F7DF9CF8091A000877FF5CF8091CA
:1006300020018F77809320010895809120018F7D84
:10064000F9CF80912001877FF5CFCF93DF93282FBB
:1006500030E0F901EA59FE4F8491F901EA5DFD4F5E
:10066000D491F901E052FE4FC491CC23A1F0811145
:100670000E94BE02EC2FF0E0EE0FFF1FE45BFE4F86
:10068000A591B491EC91ED2381E090E009F480E034
:10069000DF91CF91089580E090E0FACF1F93CF9340
:1006A000DF93282F30E0F901EA59FE4F8491F901D8
:1006B000EA5DFD4FD491F901E052FE4FC491CC2385
:1006C000A9F0162F81110E94BE02EC2FF0E0EE0F70
:1006D000FF1FE455FE4FA591B4918FB7F894EC91AC
:1006E000111108C0D095DE23DC938FBFDF91CF912D
:1006F0001F910895DE2BF8CF3FB7F89480919305B2
:1007000090919405A0919505B091960526B5A89B6A
:1007100005C02F3F19F00196A11DB11D3FBFBA2F93
:10072000A92F982F8827BC01CD01620F711D811D53
:10073000911D42E0660F771F881F991F4A95D1F7D8
:100740000895CF92DF92EF92FF920E947C036B019B
:100750007C010E947C036C197D098E099F09683E0B
:10076000734081059105A8F3FF90EF90DF90CF9043
:1007700008952FB7F89460918F057091900580913E
:100780009105909192052FBF08952091020230911A
:100790000302E0912806F091290660912A06CF0114
:1007A0000196662309F441C02031310550F4A4E0DC
:1007B000EE0FFF1FAA95E1F7E956FA4FE20FF31F7C
:1007C00010822031310558F4FC0174E0EE0FFF1F58
:1007D0007A95E1F7E956FA4FE20FF31F1082A9016B
:1007E000415051094031510558F4FC0164E0EE0FCD
:1007F000FF1F6A95E1F7E956FA4FE40FF51F1082E3
:10080000225031092031310558F4FC0184E0EE0F0B
:10081000FF1F8A95E1F7E956FA4FE20FF31F1082A6
:10082000509303024093020208952031310550F4A1
:10083000B4E0EE0FFF1FBA95E1F7E956FA4FE20F69
:10084000F31F108237FD0BC0FC01A4E0EE0FFF1F69
:10085000AA95E1F7E956FA4FE20FF31F1082A901BA
:100860004F5F5F4F57FD0BC0FC0174E0EE0FFF1FA1
:100870007A95E1F7E956FA4FE40FF51F10822E5FE3
:100880003F4F37FDCDCF64E0880F991F6A95E1F7A0
:1008900089569A4F280F391FF901C1CF0F931F9323
:1008A000CF938C01C62F85E20115110521F001308F
:1008B000110549F484E20E944E036C2F80E205305A
:1008C0001105E9F006C00230110549F483E20E94E7
:1008D0004E036C2F8FE10630110589F006C00330FE
:1008E000110549F482E20E944E030730110561F4BC
:1008F0006C2F8EE104C081E204301105F1F6CF9136
:100900001F910F910C944E03CF911F910F91089559
:10091000CF93DF93EC01892B39F560E08DE10E94E4
:100920004E0361E08CE10E944E03C230D10539F5DF
:1009300060E08BE10E944E0361E08AE10E944E0379
:10094000C430D10539F560E089E10E944E0361E0D1
:1009500088E10E944E03C630D10539F560E087E199
:100960000E944E0361E028C061E08DE10E944E03C9
:10097000C130D105B1F660E08CE10E944E0361E028
:100980008BE10E944E03C330D105B1F660E08AE1ED
:100990000E944E0361E089E10E944E03C530D105FB
:1009A000B1F660E088E10E944E0361E087E10E94B9
:1009B0004E0360E02797B1F686E1DF91CF910C946A
:1009C0004E03CF92DF92EF92FF920F931F93CF933C
:1009D000DF931F921F92CDB7DEB769834A83880FDA
:1009E000991F0091320710913307000F111FECED92
:1009F000F6E09F012C5D36402017310714F4119268
:100A0000F8CF2981FC01E452F94F21838A81808348
:100A100060E0809130070E944E031016110604F525
:100A200001501109F801E452F94FE080D0902E07EF
:100A3000C0902C0788E0F82E6E2D661F6627661F73
:100A40008C2D0E944E03EE0C61E08D2D0E944E0312
:100A500060E08D2D0E944E03FA94F110EDCFDDCFB2
:100A600061E0809130070F900F90DF91CF911F913F
:100A70000F91FF90EF90DF90CF900C944E03EF9288
:100A8000FF920F931F93CF937C018C0183E0000FA3
:100A9000111F8A95E1F70451194FC1E0F801119235
:100AA0008F0140E06C2FC7010E94E104CF5FC93085
:100AB000A9F7CF911F910F91FF90EF90089520918A
:100AC00032073091330712161306E4F4883091058B
:100AD000C9F020E830E002C0359527956A95E2F725
:100AE000FC01E452F94F5089442349F0252B208B17
:100AF00061E0680F408990E080E00C94E10420956B
:100B00002523F5CF0895FC0101900020E9F73197E6
:100B1000AF01481B590BBC0185E396E00C948A0198
:100B20000F931F93CF93DF93CDB7DEB7A1970FB687
:100B3000F894DEBF0FBECDBF19A2805D88A3CE01A1
:100B400080960E9483058C0180E495E00E948305D5
:100B5000800F911FA1960FB6F894DEBF0FBECDBFD8
:100B6000DF91CF911F910F910895CF93DF93EC0107
:100B70008091D6069091D706009759F02091D8061B
:100B80003091D9062C173D0720F081E0DF91CF91FD
:100B90000895BE016F5F7F4F0E948E10009789F00D
:100BA0009093D7068093D606D093D906C093D806E3
:100BB0002091DA063091DB06232B39F7FC011082F5
:100BC000E4CF80E0E3CF0F931F93CF93DF938C01AB
:100BD000EC0109900020E9F72197C81BD90BCE0141
:100BE0000E94B5052091D6063091D706811117C015
:100BF0002115310519F0C9010E9405101092D70680
:100C00001092D6061092DB061092DA061092D906E0
:100C10001092D806DF91CF911F910F910895D09334
:100C2000DB06C093DA06B801C901DF91CF911F91AD
:100C30000F910C9481112091DA063091DB06232B61
:100C400039F421E0FC018081882361F020E00AC0B2
:100C5000BC018091D6069091D7060E94781121E0C0
:100C6000892BA1F7822F08951F920F920FB60F9232
:100C700011240BB60F922F933F934F935F936F9373
:100C80007F938F939F93AF93BF93EF93FF9385E3EE
:100C900096E00E94FE01FF91EF91BF91AF919F916D
:100CA0008F917F916F915F914F913F912F910F9015
:100CB0000BBE0F900FBE0F901F9018951F920F92B2
:100CC0000FB60F9211240BB60F922F938F939F9311
:100CD000EF93FF93E0914506F09146068081E09105
:100CE0004B06F0914C0682FD1DC0908180914E060E
:100CF0008F5F8F7320914F06821741F0E0914E066F
:100D0000F0E0EB5CF94F958F80934E06FF91EF91E9
:100D10009F918F912F910F900BBE0F900FBE0F9050
:100D20001F9018958081F2CF1F920F920FB60F92ED
:100D300011242F933F938F939F93AF93BF938091F1
:100D40008F0590919005A0919105B09192053091F9
:100D50008E0523E0230F2D3758F50196A11DB11DF7
:100D600020938E0580938F0590939005A093910515
:100D7000B09392058091930590919405A09195056B
:100D8000B09196050196A11DB11D80939305909396
:100D90009405A0939505B0939605BF91AF919F914F
:100DA0008F913F912F910F900FBE0F901F9018952C
:100DB00026E8230F0296A11DB11DD2CFCF93DF935A
:100DC000109238061092370688EE93E0A0E0B0E06B
:100DD0008093390690933A06A0933B06B0933C0665
:100DE00082E395E0909336068093350685EC90E09B
:100DF000909342068093410684EC90E090934406E1
:100E00008093430680EC90E09093460680934506DD
:100E100081EC90E0909348068093470682EC90E046
:100E200090934A068093490686EC90E090934C0696
:100E300080934B0610924E0610924F061092500669
:100E400010925106C3E3D0E0D0932D07C0932C0736
:100E500085E390E090932F0780932E0784E390E042
:100E6000909331078093300781E090E090933307AF
:100E70008093320783E30E946B0180912E070E94CA
:100E80006B01809130070E946B0161E08091300717
:100E90000E944E03D0932D07C0932C07ECEEF6E092
:100EA000119287E0EC32F807D9F7D0E0C0E08091EA
:100EB000320790913307C817D90774F540E06FE007
:100EC000CE010E94E1048091320790913307C81748
:100ED000D9072CF447E06BE0CE010E94E10440E02A
:100EE00069E0CE010E94E1048091320790913307BE
:100EF000C817D9071CF4CE010E943F058091320724
:100F000090913307C817D9072CF440E06CE0CE016C
:100F10000E94E1042196CBCF1092D7061092D606FC
:100F20001092D9061092D8061092DB061092DA06BB
:100F300087E090E00E94B5052091D6063091D70653
:100F4000811120C02115310519F0C9010E94051039
:100F50001092D7061092D6061092DB061092DA068F
:100F60001092D9061092D8060E94B9036093D20657
:100F70007093D3068093D4069093D506DF91CF91DA
:100F80000C94B90387E090E09093DB068093DA0637
:100F900063E475E0C9010E948111E6CF789484B5BD
:100FA000826084BD84B5816084BD85B5826085BD65
:100FB00085B5816085BD80916E00816080936E00F3
:100FC00010928100809181008260809381008091E5
:100FD0008100816080938100809180008160809396
:100FE00080008091B10084608093B1008091B00056
:100FF00081608093B0008091910082608093910025
:101000008091910081608093910080919000816037
:10101000809390008091A10082608093A1008091D4
:10102000A10081608093A1008091A00081608093E5
:10103000A000809121018260809321018091210193
:101040008160809321018091200181608093200143
:1010500080917A00846080937A0080917A00826027
:1010600080937A0080917A00816080937A008091E9
:101070007A00806880937A001092C100CEE5D2E0B9
:101080000EE412E0888122960E946B01D8018C91B7
:101090000E5F1F4F0E946B01B2E0CE36DB0791F767
:1010A000E0914506F091460682E08083E09141069A
:1010B000F09142061082E0914306F09144068FECD5
:1010C000808310924D06E0914906F0914A0686E031
:1010D0008083E0914706F09148068081806180839B
:1010E000E0914706F0914806808188608083E09116
:1010F0004706F0914806808180688083E09147062A
:10110000F091480680818F7D808380913207909195
:1011100033071816190634F441E06CE090E080E0E3
:101120000E94E10480913207909133071816190646
:1011300034F448E06AE090E080E00E94E1048091AD
:101140003207909133071816190624F490E080E0D6
:101150000E943F0588248A94982C83E495E00E949D
:101160001B06882309F496C10E94B9030091D20698
:101170001091D3062091D4063091D506601B710BD7
:10118000820B930B683C7105810591059CF0809161
:10119000330690913406019690933406809333067B
:1011A0000E94B9036093D2067093D3068093D4064D
:1011B0009093D506F12CE12C48E1B42EC7010E9492
:1011C000880410E000E0BE9CC001BF9C900D11247B
:1011D000FC01E259FD4F6F01C0913306D0913406F6
:1011E000C831D10514F0D0E0C0E0D0933406C093EC
:1011F000330630902106332009F437C1CE01800F29
:10120000911F68E170E00E94390FF601E80FF91FA5
:101210006081C8010E944E040F5F1F4F0830110506
:10122000D9F60E94A103BFEFEB1AFB0AE9E0EE1624
:10123000F10421F62E01440C551C10E000E038E1C9
:10124000232E3E01F9E06F1A710888E0A82EB12C18
:10125000AC1ABD0A97E0E92EF12C209EC001219E18
:10126000900D11249C0122593D4F6901C501332085
:1012700009F409C1840D951D883191051CF0C30145
:101280008E199F098C0D9D1DDC014C91B701C80181
:101290000E945F05F1E0EF1AF1082FEFA21AB20ADF
:1012A0003FEFE316F30611F70F5F1F4F08301105EC
:1012B00061F68FE20E9425034090170650901806B1
:1012C0006090190670901A06019709F015C4452818
:1012D0004628472851F40E94B9036093170670937B
:1012E00018068093190690931A0681E30E9425033D
:1012F000EC01809120068C171D0651F00E94B90365
:1013000060931C0670931D0680931E0690931F0623
:101310000E94B90311E0209709F410E0C0901C0668
:10132000D0901D06E0901E06F0901F066C197D09F6
:101330008E099F09633371058105910590F08091B5
:101340001B068C171D0669F010931B06CD2B49F464
:1013500083E495E00E941B06882309F416C41092CA
:1013600021061093200680E30E942503EC01809162
:1013700027068C171D0651F00E94B90360932306BF
:101380007093240680932506909326060E94B90345
:1013900011E0209709F410E0C0902306D0902406B5
:1013A000E0902506F09026066C197D098E099F09AC
:1013B000633371058105910598F0809122068C17A1
:1013C0001D0671F010932206CD2B51F483E495E0B5
:1013D0000E941B06882309F4EFC381E08093210655
:1013E0001093270682E30E942503EC0180913006CA
:1013F0008C171D0651F00E94B90360932C06709360
:101400002D0680932E0690932F060E94B90311E0BB
:10141000209709F410E0C0902C06D0902D06E090A3
:101420002E06F0902F066C197D098E099F096333F3
:10143000710581059105A0F080912B068C171D0682
:1014400079F010932B06209759F48BE495E00E94D5
:101450001B06882309F4C8C382E895E00E94E305CF
:10146000109330060E948D0278CEC8018C1B9D0B14
:1014700097FF04C0C80148968C1B9D0B8C0D9D1DC9
:10148000DC016C91C6CEB7FC48968C0D9D1DFC010D
:101490004081FCCE8BE495E00E941B06882309F472
:1014A0003FC0CEE2EC2EC3E0FC2E670110E000E06E
:1014B000C8010E948804D0E0C0E0F601EC0FFD1FD7
:1014C0006081CE010E944E042196C830D105A9F753
:1014D0000E94A1030F5F1F4F40E1C40ED11C0930D1
:1014E000110531F710E000E0BFE0CB2ED12CC8E0B1
:1014F000D0E0F701EC0FFD1FB6016C1B7D0B4081A6
:10150000C8010E945F052196C031D10591F70F5F98
:101510001F4F70E1E70EF11C0830110541F7C9CEED
:1015200080E595E00E941B06882309F4CDC28091D6
:10153000310690913206892B09F0C8C00E94B90388
:101540002B013C01A3E02A2E312C0E94B90364191F
:10155000750986099709603D77408105910508F076
:1015600079C00EEE14E0D0E0C0E0CE010E94880405
:10157000F12CE12CF801EE0DFF1D6081C7010E94E6
:101580004E04BFEFEB1AFB0AE8E0EE16F10491F708
:101590000E94A1032196085F1F4FC930D10529F78A
:1015A000C0900002D0900102C6016AE070E00E9483
:1015B000390F5B01EB01F5E0CC0FDD1FFA95E1F788
:1015C000C255DC4FF12CE12C10E000E0FE01E00FF1
:1015D000F11F67E070E0601B710B4081C7010E9442
:1015E0005F050F5F1F4F0430110581F7FFEFEF1A02
:1015F000FF0A249628E0E216F10431F746EF950140
:101600004203E001439FD00D1124CC0DDD1DE5E028
:10161000CC0FDD1FEA95E1F7C255DC4FF12CE12C30
:1016200010E000E0FE01E00FF11FB101601B710B43
:101630004081C7010E945F050F5F1F4F04301105F5
:1016400089F77FEFE71AF70A249688E0E816F10495
:1016500039F77BCF00910002109101020E5F1F4FFE
:101660001093320600933106BB24B3941016110672
:101670006CF50E947E0E20E130E040E050E00E94D8
:10168000D60E6B010E947E0EE601C956DA4FFE01AE
:10169000E059FF4F20812111E9CF24E030E040E004
:1016A00050E00E94D60E6F5F7F4F8F4F9F4F90E0AC
:1016B00080E060978617970734F4FE01E058FF4FEB
:1016C000B0820196F6CF01501109D0CF0E94B90324
:1016D0000091D2061091D3062091D4063091D50600
:1016E000601B710B820B930B683C710581059105A2
:1016F0000CF489C080913306909134060196909342
:101700003406809333060E94B9036093D206709327
:10171000D3068093D4069093D506C4E0D2E004E4C7
:1017200012E0488159814F3F540709F465C02A816E
:101730003B812F3F320709F45FC0CA010196FA01CD
:1017400074E0EE0FFF1F7A95E1F7E954FA4FE20FCC
:10175000F31F6081662309F435C1DA0164E0AA0F42
:10176000BB1F6A95E1F7A20FB31F70E060E06F5FE7
:101770007F4FFB01E40FF51F38976CF4FB01E295F6
:10178000F295F07FFE27E07FFE27EA0FFB1FE95668
:10179000FA4F1082ECCFF4E0880F991FFA95E1F729
:1017A00089569A4F820F931FFC011082998288827A
:1017B0009B828A82809131069091320601979093A4
:1017C000320680933106892BB9F4F0902A06809175
:1017D0000002909101020196909301028093000211
:1017E0000E94C50382E190E0F11002C08DEF9FEFEF
:1017F000909303028093020224960C171D0709F0B0
:1018000090CF0E94C5032091020230910302C09143
:101810002806D091290640912A06CE01019644233C
:1018200009F4E9C02031310560F4FE01B4E0EE0FA7
:10183000FF1FBA95E1F7E956FA4FE20FF31F41E0B7
:1018400040832031310560F4FC01A4E0EE0FFF1F5E
:10185000AA95E1F7E956FA4FE20FF31F41E0408302
:10186000B901615071096031710568F4AC01F4E0AF
:10187000440F551FFA95E1F749565A4F460F571F27
:1018800061E0DA016C93B901625071096031710550
:1018900068F4AC01E4E0440F551FEA95E1F74956BE
:1018A0005A4F460F571F61E0FA016083A901435068
:1018B000510940315105A0F404E0880F991F0A95A1
:1018C000E1F7280F391FF901EC56FA4F8081882380
:1018D00039F00E94C5032397D0932906C0932806A8
:1018E000809102029091030297FF0FC082E190E085
:1018F000909303028093020280912806909129061A
:1019000001969093290680932806E4E0F2E044E4EF
:1019100052E061E0808191818F3F980781F02281C0
:1019200033812F3F320759F074E0880F991F7A9561
:10193000E1F789559A4F820F931FDC016C9334961F
:101940004E175F0739F757E9E52E55E0F52E670189
:1019500010E000E0C8010E948804D0E0C0E0F60179
:10196000EC0FFD1F6081CE010E944E042196C8300D
:10197000D105A9F70E94A1030F5F1F4FB0E1CB0E65
:10198000D11C0930110531F710E000E04FE0C42E02
:10199000D12CC8E0D0E0F701EC0FFD1FB6016C1BA5
:1019A0007D0B4081C8010E945F052196C031D105A1
:1019B00091F70F5F1F4FE0E1EE0EF11C08301105AB
:1019C00041F777CCBC01E4E0660F771FEA95E1F7B9
:1019D00069567A4F620F731F463051053CF0DB01A8
:1019E0001C92998288829B828A8206CFFB01108298
:1019F0009983888301CF2031310560F4FE0114E022
:101A0000EE0FFF1F1A95E1F7E956FA4FE20FF31FA9
:101A100041E040832031310560F4FC01B4E0EE0F79
:101A2000FF1FBA95E1F7E956FA4FE20FF31F41E0C5
:101A30004083B9016F5F7F4F6031710568F4AC017D
:101A4000A4E0440F551FAA95E1F749565A4F460F97
:101A5000571F61E0DA016C93B9016E5F7F4F60310F
:101A6000710568F4AC01F4E0440F551FFA95E1F7F5
:101A700049565A4F460F571F61E0FA016083A9018A
:101A80004D5F5F4F40315105A8F4E4E0880F991F86
:101A9000EA95E1F789569A4F280F391FD901139615
:101AA0008C91882339F00E94C5032397D09329068F
:101AB000C0932806809102029091030241970CF492
:101AC00024CF8DEF9FEF14CF86E595E00E941B0693
:101AD000882309F4EECB8CE595E00E94830588E02D
:101AE00090E00E94900588E695E00E94830587E0DB
:101AF00090E00E949005DDCB411451046104710413
:101B000009F4F3CB0E94B9036B017C01C418D5081A
:101B1000E608F70810921706109218061092190698
:101B200010921A0683E495E00E941B06882349F070
:101B30008BE495E0F0EDCF16F7E0DF06E104F10469
:101B400008F580E595E00E941B06882339F020ED1A
:101B5000C21627E0D206E104F10490F486E595E090
:101B60000E941B06882309F4C0CB30EDC31637E072
:101B7000D306E104F10408F4B8CB80E595E002C097
:101B800086E595E00E94E305B0CB8BE495E00E94EA
:101B90001B06882329F084E795E00E94E305E1CB4A
:101BA00080E595E00E941B06882309F4DACB0E94A9
:101BB000C50310922A06D5CB8BE495E00E941B0644
:101BC000882329F080E595E00E94E30509CC80E5B3
:101BD00095E00E941B06882309F402CC0E94C503ED
:101BE00081E080932A06FCCB80E595E00E941B06ED
:101BF000882309F435CCE4E0F2E0808191810196FC
:101C000011F5828193810196F1F480910202909105
:101C1000030220912A06CC0FDD1FCC0FDD1FFE0131
:101C2000EC5FFD4F222369F0019793838283CC5FA1
:101C3000DD4F80912806909129060196998388832B
:101C40000FCC0196F2CF21963496C031D105A9F67A
:101C500007CC8091D6069091D706009711F00C948E
:101C6000051008958F929F92AF92BF92CF92DF920C
:101C7000EF92FF92CF93DF93EC01688179818A81A3
:101C80009B81611571058105910521F464E279ED6F
:101C90008BE597E02DE133EF41E050E00E94D60E56
:101CA00049015A019B01AC01A7EAB1E40E94F50E7B
:101CB0006B017C01ACEEB4EFA50194010E94030F0F
:101CC000C60ED71EE81EF91EF7FE06C081E0C81A30
:101CD000D108E10880E8F80AC882D982EA82FB824A
:101CE000C701B6019F77DF91CF91FF90EF90DF9012
:101CF000CF90BF90AF909F908F9008958F929F92BA
:101D0000AF92BF92CF92DF92EF92FF926091440226
:101D100070914502809146029091470261157105CC
:101D20008105910521F464E279ED8BE597E02DE1E1
:101D300033EF41E050E00E94D60E49015A019B0169
:101D4000AC01A7EAB1E40E94F50E6B017C01ACEE98
:101D5000B4EFA50194010E94030FC60ED71EE81E22
:101D6000F91EF7FE06C081E0C81AD108E10880E834
:101D7000F80AC0924402D0924502E0924602F092E4
:101D80004702C701B6019F77FF90EF90DF90CF9099
:101D9000BF90AF909F908F9008956093440270938E
:101DA000450280934602909347020895052E97FBC3
:101DB0001EF400940E94ED0E57FD07D00E94080FFC
:101DC00007FC03D04EF40C94ED0E509540953095E1
:101DD00021953F4F4F4F5F4F089590958095709597
:101DE00061957F4F8F4F9F4F08950E942A0FA59FA7
:101DF000900DB49F900DA49F800D911D1124089506
:101E0000B7FF0C94F50E0E94F50E821B930B0895FC
:101E1000A1E21A2EAA1BBB1BFD010DC0AA1FBB1FEE
:101E2000EE1FFF1FA217B307E407F50720F0A21B60
:101E3000B30BE40BF50B661F771F881F991F1A94CD
:101E400069F760957095809590959B01AC01BD01F7
:101E5000CF010895A29FB001B39FC001A39F700D51
:101E6000811D1124911DB29F700D811D1124911DA2
:101E7000089597FB072E16F4009407D077FD09D03C
:101E80000E94550F07FC05D03EF4909581959F4F19
:101E90000895709561957F4F0895EE0FFF1F881F7D
:101EA0008BBF0790F691E02D1994AA1BBB1B51E143
:101EB00007C0AA1FBB1FA617B70710F0A61BB70BBA
:101EC000881F991F5A95A9F780959095BC01CD015F
:101ED00008950F931F93CF93DF938230910510F4F1
:101EE00082E090E0E0913607F091370730E020E0A3
:101EF000B0E0A0E0309799F42115310509F44AC00B
:101F0000281B390B24303105D8F58A819B81611556
:101F1000710589F1FB0193838283FE0111C0408129
:101F200051810281138148175907E0F0481759077A
:101F300099F4109761F012960C93129713961C93D4
:101F40003296CF01DF91CF911F910F9108950093A9
:101F5000360710933707F4CF2115310551F042179A
:101F6000530738F0A901DB019A01BD01DF01F80137
:101F7000C1CFEF01F9CF9093370780933607CDCFCC
:101F8000FE01E20FF31F81939193225031093983AF
:101F90002883D7CF2091340730913507232B41F484
:101FA00020914A0230914B02309335072093340739
:101FB00020914802309149022115310541F42DB795
:101FC0003EB740914C0250914D02241B350BE091DD
:101FD0003407F0913507E217F307A0F42E1B3F0BEF
:101FE0002817390778F0AC014E5F5F4F241735078B
:101FF00048F04E0F5F1F509335074093340781938D
:1020000091939FCFF0E0E0E09CCFCF93DF930097D8
:10201000E9F0FC01329713821282A0913607B09149
:102020003707ED0130E020E01097A1F420813181E5
:10203000820F931F209134073091350728173907F5
:1020400009F061C0F0933507E0933407DF91CF9139
:102050000895EA01CE17DF07E8F54A815B819E010A
:1020600041155105B1F7E901FB83EA834991599183
:10207000C40FD51FEC17FD0761F480819181029692
:10208000840F951FE90199838883828193819B83C3
:102090008A83F0E0E0E012968D919C91139700976F
:1020A000B9F52D913C911197CD010296820F931FA6
:1020B00020913407309135072817390739F63097C2
:1020C00051F51092370710923607B0933507A09359
:1020D0003407BCCFD383C28340815181840F951FC5
:1020E000C817D90761F44E5F5F4F88819981480F07
:1020F000591F518340838A819B8193838283211559
:10210000310509F0B0CFF0933707E09336079ECF43
:10211000FD01DC01C0CF13821282D7CF4F925F92B4
:102120006F927F928F929F92AF92BF92CF92DF92E7
:10213000EF92FF920F931F93CF93DF938C01009741
:1021400099F4CB01DF91CF911F910F91FF90EF9008
:10215000DF90CF90BF90AF909F908F907F906F90C7
:102160005F904F900C94690FFC01E60FF71F9C01E4
:1021700022503109E217F30708F4AEC0D901CD911E
:10218000DC911197C617D70720F1C530D10578F03B
:10219000CE0104978617970750F0C61BD70B2297DE
:1021A000C193D1936D937C93CF010E940510C80118
:1021B000DF91CF911F910F91FF90EF90DF90CF9023
:1021C000BF90AF909F908F907F906F905F904F9057
:1021D00008955B01AC1ABD0A4C018C0E9D1EA091A6
:1021E0003607B0913707512C412CF12CE12C109778
:1021F00031F580913407909135078815990509F0DC
:102200005CC04616570608F058C08091480290916D
:102210004902009741F48DB79EB740914C0250910E
:102220004D02841B950BE817F90708F055C0F09391
:102230003507E0933407F90171836083B8CF8D913E
:102240009C91119712966C90129713967C9013970D
:10225000A815B90559F56C0142E0C40ED11CCA1489
:10226000DB0420F1AC014A195B09DA0112961597DB
:1022700080F06282738251834083D9016D937C9395
:10228000E114F10471F0D7011396FC93EE931297C9
:102290008ECF22968C0F9D1FF90191838083F301CD
:1022A000EFCFF0933707E093360781CF48165906F2
:1022B00008F42C017D01D3019ACFCB010E94690F54
:1022C0007C01009749F0AE01B8010E946F11C8016E
:1022D0000E94051087016BCF10E000E068CFFB0182
:1022E000DC0102C001900D9241505040D8F7089592
:1022F000FB01DC018D91019080190110D9F3990B3C
:102300000895FB01DC0101900D920020E1F7089592
:1023100011E0C7E3D1E000E006C0802FFE010E947B
:102320004D0F2196011DC833D10780E00807A9F79A
:04233000F894FFCF4F
:102334000100FDFFFFFFFFFFFFFFFFFFFFFFFFFFA8
:10234400FFFFFFFFFFFFFFFFFFFFFFFFFFFFFFFF99
:10235400FFFFFFFFFFFFFFFFFFFFFFFFFFFFFFFF89
:10236400FFFFFFFFFFFFFFFFFFFFFFFFFFFFFFFF79
:10237400FFFFFFFF01000000000038078000250078
:10238400240023002200210020001F001E001D0045
:102394001C001B001A001900180017001600010089
:1023A4000000010000010101000001000000000024
:1023B4000001010100000100000001000100000013
:1023C4000100010000000000010000000100010004
:1023D40000000100010000000100010000000000F5
:1023E40001000000010001010101010001000000E1
:1023F40001000100000000000100000001000101D3
:1024040001010100010000000100010000000000C2
:1024140001010101010001000000010001000000B0
:1024240001000100000000000100000001000100A3
:102434000000010001000000010001000000000094
:102444000100000001000100000001000001010181
:102454000000010101010100010000000100000071
:102464000000000101010101010000000000000062
:102474000000000101010101010000000000000151
:102484000000000100010101010000010100000140
:102494000101000100010100010001000000000031
:1024A4000000000100000100010001000000000024
:1024B4000100000100000000010000010100000013
:1024C4000000000101010101010000000000000002
:1024D40000000001010101010100000000000000F2
:1024E40000000101010101000001010000010100DF
:1024F40000010100000101000001010101010000CF
:1025040000000001010000010100010101000001BF
:1025140001000001010000010100010101010000AE
:10252400000001010101000000010000000101019F
:10253400010101000000010000000101010100008F
:10254400000001010101000000010000000101017F
:10255400010100000001000000010101010100006F
:10256400000001000001010000010100000101015F
:102574000101000000010000000100000001000052
:10258400000001010101010000000100000001013F
:10259400010100000001000000010101010100002F
:1025A400000001010101010000000100000001011F
:1025B400010101000001010000010101010100000D
:1025C4000000010101010000000100000001000100
:1025D40001010000000100000001000000010000F2
:1025E40000000101010101000001010000010101DD
:1025F40001010100000101000001010101010000CD
:1026040000000101010101000001010000010101BC
:1026140001010000000100000001000000010000B1
:1026240000000000000000010000000001000001A3
:102634000100000001000001000100000100000190
:102644000000010001000001000000010100000180
:102654000000000001000000000000000000000075
:10266400000020028A01B7016D02E801C601DA0107
:102674000D0A004D454E53414A45004D454E550007
:102684004A554741520050415553410044C3AD6738
:1026940069746F20313A200044C3AD6769746F20B8
:1026A400323A2000434F4E46494755524143494F21
:0E26B4004E004553544144495354494341009C
:00000001FF
