:100000000C9438010C9469010C9469010C946901F9
:100010000C9469010C9469010C9469010C946901B8
:100020000C9469010C9469010C9469010C946901A8
:100030000C9469010C9469010C9469010C94690198
:100040000C9469010C9469010C9469010C94690188
:100050000C9469010C9469010C9469010C946F076C
:100060000C9469010C9439070C940F070C946901E6
:100070000C9469010C9469010C9469010C94690158
:100080000C9469010C9469010C9469010C94690148
:100090000C9469010C9469010C9469010C94690138
:1000A0000C9469010C9469010C9469010C94690128
:1000B0000C9469010C9469010C9469010C94690118
:1000C0000C9469010C9469010C9469010C94690108
:1000D0000C9469010C9469010C9469010C946901F8
:1000E0000C9469010C94DC020C94B9070C94EA029C
:1000F0000C94F7020C94F1020C94E2020C946D0241
:100100000C9413030C94FB020C94E8010C941C0354
:100110000C9409030C94C6010C94E6020C948A0119
:100120000C94DA010C940F030C94D2110C94EE028F
:100130000C9401030C94B7010C9420020C9421033D
:100140000C9405030C941D030C941703000020006D
:100150002300260029002C002F003200000100009F
:1001600003010601090100000A0B02090C0D0E082B
:100170000703040100000000000000000000000070
:10018000000000000000000000000000000000006F
:10019000000012111000000000000000000000002C
:1001A000000000000000000000000000000022002D
:1001B000250028002B002E00310034000201000031
:1001C000050108010B0100002100240027002A007E
:1001D0002D003000330001010000040107010A0175
:1001E00005050505070508080808020202020A0AB3
:1001F00008080404040401010101010101010303D1
:10020000030303030303040707070C0C0C0C0C0C7B
:100210000C0C0202020206060606060606060B0B78
:100220000B0B0B0B0B0B01021020200808102040B9
:1002300010204080020102010804020101020408AA
:100240001020408080402010080402018004020138
:100250008040201008040201080402010102040881
:10026000102040800102040810204080B907D211FC
:1002700011241FBECFEFD1E2DEBFCDBF00E00CBF27
:100280001AE0A0E0B2E0E4E9FAE200E00BBF02C04D
:1002900007900D92A039B107D9F72CE0A0E9BAE098
:1002A00001C01D92A634B207E1F711E0C7E3D1E027
:1002B00000E006C021970109802FFE010E94F6127E
:1002C000C633D10780E00807A9F70E94A9080C945B
:1002D00038150C94000090E0FC01EA5DFD4F24917C
:1002E00080529E4FFC018491882399F090E0880F02
:1002F000991FFC01EA53FE4FA591B491FC01E4550E
:10030000FE4F859194918FB7F894EC91E22BEC938A
:100310008FBF0895AF92BF92CF92DF92EF92FF927C
:100320000F931F93CF93DF936C017B018B01040F1D
:10033000151FEB015E01AE18BF08C017D10759F0B9
:100340006991D601ED91FC910190F081E02DC601FB
:100350001995892B79F7C501DF91CF911F910F91E5
:10036000FF90EF90DF90CF90BF90AF900895FC0189
:10037000538D448D252F30E0842F90E0821B930B0A
:10038000541710F0CF96089501970895FC01918DB0
:10039000828D981761F0A28DAE0FBF2FB11D5D96B3
:1003A0008C91928D9F5F9F73928F90E008958FEF55
:1003B0009FEF0895FC01918D828D981731F0828D09
:1003C000E80FF11D858D90E008958FEF9FEF089560
:1003D000FC01918D228D892F90E0805C9F4F821BC4
:1003E00091098F739927089583E49BE00E94E801A7
:1003F00021E0892B09F420E0822F0895FC01A48DCF
:10040000A80FB92FB11DA35ABF4F2C91848D90E036
:1004100001968F739927848FA689B7892C93A08919
:10042000B1898C91837080648C93938D848D9813A3
:1004300006C00288F389E02D80818F7D8083089536
:10044000EF92FF920F931F93CF93DF93EC0181E024
:10045000888F9B8D8C8D98131AC0E889F9898081CB
:1004600085FF15C09FB7F894EE89FF896083E889FE
:10047000F98980818370806480839FBF81E090E0F0
:10048000DF91CF911F910F91FF90EF900895F62E7D
:100490000B8D10E00F5F1F4F0F731127E02E8C8D17
:1004A0008E110CC00FB607FCFACFE889F98980815C
:1004B00085FFF5CFCE010E94FE01F1CFEB8DEC0F51
:1004C000FD2FF11DE35AFF4FF0829FB7F8940B8F79
:1004D000EA89FB8980818062CFCFCF93DF93EC01E3
:1004E000888D8823B9F0AA89BB89E889F9898C911C
:1004F00085FD03C0808186FD0DC00FB607FCF7CFD8
:100500008C9185FFF2CF808185FFEDCFCE010E94D7
:10051000FE01E9CFDF91CF91089580E090E0892B33
:1005200029F00E94F40181110E94000080E090E017
:10053000892B49F080E090E0892B29F00E9400008F
:1005400081110E94000080E090E0892B49F080E05A
:1005500090E0892B29F00E94000081110E94000088
:1005600080E090E0892B49F080E090E0892B29F031
:100570000E94000081110C94000008958150823186
:1005800008F05AC0E82FF0E08827E653FD4F8F4F60
:100590000C94F612EA02EE02DC02E202E6021C030E
:1005A000F102F702FB020103050309030F03130322
:1005B0001C0317031D032103809180008F77809314
:1005C00080000895809180008F7DF9CF8091800018
:1005D000877FF5CF84B58F7784BD089584B58F7DEF
:1005E000FBCF8091B0008F778093B0000895809109
:1005F000B0008F7DF9CF809190008F77809390002D
:100600000895809190008F7DF9CF80919000877F31
:10061000F5CF8091A0008F778093A00008958091FE
:10062000A0008F7DF9CF8091A000877FF5CF8091CA
:1006300020018F77809320010895809120018F7D84
:10064000F9CF80912001877FF5CFCF93DF93282FBB
:1006500030E0F901EA59FE4F8491F901EA5DFD4F5E
:10066000D491F901E052FE4FC491CC23A1F0811145
:100670000E94BE02EC2FF0E0EE0FFF1FE45BFE4F86
:10068000A591B491EC91ED2381E090E009F480E034
:10069000DF91CF91089580E090E0FACF1F93CF9340
:1006A000DF93282F30E0F901EA59FE4F8491F901D8
:1006B000EA5DFD4FD491F901E052FE4FC491CC2385
:1006C000A9F0162F81110E94BE02EC2FF0E0EE0F70
:1006D000FF1FE455FE4FA591B4918FB7F894EC91AC
:1006E000111108C0D095DE23DC938FBFDF91CF912D
:1006F0001F910895DE2BF8CF90917B00977F909308
:100700007B008653806480937C0080917A008064B3
:1007100080937A0080917A0086FDFCCF80917800EA
:100720009091790008953FB7F8948091950A90913F
:10073000960AA091970AB091980A26B5A89B05C081
:100740002F3F19F00196A11DB11D3FBFBA2FA92F50
:10075000982F8827BC01CD01620F711D811D911D4D
:1007600042E0660F771F881F991F4A95D1F70895B9
:10077000CF92DF92EF92FF920E9493036B017C0174
:100780000E9493036C197D098E099F09683E73408E
:1007900081059105A8F3FF90EF90DF90CF90089529
:1007A0002FB7F8946091910A7091920A8091930A00
:1007B0009091940A2FBF0895EBE1FBE0DF0190E0F8
:1007C00080E02D913D91232B61F4880F991FFC014E
:1007D000E55EF44F8091990A90919A0A9183808303
:1007E000089501968530910561F72091990A30911D
:1007F0009A0A90E080E0419151914217530744F4E6
:10080000880F991FFC01E55EF44F31832083089522
:1008100001968530910579F7089581E090E09093F5
:100820000102809300021092400B10923F0B109235
:10083000370B1092360B8DEF9FEF9093050280934C
:10084000040210929A0A1092990A809102029091E1
:10085000030290934702809346028BE99AE030E0CE
:1008600020E0FC01E20FF31F10822F5F3F4F203189
:100870003105B9F740962BE08B31920781F7089547
:100880002091040230910502E091360BF091370B74
:100890006091380BCF010196662309F441C02031E5
:1008A000310550F4A4E0EE0FFF1FAA95E1F7E556DD
:1008B000F54FE20FF31F10822031310558F4FC018F
:1008C00074E0EE0FFF1F7A95E1F7E556F54FE20F62
:1008D000F31F1082A901415051094031510558F4CC
:1008E000FC0164E0EE0FFF1F6A95E1F7E556F54F56
:1008F000E40FF51F1082225031092031310558F4E0
:10090000FC0184E0EE0FFF1F8A95E1F7E556F54FF5
:10091000E20FF31F108250930502409304020895E2
:100920002031310550F4B4E0EE0FFF1FBA95E1F726
:10093000E556F54FE20FF31F108237FD0BC0FC01A7
:10094000A4E0EE0FFF1FAA95E1F7E556F54FE20F81
:10095000F31F1082A9014F5F5F4F57FD0BC0FC01D1
:1009600074E0EE0FFF1F7A95E1F7E556F54FE40FBF
:10097000F51F10822E5F3F4F37FDCDCF64E0880F0B
:10098000991F6A95E1F78556954F280F391FF90190
:10099000C1CF0F931F93CF938C01C62F85E2011512
:1009A000110521F00130110549F484E20E944E0343
:1009B0006C2F80E205301105E9F006C00230110508
:1009C00049F483E20E944E036C2F8FE1063011053B
:1009D00089F006C00330110549F482E20E944E03FB
:1009E0000730110561F46C2F8EE104C081E2043000
:1009F0001105F1F6CF911F910F910C944E03CF91F9
:100A00001F910F910895CF93DF93EC01892B39F556
:100A100060E08DE10E944E0361E08CE10E944E0394
:100A2000C230D10539F560E08BE10E944E0361E0F0
:100A30008AE10E944E03C430D10539F560E089E1B6
:100A40000E944E0361E088E10E944E03C630D1054A
:100A500039F560E087E10E944E0361E028C061E063
:100A60008DE10E944E03C130D105B1F660E08CE10A
:100A70000E944E0361E08BE10E944E03C330D1051A
:100A8000B1F660E08AE10E944E0361E089E10E94D4
:100A90004E03C530D105B1F660E088E10E944E03F7
:100AA00061E087E10E944E0360E02797B1F686E19E
:100AB000DF91CF910C944E03CF92DF92EF92FF9291
:100AC0000F931F93CF93DF931F921F92CDB7DEB783
:100AD00069834A83880F991F0091400C1091410C43
:100AE000000F111FEAEEFBE09F012A5E3B4020173A
:100AF000310714F41192F8CF2981FC01E651F44F2B
:100B000021838A81808360E080913E0C0E944E03A5
:100B10001016110604F501501109F801E651F44FC1
:100B2000E080D0903C0CC0903A0C88E0F82E6E2DFE
:100B3000661F6627661F8C2D0E944E03EE0C61E037
:100B40008D2D0E944E0360E08D2D0E944E03FA947D
:100B5000F110EDCFDDCF61E080913E0C0F900F9052
:100B6000DF91CF911F910F91FF90EF90DF90CF9089
:100B70000C944E03EF92FF920F931F93CF937C013F
:100B80008C0183E0000F111F8A95E1F70650144F86
:100B9000C1E0F80111928F0140E06C2FC7010E9463
:100BA0005C05CF5FC930A9F7CF911F910F91FF90DE
:100BB000EF9008952091400C3091410C12161306CD
:100BC000E4F488309105C9F020E830E002C03595A2
:100BD00027956A95E2F7FC01E651F44F50894423CA
:100BE00049F0252B208B61E0680F408990E080E080
:100BF0000C945C0520952523F5CF0895FC01019008
:100C00000020E9F73197AF01481B590BBC0183E481
:100C10009BE00C948A018F929F92AF92BF92CF92E9
:100C2000DF92EF92FF920F931F93CF93DF93CDB795
:100C3000DEB7A1970FB6F894DEBF0FBECDBF6C0133
:100C4000990FEE08FF08F7FE47C06DE283E49BE0D2
:100C50000E9420028C0122273327A9012C193D096B
:100C60004E095F0919A2CE0181967C019AE0892E76
:100C7000912CA12CB12CCA01B901A50194010E94AB
:100C8000B112605DF70162937F01211531054105C5
:100C9000510589F790E080E0309719F0CF010E946C
:100CA000FE05080F191F86E49AE00E94FE05800FDA
:100CB000911FA1960FB6F894DEBF0FBECDBFDF9196
:100CC000CF911F910F91FF90EF90DF90CF90BF9049
:100CD000AF909F908F900895A701960119A28E0161
:100CE0000F5D1F4F8AE0C82ED12CE12CF12CCA01D8
:100CF000B901A70196010E94B112605DF8016293EB
:100D00008F01211531054105510589F7309729F0EB
:100D1000CF010E94FE058C01C6CF10E000E0C3CFDA
:100D2000CF93DF93EC018091E40B9091E50B00975A
:100D300059F02091E60B3091E70B2C173D0720F07E
:100D400081E0DF91CF910895BE016F5F7F4F0E94D8
:100D50003E14009789F09093E50B8093E40BD093B9
:100D6000E70BC093E60B2091E80B3091E90B232BA6
:100D700039F7FC011082E4CF80E0E3CF0F931F939B
:100D8000CF93DF938C01EC0109900020E9F72197C4
:100D9000C81BD90BCE010E9490062091E40B309124
:100DA000E50B811117C02115310519F0C9010E9409
:100DB000B5131092E50B1092E40B1092E90B109210
:100DC000E80B1092E70B1092E60BDF91CF911F9189
:100DD0000F910895D093E90BC093E80BB801C901B6
:100DE000DF91CF911F910F910C9431152091E80B59
:100DF0003091E90B232B39F421E0FC018081882319
:100E000061F020E00AC0BC018091E40B9091E50BF9
:100E10000E94281521E0892BA1F7822F08951F92A7
:100E20000F920FB60F9211240BB60F922F933F9390
:100E30004F935F936F937F938F939F93AF93BF93E2
:100E4000EF93FF9383E49BE00E94FE01FF91EF91FB
:100E5000BF91AF919F918F917F916F915F914F91D2
:100E60003F912F910F900BBE0F900FBE0F901F90D0
:100E700018951F920F920FB60F9211240BB60F9276
:100E80002F938F939F93EF93FF93E091530BF091E8
:100E9000540B8081E091590BF0915A0B82FD1DC0DB
:100EA000908180915C0B8F5F8F7320915D0B821717
:100EB00041F0E0915C0BF0E0ED5BF44F958F809397
:100EC0005C0BFF91EF919F918F912F910F900BBE33
:100ED0000F900FBE0F901F9018958081F2CF1F9238
:100EE0000F920FB60F9211242F933F938F939F93DE
:100EF000AF93BF938091910A9091920AA091930A27
:100F0000B091940A3091900A23E0230F2D3758F5C1
:100F10000196A11DB11D2093900A8093910A909390
:100F2000920AA093930AB093940A8091950A9091A3
:100F3000960AA091970AB091980A0196A11DB11D39
:100F40008093950A9093960AA093970AB093980A73
:100F5000BF91AF919F918F913F912F910F900FBEB5
:100F60000F901F90189526E8230F0296A11DB11D22
:100F7000D2CFCF93DF931092460B1092450B88EEA1
:100F800093E0A0E0B0E08093470B9093480BA093D0
:100F9000490BB0934A0B88E39AE09093440B8093FB
:100FA000430B85EC90E09093500B80934F0B84ECB7
:100FB00090E09093520B8093510B80EC90E09093D3
:100FC000540B8093530B81EC90E09093560B8093DD
:100FD000550B82EC90E09093580B8093570B86EC66
:100FE00090E090935A0B8093590B10925C0B1092E7
:100FF0005D0B10925E0B10925F0BC3E3D0E0D093B9
:101000003B0CC0933A0C85E390E090933D0C8093A9
:101010003C0C84E390E090933F0C80933E0C81E085
:1010200090E09093410C8093400C83E30E946B010D
:1010300080913C0C0E946B0180913E0C0E946B01E0
:1010400061E080913E0C0E944E03D0933B0CC09314
:101050003A0CEAEFFBE011928CE0EA33F807D9F79B
:10106000D0E0C0E08091400C9091410CC817D907A6
:1010700074F540E06FE0CE010E945C058091400C69
:101080009091410CC817D9072CF447E06BE0CE01D2
:101090000E945C0540E069E0CE010E945C05809101
:1010A000400C9091410CC817D9071CF4CE010E9446
:1010B000BA058091400C9091410CC817D9072CF4C7
:1010C00040E06CE0CE010E945C052196CBCF1092EF
:1010D000E50B1092E40B1092E70B1092E60B1092C6
:1010E000E90B1092E80B87E090E00E9490062091B7
:1010F000E40B3091E50B811120C02115310519F069
:10110000C9010E94B5131092E50B1092E40B1092E6
:10111000E90B1092E80B1092E70B1092E60B0E947D
:10112000D0036093E00B7093E10B8093E20B9093FC
:10113000E30BDF91CF910C94D00387E090E0909384
:10114000E90B8093E80B69E47AE0C9010E9431154C
:10115000E6CFCF93DF93CDB7DEB7C258D1090FB634
:10116000F894DEBF0FBECDBF789484B5826084BD95
:1011700084B5816084BD85B5826085BD85B581609B
:1011800085BD80916E00816080936E001092810019
:1011900080918100826080938100809181008160D4
:1011A0008093810080918000816080938000809195
:1011B000B10084608093B1008091B0008160809321
:1011C000B0008091910082608093910080919100A5
:1011D0008160809391008091900081608093900065
:1011E0008091A10082608093A1008091A100816024
:1011F0008093A1008091A00081608093A0008091E5
:10120000210182608093210180912101816080937E
:1012100021018091200181608093200180917A00DA
:10122000846080937A0080917A00826080937A0053
:1012300080917A00816080937A0080917A00806842
:1012400080937A001092C10004E612E084E5E82E53
:1012500082E0F82ED8018C910E5F1F4F0E946B0127
:10126000F7018081F2E0EF0EF11C0E946B0122E099
:101270000437120779F7E091530BF091540B82E099
:101280008083E0914F0BF091500B1082E091510B55
:10129000F091520B8FEC808310925B0BE091570B17
:1012A000F091580B86E08083E091550BF091560B3E
:1012B000808180618083E091550BF091560B808195
:1012C00088608083E091550BF091560B8081806897
:1012D0008083E091550BF091560B80818F7D808348
:1012E0008091400C9091410C1816190634F441E09D
:1012F0006CE090E080E00E945C058091400C909151
:10130000410C1816190634F448E06AE090E080E0D9
:101310000E945C058091400C9091410C18161906B2
:1013200024F490E080E00E94BA05CE010196CF57E8
:10133000DF4F99838883C158D04089E49AE00E94A6
:10134000F606882309F4B5C10E94D0030091E00B92
:101350001091E10B2091E20B3091E30B6B017C01CA
:10136000C01AD10AE20AF30A970186016091480285
:10137000709149028CE291E00E94E212CB01770F5A
:10138000AA0BBB0B081719072A073B079CF0809193
:10139000410B9091420B01969093420B8093410B2D
:1013A0000E94D0036093E00B7093E10B8093E20BFB
:1013B0009093E30BD12CC12C14E8912EC6010E940E
:1013C0000305F12CE12C9C9CC0019D9C900D1124E7
:1013D0009C012C583D4F59010091410B1091420B3B
:1013E0000438110514F010E000E01093420B009354
:1013F000410B30902F0B332009F442C1C8018E0DF0
:101400009F1D64E870E00E94E212F501E80FF91FE9
:101410006081C7010E94C904BFEFEB1AFB0AE8E034
:10142000EE16F104C9F60E94B803FFEFCF1ADF0AE7
:1014300029E0C216D10411F62801440C551CF12CE8
:10144000E12CB4E82B2E380135E7631A7108E8E087
:10145000AE2EB12CA01AB10AF7E0CF2ED12C2E9CC3
:10146000C0012F9C900D1124DC01AC58BD4F4D01E3
:10147000332009F414C1C2018A0D9B1D84389105E3
:101480001CF0C3018C199D09880D991DFC01408138
:10149000B601C7010E94DA05B1E0CB1AD108EFEF1F
:1014A000AE1ABE0AFFEFCF16DF0611F72FEFE21AD2
:1014B000F20A38E0E316F10451F68FE20E942503A8
:1014C0008090250B9090260BA090270BB090280BB6
:1014D000019709F07FC689288A288B2851F40E9439
:1014E000D0036093250B7093260B8093270B90936A
:1014F000280B81E30E9425038C0180912E0B80171D
:10150000110651F00E94D00360932A0B70932B0BAD
:1015100080932C0B90932D0B0E94D003FF24F39407
:101520000115110509F4F12C80902A0B90902B0BDA
:10153000A0902C0BB0902D0B681979098A099B0992
:10154000633371058105910590F08091290B801717
:10155000110669F0F092290B012B49F489E49AE015
:101560000E94F606882309F4B7C610922F0BF0925A
:101570002E0B80E30E9425038C018091350B801790
:10158000110651F00E94D0036093310B7093320B1F
:101590008093330B9093340B0E94D003FF24F39479
:1015A0000115110509F4F12C8090310B9090320B4C
:1015B000A090330BB090340B681979098A099B0904
:1015C000633371058105910598F08091300B801788
:1015D000110671F0F092300B012B51F489E49AE07E
:1015E0000E94F606882309F48EC681E080932F0BB3
:1015F000F092350B82E30E9425038C0180913E0B13
:101600008017110651F00E94D00360933A0B70933B
:101610003B0B80933C0B90933D0B0E94D003FF2427
:10162000F3940115110509F4F12C80903A0B909078
:101630003B0BA0903C0BB0903D0B681979098A09CF
:101640009B096333710581059105A8F08091390BE1
:101650008017110681F0F092390B0115110559F42C
:1016600081E59AE00E94F606882309F464C684E8BE
:101670009AE00E94BE06F0923E0B0E948D025DCE63
:10168000C701801B910B97FF05C0C7018C579F4F67
:10169000801B910B8A0D9B1DDC016C91BACEC5019C
:1016A000B7FE02C08C579F4F880D991DDC014C91ED
:1016B000EFCE81E59AE00E94F606882309F443C044
:1016C00074E9C72E76E0D72E5601F12CE12CC70124
:1016D0000E94030510E000E0F501E00FF11F6081BA
:1016E000C8010E94C9040F5F1F4F08301105A1F700
:1016F0000E94B8034FEFE41AF40A70E1A70EB11C80
:1017000089E0E816F10419F7F12CE12C08E010E06B
:10171000F601E00FF11F6FE070E0601B710B40817C
:10172000C7010E94DA050F5F1F4F0031110581F7D5
:101730009FEFE91AF90AA0E1CA0ED11CB8E0EB1636
:10174000F10421F7BACE86E59AE00E94F6068823D6
:1017500009F449C380913F0B9091400B892B09F00C
:10176000D4C00E94D0032B013C016AE0262E312C0C
:101770000E94D0036419750986099709603D774076
:101780008105910508F083C054E1E52E57E0F52E60
:1017900010E000E0C8010E940305D12CC12CF70124
:1017A000EC0DFD1D6081C6010E94C904FFEFCF1A38
:1017B000DF0A28E0C216D10491F70E94B8030F5F38
:1017C0001F4F38E0E30EF11C0930110519F7A09006
:1017D0000002B0900102C501B1010E94E2124B016A
:1017E0008B0145E0000F111F4A95E1F70C5A184F85
:1017F000D12CC12CF12CE12CF801EE0DFF1D67E07E
:1018000070E06E197F094081C6010E94DA054FEF32
:10181000E41AF40A74E0E716F10471F78FEFC81ABE
:10182000D80A0C5F1F4F98E0C916D10419F746EF8C
:10183000940142038001439F100D11240A0D1B1DCA
:1018400035E0000F111F3A95E1F70C5A184FD12CD3
:10185000C12CF12CE12CF801EE0DFF1D63E070E0CE
:101860006E197F094081C6010E94DA057FEFE71AF1
:10187000F70A84E0E816F10471F79FEFC91AD90A54
:101880000C5F1F4FA8E0CA16D10419F771CF009161
:101890000002109101020E5F1F4F1093400B009346
:1018A0003F0BBB24B394101611067CF50E9427123F
:1018B00020E130E040E050E00E947F126B010E9486
:1018C0002712F601E556F54F6F01E059FF4F2081D1
:1018D0002111E9CF24E030E040E050E00E947F1287
:1018E0006F5F7F4F8F4F9F4F90E080E0F0E1CF1A06
:1018F000D1088617970734F4F601E058FF4FB082FD
:101900000196F4CF01501109CECF0E94D00300916F
:10191000E00B1091E10B2091E20B3091E30B6B0196
:101920007C01C01AD10AE20AF30A9701860160918C
:101930004802709149028CE291E00E94E212CB01D0
:10194000770FAA0BBB0B081719072A073B070CF4E4
:10195000A9C08091410B9091420B01969093420B4C
:101960008093410B0E94D0036093E00B7093E10BD6
:101970008093E20B9093E30B06E012E0EE24EA94EE
:10198000FE2C25E0C22ED12CD801AD90BC90BFEF2B
:10199000AB16BB0609F47DC0D8011296ED91FC91FF
:1019A000EF3FFE0709F475C095012F5F3F4FD5014A
:1019B00084E0AA0FBB1F8A95E1F7A554B54FAE0F7F
:1019C000BF1F8C91882309F46DC18091990A909171
:1019D0009A0A019690939A0A8093990AB6010E94F6
:1019E000E212892B49F480914602909147020196B8
:1019F0009093470280934602A50174E0440F551F5F
:101A00007A95E1F74E0F5F1F90E080E00196BC01F0
:101A10006A0D7B1D6830710564F4DC0164E0AA0F77
:101A2000BB1F6A95E1F7A40FB51FA556B54F1C92D1
:101A3000EDCF54E0220F331F5A95E1F72556354F6D
:101A4000E20FF31F1082F801F182E082F382E2825A
:101A500080913F0B9091400B01979093400B8093A6
:101A60003F0B892BB1F4B090380B8091000290911C
:101A70000102019690930102809300020B970CF4EF
:101A800000C10E94DC030E940D0489E49AE00E94D8
:101A9000BE060C5F1F4FF2E006341F0709F074CF3B
:101AA0000E94400420910402309105020091360BFF
:101AB0001091370B4091380BC8010196442309F46B
:101AC00016C12031310560F4F801B4E0EE0FFF1FBC
:101AD000BA95E1F7E556F54FE20FF31F41E0408379
:101AE0002031310560F4FC01A4E0EE0FFF1FAA9540
:101AF000E1F7E556F54FE20FF31F41E04083A901FE
:101B0000415051094031510560F4FC0174E0EE0F81
:101B1000FF1F7A95E1F7E556F54FE40FF51F41E019
:101B20004083A901425051094031510560F4FC0144
:101B300064E0EE0FFF1F6A95E1F7E556F54FE40FFD
:101B4000F51F41E04083A90143505109403151053F
:101B500010F5FC0184E0EE0FFF1F8A95E1F7E20F1C
:101B6000F31FE856F54F80818823A9F08091460243
:101B7000909147020197909347028093460218166E
:101B800019060CF0ABC00E944004035011091093D9
:101B9000370B0093360B809104029091050297FF5A
:101BA0000FC082E190E0909305028093040280913F
:101BB000360B9091370B01969093370B8093360B31
:101BC000E6E0F2E046E452E061E0808191818F3FFF
:101BD000980781F0228133812F3F320759F0A4E02A
:101BE000880F991FAA95E1F78555954F820F931F8E
:101BF000DC016C9334964E175F0739F7EBE9CE2E74
:101C0000EAE0DE2E5601F12CE12CC7010E9403050B
:101C100010E000E0F501E00FF11F6081C8010E94B3
:101C2000C9040F5F1F4F08301105A1F70E94B803C8
:101C3000BFEFEB1AFB0AE0E1AE0EB11CF9E0EF16C4
:101C4000F10419F7F12CE12C08E010E0F601E00FA7
:101C5000F11F6FE070E0601B710B4081C7010E94B3
:101C6000DA050F5F1F4F0031110581F72FEFE21AE0
:101C7000F20A30E1C30ED11C48E0E416F10421F76A
:101C80001CCC0E94400482E190E0B11002C08DEFB4
:101C90009FEF90930502809304021092370B1092ED
:101CA000360BF7CEC90144E0880F991F4A95E1F73A
:101CB0008556954FE80FF91F108246E0A416B1042F
:101CC0004CF0D8011196FC92EE921396FC92EE9293
:101CD0001297DFCEF80131832083DBCE0E94DC0334
:101CE0000E940D0489E49AE00E94BE0654CF203180
:101CF000310560F4F801B4E0EE0FFF1FBA95E1F78B
:101D0000E556F54FE20FF31F41E0408320313105E6
:101D100060F4FC01A4E0EE0FFF1FAA95E1F7E55681
:101D2000F54FE20FF31F41E04083A9014F5F5F4F82
:101D30004031510560F4FC0174E0EE0FFF1F7A950D
:101D4000E1F7E556F54FE40FF51F41E04083A901A7
:101D50004E5F5F4F4031510560F4FC0164E0EE0FCF
:101D6000FF1F6A95E1F7E556F54FE40FF51F41E0D7
:101D70004083A9014D5F5F4F4031510508F5FC01DB
:101D8000B4E0EE0FFF1FBA95E1F7E556F54FE20F0D
:101D9000F31F83818823A1F080914602909147022E
:101DA000019790934702809346021816190694F4FF
:101DB0000E944004035011091093370B0093360B17
:101DC000809104029091050241970CF4F9CE8DEFB9
:101DD0009FEFE9CE0E94DC030E940D0489E49AE0A3
:101DE0000E94BE06EDCF8CE59AE00E94F60688239D
:101DF00009F489C080914602909147026AE070E040
:101E00000E94E2127B018C01CB010E940B06C801EB
:101E10000E940B0674E9872E78E0972EB12CA12C36
:101E2000C5010E940305D12CC12CF401EC0DFD1D50
:101E30006081C6010E94C9047FEFC71AD70A88E0F3
:101E4000C816D10491F70E94B8039FEFA91AB90AE6
:101E5000A8E08A0E911CB9E0AB16B10409F755E071
:101E6000EE0CFF1C5A95E1F7F701EC5AF84F7F0191
:101E7000B12CA12C67E0862E912CD12CC12CF7011E
:101E8000EC0DFD1DB4016C197D094081C5010E9456
:101E9000DA05FFEFCF1ADF0A24E0C216D10479F782
:101EA0003FEFA31AB30A44E0E40EF11C78E0A71652
:101EB000B10419F735E0000F111F3A95E1F70C5AFC
:101EC000184FD12CC12C43E0A42EB12CF12CE12CC5
:101ED000F801EE0DFF1DB5016E197F094081C601A5
:101EE0000E94DA058FEFE81AF80A94E0E916F10487
:101EF00079F7AFEFCA1ADA0A0C5F1F4FB8E0CB16BA
:101F0000D10421F7DACA82E69AE00E94F606882315
:101F100009F4CAC0009148021091490286E30E9468
:101F20007C03BC01990F880B990B660F771F881FE4
:101F3000991F2FEF33E040E050E00E947F1229010B
:101F40003A01EFEF4E1A5E0A6E0A7E0A80E79AE0C7
:101F50000E94FE05C2010E940B060B3011050CF019
:101F600052C087E30E947C0327E030E0DC010E943E
:101F7000FE122FEF33E040E050E00E947F12490153
:101F80005A01F3E08F0E911CA11CB11C8CE79AE062
:101F90000E94FE05C4010E940B0684010F5F1F4FC3
:101FA000F5E0000F111FFA95E1F70C5E164FA4E063
:101FB000CA2ED12CB7E02B2E312CF12CE12CF701BD
:101FC000E058F109E00FF11FB1016E197F0940815E
:101FD000C6010E94DA052FEFE21AF20A38E0E31692
:101FE000F10469F74FEFC41AD40A085F1F4F78E075
:101FF000C716D10411F790920302809202029092C8
:10200000470280924602E4EDEE2EE8E0FE2E10E05C
:1020100000E0C8010E940305D12CC12CF701EC0D92
:10202000FD1D6081C6010E94C9048FEFC81AD80A3D
:1020300098E0C916D10491F70E94B8030F5F1F4FB3
:10204000A8E0EA0EF11C0930110519F7820165E0DC
:10205000000F111F6A95E1F70C5E164FD12CC12CB1
:1020600077E0A72EB12CF12CE12CF801EE0DFF1D2D
:10207000B5016E197F094081C6010E94DA05BFEFE4
:10208000EB1AFB0AE8E0EE16F10479F7FFEFCF1A3E
:10209000DF0A085F1F4F24E0C216D10421F75092D7
:1020A00049024092480209CA84E89AE00E94F60672
:1020B000882309F402CA80E8CF57DF4FA881B9818D
:1020C000C158D0401D928A95E9F720911D0B30919F
:1020D0001E0B80911B0B90911C0B280F391F8091B8
:1020E0001F0B9091200B280F391F8091210B90918D
:1020F000220B280F391F8091230B9091240B280F5E
:10210000391F0BE11BE0E1E0F0E041E0D8018D91E7
:102110009D918D0153E0880F991F5A95E1F7B90100
:102120000E94E212A1E7B0E0AC0FBD1FAE0FBF1FCF
:1021300090E080E0861797073CF44C9311964C93FF
:10214000119701965097F6CF3396E031F105F1F6ED
:10215000FE0131966F015F01F12CE12CC7010E9455
:10216000030510E000E0F501E00FF11F6081C801F8
:102170000E94C9040F5F1F4F08301105A1F70E948C
:10218000B8033FEFE31AF30A40E1A40EB11C79E073
:10219000E716F10419F7F12CE12C08E010E0F60144
:1021A000E00FF11F6FE070E0601B710B4081C70111
:1021B0000E94DA050F5F1F4F0031110581F78FEF85
:1021C000E81AF80A90E1C90ED11CA8E0EA16F10459
:1021D00021F773C981149104A104B10409F489C9D8
:1021E0000E94D0036B017C01C818D908EA08FB08DB
:1021F0001092250B1092260B1092270B1092280B91
:1022000089E49AE00E94F606882351F0B0EDCB16DF
:10221000B7E0DB06E104F10418F081E59AE038C08C
:1022200086E59AE00E94F606882339F0E0EDCE16A6
:10223000E7E0DE06E104F10448F58CE59AE00E944F
:10224000F606811128C082E69AE00E94F606811106
:1022500038C081E59AE00E94F606882339F041ED06
:10226000C41647E0D406E104F10498F584E89AE046
:102270000E94F606882309F43CC978EBC7167BE078
:10228000D706E104F10408F434C9C7CF8CE59AE01D
:102290000E94BE062EC9F8EBCF16FBE0DF06E10474
:1022A000F10428F00E94DC030E940D04B6CF20ED5B
:1022B000C21627E0D206E104F10428F286E59AE08E
:1022C000E7CF38EBC3163BE0D306E104F10408F294
:1022D000A4CF89E49AE0DCCF81E59AE00E94F6067B
:1022E000882329F082E69AE00E94BE0640C986E56E
:1022F0009AE00E94F606882309F439C90E94400436
:102300001092380B34C981E59AE00E94F6068823C2
:1023100029F086E59AE00E94BE066AC986E59AE041
:102320000E94F606882309F463C90E94400481E0F4
:102330008093380B5DC986E59AE00E94F6068823F3
:1023400009F499C9E6E0F2E080819181019619F5DE
:10235000828193810196F9F48091040290910502A3
:102360002091380B000F111F000F111FF801EA5FB9
:10237000FD4F222371F0019793838283F801EA5F76
:10238000FD4F8091360B9091370B0196918380839E
:1023900072C90196F1CF0F5F1F4F349600311105BE
:1023A00099F669C98091E40B9091E50B009711F0C3
:1023B0000C94B51308958F929F92AF92BF92CF92D3
:1023C000DF92EF92FF92CF93DF93EC0168817981E6
:1023D0008A819B81611571058105910521F464E273
:1023E00079ED8BE597E02DE133EF41E050E00E947D
:1023F0007F1249015A019B01AC01A7EAB1E40E9496
:102400009E126B017C01ACEEB4EFA50194010E9419
:10241000AC12C60ED71EE81EF91EF7FE06C081E0FC
:10242000C81AD108E10880E8F80AC882D982EA828D
:10243000FB82C701B6019F77DF91CF91FF90EF90AC
:10244000DF90CF90BF90AF909F908F9008958F9224
:102450009F92AF92BF92CF92DF92EF92FF926091E4
:102460004A0270914B0280914C0290914D0261158D
:1024700071058105910521F464E279ED8BE597E022
:102480002DE133EF41E050E00E947F1249015A01F3
:102490009B01AC01A7EAB1E40E949E126B017C0192
:1024A000ACEEB4EFA50194010E94AC12C60ED71E8B
:1024B000E81EF91EF7FE06C081E0C81AD108E1083F
:1024C00080E8F80AC0924A02D0924B02E0924C0295
:1024D000F0924D02C701B6019F77FF90EF90DF9019
:1024E000CF90BF90AF909F908F90089560934A02D5
:1024F00070934B0280934C0290934D020895052EE9
:1025000097FB1EF400940E94961257FD07D00E947C
:10251000B11207FC03D04EF40C94961250954095DE
:10252000309521953F4F4F4F5F4F0895909580957F
:10253000709561957F4F8F4F9F4F08950E94D312E2
:10254000A59F900DB49F900DA49F800D911D112407
:102550000895B7FF0C949E120E949E12821B930B4B
:102560000895A1E21A2EAA1BBB1BFD010DC0AA1FD4
:10257000BB1FEE1FFF1FA217B307E407F50720F0EC
:10258000A21BB30BE40BF50B661F771F881F991F67
:102590001A9469F760957095809590959B01AC01B0
:1025A000BD01CF010895A29FB001B39FC001A39FB9
:1025B000700D811D1124911DB29F700D811D11247C
:1025C000911D089597FB072E16F4009407D077FD10
:1025D00009D00E94051307FC05D03EF49095819523
:1025E0009F4F0895709561957F4F0895EE0FFF1FDF
:1025F000881F8BBF0790F691E02D19940E94D3128B
:10260000B7FF0895821B930B0895AA1BBB1B51E1D2
:1026100007C0AA1FBB1FA617B70710F0A61BB70B52
:10262000881F991F5A95A9F780959095BC01CD01F7
:1026300008950F931F93CF93DF938230910510F489
:1026400082E090E0E091440CF091450C30E020E015
:10265000B0E0A0E0309799F42115310509F44AC0A3
:10266000281B390B24303105D8F58A819B816115EF
:10267000710589F1FB0193838283FE0111C04081C2
:1026800051810281138148175907E0F04817590713
:1026900099F4109761F012960C93129713961C936D
:1026A0003296CF01DF91CF911F910F910895009342
:1026B000440C1093450CF4CF2115310551F042170D
:1026C000530738F0A901DB019A01BD01DF01F801D0
:1026D000C1CFEF01F9CF9093450C8093440CCDCF3F
:1026E000FE01E20FF31F8193919322503109398348
:1026F0002883D7CF2091420C3091430C232B41F4F7
:1027000020915002309151023093430C2093420C9F
:1027100020914E0230914F022115310541F42DB721
:102720003EB74091520250915302241B350BE09169
:10273000420CF091430CE217F307A0F42E1B3F0B61
:102740002817390778F0AC014E5F5F4F2417350723
:1027500048F04E0F5F1F5093430C4093420C8193FF
:1027600091939FCFF0E0E0E09CCFCF93DF93009771
:10277000E9F0FC01329713821282A091440CB091CF
:10278000450CED0130E020E01097A1F4208131816B
:10279000820F931F2091420C3091430C2817390768
:1027A00009F061C0F093430CE093420CDF91CF91AC
:1027B0000895EA01CE17DF07E8F54A815B819E01A3
:1027C00041155105B1F7E901FB83EA83499159911C
:1027D000C40FD51FEC17FD0761F48081918102962B
:1027E000840F951FE90199838883828193819B835C
:1027F0008A83F0E0E0E012968D919C911397009708
:10280000B9F52D913C911197CD010296820F931F3E
:102810002091420C3091430C2817390739F6309734
:1028200051F51092450C1092440CB093430CA093B8
:10283000420CBCCFD383C28340815181840F951F4A
:10284000C817D90761F44E5F5F4F88819981480F9F
:10285000591F518340838A819B81938382832115F1
:10286000310509F0B0CFF093450CE093440C9ECFB6
:10287000FD01DC01C0CF13821282D7CF4F925F924D
:102880006F927F928F929F92AF92BF92CF92DF9280
:10289000EF92FF920F931F93CF93DF938C010097DA
:1028A00099F4CB01DF91CF911F910F91FF90EF90A1
:1028B000DF90CF90BF90AF909F908F907F906F9060
:1028C0005F904F900C941913FC01E60FF71F9C01C9
:1028D00022503109E217F30708F4AEC0D901CD91B7
:1028E000DC911197C617D70720F1C530D10578F0D4
:1028F000CE0104978617970750F0C61BD70B229777
:10290000C193D1936D937C93CF010E94B513C801FD
:10291000DF91CF911F910F91FF90EF90DF90CF90BB
:10292000BF90AF909F908F907F906F905F904F90EF
:1029300008955B01AC1ABD0A4C018C0E9D1EA0913E
:10294000440CB091450C512C412CF12CE12C1097EA
:1029500031F58091420C9091430C8815990509F04E
:102960005CC04616570608F058C080914E02909100
:102970004F02009741F48DB79EB74091520250919B
:102980005302841B950BE817F90708F055C0F09324
:10299000430CE093420CF90171836083B8CF8D91B1
:1029A0009C91119712966C90129713967C901397A6
:1029B000A815B90559F56C0142E0C40ED11CCA1422
:1029C000DB0420F1AC014A195B09DA011296159774
:1029D00080F06282738251834083D9016D937C932E
:1029E000E114F10471F0D7011396FC93EE93129762
:1029F0008ECF22968C0F9D1FF90191838083F30166
:102A0000EFCFF093450CE093440C81CF4816590664
:102A100008F42C017D01D3019ACFCB010E94191338
:102A20007C01009749F0AE01B8010E941F15C80152
:102A30000E94B51387016BCF10E000E068CFFB0167
:102A4000DC0102C001900D9241505040D8F708952A
:102A5000FB01DC018D91019080190110D9F3990BD4
:102A60000895FB01DC0101900D920020E1F708952B
:102A700011E0C7E3D1E000E006C0802FFE010E9414
:102A8000F6122196011DC833D10780E00807A9F787
:042A9000F894FFCFE8
:102A940001000300FDFFFFFFFFFFFFFFFFFFFFFF3C
:102AA400FFFFFFFFFFFFFFFFFFFFFFFFFFFFFFFF32
:102AB400FFFFFFFFFFFFFFFFFFFFFFFFFFFFFFFF22
:102AC400FFFFFFFFFFFFFFFFFFFFFFFFFFFFFFFF12
:102AD400FFFFFFFFFFFF03000100010000000000F3
:102AE400460C800025002400230022002100200041
:102AF4001F001E001D001C001B001A0019001800F6
:102B0400170016000000000000000101010101008F
:102B140000010101000000000100000000000000AD
:102B2400000000000000000000010101010000009D
:102B3400000000000001010100000001010100008B
:102B4400000101010000000101010000000000007B
:102B5400010000000000000001010101010001006A
:102B64000000010001010101000000010101000059
:102B7400000000000000000001000000000101014D
:102B8400000001000000000000000000000001003F
:102B9400000001000100000001000001010000002C
:102BA4000000000000000000000000000000000120
:102BB400000000000000000001000000010001000E
:102BC40000000100010000000100010000000100FC
:102BD40000000001000000010101000001000000EC
:102BE40001000100000001000100000001000100DB
:102BF40000000100000000000000000101000000CE
:102C040001000000010000010000000001010101B9
:102C140001000100000001000100000001000101A9
:102C2400010000000000000000000100000001009D
:102C3400000000010000000000000000000000008F
:102C4400010001000000010000000000010000007C
:102C5400000001000000010000000100000001006C
:102C6400010000000100010000000100010000005B
:102C7400010001000000010000000000000001014B
:102C8400010000000100000001000000010000003C
:102C94000100000001000101010101000100000028
:102CA4000100000001000000010101010100010018
:102CB4000000010000000001000001010101010009
:102CC40000000001000001000001010000000001FB
:102CD40000000000000100000001000000000100ED
:102CE40000000100010101010100010000000100D8
:102CF40001010101010001000000010000000000C9
:102D040000000000010000000001010100000000BB
:102D140000010000010000000100010100000000AA
:102D24000101010101000000010000000000000099
:102D3400000001000000010001000001000000008B
:102D4400000000000000010000000100010001007B
:102D5400000001000000000001000000010000006C
:102D64000000000101010100010100000000010058
:102D7400000001000100000000000100000001004B
:102D8400000000000000000001000000010000003D
:102D94000100000000000100010101010100010027
:102DA400010000000100000001000000010000001B
:102DB400000000000000000100010000010000010B
:102DC40000000000000000000001000000000101FC
:102DD40000000100000100000000000000010000EC
:102DE40000010000000001000000010001000100DA
:102DF40000000100000001000100000000000100CB
:102E040000000100000000000000000001000000BC
:102E140001000000010000000001000001000000AA
:102E24000000010000010000010000000100010198
:102E3400010101000000000000000000010000008A
:102E4400000101000000000000000000010000007B
:102E5400000001000000010001000000000000006B
:102E6400000001000000010000000001000100005A
:102E74000100000100000100000001000100000049
:102E8400000001000000010000000000000001013A
:102E94000101010001000000010000000100000028
:102EA400010000000000010000000100010000001A
:102EB4000100010101010100000000000000000008
:102EC40000000000000000000000000000000000FE
:102ED40001010101010000010101000001010101E2
:102EE40001000001010100000000000100000000D9
:102EF40001000000010000000100000101010000C8
:102F040001000000000000010101000000000000B9
:102F140000000101010101000001010100000001A4
:102F24000000000000000000000101010101010097
:102F34000000000000000000000101010101010087
:102F44000000000000010000000100010101010077
:102F54000001010000010101000100010100010064
:102F64000100000000000000000100000100010059
:102F74000100000000000100000100000000010049
:102F84000001010000000000000101010101010035
:102F94000000000000000000000101010101010027
:102FA400000000000000000000000000000100001C
:102FB4000000010000010100000001000001000107
:102FC40000000100000100000100010000010000F8
:102FD40000010100000100000000010000000000E9
:102FE40000000000000000000101010101000001D7
:102FF40001000001010000010100000101000001C5
:1030040001010101000000000001010000010100B4
:1030140001010100000101000001010000010100A3
:103024000101010100000000010101010000000193
:103034000000000101010101010000000100000085
:103044000101010100000000010101010000000173
:103054000000000101010101000000010000000165
:103064000101010100000000010000010100000154
:103074000100000101010101000000010000000144
:103084000000000100000000010101010100000036
:103094000100000001010101000000010000000125
:1030A4000101010100000000010101010100000013
:1030B4000100000001010101010000010100000103
:1030C40001010101000000000101010100000001F3
:1030D40000000001000101010000000100000001E6
:1030E40000000001000000000101010101000001D5
:1030F40001000001010101010100000101000001C2
:1031040001010101000000000101010101000001B1
:1031140001000001010101010000000100000001A3
:103124000000000100010100000101000101010192
:10313400010101010101010101010101010101017B
:10314400010101010101010101010101000101016C
:103154000101010000000101010100000000000163
:103164000100000001000000010101010100000054
:103174000100010000010001000101000000010044
:103184000001010001010101000000010100000132
:103194000000000101000000010001000101010024
:1031A400000100000000000000000000000000001A
:1031B400000000000000000000000000000000000B
:1031C40000000000000000000000000001000000FA
:1031D40000000000010000000000000000000000EA
:1031E40000000000000000000000000001010000D9
:1031F40000000000010100000000000000000000C9
:1032040000000000000000000000000001010100B7
:1032140000000000010101000000000000000000A7
:103224000000000000000000000000000101010196
:103234000000000001010101000000000000000086
:103244000000000000000000000000000101010176
:103254000100000001010101010000000000000064
:103264000000000000000000000000000101010156
:103274000101000001010101010100000000000042
:103284000000000000000000000000000101010136
:103294000101010001010101010101000000000020
:1032A4000000000000000000000000000101010116
:1032B40001010101010101010101010100000000FE
:1032C400000000000000000020028A01B7016D0226
:1032D400E801C601DA010D0A004D454E53414A4545
:1032E400004D454E55004A554741520050415553F3
:1032F4004100434F4E46494755524143494F4E00C2
:1033040076656C6F63696461643A20007669646110
:10331400733A2000455354414449535449434100AE
:00000001FF
