:020000040000FA
:100000000C9438010C9469010C9469010C946901F9
:100010000C9469010C9469010C9469010C946901B8
:100020000C9469010C9469010C9469010C946901A8
:100030000C9469010C9469010C9469010C94690198
:100040000C9469010C9469010C9469010C94690188
:100050000C9469010C9469010C9469010C940007DB
:100060000C9469010C94CA060C94A0060C946901C6
:100070000C9469010C9469010C9469010C94690158
:100080000C9469010C9469010C9469010C94690148
:100090000C9469010C9469010C9469010C94690138
:1000A0000C9469010C9469010C9469010C94690128
:1000B0000C9469010C9469010C9469010C94690118
:1000C0000C9469010C9469010C9469010C94690108
:1000D0000C9469010C9469010C9469010C946901F8
:1000E0000C9469010C9409030C9405030C942002F0
:1000F0000C94B7010C9413030C94630F0C94F70247
:100100000C94DC020C941C030C94DA010C946D0228
:100110000C944A070C9421030C940F030C94FB02DB
:100120000C94EE020C94E6020C94E8010C948A0103
:100130000C94F1020C94EA020C94E2020C94C601B5
:100140000C9401030C9417030C941D030000200071
:100150002300260029002C002F003200000100009F
:1001600003010601090100000A0B02090C0D0E082B
:100170000703040100000000000000000000000070
:10018000000000000000000000000000000000006F
:10019000000012111000000000000000000000002C
:1001A000000000000000000000000000000022002D
:1001B000250028002B002E00310034000201000031
:1001C000050108010B0100002100240027002A007E
:1001D0002D003000330001010000040107010A0175
:1001E00005050505070508080808020202020A0AB3
:1001F00008080404040401010101010101010303D1
:10020000030303030303040707070C0C0C0C0C0C7B
:100210000C0C0202020206060606060606060B0B78
:100220000B0B0B0B0B0B01021020200808102040B9
:1002300010204080020102010804020101020408AA
:100240001020408080402010080402018004020138
:100250008040201008040201080402010102040881
:100260001020408001020408102040804A07630FDC
:1002700011241FBECFEFD1E2DEBFCDBF00E00CBF27
:1002800015E0A0E0B2E0E8EAF5E200E00BBF02C052
:1002900007900D92A83BB107D9F727E0A8EBB5E08E
:1002A00001C01D92AE36B207E1F711E0C7E3D1E01D
:1002B00000E006C021970109802FFE010E948710EF
:1002C000C633D10780E00807A9F70E943A080C94CA
:1002D000C2120C94000090E0FC01EA5DFD4F2491F5
:1002E00080529E4FFC018491882399F090E0880F02
:1002F000991FFC01EA53FE4FA591B491FC01E4550E
:10030000FE4F859194918FB7F894EC91E22BEC938A
:100310008FBF0895AF92BF92CF92DF92EF92FF927C
:100320000F931F93CF93DF936C017B018B01040F1D
:10033000151FEB015E01AE18BF08C017D10759F0B9
:100340006991D601ED91FC910190F081E02DC601FB
:100350001995892B79F7C501DF91CF911F910F91E5
:10036000FF90EF90DF90CF90BF90AF900895FC0189
:10037000538D448D252F30E0842F90E0821B930B0A
:10038000541710F0CF96089501970895FC01918DB0
:10039000828D981761F0A28DAE0FBF2FB11D5D96B3
:1003A0008C91928D9F5F9F73928F90E008958FEF55
:1003B0009FEF0895FC01918D828D981731F0828D09
:1003C000E80FF11D858D90E008958FEF9FEF089560
:1003D000FC01918D228D892F90E0805C9F4F821BC4
:1003E00091098F73992708958BE696E00E94E801A2
:1003F00021E0892B09F420E0822F0895FC01A48DCF
:10040000A80FB92FB11DA35ABF4F2C91848D90E036
:1004100001968F739927848FA689B7892C93A08919
:10042000B1898C91837080648C93938D848D9813A3
:1004300006C00288F389E02D80818F7D8083089536
:10044000EF92FF920F931F93CF93DF93EC0181E024
:10045000888F9B8D8C8D98131AC0E889F9898081CB
:1004600085FF15C09FB7F894EE89FF896083E889FE
:10047000F98980818370806480839FBF81E090E0F0
:10048000DF91CF911F910F91FF90EF900895F62E7D
:100490000B8D10E00F5F1F4F0F731127E02E8C8D17
:1004A0008E110CC00FB607FCFACFE889F98980815C
:1004B00085FFF5CFCE010E94FE01F1CFEB8DEC0F51
:1004C000FD2FF11DE35AFF4FF0829FB7F8940B8F79
:1004D000EA89FB8980818062CFCFCF93DF93EC01E3
:1004E000888D8823B9F0AA89BB89E889F9898C911C
:1004F00085FD03C0808186FD0DC00FB607FCF7CFD8
:100500008C9185FFF2CF808185FFEDCFCE010E94D7
:10051000FE01E9CFDF91CF91089580E090E0892B33
:1005200029F00E94F40181110E94000080E090E017
:10053000892B49F080E090E0892B29F00E9400008F
:1005400081110E94000080E090E0892B49F080E05A
:1005500090E0892B29F00E94000081110E94000088
:1005600080E090E0892B49F080E090E0892B29F031
:100570000E94000081110C94000008958150823186
:1005800008F05AC0E82FF0E08827E653FD4F8F4F60
:100590000C948710EA02EE02DC02E202E6021C037F
:1005A000F102F702FB020103050309030F03130322
:1005B0001C0317031D032103809180008F77809314
:1005C00080000895809180008F7DF9CF8091800018
:1005D000877FF5CF84B58F7784BD089584B58F7DEF
:1005E000FBCF8091B0008F778093B0000895809109
:1005F000B0008F7DF9CF809190008F77809390002D
:100600000895809190008F7DF9CF80919000877F31
:10061000F5CF8091A0008F778093A00008958091FE
:10062000A0008F7DF9CF8091A000877FF5CF8091CA
:1006300020018F77809320010895809120018F7D84
:10064000F9CF80912001877FF5CFCF93DF93282FBB
:1006500030E0F901EA59FE4F8491F901EA5DFD4F5E
:10066000D491F901E052FE4FC491CC23A1F0811145
:100670000E94BE02EC2FF0E0EE0FFF1FE45BFE4F86
:10068000A591B491EC91ED2381E090E009F480E034
:10069000DF91CF91089580E090E0FACF1F93CF9340
:1006A000DF93282F30E0F901EA59FE4F8491F901D8
:1006B000EA5DFD4FD491F901E052FE4FC491CC2385
:1006C000A9F0162F81110E94BE02EC2FF0E0EE0F70
:1006D000FF1FE455FE4FA591B4918FB7F894EC91AC
:1006E000111108C0D095DE23DC938FBFDF91CF912D
:1006F0001F910895DE2BF8CF3FB7F8948091BD0588
:100700009091BE05A091BF05B091C00526B5A89BEC
:1007100005C02F3F19F00196A11DB11D3FBFBA2F93
:10072000A92F982F8827BC01CD01620F711D811D53
:10073000911D42E0660F771F881F991F4A95D1F7D8
:100740000895CF92DF92EF92FF920E947C036B019B
:100750007C010E947C036C197D098E099F09683E0B
:10076000734081059105A8F3FF90EF90DF90CF9043
:1007700008952FB7F8946091B9057091BA058091EA
:10078000BB059091BC052FBF089581E090E0909348
:100790000102809300021092680610926706109280
:1007A0005F0610925E068DEF9FEF90930302809399
:1007B00002021092CC051092CB05089520910202FE
:1007C00030910302E0915E06F0915F066091600651
:1007D000CF010196662309F441C02031310550F460
:1007E000A4E0EE0FFF1FAA95E1F7E353FA4FE20FE3
:1007F000F31F10822031310558F4FC0174E0EE0F34
:10080000FF1F7A95E1F7E353FA4FE20FF31F1082CF
:10081000A901415051094031510558F4FC0164E0EF
:10082000EE0FFF1F6A95E1F7E353FA4FE40FF51F50
:100830001082225031092031310558F4FC0184E046
:10084000EE0FFF1F8A95E1F7E353FA4FE20FF31F14
:100850001082509303024093020208952031310523
:1008600050F4B4E0EE0FFF1FBA95E1F7E353FA4FEF
:10087000E20FF31F108237FD0BC0FC01A4E0EE0F66
:10088000FF1FAA95E1F7E353FA4FE20FF31F10821F
:10089000A9014F5F5F4F57FD0BC0FC0174E0EE0FE5
:1008A000FF1F7A95E1F7E353FA4FE40FF51F10822B
:1008B0002E5F3F4F37FDCDCF64E0880F991F6A95BB
:1008C000E1F783539A4F280F391FF901C1CF0F93D6
:1008D0001F93CF938C01C62F85E20115110521F0DE
:1008E0000130110549F484E20E944E036C2F80E22E
:1008F00005301105E9F006C00230110549F483E224
:100900000E944E036C2F8FE10630110589F006C05E
:100910000330110549F482E20E944E0307301105AD
:1009200061F46C2F8EE104C081E204301105F1F610
:10093000CF911F910F910C944E03CF911F910F9166
:100940000895CF93DF93EC01892B39F560E08DE1B9
:100950000E944E0361E08CE10E944E03C230D1053B
:1009600039F560E08BE10E944E0361E08AE10E946C
:100970004E03C430D10539F560E089E10E944E0391
:1009800061E088E10E944E03C630D10539F560E090
:1009900087E10E944E0361E028C061E08DE10E9482
:1009A0004E03C130D105B1F660E08CE10E944E03E8
:1009B00061E08BE10E944E03C330D105B1F660E0E7
:1009C0008AE10E944E0361E089E10E944E03C53036
:1009D000D105B1F660E088E10E944E0361E087E155
:1009E0000E944E0360E02797B1F686E1DF91CF9138
:1009F0000C944E03CF92DF92EF92FF920F931F93CE
:100A0000CF93DF931F921F92CDB7DEB769834A83DE
:100A1000880F991F0091680710916907000F111F37
:100A2000E2E1F7E09F01225137402017310714F42B
:100A30001192F8CF2981FC01EE5EF84F21838A8163
:100A4000808360E0809166070E944E0310161106B5
:100A500004F501501109F801EE5EF84FE080D090E6
:100A60006407C090620788E0F82E6E2D661F662727
:100A7000661F8C2D0E944E03EE0C61E08D2D0E94AE
:100A80004E0360E08D2D0E944E03FA94F110EDCFDD
:100A9000DDCF61E0809166070F900F90DF91CF91DD
:100AA0001F910F91FF90EF90DF90CF900C944E0329
:100AB000EF92FF920F931F93CF937C018C0183E001
:100AC000000F111F8A95E1F70E5D184FC1E0F80184
:100AD00011928F0140E06C2FC7010E94FA04CF5F92
:100AE000C930A9F7CF911F910F91FF90EF90089512
:100AF000209168073091690712161306E4F48830D4
:100B00009105C9F020E830E002C0359527956A9537
:100B1000E2F7FC01EE5EF84F5089442349F0252BA3
:100B2000208B61E0680F408990E080E00C94FA042B
:100B300020952523F5CF08958F929F92AF92BF9273
:100B40000F931F93CF93DF93CDB7DEB7A1970FB667
:100B5000F894DEBF0FBECDBF19A2423008F44AE0C0
:100B60008E010F5D1F4F842E912CB12CA12CA5015D
:100B700094010E944210E62FB901CA01EA3044F5FF
:100B8000E05DD801EE938D01232B242B252B79F7E3
:100B900090E080E0109769F0FD0101900020E9F7F6
:100BA0003197AF014A1B5B0BBD018BE696E00E94BB
:100BB0008A01A1960FB6F894DEBF0FBECDBFDF91BC
:100BC000CF911F910F91BF90AF909F908F900895FC
:100BD000E95CD7CFCF92DF92EF92FF92CF93DF9372
:100BE0006C01092E000CEE08FF0897FF23C06DE290
:100BF0008BE696E00E942002EC0166277727CB0166
:100C00006C197D098E099F094AE00E949C05C80F56
:100C1000D91F42E050E062E875E08BE696E00E9462
:100C20008A018C0F9D1FDF91CF91FF90EF90DF9095
:100C3000CF9008954AE0C701B6010E949C05EC01DF
:100C4000E8CFCF93DF93EC0180910C0790910D07D3
:100C5000009759F020910E0730910F072C173D0790
:100C600020F081E0DF91CF910895BE016F5F7F4F4B
:100C70000E94C811009789F090930D0780930C078C
:100C8000D0930F07C0930E072091100730911107E2
:100C9000232B39F7FC011082E4CF80E0E3CF0F93E0
:100CA0001F93CF93DF938C01EC0109900020E9F7AB
:100CB0002197C81BD90BCE010E94210620910C0759
:100CC00030910D07811117C02115310519F0C901A7
:100CD0000E943F1110920D0710920C0710921107FD
:100CE0001092100710920F0710920E07DF91CF910C
:100CF0001F910F910895D0931107C0931007B80169
:100D0000C901DF91CF911F910F910C94BB122091DB
:100D1000100730911107232B39F421E0FC01808169
:100D2000882361F020E00AC0BC0180910C079091FB
:100D30000D070E94B21221E0892BA1F7822F08959E
:100D40001F920F920FB60F9211240BB60F922F9392
:100D50003F934F935F936F937F938F939F93AF9343
:100D6000BF93EF93FF938BE696E00E94FE01FF9105
:100D7000EF91BF91AF919F918F917F916F915F9113
:100D80004F913F912F910F900BBE0F900FBE0F9080
:100D90001F9018951F920F920FB60F9211240BB649
:100DA0000F922F938F939F93EF93FF93E0917B0686
:100DB000F0917C068081E0918106F091820682FDAF
:100DC0001DC09081809184068F5F8F73209185066E
:100DD000821741F0E0918406F0E0E559F94F958FD4
:100DE00080938406FF91EF919F918F912F910F90A7
:100DF0000BBE0F900FBE0F901F9018958081F2CF01
:100E00001F920F920FB60F9211242F933F938F933F
:100E10009F93AF93BF938091B9059091BA05A0912C
:100E2000BB05B091BC053091B80523E0230F2D37E9
:100E300058F50196A11DB11D2093B8058093B90501
:100E40009093BA05A093BB05B093BC058091BD05F6
:100E50009091BE05A091BF05B091C0050196A11D5E
:100E6000B11D8093BD059093BE05A093BF05B093BF
:100E7000C005BF91AF919F918F913F912F910F909E
:100E80000FBE0F901F90189526E8230F0296A11D04
:100E9000B11DD2CFCF93DF9310926E0610926D06E4
:100EA00088EE93E0A0E0B0E080936F069093700628
:100EB000A0937106B093720684E795E090936C0658
:100EC00080936B0685EC90E090937806809377068C
:100ED00084EC90E090937A068093790680EC90E021
:100EE00090937C0680937B0681EC90E090937E0645
:100EF00080937D0682EC90E09093800680937F063D
:100F000086EC90E09093820680938106109284068E
:100F1000109285061092860610928706C3E3D0E0F1
:100F2000D0936307C093620785E390E090936507D1
:100F30008093640784E390E090936707809366074B
:100F400081E090E0909369078093680783E30E94B3
:100F50006B01809164070E946B01809166070E947B
:100F60006B0161E0809166070E944E03D093630796
:100F7000C0936207E2E2F7E0119287E0E236F807F9
:100F8000D9F7D0E0C0E08091680790916907C81751
:100F9000D90774F540E06FE0CE010E94FA04809119
:100FA000680790916907C817D9072CF447E06BE0F0
:100FB000CE010E94FA0440E069E0CE010E94FA04EA
:100FC0008091680790916907C817D9071CF4CE0172
:100FD0000E9458058091680790916907C817D90742
:100FE0002CF440E06CE0CE010E94FA042196CBCFB5
:100FF00010920D0710920C0710920F0710920E0717
:10100000109211071092100787E090E00E942106CD
:1010100020910C0730910D07811120C02115310559
:1010200019F0C9010E943F1110920D0710920C0790
:10103000109211071092100710920F0710920E07CE
:101040000E94B903609308077093090780930A0709
:1010500090930B07DF91CF910C94B90387E090E058
:10106000909311078093100765E875E0C9010E940D
:10107000BB12E6CF789484B5826084BD84B581606C
:1010800084BD85B5826085BD85B5816085BD809153
:101090006E00816080936E001092810080918100CB
:1010A00082608093810080918100816080938100C3
:1010B000809180008160809380008091B100846085
:1010C0008093B1008091B00081608093B0008091E6
:1010D0009100826080939100809191008160809363
:1010E0009100809190008160809390008091A10098
:1010F00082608093A1008091A10081608093A10013
:101100008091A00081608093A00080912101826085
:101110008093210180912101816080932101809140
:10112000200181608093200180917A008460809307
:101130007A0080917A00826080937A0080917A00B0
:10114000816080937A0080917A00806880937A0031
:101150001092C100C0E6D2E000E512E0888122963C
:101160000E946B01D8018C910E5F1F4F0E946B0192
:10117000B2E0C037DB0791F7E0917B06F0917C0687
:1011800082E08083E0917706F09178061082E0910A
:101190007906F0917A068FEC808310928306E091B5
:1011A0007F06F091800686E08083E0917D06F091D5
:1011B0007E06808180618083E0917D06F0917E06CD
:1011C000808188608083E0917D06F0917E06808139
:1011D00080688083E0917D06F0917E0680818F7D1E
:1011E000808380916807909169071816190634F476
:1011F00041E06CE090E080E00E94FA048091680792
:10120000909169071816190634F448E06AE090E0F6
:1012100080E00E94FA04809168079091690718168F
:10122000190624F490E080E00E94580588248A94EE
:10123000982C85E895E00E948706882309F496C1DA
:101240000E94B903009108071091090720910A072D
:1012500030910B07601B710B820B930B683C71057F
:10126000810591059CF08091690690916A0601962E
:1012700090936A06809369060E94B90360930807F9
:101280007093090780930A0790930B07F12CE12CC8
:10129000A8E1BA2EC7010E94A10410E000E0BE9CA4
:1012A000C001BF9C900D1124FC01E059FD4F6F015E
:1012B000C0916906D0916A06C831D10514F0D0E01A
:1012C000C0E0D0936A06C093690630905706332079
:1012D00009F437C1CE01800F911F68E170E00E94D0
:1012E0007310F601E80FF91F6081C8010E946704BE
:1012F0000F5F1F4F08301105D9F60E94A103BFEF01
:10130000EB1AFB0AE9E0EE16F10421F62E01440C7B
:10131000551C10E000E0F8E12F2E3E01F9E06F1AB5
:10132000710868E0A62EB12CAC1ABD0A77E0E72E52
:10133000F12C209EC001219E900D11249C0120596A
:101340003D4F6901C501332009F409C1840D951D84
:10135000883191051CF0C3018E199F098C0D9D1DCC
:10136000DC014C91B701C8010E947805F1E0EF1A49
:10137000F1082FEFA21AB20A3FEFE316F30611F7B6
:101380000F5F1F4F0830110561F68FE20E942503A1
:1013900040904D0650904E0660904F06709050065B
:1013A000019709F0E3C445284628472851F40E94D4
:1013B000B90360934D0670934E0680934F06909349
:1013C000500681E30E942503EC01809156068C179C
:1013D0001D0651F00E94B9036093520670935306A4
:1013E00080935406909355060E94B90311E020970C
:1013F00009F410E0C0905206D0905306E0905406D5
:10140000F09055066C197D098E099F0963337105AB
:101410008105910590F0809151068C171D0669F0A9
:1014200010935106CD2B49F485E895E00E9487067C
:10143000882309F4E4C4109257061093560680E3FB
:101440000E942503EC0180915D068C171D0651F06A
:101450000E94B9036093590670935A0680935B0605
:1014600090935C060E94B90311E0209709F410E004
:10147000C0905906D0905A06E0905B06F0905C064A
:101480006C197D098E099F096333710581059105EA
:1014900098F0809158068C171D0671F0109358062D
:1014A000CD2B51F485E895E00E948706882309F446
:1014B000BDC481E08093570610935D0682E30E94CD
:1014C0002503EC01809166068C171D0651F00E94E1
:1014D000B9036093620670936306809364069093E9
:1014E00065060E94B90311E0209709F410E0C0904E
:1014F0006206D0906306E0906406F09065066C1971
:101500007D098E099F096333710581059105A0F05E
:10151000809161068C171D0679F010936106209763
:1015200059F48DE895E00E948706882309F496C453
:101530008CEA95E00E944F06109366060E948D0289
:1015400078CEC8018C1B9D0B97FF04C0C80148963C
:101550008C1B9D0B8C0D9D1DDC016C91C6CEB7FCC8
:1015600048968C0D9D1DFC014081FCCE8DE895E0D8
:101570000E948706882309F43FC050E3E52E53E01C
:10158000F52E670110E000E0C8010E94A104D0E040
:10159000C0E0F601EC0FFD1F6081CE010E946704E0
:1015A0002196C830D105A9F70E94A1030F5F1F4FF4
:1015B00040E1C40ED11C0930110531F710E000E004
:1015C0004FE0C42ED12CC8E0D0E0F701EC0FFD1F96
:1015D000B6016C1B7D0B4081C8010E9478052196E5
:1015E000C031D10591F70F5F1F4F50E1E50EF11C9F
:1015F0000830110541F7C9CE82E995E00E948706BF
:10160000882309F429C38091670690916806892B85
:1016100009F0C8C00E94B9032B013C0133E0232E1E
:10162000312C0E94B9036419750986099709603D38
:1016300077408105910508F079C000EB13E0D0E018
:10164000C0E0CE010E94A104F12CE12CF801EE0DC6
:10165000FF1D6081C7010E946704BFEFEB1AFB0A00
:10166000E8E0EE16F10491F70E94A1032196085FCD
:101670001F4FC930D10529F7C0900002D090010258
:10168000C6016AE070E00E9473105B01EB0125E087
:10169000CC0FDD1F2A95E1F7C051DC4FF12CE12C76
:1016A00010E000E0FE01E00FF11F67E070E0601B5A
:1016B000710B4081C7010E9478050F5F1F4F0430F6
:1016C000110581F7FFEFEF1AFF0A249628E0E216D2
:1016D000F10431F726EFA5012403E001259FD00D89
:1016E0001124CC0DDD1D95E0CC0FDD1F9A95E1F79F
:1016F000C051DC4FF12CE12C10E000E0FE01E00FC6
:10170000F11FB101601B710B4081C7010E94780578
:101710000F5F1F4F0430110589F73FEFE31AF30AFB
:10172000249648E0E416F10439F77BCF00910002DB
:10173000109101020E5F1F4F109368060093670619
:10174000BB24B394101611066CF50E94B80F20E16B
:1017500030E040E050E00E9410106B010E94B80F92
:10176000E601C353DA4FFE01E059FF4F20812111FA
:10177000E9CF24E030E040E050E00E9410106F5FBD
:101780007F4F8F4F9F4F90E080E0609786179707BD
:1017900034F4FE01E058FF4FB0820196F6CF0150BD
:1017A0001109D0CF0E94B9030091080710910907D1
:1017B00020910A0730910B07601B710B820B930B72
:1017C000683C7105810591050CF4B2C080916906F1
:1017D00090916A06019690936A06809369060E942A
:1017E000B903609308077093090780930A079093E1
:1017F0000B07C4E0D2E0088119810F3F100709F4FC
:101800008FC0EA81FB81EF3FFE0709F489C0980190
:101810002F5F3F4FD80184E0AA0FBB1F8A95E1F7E5
:10182000A351BA4FAE0FBF1F8C91882309F47CC11E
:101830008091CB059091CC0501969093CC05809337
:10184000CB05A1ECB5E050E040E06D917D916817CB
:1018500079079CF5440F551FDA01AF53BA4F8D93AA
:101860009C9365E070E00E947310892B49F480918D
:101870004402909145020196909345028093440260
:10188000A80174E0440F551F7A95E1F74E0F5F1FD2
:1018900090E080E00196B801680F791F683071050B
:1018A00094F4DC0164E0AA0FBB1F6A95E1F7A40F72
:1018B000B51FA353BA4F1C92EDCF4F5F5F4F45301A
:1018C000510519F6CECF54E0220F331F5A95E1F798
:1018D00023533A4FE20FF31F1082998288829B8232
:1018E0008A828091670690916806019790936806B6
:1018F00080936706892BA1F4109160068091000205
:1019000090910102019690930102809300020B973F
:101910000CF4F9C00E94C50385E895E00E944F06CB
:101920002496A2E0C434DA0709F065CF0E94DE03F2
:101930002091020230910302C0915E06D0915F06B1
:1019400040916006CE010196442309F40AC120317A
:10195000310560F4FE01B4E0EE0FFF1FBA95E1F728
:10196000E353FA4FE20FF31F41E04083203131058A
:1019700060F4FC01A4E0EE0FFF1FAA95E1F7E3532A
:10198000FA4FE20FF31F41E04083B9016150710942
:101990006031710568F4AC01E4E0440F551FEA952D
:1019A000E1F743535A4F460F571F61E0FA01608336
:1019B000B901625071096031710568F4AC0104E04D
:1019C000440F551F0A95E1F743535A4F460F571FCF
:1019D00061E0DA016C93A90143505109403151058E
:1019E00008F514E0880F991F1A95E1F7820F931FED
:1019F000FC01E653FA4F80818823A1F080914402D4
:101A000090914502019790934502809344021816E5
:101A100019060CF09FC00E94DE032397D0935F0647
:101A2000C0935E06809102029091030297FF0FC05F
:101A300082E190E0909303028093020280915E061F
:101A400090915F06019690935F0680935E06E4E0B6
:101A5000F2E041E0808191818F3F980781F02281FF
:101A600033812F3F320759F0B4E0880F991FBA95A0
:101A7000E1F783529A4F820F931FDC014C93349607
:101A8000B2E0E434FB0731F7ADECEA2EA5E0FA2E24
:101A9000670110E000E0C8010E94A104D0E0C0E0AE
:101AA000F601EC0FFD1F6081CE010E9467042196B4
:101AB000C830D105A9F70E94A1030F5F1F4FE0E1D5
:101AC000CE0ED11C0930110531F710E000E0FFE027
:101AD000CF2ED12CC8E0D0E0F701EC0FFD1FB601EE
:101AE0006C1B7D0B4081C8010E9478052196C03196
:101AF000D10591F70F5F1F4FF0E1EF0EF11C083099
:101B0000110541F742CC0E94DE0382E190E0111101
:101B100002C08DEF9FEF9093030280930202109218
:101B20005F0610925E06FCCEC90144E0880F991F43
:101B30004A95E1F783539A4FE80FF91F1082063058
:101B400011052CF0998288829B828A82E9CE3983A2
:101B50002883E6CE0E94C50385E895E00E944F06E3
:101B600061CF2031310560F4FE01B4E0EE0FFF1FBC
:101B7000BA95E1F7E353FA4FE20FF31F41E04083D8
:101B80002031310560F4FC01A4E0EE0FFF1FAA959F
:101B9000E1F7E353FA4FE20FF31F41E04083B9014D
:101BA0006F5F7F4F6031710568F4AC01E4E0440F72
:101BB000551FEA95E1F743535A4F460F571F61E00F
:101BC000FA016083B9016E5F7F4F6031710568F47F
:101BD000AC0104E0440F551F0A95E1F743535A4FF7
:101BE000460F571F61E0DA016C93A9014D5F5F4F0B
:101BF0004031510500F514E0880F991F1A95E1F75F
:101C000083539A4F820F931FFC018381882399F09D
:101C100080914402909145020197909345028093F0
:101C20004402181619068CF40E94DE032397D09301
:101C30005F06C0935E068091020290910302419775
:101C40000CF405CF8DEF9FEFF5CE0E94C50385E81C
:101C500095E00E944F06EFCF88E995E00E94870645
:101C6000882309F492CB80914402909145026AE066
:101C700070E00E9473108B01EC01CB010E94EA0519
:101C8000CE010E94EA05E0E3CE2EE5E0DE2EF12C47
:101C9000E12CC7010E94A104B12CA12CF601EA0D90
:101CA000FB1D6081C5010E9467042FEFA21AB20AD2
:101CB00038E0A316B10491F70E94A1034FEFE41A94
:101CC000F40A58E0C50ED11C89E0E816F10409F7C2
:101CD00065E0000F111F6A95E1F700511C4FB12C10
:101CE000A12C77E0C72ED12CF12CE12CF801EE0DC0
:101CF000FF1DB6016E197F094081C5010E9478055C
:101D0000AFEFEA1AFA0AB4E0EB16F10479F7EFEF55
:101D1000AE1ABE0A0C5F1F4FF8E0AF16B10421F7F0
:101D200045E0CC0FDD1F4A95E1F7C051DC4FF12CA7
:101D3000E12C53E0C52ED12C10E000E0FE01E00FB5
:101D4000F11FB601601B710B4081C7010E9478052D
:101D50000F5F1F4F0430110589F72FEFE21AF20AC7
:101D6000249638E0E316F10439F70FCB41145104FF
:101D70006104710409F425CB0E94B9036B017C0155
:101D8000C418D508E608F70810924D0610924E06C2
:101D900010924F061092500685E895E00E94870643
:101DA000882349F08DE895E040EDC41647E0D4065D
:101DB000E104F10408F582E995E00E948706882392
:101DC00039F050EDC51657E0D506E104F10490F462
:101DD00088E995E00E948706882309F4F2CA80ED1D
:101DE000C81687E0D806E104F10408F4EACA82E9DB
:101DF00095E002C088E995E00E944F06E2CA8DE8AE
:101E000095E00E948706882329F08EE995E00E94DC
:101E10004F0613CB82E995E00E948706882309F4D8
:101E20000CCB0E94DE031092600607CB8DE895E094
:101E30000E948706882329F082E995E00E944F06D8
:101E40003BCB82E995E00E948706882309F434CBD6
:101E50000E94DE0381E0809360062ECB82E995E04C
:101E60000E948706882309F467CBE4E0F2E08081D2
:101E70009181019611F5828193810196F1F480910F
:101E800002029091030220916006CC0FDD1FCC0F5F
:101E9000DD1FFE01EC5FFD4F222369F00197938364
:101EA0008283CC5FDD4F80915E0690915F06019644
:101EB0009983888341CB0196F2CF21963496C03125
:101EC000D105A9F639CB80910C0790910D070097A9
:101ED00011F00C943F1108958F929F92AF92BF9290
:101EE000CF92DF92EF92FF92CF93DF93EC01688164
:101EF00079818A819B81611571058105910521F4A4
:101F000064E279ED8BE597E02DE133EF41E050E0BD
:101F10000E94101049015A019B01AC01A7EAB1E4EB
:101F20000E942F106B017C01ACEEB4EFA50194016F
:101F30000E943D10C60ED71EE81EF91EF7FE06C011
:101F400081E0C81AD108E10880E8F80AC882D9827D
:101F5000EA82FB82C701B6019F77DF91CF91FF90A4
:101F6000EF90DF90CF90BF90AF909F908F900895AB
:101F70008F929F92AF92BF92CF92DF92EF92FF9299
:101F80006091460270914702809148029091490207
:101F9000611571058105910521F464E279ED8BE508
:101FA00097E02DE133EF41E050E00E94101049012D
:101FB0005A019B01AC01A7EAB1E40E942F106B010A
:101FC0007C01ACEEB4EFA50194010E943D10C60E59
:101FD000D71EE81EF91EF7FE06C081E0C81AD10818
:101FE000E10880E8F80AC0924602D0924702E092E7
:101FF0004802F0924902C701B6019F77FF90EF9027
:10200000DF90CF90BF90AF909F908F900895609396
:1020100046027093470280934802909349020895C4
:10202000052E97FB1EF400940E94271057FD07D041
:102030000E94421007FC03D04EF40C9427105095D8
:102040004095309521953F4F4F4F5F4F08959095A4
:102050008095709561957F4F8F4F9F4F08950E9497
:102060006410A59F900DB49F900DA49F800D911DAD
:1020700011240895B7FF0C942F100E942F10821B7B
:10208000930B0895A1E21A2EAA1BBB1BFD010DC0E4
:10209000AA1FBB1FEE1FFF1FA217B307E407F50718
:1020A00020F0A21BB30BE40BF50B661F771F881FF4
:1020B000991F1A9469F760957095809590959B018A
:1020C000AC01BD01CF010895A29FB001B39FC00133
:1020D000A39F700D811D1124911DB29F700D811D54
:1020E0001124911D089597FB072E16F4009407D034
:1020F00077FD09D00E948F1007FC05D03EF4909523
:1021000081959F4F0895709561957F4F0895EE0FCB
:10211000FF1F881F8BBF0790F691E02D1994AA1B13
:10212000BB1B51E107C0AA1FBB1FA617B70710F0C2
:10213000A61BB70B881F991F5A95A9F780959095F4
:10214000BC01CD0108950F931F93CF93DF9382308D
:10215000910510F482E090E0E0916C07F0916D073A
:1021600030E020E0B0E0A0E0309799F4211531058F
:1021700009F44AC0281B390B24303105D8F58A816F
:102180009B816115710589F1FB0193838283FE01B7
:1021900011C0408151810281138148175907E0F035
:1021A0004817590799F4109761F012960C931297FB
:1021B00013961C933296CF01DF91CF911F910F910F
:1021C000089500936C0710936D07F4CF2115310526
:1021D00051F04217530738F0A901DB019A01BD0104
:1021E000DF01F801C1CFEF01F9CF90936D07809324
:1021F0006C07CDCFFE01E20FF31F81939193225024
:10220000310939832883D7CF20916A0730916B0732
:10221000232B41F420914C0230914D0230936B07F7
:1022200020936A0720914A0230914B022115310513
:1022300041F42DB73EB740914E0250914F02241BFE
:10224000350BE0916A07F0916B07E217F307A0F4F2
:102250002E1B3F0B2817390778F0AC014E5F5F4FFC
:102260002417350748F04E0F5F1F50936B074093BC
:102270006A07819391939FCFF0E0E0E09CCFCF93EA
:10228000DF930097E9F0FC01329713821282A0914C
:102290006C07B0916D07ED0130E020E01097A1F4DC
:1022A00020813181820F931F20916A0730916B0743
:1022B0002817390709F061C0F0936B07E0936A07AC
:1022C000DF91CF910895EA01CE17DF07E8F54A8143
:1022D0005B819E0141155105B1F7E901FB83EA835A
:1022E00049915991C40FD51FEC17FD0761F4808106
:1022F00091810296840F951FE901998388838281D9
:1023000093819B838A83F0E0E0E012968D919C910B
:1023100013970097B9F52D913C911197CD01029635
:10232000820F931F20916A0730916B072817390796
:1023300039F6309751F510926D0710926C07B093F3
:102340006B07A0936A07BCCFD383C28340815181BE
:10235000840F951FC817D90761F44E5F5F4F8881BE
:102360009981480F591F518340838A819B819383B0
:1023700082832115310509F0B0CFF0936D07E0930A
:102380006C079ECFFD01DC01C0CF13821282D7CF34
:102390004F925F926F927F928F929F92AF92BF9275
:1023A000CF92DF92EF92FF920F931F93CF93DF9321
:1023B0008C01009799F4CB01DF91CF911F910F9180
:1023C000FF90EF90DF90CF90BF90AF909F908F9055
:1023D0007F906F905F904F900C94A310FC01E60FDC
:1023E000F71F9C0122503109E217F30708F4AEC031
:1023F000D901CD91DC911197C617D70720F1C530CF
:10240000D10578F0CE0104978617970750F0C61BC8
:10241000D70B2297C193D1936D937C93CF010E94E8
:102420003F11C801DF91CF911F910F91FF90EF9065
:10243000DF90CF90BF90AF909F908F907F906F90E4
:102440005F904F9008955B01AC1ABD0A4C018C0E51
:102450009D1EA0916C07B0916D07512C412CF12C61
:10246000E12C109731F580916A0790916B078815E0
:10247000990509F05CC04616570608F058C08091CF
:102480004A0290914B02009741F48DB79EB740915C
:102490004E0250914F02841B950BE817F90708F084
:1024A00055C0F0936B07E0936A07F901718360836D
:1024B000B8CF8D919C91119712966C9012971396AC
:1024C0007C901397A815B90559F56C0142E0C40E2C
:1024D000D11CCA14DB0420F1AC014A195B09DA01F2
:1024E0001296159780F06282738251834083D901DE
:1024F0006D937C93E114F10471F0D7011396FC9372
:10250000EE9312978ECF22968C0F9D1FF901918327
:102510008083F301EFCFF0936D07E0936C0781CFD9
:102520004816590608F42C017D01D3019ACFCB013E
:102530000E94A3107C01009749F0AE01B8010E94EF
:10254000A912C8010E943F1187016BCF10E000E083
:1025500068CFFB01DC0102C001900D924150504058
:10256000D8F70895FB01DC018D91019080190110CD
:10257000D9F3990B0895FB01DC0101900D92002025
:10258000E1F7089511E0C7E3D1E000E006C0802F35
:10259000FE010E9487102196011DC833D10780E0FB
:1025A0000807A9F7F894FFCF0100FDFFFFFFFFFF29
:1025B000FFFFFFFFFFFFFFFFFFFFFFFFFFFFFFFF2B
:1025C000FFFFFFFFFFFFFFFFFFFFFFFFFFFFFFFF1B
:1025D000FFFFFFFFFFFFFFFFFFFFFFFFFFFFFFFF0B
:1025E000FFFFFFFFFFFFFFFFFFFFFFFF03000100F3
:1025F000000000006E078000250024002300220058
:10260000210020001F001E001D001C001B001A00DE
:102610001900180017001600010000000100000159
:1026200001010000010000000000000101010000A4
:102630000100000001000100000001000100000095
:102640000000010000000100010000000100010085
:102650000000010001000000000001000000010076
:102660000101010101000100000001000100000062
:102670000000010000000100010101010100010052
:102680000000010001000000000001010101010043
:102690000100000001000100000001000100000035
:1026A0000000010000000100010000000100010025
:1026B0000000010001000000000001000000010016
:1026C0000100000001000001010100000101010101
:1026D00001000100000001000000000000010101F4
:1026E00001010100000000000000000000010101E4
:1026F00001010100000000000001000000010001D4
:1027000001010100000101000001010100010001BF
:1027100001000100010000000000000000010000B5
:1027200001000100010000000000010000010000A4
:102730000000010000010100000000000001010193
:102740000101010000000000000000000001010183
:102750000101010000000000000000000000000076
:102760000001000000000100000101000000010064
:102770000001000100000100000100000100010053
:102780000001000000010100000100000000010044
:102790000000000000000000000000000101010135
:1027A0000100000101000001010000010100000121
:1027B0000100000101010101000000000001010011
:1027C0000001010001010100000101000001010000
:1027D00000010100010101010000000001010101EF
:1027E00000000001000000010101010101000000E2
:1027F00001000000010101010000000001010101D0
:1028000000000001000000010101010100000001C1
:1028100000000001010101010000000001000001B1
:10282000010000010100000101010101000000019F
:102830000000000100000001000000000101010192
:102840000100000001000000010101010000000181
:10285000000000010101010100000000010101016F
:102860000100000001000000010101010100000160
:10287000010000010101010100000000010101014E
:102880000000000100000001000101010000000142
:102890000000000100000001000000000101010132
:1028A000010000010100000101010101010000011E
:1028B000010000010101010100000000010101010E
:1028C00001000001010000010101010100000001FF
:1028D00000000001000000010001010000010100F2
:1028E00001010101010101010101010101010101D8
:1028F00001010101010101010101010101010101C8
:1029000000010101010101000000010101010000BD
:1029100000000001010000000000000020028A0108
:10292000B7016D02E801C601DA010D0A004D454EFE
:1029300053414A45004D454E55004A5547415200C6
:10294000504155534100434F4E464947555241432C
:10295000494F4E0045535441444953544943410063
:020000040003F7
:10E000000D9489F10D94B2F10D94B2F10D94B2F129
:10E010000D94B2F10D94B2F10D94B2F10D94B2F1F0
:10E020000D94B2F10D94B2F10D94B2F10D94B2F1E0
:10E030000D94B2F10D94B2F10D94B2F10D94B2F1D0
:10E040000D94B2F10D94B2F10D94B2F10D94B2F1C0
:10E050000D94B2F10D94B2F10D94B2F10D94B2F1B0
:10E060000D94B2F10D94B2F10D94B2F10D94B2F1A0
:10E070000D94B2F10D94B2F10D94B2F10D94B2F190
:10E080000D94B2F10D94B2F10D94B2F10D94B2F180
:10E090000D94B2F10D94B2F10D94B2F10D94B2F170
:10E0A0000D94B2F10D94B2F10D94B2F10D94B2F160
:10E0B0000D94B2F10D94B2F10D94B2F10D94B2F150
:10E0C0000D94B2F10D94B2F10D94B2F10D94B2F140
:10E0D0000D94B2F10D94B2F10D94B2F10D94B2F130
:10E0E0000D94B2F141546D656761323536300041AF
:10E0F000726475696E6F206578706C6F72657220DE
:10E1000073746B3530305632206279204D4C530099
:10E11000426F6F746C6F616465723E004875683F52
:10E1200000436F6D70696C6564206F6E203D200048
:10E130004350552054797065202020203D20005FF9
:10E140005F4156525F415243485F5F3D2000415658
:10E1500052204C696243205665723D20004743437C
:10E160002056657273696F6E203D20004350552024
:10E1700049442020202020203D20004C6F7720663D
:10E18000757365202020203D20004869676820665F
:10E190007573652020203D200045787420667573D6
:10E1A00065202020203D20004C6F636B2066757336
:10E1B000652020203D20004D617220203720323024
:10E1C000313300312E362E3800342E332E350056A2
:10E1D00023202020414444522020206F7020636F70
:10E1E00064652020202020696E73747275637469E1
:10E1F0006F6E2061646472202020496E74657272B3
:10E20000757074006E6F20766563746F7200726A49
:10E210006D702020006A6D70200057686174207056
:10E220006F72743A00506F7274206E6F7420737541
:10E2300070706F72746564004D7573742062652030
:10E2400061206C6574746572002000577269747483
:10E25000696E672045450052656164696E672045B7
:10E26000450045452065727220636E743D00504F35
:10E27000525400303D5A65726F2061646472003FF1
:10E280003D43505520737461747300403D454550C3
:10E29000524F4D207465737400423D426C696E6B41
:10E2A000204C454400453D44756D70204545505215
:10E2B0004F4D00463D44756D7020464C415348001B
:10E2C000483D48656C70004C3D4C69737420492F83
:10E2D0004F20506F72747300513D51756974005234
:10E2E0003D44756D702052414D00563D73686F7707
:10E2F00020696E7465727275707420566563746FF0
:10E30000727300593D506F727420626C696E6B00BD
:10E310002A0011241FBECFEFD1E2DEBFCDBF01E046
:10E320000CBF12E0A0E0B2E0EEE1FDEF03E00BBFB6
:10E3300002C007900D92A030B107D9F712E0A0E01B
:10E34000B2E001C01D92AE30B107E1F70F9460F367
:10E350000D948DFE01E20EBF0FEF0DBF11241FBE05
:10E360000D9460F30D9400F020E030E040ED57E0B4
:10E3700005C0FA013197F1F72F5F3F4F2817390792
:10E38000C0F308959C01260F311DC901A0E0B0E043
:10E390002F5F3F4FABBFFC018791882361F08093D3
:10E3A000C6008091C00086FFFCCF8091C0008064D1
:10E3B0008093C000EACF08958DE08093C6008091DD
:10E3C000C00086FFFCCF8091C00080648093C000B5
:10E3D0008AE08093C6008091C00086FFFCCF8091C8
:10E3E000C00080648093C00008950F94C2F10F9420
:10E3F000DCF10895FC019081992359F09093C600B7
:10E400008091C00086FFFCCF8091C0008064809323
:10E41000C0003196992379F70895282F982F929567
:10E420009F70892F805D8A3308F0895F8093C600D2
:10E430008091C00086FFFCCF8091C00080648093F3
:10E44000C000822F8F70982F905D9A3308F0995FEB
:10E450009093C6008091C00086FFFCCF8091C000E1
:10E4600080648093C00008959C01FB01853691056E
:10E470001CF46330710594F0C90164E670E00F94F8
:10E480002EFE605D7F4F6093C6008091C00086FFC6
:10E49000FCCF8091C00080648093C0002B30310598
:10E4A00014F43297B4F0C90164E670E00F942EFEC4
:10E4B0006AE070E00F942EFE605D7F4F6093C600AF
:10E4C0008091C00086FFFCCF8091C0008064809363
:10E4D000C000C9016AE070E00F942EFEC0968093E0
:10E4E000C6008091C00086FFFCCF8091C000806490
:10E4F0008093C00008951F93182F8EE692EE60E07F
:10E500000F94C2F11093C6008091C00086FFFCCF2B
:10E510008091C00080648093C0000F94DCF11F9153
:10E5200008952F923F924F925F926F927F928F92B7
:10E530009F92AF92BF92CF92DF92EF92FF920F9392
:10E540001F93DF93CF93CDB7DEB762970FB6F894E2
:10E55000DEBF0FBECDBF382E622ECA01DB015C01CB
:10E560006D01772420E2222E2E010894411C511CBB
:10E570008BC081E0A81680E0B80681E0C80680E084
:10E58000D80628F0C601AA27BB270F940DF2BB2797
:10E59000AD2D9C2D8B2D0F940DF28A2D0F940DF225
:10E5A0002092C6008091C00086FFFCCF8091C00001
:10E5B00080648093C0009DE29093C6008091C0006B
:10E5C00086FFFCCF8091C00080648093C0002092C1
:10E5D000C6008091C00086FFFCCF8091C00080649F
:10E5E0008093C00019828601750188249924A1E0D6
:10E5F0003A1651F03A1620F0B2E03B1661F409C029
:10E600000BBFF701779007C0C7010F9477FE782EF4
:10E6100002C0F7017080872D0F940DF22092C60082
:10E620008091C00086FFFCCF8091C0008064809301
:10E63000C000872D8052F401EF70F0708F3520F408
:10E64000E40DF51D708204C0E40DF51D8EE280839B
:10E650000894E11CF11C011D111D0894811C911CE2
:10E6600090E18916910409F0C2CF80E190E0A0E02A
:10E67000B0E0A80EB91ECA1EDB1E198AC2010F9493
:10E68000FAF10F94DCF16A94662009F072CF629679
:10E690000FB6F894DEBF0FBECDBFCF91DF911F91B3
:10E6A0000F91FF90EF90DF90CF90BF90AF909F9031
:10E6B0008F907F906F905F904F903F902F90089534
:10E6C0002F923F924F925F926F927F928F929F9282
:10E6D000AF92BF92CF92DF92EF92FF920F931F9370
:10E6E000DF93CF93CDB7DEB7CD53D1400FB6F894BB
:10E6F000DEBF0FBECDBF01E20EBF0FEF0DBF94B75F
:10E70000F894A89514BE80916000886180936000A1
:10E7100010926000789493FF05C0E0910002F091A0
:10E7200001021995279A2F9A8091C00082608093E8
:10E73000C00080E18093C40088E18093C1000000A4
:10E74000EE24FF24870144E0A42EB12CCC24DD2448
:10E7500024C0C5010197F1F70894E11CF11C011DCB
:10E76000111D21E2E2162EE4F20620E0020720E06D
:10E77000120718F031E0C32ED12CC801B70127ECE5
:10E780003BE140E050E00F9441FE611571058105C9
:10E79000910519F485B1805885B98091C00087FD35
:10E7A00003C0C114D104A9F2A6014F5F5F4FC25E3E
:10E7B000DE4F59834883CE51D140C25EDE4F8881FF
:10E7C0009981CE51D140019711F00D9410FEC05D9A
:10E7D000DE4F19821882C053D14060E0C15DDE4F28
:10E7E0001882CF52D14088249924C35DDE4F19820C
:10E7F0001882CD52D140C05EDE4F188219821A8233
:10E800001B82C052D140CE5CDE4F188219821A8220
:10E810001B82C253D140EE24FF2487010BBFF701B6
:10E8200007911691C45CDE4F19830883CC53D14005
:10E830000D940BFEC25EDE4F28813981CE51D1404E
:10E840002130310509F52091C600C25EDE4F1982E4
:10E850001882CE51D14022C02F5F3F4F4F4F5F4FA4
:10E86000213082E138078AE7480780E0580780F0C6
:10E87000C45CDE4FE881F981CC53D140EF5FFF4F9C
:10E8800019F0EE27FF27099420E030E040E050E047
:10E890008091C00087FFE0CF2091C600C35DDE4FAE
:10E8A00048815981CD52D1404F5F5F4FC35DDE4FEC
:10E8B00059834883CD52D140213209F063C64A3092
:10E8C000510508F05FC60894811C911C53E0851621
:10E8D000910409F059C600E010E018C081E280936D
:10E8E000C6008091C00086FFFCCF8091C00080648C
:10E8F0008093C0002F5F3F4F2931310579F70F9486
:10E90000DCF10F5F1F4F0530110519F020E030E0FA
:10E91000E5CF10920A0210920B0210920C02109294
:10E920000D02109206021092070210920802109235
:10E930000902109202021092030210920402109235
:10E9400005028FEE90EE60E00F94F5F180E191EE1C
:10E9500060E00F94C2F18091C00087FFFCCF9091DE
:10E96000C600903608F09F759032B8F09093C600BC
:10E970008091C00086FFFCCF8091C00080648093AE
:10E98000C000A0E2A093C6008091C00086FFFCCF2B
:10E990008091C00080648093C000983409F4D7C18E
:10E9A0009934B8F4923409F459C1933458F490333B
:10E9B00019F1903308F4E3C59F33A1F1903409F0C5
:10E9C000DEC5BDC0953409F470C1963409F0D7C5D1
:10E9D00098C1923509F42BC2933538F49C3409F46C
:10E9E000F5C1913509F0CBC518C2963509F445C279
:10E9F000993509F0C4C567C483E792EE62E00F94CD
:10EA0000F5F110920602109207021092080210927D
:10EA1000090210920A0210920B0210920C0210923C
:10EA20000D0213C18FE792EE62E00F94F5F18FEEC5
:10EA300090EE60E00F94F5F181E291EE60E00F94CA
:10EA4000C2F187EB91EE60E00F94F5F180E391EE77
:10EA500060E00F94C2F184EE90EE60E00F94F5F167
:10EA60008FE391EE60E00F94C2F186E090E061E008
:10EA700070E00F9434F20F94DCF18DE591EE60E0DC
:10EA80000F94C2F189EC91EE60E00F94F5F18EE401
:10EA900091EE60E00F94C2F183EC91EE60E00F9490
:10EAA000F5F18CE691EE60E00F94C2F18EE10F94E7
:10EAB0000DF288E90F940DF281E00F940DF20F949E
:10EAC000DCF18BE791EE60E00F94C2F119E0E0E039
:10EAD000F0E010935700E4918E2F0F940DF20F94F5
:10EAE000DCF18AE891EE60E00F94C2F1E3E0F0E03F
:10EAF00010935700E4918E2F0F940DF20F94DCF1D8
:10EB000089E991EE60E00F94C2F1E2E0F0E0109349
:10EB10005700E4918E2F0F940DF20F94DCF188EAE8
:10EB200091EE60E00F94C2F1E1E0F0E01093570045
:10EB30001491812F0F940DF20F94DCF107CF8BE825
:10EB400092EE62E00F94F5F18BE492EE60E00F94A8
:10EB5000F5F10F94DCF100E010E019C0C8016F2D51
:10EB60000F947FFEFF2031F489E492EE60E00F9471
:10EB7000C2F10BC0F092C6008091C00086FFFCCFAE
:10EB80008091C00080648093C0000F5F1F4FC80158
:10EB900081519F41A0E0B0E0ABBFFC01F790BAE229
:10EBA000FB1621F0E2E000301E07C1F60F94DCF105
:10EBB0000F94DCF187E592EE60E00F94F5F10F948D
:10EBC000DCF1CC24DD2400E010E01EC0C8010F946D
:10EBD00077FEF82E882331F489E492EE60E00F94FA
:10EBE000C2F10BC08093C6008091C00086FFFCCFAD
:10EBF0008091C00080648093C000FE1419F00894D6
:10EC0000C11CD11C0F5F1F4FC80181519F41A0E063
:10EC1000B0E0ABBFFC01E790FAE2EF1621F022E092
:10EC20000030120799F60F94DCF10F94DCF182E6C4
:10EC300092EE60E00F94C2F1C60161E070E00F94C3
:10EC400034F20F94DCF10F94DCF110920202109276
:10EC50000302109204021092050278CE89E992EE26
:10EC600062E00F94F5F1279A2F9A16C02F9880E052
:10EC700090E0E0EDF7E03197F1F7019684369105E9
:10EC8000C1F72F9A80E090E0E0EDF7E03197F1F7DF
:10EC9000019684369105C1F78091C00087FFE6CFC9
:10ECA0008091C00087FFFCCF64C485EA92EE62E0E9
:10ECB0000F94F5F140910202509103026091040219
:10ECC0007091050281E020E10F9491F2809102029F
:10ECD00090910302A0910402B091050280509F4FD1
:10ECE000AF4FBF4F8093020290930302A0930402A0
:10ECF000B093050280509041A040B04008F426CE69
:10ED0000A4CF83EB92EE62E00F94F5F140910602FE
:10ED100050910702609108027091090280E020E1A1
:10ED20000F9491F28091060290910702A09108023F
:10ED3000B091090280509F4FAF4FBF4F80930602A2
:10ED400090930702A0930802B0930902FFCD80ECD4
:10ED500092EE62E00F94F5F183E792EE60E00F949B
:10ED6000F5F18FE792EE60E00F94F5F18BE892EE0B
:10ED700060E00F94F5F189E992EE60E00F94F5F10F
:10ED800085EA92EE60E00F94F5F183EB92EE60E09D
:10ED90000F94F5F180EC92EE60E00F94F5F187ECC2
:10EDA00092EE60E00F94F5F188ED92EE60E00F9442
:10EDB000F5F18FED92EE60E00F94F5F18AEE92EEB0
:10EDC00060E00F94F5F183E093EEBDCD87EC92EE19
:10EDD00062E00F94F5F181E40F947BF282E40F94EA
:10EDE0007BF283E40F947BF284E40F947BF285E45E
:10EDF0000F947BF286E40F947BF287E40F947BF20E
:10EE000088E40F947BF28AE40F947BF28BE40F94F6
:10EE10007BF28CE40F947BF299CD88ED92EE62E068
:10EE20000F94F5F1772473948824992409C48FED05
:10EE300092EE62E00F94F5F140910A0250910B02BC
:10EE400060910C0270910D0282E020E10F9491F22A
:10EE500080910A0290910B02A0910C02B0910D02D8
:10EE600080509F4FAF4FBF4F80930A0290930B0289
:10EE7000A0930C02B0930D0269CD8AEE92EE62E08F
:10EE80000F94F5F184EE90EE60E00F94F5F18FECC5
:10EE900091EE60E00F94F5F1662477244301CC5D98
:10EEA000DE4F19821882C452D140D401C301B695F5
:10EEB000A79597958795CA5DDE4F88839983AA8326
:10EEC000BB83C652D140CC5DDE4FA881B981C4520C
:10EED000D1401196CC5DDE4FB983A883C452D14096
:10EEE000CD0162E070E00F9434F2B0E2B093C6005E
:10EEF0008091C00086FFFCCF8091C0008064809329
:10EF0000C000EDE2E093C6008091C00086FFFCCF18
:10EF10008091C00080648093C000F0E2F093C6004E
:10EF20008091C00086FFFCCF8091C00080648093F8
:10EF3000C000CA5DDE4FE880F9800A811B81C6529D
:10EF4000D140BB27A12F902F8F2D0F940DF2CA5DBA
:10EF5000DE4F8881C652D1400F940DF2B0E2FB2EF5
:10EF6000F092C6008091C00086FFFCCF8091C00067
:10EF700080648093C0000DE30093C6008091C000C0
:10EF800086FFFCCF8091C00080648093C00010E2B7
:10EF90001093C6008091C00086FFFCCF8091C00016
:10EFA00080648093C0008BBEF3012791C65DDE4F65
:10EFB0002883CA52D140A22EBB24CC24DD2408943D
:10EFC000611C711C811C911C8BBEF3018791282E42
:10EFD0003324442455240894611C711C811C911C09
:10EFE0008BBEF3013791C55DDE4F3883CB52D140E4
:10EFF0000894611C711C811C911C8BBEF30147910C
:10F00000C45DDE4F4883CC52D140ADEFEA2EAFEF66
:10F01000FA2EAFEF0A2FAFEF1A2F6E0C7F1C801E57
:10F02000911E142D032DF22CEE24EA0CFB1C0C1D5A
:10F030001D1D0F940DF220E22093C6008091C000A8
:10F0400086FFFCCF8091C00080648093C000C65DC5
:10F05000DE4F8881CA52D1400F940DF230E23093D6
:10F06000C6008091C00086FFFCCF8091C000806404
:10F070008093C000C45DDE4F8881CC52D1400F9494
:10F080000DF240E24093C6008091C00086FFFCCFA5
:10F090008091C00080648093C000C55DDE4F888190
:10F0A000CB52D1400F940DF250E25093C6008091A4
:10F0B000C00086FFFCCF8091C00080648093C000B8
:10F0C0008FEFE8168FEFF80680E0080780E018075A
:10F0D00031F484E092EE60E00F94C2F1DFC0D80119
:10F0E000C7018070907CA070B0708050904CA040A0
:10F0F000B040D1F52FEF3FE340E050E0E222F322B1
:10F1000004231523CA5DDE4FA880B980CA80DB8046
:10F11000C652D140AE0CBF1CC01ED11EAA0CBB1CD7
:10F12000CC1CDD1C8EE092EE60E00F94C2F1BB2798
:10F13000A12F902F8F2D0F940DF28E2D0F940DF285
:10F1400030E23093C6008091C00086FFFCCF8091F2
:10F15000C00080648093C0004EE34093C60080915D
:10F16000C00086FFFCCF87C08EE09EEFA0E0B0E03D
:10F17000E822F9220A231B239CE0E91694E9F90608
:10F1800090E0090790E0190709F088C0C45DDE4FE0
:10F19000A881CC52D140EA2EFF2400E010E0102FCD
:10F1A0000F2DFE2CEE24C55DDE4FB881CB52D14031
:10F1B000EB0EF11C011D111DD601C501817090706F
:10F1C000A070B070DC0199278827E80EF91E0A1F8D
:10F1D0001B1F20EF30E040E050E0A222B322C42207
:10F1E000D52241E1AA0CBB1CCC1CDD1C4A95D1F7F1
:10F1F000EA0CFB1C0C1D1D1D81E090E0A0E0B0E0BE
:10F20000282239224A225B2235E1220C331C441C7D
:10F21000551C3A95D1F7E20CF31C041D151D57013E
:10F220006801AA0CBB1CCC1CDD1C85E192EE60E0E1
:10F230000F94C2F1C801AA27BB270F940DF2BB2778
:10F24000A12F902F8F2D0F940DF28E2D0F940DF274
:10F2500090E29093C6008091C00086FFFCCF809121
:10F26000C00080648093C000AEE3A093C60080918C
:10F27000C00086FFFCCF8091C00080648093C000F6
:10F28000C601AA27BB270F940DF2BB27AD2D9C2DDD
:10F290008B2D0F940DF28A2D0F940DF20F94DCF14B
:10F2A000CC5DDE4FE881F981C452D140F99709F471
:10F2B0004DCBF4E0EF2EF12C012D112D6E0C7F1CA7
:10F2C000801E911EF2CD83E093EE62E00F94F5F183
:10F2D0008AE192EE60E00F94C2F18091C00087FF56
:10F2E000FCCF1091C6001F751093C6008091C0001E
:10F2F00086FFFCCF8091C00080648093C0000F9493
:10F30000DCF1812F81548A3108F036C1163409F4BA
:10F3100095C0173490F4133409F44EC0143430F40B
:10F320001134F1F0123409F01DC130C0143409F465
:10F3300059C0153409F016C16BC01A3409F4C4C0A1
:10F340001B3438F4173409F48FC0183409F00AC19B
:10F35000A1C01B3409F4D2C01C3409F003C1E8C0B9
:10F360008FEF81B90DC082B1809582B980E090E0C5
:10F37000E0EDF7E03197F1F70196883C9105C1F790
:10F380008091C00087FFEFCF12B8EFC08FEF84B934
:10F390000DC085B1809585B980E090E0E0EDF7E0A3
:10F3A0003197F1F70196883C9105C1F78091C00033
:10F3B00087FFEFCF15B8D9C08FEF87B90DC088B1DF
:10F3C000809588B980E090E0E0EDF7E03197F1F7C3
:10F3D0000196883C9105C1F78091C00087FFEFCF6F
:10F3E00018B8C3C08FEF8AB90DC08BB180958BB9A7
:10F3F00080E090E0E0EDF7E03197F1F70196883C8E
:10F400009105C1F78091C00087FFEFCF1BB8ADC059
:10F410008FEF8DB90DC08EB180958EB980E090E0F0
:10F42000E0EDF7E03197F1F70196883C9105C1F7DF
:10F430008091C00087FFEFCF1EB897C08FEF80BBD1
:10F440000DC081B3809581BB80E090E0E0EDF7E0F6
:10F450003197F1F70196883C9105C1F78091C00082
:10F4600087FFEFCF11BA81C08FEF83BB0DC084B38C
:10F47000809584BB80E090E0E0EDF7E03197F1F714
:10F480000196883C9105C1F78091C00087FFEFCFBE
:10F4900014BA6BC08FEF809301010FC080910201FD
:10F4A00080958093020180E090E0E0EDF7E03197F5
:10F4B000F1F70196883C9105C1F78091C00087FF64
:10F4C000EDCF1092020151C08FEF809304010FC065
:10F4D0008091050180958093050180E090E0E0ED4A
:10F4E000F7E03197F1F70196883C9105C1F78091DB
:10F4F000C00087FFEDCF1092050137C08FEF8093DA
:10F5000007010FC08091080180958093080180E079
:10F5100090E0E0EDF7E03197F1F70196883C910536
:10F52000C1F78091C00087FFEDCF109208011DC088
:10F530008FEF80930A010FC080910B01809580931B
:10F540000B0180E090E0E0EDF7E03197F1F70196F4
:10F55000883C9105C1F78091C00087FFEDCF1092E4
:10F560000B0103C085E292EEEEC98091C00087FFD7
:10F57000FCCF8091C600EAC988E392EEE4C98CE131
:10F5800091EEE1C988249924933011F1943028F444
:10F59000913089F09230B8F408C0953061F195301F
:10F5A000F0F0963009F048C043C02B3109F042C951
:10F5B00091E06BE13FC96227C15DDE4F2883CF52E6
:10F5C000D14092E037C9B22FA0E0622793E032C960
:10F5D000822F90E0A82BB92B622794E02BC92E3004
:10F5E00009F039C3622795E0C05DDE4F19821882A9
:10F5F000C053D1401FC9E1E0F0E0EC0FFD1FC05D3A
:10F60000DE4F08811981C053D140E00FF11F2083E4
:10F610000F5F1F4FC05DDE4F19830883C053D14079
:10F6200062270A171B0709F005C9D80196E002C92D
:10F63000261709F010C303C0973009F0FBC87724E0
:10F640009981933109F412C19431C8F4963009F4C8
:10F65000D8C0973050F4923009F406C1933009F4C1
:10F660006DC0913009F059C253C0913109F477C08F
:10F67000923108F0BBC0903109F04FC2F5C098310B
:10F6800009F487C0993150F4953109F4EFC09531F0
:10F6900008F4C6C1963109F040C2C2C19A3109F4DA
:10F6A0006CC09A3108F491C09B3109F45BC09D3164
:10F6B00009F033C29D81903359F48F81882311F46E
:10F6C0009EE11CC0813011F091E018C098E916C08D
:10F6D000892F807591F0903539F4E0E0F0E089E011
:10F6E0008093570094910AC0983539F4E3E0F0E034
:10F6F00089E080935700949101C090E01A821B82A8
:10F700008D818C831D829E831F8227E030E009C299
:10F710001A8288E08B8381E48C8386E58D8382E581
:10F720008E8389E48F8383E5888780E589878FE5E9
:10F730008A8782E38B872BE030E0F3C18A818139AD
:10F7400041F0823941F0803911F48FE005C080E04A
:10F7500003C082E001C08AE01A828B8344C0772410
:10F76000739482C08D81882311F48EE12CC0813086
:10F7700011F081E028C088E926C01A82E1E0F0E0BB
:10F7800089E08093570084918B831C8224E030E0D1
:10F79000C8C18B81803589F48C81883039F4E2E0EE
:10F7A000F0E089E08093570084910DC0E0E0F0E044
:10F7B00089E080935700849106C0E3E0F0E089E09F
:10F7C0008093570084911A82DFCF8D81836C99E0FA
:10F7D000E1E0F0E0082E90935700E89507B600FCB2
:10F7E000FDCF1A821B8223E030E09BC180EC8A832C
:10F7F000CE5CDE4F188219821A821B82C253D1401E
:10F800008EC18A8190E0A0E0B0E0582F44273327D2
:10F8100022278B8190E0A0E0B0E0DC0199278827C7
:10F82000282B392B4A2B5B2B8D8190E0A0E0B0E098
:10F83000282B392B4A2B5B2B8C8190E0A0E0B0E089
:10F84000BA2FA92F982F8827282B392B4A2B5B2BCF
:10F85000220F331F441F551FC05EDE4F288339839C
:10F860004A835B83C052D1401A8259C13A81C95C34
:10F87000DE4F3883C753D140CA5CDE4F1882C6536F
:10F88000D1408B81C82EDD24CA5CDE4F488159816E
:10F89000C653D140C42AD52A933109F082C0CE5C28
:10F8A000DE4F88819981AA81BB81C253D1408050AB
:10F8B000904CA340B04030F583E0CE5CDE4FE88052
:10F8C000F9800A811B81C253D140F70100935B008C
:10F8D00080935700E89507B600FCFDCFCE5CDE4F65
:10F8E000088119812A813B81C253D14000501F4FAA
:10F8F0002F4F3F4FCE5CDE4F088319832A833B8313
:10F90000C253D140C05EDE4F488159816A817B81FC
:10F91000C052D140DE011B9631E08C9111962C91A2
:10F9200011971296C75CDE4F2883C953D140C85C3B
:10F93000DE4F1882C853D14090E0C85CDE4FE881AA
:10F94000F981C853D1408E2B9F2B0C01FA01609393
:10F950005B0030935700E89511244E5F5F4F6F4F67
:10F960007F4F0EEFE02E0FEFF02ECE0CDF1CC114F8
:10F97000D10499F685E0C05EDE4F088119812A81A5
:10F980003B81C052D140F80120935B008093570027
:10F99000E89507B600FCFDCF81E180935700E8951C
:10F9A00035C0C05EDE4F88819981AA81BB81C0527B
:10F9B000D140B695A795979587957C018601ABE0D8
:10F9C000AA2EB12CAC0EBD1E0BC0D5016D915D01F0
:10F9D000C7010F947FFE0894E11CF11C01501040F8
:10F9E0000115110591F7A60160E070E0440F551F65
:10F9F000661F771FC05EDE4FE880F9800A811B8199
:10FA0000C052D1404E0D5F1D601F711F1A82C05E33
:10FA1000DE4F488359836A837B83C052D1407FC0C5
:10FA2000FA80C55CDE4FF882CB53D140C65CDE4F16
:10FA30001882CA53D1408B81C82EDD24C65CDE4FAC
:10FA400008811981CA53D140C02AD12A1A828981DA
:10FA5000BE016D5F7F4F843121F59601C05EDE4FA0
:10FA6000E880F9800A811B81C052D1400BBFF701A9
:10FA700087919691DB018C9311969C936E5F7F4FDB
:10FA8000D801C7010296A11DB11DC05EDE4F88835B
:10FA90009983AA83BB83C052D14022503040F1F6F3
:10FAA00036C0C05EDE4F288139814A815B81C052F9
:10FAB000D1400894C108D108760100E010E0089414
:10FAC000C11CD11C0894E11CF11C011D111DE20E8A
:10FAD000F31E041F151F21BDBB27A52F942F832FB5
:10FAE00082BD2F5F3F4F4F4F5F4FF89A80B5DB01CC
:10FAF0008D93BD012E153F054007510761F7C05E8C
:10FB0000DE4F288339834A835B83C052D1409601FC
:10FB10002D5F3F4FFB01108204C080EC8A8322E0FE
:10FB200030E08BE18093C6008091C00086FFFCCF5F
:10FB30008091C00080648093C000C15DDE4FF88179
:10FB4000CF52D140F093C6008091C00086FFFCCF19
:10FB50008091C00080648093C000432F3093C60022
:10FB60008091C00086FFFCCF8091C00080648093AC
:10FB7000C000922F2093C6008091C00086FFFCCF6A
:10FB80008091C00080648093C0008EE08093C600A6
:10FB90008091C00086FFFCCF8091C000806480937C
:10FBA000C00065E1C15DDE4FE880CF52D1406E25D7
:10FBB00069276427FE01319610C090819093C6009A
:10FBC0008091C00086FFFCCF31968091C000806498
:10FBD0008093C0006927215030402115310569F715
:10FBE0006093C6008091C00086FFFCCF8091C0006A
:10FBF00080648093C00085B1805885B9772081F4F6
:10FC0000C15DDE4F0881CF52D1400F5FC15DDE4F35
:10FC10000883CF52D14090E0A0E0B0E00D941AF4F8
:10FC200027982F9880E090E020ED37E0F901319798
:10FC3000F1F7019684369105C9F700008091C00064
:10FC40008D7F8093C00081E180935700E895EE2777
:10FC5000FF270994FFCF90E00D941AF497FB092E2B
:10FC600007260AD077FD04D02ED006D000201AF443
:10FC7000709561957F4F0895F6F7909581959F4F08
:10FC80000895A1E21A2EAA1BBB1BFD010DC0AA1FDD
:10FC9000BB1FEE1FFF1FA217B307E407F50720F0F5
:10FCA000A21BB30BE40BF50B661F771F881F991F70
:10FCB0001A9469F760957095809590959B01AC01B9
:10FCC000BD01CF010895AA1BBB1B51E107C0AA1FAC
:10FCD000BB1FA617B70710F0A61BB70B881F991FED
:10FCE0005A95A9F780959095BC01CD010895F99991
:10FCF000FECF92BD81BDF89A992780B50895262F31
:10FD0000F999FECF1FBA92BD81BD20BD0FB6F89400
:0EFD1000FA9AF99A0FBE01960895F894FFCF63
:00000001FF
