:100000000C9438010C9469010C9469010C946901F9
:100010000C9469010C9469010C9469010C946901B8
:100020000C9469010C9469010C9469010C946901A8
:100030000C9469010C9469010C9469010C94690198
:100040000C9469010C9469010C9469010C94690188
:100050000C9469010C9469010C9469010C940007DB
:100060000C9469010C94CA060C94A0060C946901C6
:100070000C9469010C9469010C9469010C94690158
:100080000C9469010C9469010C9469010C94690148
:100090000C9469010C9469010C9469010C94690138
:1000A0000C9469010C9469010C9469010C94690128
:1000B0000C9469010C9469010C9469010C94690118
:1000C0000C9469010C9469010C9469010C94690108
:1000D0000C9469010C9469010C9469010C946901F8
:1000E0000C9469010C9409030C9405030C942002F0
:1000F0000C94B7010C9413030C94630F0C94F70247
:100100000C94DC020C941C030C94DA010C946D0228
:100110000C944A070C9421030C940F030C94FB02DB
:100120000C94EE020C94E6020C94E8010C948A0103
:100130000C94F1020C94EA020C94E2020C94C601B5
:100140000C9401030C9417030C941D030000200071
:100150002300260029002C002F003200000100009F
:1001600003010601090100000A0B02090C0D0E082B
:100170000703040100000000000000000000000070
:10018000000000000000000000000000000000006F
:10019000000012111000000000000000000000002C
:1001A000000000000000000000000000000022002D
:1001B000250028002B002E00310034000201000031
:1001C000050108010B0100002100240027002A007E
:1001D0002D003000330001010000040107010A0175
:1001E00005050505070508080808020202020A0AB3
:1001F00008080404040401010101010101010303D1
:10020000030303030303040707070C0C0C0C0C0C7B
:100210000C0C0202020206060606060606060B0B78
:100220000B0B0B0B0B0B01021020200808102040B9
:1002300010204080020102010804020101020408AA
:100240001020408080402010080402018004020138
:100250008040201008040201080402010102040881
:100260001020408001020408102040804A07630FDC
:1002700011241FBECFEFD1E2DEBFCDBF00E00CBF27
:1002800015E0A0E0B2E0E8EAF5E200E00BBF02C052
:1002900007900D92A83BB107D9F727E0A8EBB5E08E
:1002A00001C01D92AE36B207E1F711E0C7E3D1E01D
:1002B00000E006C021970109802FFE010E948710EF
:1002C000C633D10780E00807A9F70E943A080C94CA
:1002D000C2120C94000090E0FC01EA5DFD4F2491F5
:1002E00080529E4FFC018491882399F090E0880F02
:1002F000991FFC01EA53FE4FA591B491FC01E4550E
:10030000FE4F859194918FB7F894EC91E22BEC938A
:100310008FBF0895AF92BF92CF92DF92EF92FF927C
:100320000F931F93CF93DF936C017B018B01040F1D
:10033000151FEB015E01AE18BF08C017D10759F0B9
:100340006991D601ED91FC910190F081E02DC601FB
:100350001995892B79F7C501DF91CF911F910F91E5
:10036000FF90EF90DF90CF90BF90AF900895FC0189
:10037000538D448D252F30E0842F90E0821B930B0A
:10038000541710F0CF96089501970895FC01918DB0
:10039000828D981761F0A28DAE0FBF2FB11D5D96B3
:1003A0008C91928D9F5F9F73928F90E008958FEF55
:1003B0009FEF0895FC01918D828D981731F0828D09
:1003C000E80FF11D858D90E008958FEF9FEF089560
:1003D000FC01918D228D892F90E0805C9F4F821BC4
:1003E00091098F73992708958BE696E00E94E801A2
:1003F00021E0892B09F420E0822F0895FC01A48DCF
:10040000A80FB92FB11DA35ABF4F2C91848D90E036
:1004100001968F739927848FA689B7892C93A08919
:10042000B1898C91837080648C93938D848D9813A3
:1004300006C00288F389E02D80818F7D8083089536
:10044000EF92FF920F931F93CF93DF93EC0181E024
:10045000888F9B8D8C8D98131AC0E889F9898081CB
:1004600085FF15C09FB7F894EE89FF896083E889FE
:10047000F98980818370806480839FBF81E090E0F0
:10048000DF91CF911F910F91FF90EF900895F62E7D
:100490000B8D10E00F5F1F4F0F731127E02E8C8D17
:1004A0008E110CC00FB607FCFACFE889F98980815C
:1004B00085FFF5CFCE010E94FE01F1CFEB8DEC0F51
:1004C000FD2FF11DE35AFF4FF0829FB7F8940B8F79
:1004D000EA89FB8980818062CFCFCF93DF93EC01E3
:1004E000888D8823B9F0AA89BB89E889F9898C911C
:1004F00085FD03C0808186FD0DC00FB607FCF7CFD8
:100500008C9185FFF2CF808185FFEDCFCE010E94D7
:10051000FE01E9CFDF91CF91089580E090E0892B33
:1005200029F00E94F40181110E94000080E090E017
:10053000892B49F080E090E0892B29F00E9400008F
:1005400081110E94000080E090E0892B49F080E05A
:1005500090E0892B29F00E94000081110E94000088
:1005600080E090E0892B49F080E090E0892B29F031
:100570000E94000081110C94000008958150823186
:1005800008F05AC0E82FF0E08827E653FD4F8F4F60
:100590000C948710EA02EE02DC02E202E6021C037F
:1005A000F102F702FB020103050309030F03130322
:1005B0001C0317031D032103809180008F77809314
:1005C00080000895809180008F7DF9CF8091800018
:1005D000877FF5CF84B58F7784BD089584B58F7DEF
:1005E000FBCF8091B0008F778093B0000895809109
:1005F000B0008F7DF9CF809190008F77809390002D
:100600000895809190008F7DF9CF80919000877F31
:10061000F5CF8091A0008F778093A00008958091FE
:10062000A0008F7DF9CF8091A000877FF5CF8091CA
:1006300020018F77809320010895809120018F7D84
:10064000F9CF80912001877FF5CFCF93DF93282FBB
:1006500030E0F901EA59FE4F8491F901EA5DFD4F5E
:10066000D491F901E052FE4FC491CC23A1F0811145
:100670000E94BE02EC2FF0E0EE0FFF1FE45BFE4F86
:10068000A591B491EC91ED2381E090E009F480E034
:10069000DF91CF91089580E090E0FACF1F93CF9340
:1006A000DF93282F30E0F901EA59FE4F8491F901D8
:1006B000EA5DFD4FD491F901E052FE4FC491CC2385
:1006C000A9F0162F81110E94BE02EC2FF0E0EE0F70
:1006D000FF1FE455FE4FA591B4918FB7F894EC91AC
:1006E000111108C0D095DE23DC938FBFDF91CF912D
:1006F0001F910895DE2BF8CF3FB7F8948091BD0588
:100700009091BE05A091BF05B091C00526B5A89BEC
:1007100005C02F3F19F00196A11DB11D3FBFBA2F93
:10072000A92F982F8827BC01CD01620F711D811D53
:10073000911D42E0660F771F881F991F4A95D1F7D8
:100740000895CF92DF92EF92FF920E947C036B019B
:100750007C010E947C036C197D098E099F09683E0B
:10076000734081059105A8F3FF90EF90DF90CF9043
:1007700008952FB7F8946091B9057091BA058091EA
:10078000BB059091BC052FBF089581E090E0909348
:100790000102809300021092680610926706109280
:1007A0005F0610925E068DEF9FEF90930302809399
:1007B00002021092CC051092CB05089520910202FE
:1007C00030910302E0915E06F0915F066091600651
:1007D000CF010196662309F441C02031310550F460
:1007E000A4E0EE0FFF1FAA95E1F7E353FA4FE20FE3
:1007F000F31F10822031310558F4FC0174E0EE0F34
:10080000FF1F7A95E1F7E353FA4FE20FF31F1082CF
:10081000A901415051094031510558F4FC0164E0EF
:10082000EE0FFF1F6A95E1F7E353FA4FE40FF51F50
:100830001082225031092031310558F4FC0184E046
:10084000EE0FFF1F8A95E1F7E353FA4FE20FF31F14
:100850001082509303024093020208952031310523
:1008600050F4B4E0EE0FFF1FBA95E1F7E353FA4FEF
:10087000E20FF31F108237FD0BC0FC01A4E0EE0F66
:10088000FF1FAA95E1F7E353FA4FE20FF31F10821F
:10089000A9014F5F5F4F57FD0BC0FC0174E0EE0FE5
:1008A000FF1F7A95E1F7E353FA4FE40FF51F10822B
:1008B0002E5F3F4F37FDCDCF64E0880F991F6A95BB
:1008C000E1F783539A4F280F391FF901C1CF0F93D6
:1008D0001F93CF938C01C62F85E20115110521F0DE
:1008E0000130110549F484E20E944E036C2F80E22E
:1008F00005301105E9F006C00230110549F483E224
:100900000E944E036C2F8FE10630110589F006C05E
:100910000330110549F482E20E944E0307301105AD
:1009200061F46C2F8EE104C081E204301105F1F610
:10093000CF911F910F910C944E03CF911F910F9166
:100940000895CF93DF93EC01892B39F560E08DE1B9
:100950000E944E0361E08CE10E944E03C230D1053B
:1009600039F560E08BE10E944E0361E08AE10E946C
:100970004E03C430D10539F560E089E10E944E0391
:1009800061E088E10E944E03C630D10539F560E090
:1009900087E10E944E0361E028C061E08DE10E9482
:1009A0004E03C130D105B1F660E08CE10E944E03E8
:1009B00061E08BE10E944E03C330D105B1F660E0E7
:1009C0008AE10E944E0361E089E10E944E03C53036
:1009D000D105B1F660E088E10E944E0361E087E155
:1009E0000E944E0360E02797B1F686E1DF91CF9138
:1009F0000C944E03CF92DF92EF92FF920F931F93CE
:100A0000CF93DF931F921F92CDB7DEB769834A83DE
:100A1000880F991F0091680710916907000F111F37
:100A2000E2E1F7E09F01225137402017310714F42B
:100A30001192F8CF2981FC01EE5EF84F21838A8163
:100A4000808360E0809166070E944E0310161106B5
:100A500004F501501109F801EE5EF84FE080D090E6
:100A60006407C090620788E0F82E6E2D661F662727
:100A7000661F8C2D0E944E03EE0C61E08D2D0E94AE
:100A80004E0360E08D2D0E944E03FA94F110EDCFDD
:100A9000DDCF61E0809166070F900F90DF91CF91DD
:100AA0001F910F91FF90EF90DF90CF900C944E0329
:100AB000EF92FF920F931F93CF937C018C0183E001
:100AC000000F111F8A95E1F70E5D184FC1E0F80184
:100AD00011928F0140E06C2FC7010E94FA04CF5F92
:100AE000C930A9F7CF911F910F91FF90EF90089512
:100AF000209168073091690712161306E4F48830D4
:100B00009105C9F020E830E002C0359527956A9537
:100B1000E2F7FC01EE5EF84F5089442349F0252BA3
:100B2000208B61E0680F408990E080E00C94FA042B
:100B300020952523F5CF08958F929F92AF92BF9273
:100B40000F931F93CF93DF93CDB7DEB7A1970FB667
:100B5000F894DEBF0FBECDBF19A2423008F44AE0C0
:100B60008E010F5D1F4F842E912CB12CA12CA5015D
:100B700094010E944210E62FB901CA01EA3044F5FF
:100B8000E05DD801EE938D01232B242B252B79F7E3
:100B900090E080E0109769F0FD0101900020E9F7F6
:100BA0003197AF014A1B5B0BBD018BE696E00E94BB
:100BB0008A01A1960FB6F894DEBF0FBECDBFDF91BC
:100BC000CF911F910F91BF90AF909F908F900895FC
:100BD000E95CD7CFCF92DF92EF92FF92CF93DF9372
:100BE0006C01092E000CEE08FF0897FF23C06DE290
:100BF0008BE696E00E942002EC0166277727CB0166
:100C00006C197D098E099F094AE00E949C05C80F56
:100C1000D91F42E050E062E875E08BE696E00E9462
:100C20008A018C0F9D1FDF91CF91FF90EF90DF9095
:100C3000CF9008954AE0C701B6010E949C05EC01DF
:100C4000E8CFCF93DF93EC0180910C0790910D07D3
:100C5000009759F020910E0730910F072C173D0790
:100C600020F081E0DF91CF910895BE016F5F7F4F4B
:100C70000E94C811009789F090930D0780930C078C
:100C8000D0930F07C0930E072091100730911107E2
:100C9000232B39F7FC011082E4CF80E0E3CF0F93E0
:100CA0001F93CF93DF938C01EC0109900020E9F7AB
:100CB0002197C81BD90BCE010E94210620910C0759
:100CC00030910D07811117C02115310519F0C901A7
:100CD0000E943F1110920D0710920C0710921107FD
:100CE0001092100710920F0710920E07DF91CF910C
:100CF0001F910F910895D0931107C0931007B80169
:100D0000C901DF91CF911F910F910C94BB122091DB
:100D1000100730911107232B39F421E0FC01808169
:100D2000882361F020E00AC0BC0180910C079091FB
:100D30000D070E94B21221E0892BA1F7822F08959E
:100D40001F920F920FB60F9211240BB60F922F9392
:100D50003F934F935F936F937F938F939F93AF9343
:100D6000BF93EF93FF938BE696E00E94FE01FF9105
:100D7000EF91BF91AF919F918F917F916F915F9113
:100D80004F913F912F910F900BBE0F900FBE0F9080
:100D90001F9018951F920F920FB60F9211240BB649
:100DA0000F922F938F939F93EF93FF93E0917B0686
:100DB000F0917C068081E0918106F091820682FDAF
:100DC0001DC09081809184068F5F8F73209185066E
:100DD000821741F0E0918406F0E0E559F94F958FD4
:100DE00080938406FF91EF919F918F912F910F90A7
:100DF0000BBE0F900FBE0F901F9018958081F2CF01
:100E00001F920F920FB60F9211242F933F938F933F
:100E10009F93AF93BF938091B9059091BA05A0912C
:100E2000BB05B091BC053091B80523E0230F2D37E9
:100E300058F50196A11DB11D2093B8058093B90501
:100E40009093BA05A093BB05B093BC058091BD05F6
:100E50009091BE05A091BF05B091C0050196A11D5E
:100E6000B11D8093BD059093BE05A093BF05B093BF
:100E7000C005BF91AF919F918F913F912F910F909E
:100E80000FBE0F901F90189526E8230F0296A11D04
:100E9000B11DD2CFCF93DF9310926E0610926D06E4
:100EA00088EE93E0A0E0B0E080936F069093700628
:100EB000A0937106B093720684E795E090936C0658
:100EC00080936B0685EC90E090937806809377068C
:100ED00084EC90E090937A068093790680EC90E021
:100EE00090937C0680937B0681EC90E090937E0645
:100EF00080937D0682EC90E09093800680937F063D
:100F000086EC90E09093820680938106109284068E
:100F1000109285061092860610928706C3E3D0E0F1
:100F2000D0936307C093620785E390E090936507D1
:100F30008093640784E390E090936707809366074B
:100F400081E090E0909369078093680783E30E94B3
:100F50006B01809164070E946B01809166070E947B
:100F60006B0161E0809166070E944E03D093630796
:100F7000C0936207E2E2F7E0119287E0E236F807F9
:100F8000D9F7D0E0C0E08091680790916907C81751
:100F9000D90774F540E06FE0CE010E94FA04809119
:100FA000680790916907C817D9072CF447E06BE0F0
:100FB000CE010E94FA0440E069E0CE010E94FA04EA
:100FC0008091680790916907C817D9071CF4CE0172
:100FD0000E9458058091680790916907C817D90742
:100FE0002CF440E06CE0CE010E94FA042196CBCFB5
:100FF00010920D0710920C0710920F0710920E0717
:10100000109211071092100787E090E00E942106CD
:1010100020910C0730910D07811120C02115310559
:1010200019F0C9010E943F1110920D0710920C0790
:10103000109211071092100710920F0710920E07CE
:101040000E94B903609308077093090780930A0709
:1010500090930B07DF91CF910C94B90387E090E058
:10106000909311078093100765E875E0C9010E940D
:10107000BB12E6CF789484B5826084BD84B581606C
:1010800084BD85B5826085BD85B5816085BD809153
:101090006E00816080936E001092810080918100CB
:1010A00082608093810080918100816080938100C3
:1010B000809180008160809380008091B100846085
:1010C0008093B1008091B00081608093B0008091E6
:1010D0009100826080939100809191008160809363
:1010E0009100809190008160809390008091A10098
:1010F00082608093A1008091A10081608093A10013
:101100008091A00081608093A00080912101826085
:101110008093210180912101816080932101809140
:10112000200181608093200180917A008460809307
:101130007A0080917A00826080937A0080917A00B0
:10114000816080937A0080917A00806880937A0031
:101150001092C100C0E6D2E000E512E0888122963C
:101160000E946B01D8018C910E5F1F4F0E946B0192
:10117000B2E0C037DB0791F7E0917B06F0917C0687
:1011800082E08083E0917706F09178061082E0910A
:101190007906F0917A068FEC808310928306E091B5
:1011A0007F06F091800686E08083E0917D06F091D5
:1011B0007E06808180618083E0917D06F0917E06CD
:1011C000808188608083E0917D06F0917E06808139
:1011D00080688083E0917D06F0917E0680818F7D1E
:1011E000808380916807909169071816190634F476
:1011F00041E06CE090E080E00E94FA048091680792
:10120000909169071816190634F448E06AE090E0F6
:1012100080E00E94FA04809168079091690718168F
:10122000190624F490E080E00E94580588248A94EE
:10123000982C85E895E00E948706882309F496C1DA
:101240000E94B903009108071091090720910A072D
:1012500030910B07601B710B820B930B683C71057F
:10126000810591059CF08091690690916A0601962E
:1012700090936A06809369060E94B90360930807F9
:101280007093090780930A0790930B07F12CE12CC8
:10129000A8E1BA2EC7010E94A10410E000E0BE9CA4
:1012A000C001BF9C900D1124FC01E059FD4F6F015E
:1012B000C0916906D0916A06C831D10514F0D0E01A
:1012C000C0E0D0936A06C093690630905706332079
:1012D00009F437C1CE01800F911F68E170E00E94D0
:1012E0007310F601E80FF91F6081C8010E946704BE
:1012F0000F5F1F4F08301105D9F60E94A103BFEF01
:10130000EB1AFB0AE9E0EE16F10421F62E01440C7B
:10131000551C10E000E0F8E12F2E3E01F9E06F1AB5
:10132000710868E0A62EB12CAC1ABD0A77E0E72E52
:10133000F12C209EC001219E900D11249C0120596A
:101340003D4F6901C501332009F409C1840D951D84
:10135000883191051CF0C3018E199F098C0D9D1DCC
:10136000DC014C91B701C8010E947805F1E0EF1A49
:10137000F1082FEFA21AB20A3FEFE316F30611F7B6
:101380000F5F1F4F0830110561F68FE20E942503A1
:1013900040904D0650904E0660904F06709050065B
:1013A000019709F0E3C445284628472851F40E94D4
:1013B000B90360934D0670934E0680934F06909349
:1013C000500681E30E942503EC01809156068C179C
:1013D0001D0651F00E94B9036093520670935306A4
:1013E00080935406909355060E94B90311E020970C
:1013F00009F410E0C0905206D0905306E0905406D5
:10140000F09055066C197D098E099F0963337105AB
:101410008105910590F0809151068C171D0669F0A9
:1014200010935106CD2B49F485E895E00E9487067C
:10143000882309F4E4C4109257061093560680E3FB
:101440000E942503EC0180915D068C171D0651F06A
:101450000E94B9036093590670935A0680935B0605
:1014600090935C060E94B90311E0209709F410E004
:10147000C0905906D0905A06E0905B06F0905C064A
:101480006C197D098E099F096333710581059105EA
:1014900098F0809158068C171D0671F0109358062D
:1014A000CD2B51F485E895E00E948706882309F446
:1014B000BDC481E08093570610935D0682E30E94CD
:1014C0002503EC01809166068C171D0651F00E94E1
:1014D000B9036093620670936306809364069093E9
:1014E00065060E94B90311E0209709F410E0C0904E
:1014F0006206D0906306E0906406F09065066C1971
:101500007D098E099F096333710581059105A0F05E
:10151000809161068C171D0679F010936106209763
:1015200059F48DE895E00E948706882309F496C453
:101530008CEA95E00E944F06109366060E948D0289
:1015400078CEC8018C1B9D0B97FF04C0C80148963C
:101550008C1B9D0B8C0D9D1DDC016C91C6CEB7FCC8
:1015600048968C0D9D1DFC014081FCCE8DE895E0D8
:101570000E948706882309F43FC050E3E52E53E01C
:10158000F52E670110E000E0C8010E94A104D0E040
:10159000C0E0F601EC0FFD1F6081CE010E946704E0
:1015A0002196C830D105A9F70E94A1030F5F1F4FF4
:1015B00040E1C40ED11C0930110531F710E000E004
:1015C0004FE0C42ED12CC8E0D0E0F701EC0FFD1F96
:1015D000B6016C1B7D0B4081C8010E9478052196E5
:1015E000C031D10591F70F5F1F4F50E1E50EF11C9F
:1015F0000830110541F7C9CE82E995E00E948706BF
:10160000882309F429C38091670690916806892B85
:1016100009F0C8C00E94B9032B013C0133E0232E1E
:10162000312C0E94B9036419750986099709603D38
:1016300077408105910508F079C000EB13E0D0E018
:10164000C0E0CE010E94A104F12CE12CF801EE0DC6
:10165000FF1D6081C7010E946704BFEFEB1AFB0A00
:10166000E8E0EE16F10491F70E94A1032196085FCD
:101670001F4FC930D10529F7C0900002D090010258
:10168000C6016AE070E00E9473105B01EB0125E087
:10169000CC0FDD1F2A95E1F7C051DC4FF12CE12C76
:1016A00010E000E0FE01E00FF11F67E070E0601B5A
:1016B000710B4081C7010E9478050F5F1F4F0430F6
:1016C000110581F7FFEFEF1AFF0A249628E0E216D2
:1016D000F10431F726EFA5012403E001259FD00D89
:1016E0001124CC0DDD1D95E0CC0FDD1F9A95E1F79F
:1016F000C051DC4FF12CE12C10E000E0FE01E00FC6
:10170000F11FB101601B710B4081C7010E94780578
:101710000F5F1F4F0430110589F73FEFE31AF30AFB
:10172000249648E0E416F10439F77BCF00910002DB
:10173000109101020E5F1F4F109368060093670619
:10174000BB24B394101611066CF50E94B80F20E16B
:1017500030E040E050E00E9410106B010E94B80F92
:10176000E601C353DA4FFE01E059FF4F20812111FA
:10177000E9CF24E030E040E050E00E9410106F5FBD
:101780007F4F8F4F9F4F90E080E0609786179707BD
:1017900034F4FE01E058FF4FB0820196F6CF0150BD
:1017A0001109D0CF0E94B9030091080710910907D1
:1017B00020910A0730910B07601B710B820B930B72
:1017C000683C7105810591050CF4B2C080916906F1
:1017D00090916A06019690936A06809369060E942A
:1017E000B903609308077093090780930A079093E1
:1017F0000B07C4E0D2E0088119810F3F100709F4FC
:101800008FC0EA81FB81EF3FFE0709F489C0980190
:101810002F5F3F4FD80184E0AA0FBB1F8A95E1F7E5
:10182000A351BA4FAE0FBF1F8C91882309F47CC11E
:101830008091CB059091CC0501969093CC05809337
:10184000CB05A1ECB5E050E040E06D917D916817CB
:1018500079079CF5440F551FDA01AF53BA4F8D93AA
:101860009C9365E070E00E947310892B49F480918D
:101870004402909145020196909345028093440260
:10188000A80174E0440F551F7A95E1F74E0F5F1FD2
:1018900090E080E00196B801680F791F683071050B
:1018A00094F4DC0164E0AA0FBB1F6A95E1F7A40F72
:1018B000B51FA353BA4F1C92EDCF4F5F5F4F45301A
:1018C000510519F6CECF54E0220F331F5A95E1F798
:1018D00023533A4FE20FF31F1082998288829B8232
:1018E0008A828091670690916806019790936806B6
:1018F00080936706892BA1F4109160068091000205
:1019000090910102019690930102809300020B973F
:101910000CF4F9C00E94C50385E895E00E944F06CB
:101920002496A2E0C434DA0709F065CF0E94DE03F2
:101930002091020230910302C0915E06D0915F06B1
:1019400040916006CE010196442309F40AC120317A
:10195000310560F4FE01B4E0EE0FFF1FBA95E1F728
:10196000E353FA4FE20FF31F41E04083203131058A
:1019700060F4FC01A4E0EE0FFF1FAA95E1F7E3532A
:10198000FA4FE20FF31F41E04083B9016150710942
:101990006031710568F4AC01E4E0440F551FEA952D
:1019A000E1F743535A4F460F571F61E0FA01608336
:1019B000B901625071096031710568F4AC0104E04D
:1019C000440F551F0A95E1F743535A4F460F571FCF
:1019D00061E0DA016C93A90143505109403151058E
:1019E00008F514E0880F991F1A95E1F7820F931FED
:1019F000FC01E653FA4F80818823A1F080914402D4
:101A000090914502019790934502809344021816E5
:101A100019060CF09FC00E94DE032397D0935F0647
:101A2000C0935E06809102029091030297FF0FC05F
:101A300082E190E0909303028093020280915E061F
:101A400090915F06019690935F0680935E06E4E0B6
:101A5000F2E041E0808191818F3F980781F02281FF
:101A600033812F3F320759F0B4E0880F991FBA95A0
:101A7000E1F783529A4F820F931FDC014C93349607
:101A8000B2E0E434FB0731F7ADECEA2EA5E0FA2E24
:101A9000670110E000E0C8010E94A104D0E0C0E0AE
:101AA000F601EC0FFD1F6081CE010E9467042196B4
:101AB000C830D105A9F70E94A1030F5F1F4FE0E1D5
:101AC000CE0ED11C0930110531F710E000E0FFE027
:101AD000CF2ED12CC8E0D0E0F701EC0FFD1FB601EE
:101AE0006C1B7D0B4081C8010E9478052196C03196
:101AF000D10591F70F5F1F4FF0E1EF0EF11C083099
:101B0000110541F742CC0E94DE0382E190E0111101
:101B100002C08DEF9FEF9093030280930202109218
:101B20005F0610925E06FCCEC90144E0880F991F43
:101B30004A95E1F783539A4FE80FF91F1082063058
:101B400011052CF0998288829B828A82E9CE3983A2
:101B50002883E6CE0E94C50385E895E00E944F06E3
:101B600061CF2031310560F4FE01B4E0EE0FFF1FBC
:101B7000BA95E1F7E353FA4FE20FF31F41E04083D8
:101B80002031310560F4FC01A4E0EE0FFF1FAA959F
:101B9000E1F7E353FA4FE20FF31F41E04083B9014D
:101BA0006F5F7F4F6031710568F4AC01E4E0440F72
:101BB000551FEA95E1F743535A4F460F571F61E00F
:101BC000FA016083B9016E5F7F4F6031710568F47F
:101BD000AC0104E0440F551F0A95E1F743535A4FF7
:101BE000460F571F61E0DA016C93A9014D5F5F4F0B
:101BF0004031510500F514E0880F991F1A95E1F75F
:101C000083539A4F820F931FFC018381882399F09D
:101C100080914402909145020197909345028093F0
:101C20004402181619068CF40E94DE032397D09301
:101C30005F06C0935E068091020290910302419775
:101C40000CF405CF8DEF9FEFF5CE0E94C50385E81C
:101C500095E00E944F06EFCF88E995E00E94870645
:101C6000882309F492CB80914402909145026AE066
:101C700070E00E9473108B01EC01CB010E94EA0519
:101C8000CE010E94EA05E0E3CE2EE5E0DE2EF12C47
:101C9000E12CC7010E94A104B12CA12CF601EA0D90
:101CA000FB1D6081C5010E9467042FEFA21AB20AD2
:101CB00038E0A316B10491F70E94A1034FEFE41A94
:101CC000F40A58E0C50ED11C89E0E816F10409F7C2
:101CD00065E0000F111F6A95E1F700511C4FB12C10
:101CE000A12C77E0C72ED12CF12CE12CF801EE0DC0
:101CF000FF1DB6016E197F094081C5010E9478055C
:101D0000AFEFEA1AFA0AB4E0EB16F10479F7EFEF55
:101D1000AE1ABE0A0C5F1F4FF8E0AF16B10421F7F0
:101D200045E0CC0FDD1F4A95E1F7C051DC4FF12CA7
:101D3000E12C53E0C52ED12C10E000E0FE01E00FB5
:101D4000F11FB601601B710B4081C7010E9478052D
:101D50000F5F1F4F0430110589F72FEFE21AF20AC7
:101D6000249638E0E316F10439F70FCB41145104FF
:101D70006104710409F425CB0E94B9036B017C0155
:101D8000C418D508E608F70810924D0610924E06C2
:101D900010924F061092500685E895E00E94870643
:101DA000882349F08DE895E040EDC41647E0D4065D
:101DB000E104F10408F582E995E00E948706882392
:101DC00039F050EDC51657E0D506E104F10490F462
:101DD00088E995E00E948706882309F4F2CA80ED1D
:101DE000C81687E0D806E104F10408F4EACA82E9DB
:101DF00095E002C088E995E00E944F06E2CA8DE8AE
:101E000095E00E948706882329F08EE995E00E94DC
:101E10004F0613CB82E995E00E948706882309F4D8
:101E20000CCB0E94DE031092600607CB8DE895E094
:101E30000E948706882329F082E995E00E944F06D8
:101E40003BCB82E995E00E948706882309F434CBD6
:101E50000E94DE0381E0809360062ECB82E995E04C
:101E60000E948706882309F467CBE4E0F2E08081D2
:101E70009181019611F5828193810196F1F480910F
:101E800002029091030220916006CC0FDD1FCC0F5F
:101E9000DD1FFE01EC5FFD4F222369F00197938364
:101EA0008283CC5FDD4F80915E0690915F06019644
:101EB0009983888341CB0196F2CF21963496C03125
:101EC000D105A9F639CB80910C0790910D070097A9
:101ED00011F00C943F1108958F929F92AF92BF9290
:101EE000CF92DF92EF92FF92CF93DF93EC01688164
:101EF00079818A819B81611571058105910521F4A4
:101F000064E279ED8BE597E02DE133EF41E050E0BD
:101F10000E94101049015A019B01AC01A7EAB1E4EB
:101F20000E942F106B017C01ACEEB4EFA50194016F
:101F30000E943D10C60ED71EE81EF91EF7FE06C011
:101F400081E0C81AD108E10880E8F80AC882D9827D
:101F5000EA82FB82C701B6019F77DF91CF91FF90A4
:101F6000EF90DF90CF90BF90AF909F908F900895AB
:101F70008F929F92AF92BF92CF92DF92EF92FF9299
:101F80006091460270914702809148029091490207
:101F9000611571058105910521F464E279ED8BE508
:101FA00097E02DE133EF41E050E00E94101049012D
:101FB0005A019B01AC01A7EAB1E40E942F106B010A
:101FC0007C01ACEEB4EFA50194010E943D10C60E59
:101FD000D71EE81EF91EF7FE06C081E0C81AD10818
:101FE000E10880E8F80AC0924602D0924702E092E7
:101FF0004802F0924902C701B6019F77FF90EF9027
:10200000DF90CF90BF90AF909F908F900895609396
:1020100046027093470280934802909349020895C4
:10202000052E97FB1EF400940E94271057FD07D041
:102030000E94421007FC03D04EF40C9427105095D8
:102040004095309521953F4F4F4F5F4F08959095A4
:102050008095709561957F4F8F4F9F4F08950E9497
:102060006410A59F900DB49F900DA49F800D911DAD
:1020700011240895B7FF0C942F100E942F10821B7B
:10208000930B0895A1E21A2EAA1BBB1BFD010DC0E4
:10209000AA1FBB1FEE1FFF1FA217B307E407F50718
:1020A00020F0A21BB30BE40BF50B661F771F881FF4
:1020B000991F1A9469F760957095809590959B018A
:1020C000AC01BD01CF010895A29FB001B39FC00133
:1020D000A39F700D811D1124911DB29F700D811D54
:1020E0001124911D089597FB072E16F4009407D034
:1020F00077FD09D00E948F1007FC05D03EF4909523
:1021000081959F4F0895709561957F4F0895EE0FCB
:10211000FF1F881F8BBF0790F691E02D1994AA1B13
:10212000BB1B51E107C0AA1FBB1FA617B70710F0C2
:10213000A61BB70B881F991F5A95A9F780959095F4
:10214000BC01CD0108950F931F93CF93DF9382308D
:10215000910510F482E090E0E0916C07F0916D073A
:1021600030E020E0B0E0A0E0309799F4211531058F
:1021700009F44AC0281B390B24303105D8F58A816F
:102180009B816115710589F1FB0193838283FE01B7
:1021900011C0408151810281138148175907E0F035
:1021A0004817590799F4109761F012960C931297FB
:1021B00013961C933296CF01DF91CF911F910F910F
:1021C000089500936C0710936D07F4CF2115310526
:1021D00051F04217530738F0A901DB019A01BD0104
:1021E000DF01F801C1CFEF01F9CF90936D07809324
:1021F0006C07CDCFFE01E20FF31F81939193225024
:10220000310939832883D7CF20916A0730916B0732
:10221000232B41F420914C0230914D0230936B07F7
:1022200020936A0720914A0230914B022115310513
:1022300041F42DB73EB740914E0250914F02241BFE
:10224000350BE0916A07F0916B07E217F307A0F4F2
:102250002E1B3F0B2817390778F0AC014E5F5F4FFC
:102260002417350748F04E0F5F1F50936B074093BC
:102270006A07819391939FCFF0E0E0E09CCFCF93EA
:10228000DF930097E9F0FC01329713821282A0914C
:102290006C07B0916D07ED0130E020E01097A1F4DC
:1022A00020813181820F931F20916A0730916B0743
:1022B0002817390709F061C0F0936B07E0936A07AC
:1022C000DF91CF910895EA01CE17DF07E8F54A8143
:1022D0005B819E0141155105B1F7E901FB83EA835A
:1022E00049915991C40FD51FEC17FD0761F4808106
:1022F00091810296840F951FE901998388838281D9
:1023000093819B838A83F0E0E0E012968D919C910B
:1023100013970097B9F52D913C911197CD01029635
:10232000820F931F20916A0730916B072817390796
:1023300039F6309751F510926D0710926C07B093F3
:102340006B07A0936A07BCCFD383C28340815181BE
:10235000840F951FC817D90761F44E5F5F4F8881BE
:102360009981480F591F518340838A819B819383B0
:1023700082832115310509F0B0CFF0936D07E0930A
:102380006C079ECFFD01DC01C0CF13821282D7CF34
:102390004F925F926F927F928F929F92AF92BF9275
:1023A000CF92DF92EF92FF920F931F93CF93DF9321
:1023B0008C01009799F4CB01DF91CF911F910F9180
:1023C000FF90EF90DF90CF90BF90AF909F908F9055
:1023D0007F906F905F904F900C94A310FC01E60FDC
:1023E000F71F9C0122503109E217F30708F4AEC031
:1023F000D901CD91DC911197C617D70720F1C530CF
:10240000D10578F0CE0104978617970750F0C61BC8
:10241000D70B2297C193D1936D937C93CF010E94E8
:102420003F11C801DF91CF911F910F91FF90EF9065
:10243000DF90CF90BF90AF909F908F907F906F90E4
:102440005F904F9008955B01AC1ABD0A4C018C0E51
:102450009D1EA0916C07B0916D07512C412CF12C61
:10246000E12C109731F580916A0790916B078815E0
:10247000990509F05CC04616570608F058C08091CF
:102480004A0290914B02009741F48DB79EB740915C
:102490004E0250914F02841B950BE817F90708F084
:1024A00055C0F0936B07E0936A07F901718360836D
:1024B000B8CF8D919C91119712966C9012971396AC
:1024C0007C901397A815B90559F56C0142E0C40E2C
:1024D000D11CCA14DB0420F1AC014A195B09DA01F2
:1024E0001296159780F06282738251834083D901DE
:1024F0006D937C93E114F10471F0D7011396FC9372
:10250000EE9312978ECF22968C0F9D1FF901918327
:102510008083F301EFCFF0936D07E0936C0781CFD9
:102520004816590608F42C017D01D3019ACFCB013E
:102530000E94A3107C01009749F0AE01B8010E94EF
:10254000A912C8010E943F1187016BCF10E000E083
:1025500068CFFB01DC0102C001900D924150504058
:10256000D8F70895FB01DC018D91019080190110CD
:10257000D9F3990B0895FB01DC0101900D92002025
:10258000E1F7089511E0C7E3D1E000E006C0802F35
:10259000FE010E9487102196011DC833D10780E0FB
:0825A0000807A9F7F894FFCF2A
:1025A8000100FDFFFFFFFFFFFFFFFFFFFFFFFFFF32
:1025B800FFFFFFFFFFFFFFFFFFFFFFFFFFFFFFFF23
:1025C800FFFFFFFFFFFFFFFFFFFFFFFFFFFFFFFF13
:1025D800FFFFFFFFFFFFFFFFFFFFFFFFFFFFFFFF03
:1025E800FFFFFFFF03000100000000006E078000EE
:1025F8002500240023002200210020001F001E00C7
:102608001D001C001B001A001900180017001600F6
:1026180001000000010000010101000001000000AC
:10262800000000010101000001000000010001009C
:10263800000001000100000000000100000001008E
:10264800010000000100010000000100010000007D
:10265800000001000000010001010101010001006A
:10266800000001000100000000000100000001005E
:10267800010101010100010000000100010000004A
:10268800000001010101010001000000010001003A
:10269800000001000100000000000100000001002E
:1026A800010000000100010000000100010000001D
:1026B800000001000000010001000000010000010D
:1026C80001010000010101010100010000000100F9
:1026D80000000000000101010101010000000000EC
:1026E80000000000000101010101010000000000DC
:1026F80000010000000100010101010000010100CA
:1027080000010101000100010100010001000000B9
:1027180000000000000100000100010001000000AD
:10272800000001000001000000000100000101009C
:10273800000000000001010101010100000000008B
:10274800000000000001010101010100000000007B
:10275800000000000000000000010000000001006F
:10276800000101000000010000010001000001005B
:10277800000100000100010000010000000101004B
:10278800000100000000010000000000000000003F
:102798000000000001010101010000010100000129
:1027A8000100000101000001010000010101010117
:1027B800000000000001010000010100010101000A
:1027C80000010100000101000001010001010101F7
:1027D80000000000010101010000000100000001EB
:1027E80001010101010000000100000001010101D7
:1027F80000000000010101010000000100000001CB
:1028080001010101000000010000000101010101B6
:1028180000000000010000010100000101000001AA
:102828000101010100000001000000010000000199
:10283800000000000101010101000000010000008A
:102848000101010100000001000000010101010176
:10285800000000000101010101000000010000006A
:102868000101010101000001010000010101010154
:10287800000000000101010100000001000000014A
:10288800000101010000000100000001000000013A
:102898000000000001010101010000010100000128
:1028A8000101010101000001010000010101010114
:1028B8000000000001010101010000010100000108
:1028C80001010101000000010000000100000001F9
:1028D80000010100000101000101010101010101E4
:1028E80001010101010101010101010101010101D0
:1028F80001010101010101010001010101010100C2
:1029080000000101010100000000000101000000B9
:102918000000000020028A01B7016D02E801C6012B
:10292800DA010D0A004D454E53414A45004D454ECA
:1029380055004A5547415200504155534100434FB5
:102948004E46494755524143494F4E00455354411D
:08295800444953544943410076
:00000001FF
