:100000000C9438010C9469010C9469010C946901F9
:100010000C9469010C9469010C9469010C946901B8
:100020000C9469010C9469010C9469010C946901A8
:100030000C9469010C9469010C9469010C94690198
:100040000C9469010C9469010C9469010C94690188
:100050000C9469010C9469010C9469010C94C0051D
:100060000C9469010C9434060C940A060C946901F2
:100070000C9469010C9469010C9469010C94690158
:100080000C9469010C9469010C9469010C94690148
:100090000C9469010C9469010C9469010C94690138
:1000A0000C9469010C9469010C9469010C94690128
:1000B0000C9469010C9469010C9469010C94690118
:1000C0000C9469010C9469010C9469010C94690108
:1000D0000C9469010C9469010C9469010C946901F8
:1000E0000C9469010C94BA010C94DB010C94D101BD
:1000F0000C94E9010C94E3010C94B2010C94BE023F
:100100000C94AE010C94DF010C94CD010C946A06A2
:100110000C94E1020C9427030C94A8010C94BD01EB
:100120000C94CD020C94C3010C9491020C94B60172
:100130000C9474030C94D5010C94E8010C94C70141
:100140000C94ED010C94010D0C94EF0200002000C2
:100150002300260029002C002F003200000100009F
:1001600003010601090100000A0B02090C0D0E082B
:100170000703040100000000000000000000000070
:10018000000000000000000000000000000000006F
:10019000000012111000000000000000000000002C
:1001A000000000000000000000000000000022002D
:1001B000250028002B002E00310034000201000031
:1001C000050108010B0100002100240027002A007E
:1001D0002D003000330001010000040107010A0175
:1001E00005050505070508080808020202020A0AB3
:1001F00008080404040401010101010101010303D1
:10020000030303030303040707070C0C0C0C0C0C7B
:100210000C0C0202020206060606060606060B0B78
:100220000B0B0B0B0B0B01021020200808102040B9
:1002300010204080020102010804020101020408AA
:100240001020408080402010080402018004020138
:100250008040201008040201080402010102040881
:100260001020408001020408102040806A06010D21
:1002700011241FBECFEFD1E2DEBFCDBF00E00CBF27
:1002800013E0A0E0B2E0E4EEF0E200E00BBF02C059
:1002900007900D92A43FB107D9F725E0A4EFB3E092
:1002A00001C01D92AC39B207E1F711E0C7E3D1E01C
:1002B00000E006C021970109802FFE010E94250E53
:1002C000C633D10780E00807A9F70E945A070C94AB
:1002D00060100C94000090E0FC01EA5DFD4F249159
:1002E00080529E4FFC018491882399F090E0880F02
:1002F000991FFC01EA53FE4FA591B491FC01E4550E
:10030000FE4F859194918FB7F894EC91E22BEC938A
:100310008FBF08958150823108F05AC0E82FF0E075
:100320008827EA56FE4F8F4F0C94250EB601BA016E
:10033000A801AE01B201E801BD01C301C701CD01B1
:10034000D101D501DB01DF01E801E301E901ED01A4
:10035000809180008F778093800008958091800045
:100360008F7DF9CF80918000877FF5CF84B58F771F
:1003700084BD089584B58F7DFBCF8091B0008F77C9
:100380008093B00008958091B0008F7DF9CF809167
:1003900090008F77809390000895809190008F7DDA
:1003A000F9CF80919000877FF5CF8091A0008F7763
:1003B0008093A00008958091A0008F7DF9CF809157
:1003C000A000877FF5CF809120018F778093200157
:1003D0000895809120018F7DF9CF80912001877F42
:1003E000F5CFCF93DF93282F30E0F901EA59FE4F84
:1003F0008491F901EA5DFD4FD491F901E052FE4F7D
:10040000C491CC23A1F081110E948A01EC2FF0E06D
:10041000EE0FFF1FE45BFE4FA591B491EC91ED232D
:1004200081E090E009F480E0DF91CF91089580E0D1
:1004300090E0FACF1F93CF93DF93282F30E0F9019C
:10044000EA59FE4F8491F901EA5DFD4FD491F9011B
:10045000E052FE4FC491CC23A9F0162F81110E94C7
:100460008A01EC2FF0E0EE0FFF1FE455FE4FA5913F
:10047000B4918FB7F894EC91111108C0D095DE2398
:10048000DC938FBFDF91CF911F910895DE2BF8CFC2
:100490003FB7F8948091950490919604A0919704A9
:1004A000B091980426B5A89B05C02F3F19F001967E
:1004B000A11DB11D3FBFBA2FA92F982F8827BC01BE
:1004C000CD01620F711D811D911D42E0660F771FE6
:1004D000881F991F4A95D1F70895CF92DF92EF9226
:1004E000FF920E9448026B017C010E9448026C1935
:1004F0007D098E099F09683E734081059105A8F327
:10050000FF90EF90DF90CF9008952FB7F89460910F
:1005100091047091920480919304909194042FBF60
:100520000895AF92BF92CF92DF92EF92FF920F9316
:100530001F93CF93DF936C017B018B01040F151F79
:10054000EB015E01AE18BF08C017D10759F06991E1
:10055000D601ED91FC910190F081E02DC601199535
:10056000892B79F7C501DF91CF911F910F91FF90F2
:10057000EF90DF90CF90BF90AF900895FC01538D26
:10058000448D252F30E0842F90E0821B930B54176D
:1005900010F0CF96089501970895FC01918D828DFA
:1005A000981761F0A28DAE0FBF2FB11D5D968C9193
:1005B000928D9F5F9F73928F90E008958FEF9FEFD2
:1005C0000895FC01918D828D981731F0828DE80F8E
:1005D000F11D858D90E008958FEF9FEF0895FC0148
:1005E000918D228D892F90E0805C9F4F821B910915
:1005F0008F739927089589E994E00E94EF0221E022
:10060000892B09F420E0822F0895FC01A48DA80F06
:10061000B92FB11DA35ABF4F2C91848D90E0019644
:100620008F739927848FA689B7892C93A089B18964
:100630008C91837080648C93938D848D981306C005
:100640000288F389E02D80818F7D80830895EF9269
:10065000FF920F931F93CF93DF93EC0181E0888F7C
:100660009B8D8C8D98131AC0E889F989808185FF4C
:1006700015C09FB7F894EE89FF896083E889F989EE
:1006800080818370806480839FBF81E090E0DF91F0
:10069000CF911F910F91FF90EF900895F62E0B8D43
:1006A00010E00F5F1F4F0F731127E02E8C8D8E11FE
:1006B0000CC00FB607FCFACFE889F989808185FF65
:1006C000F5CFCE010E940503F1CFEB8DEC0FFD2F8E
:1006D000F11DE35AFF4FF0829FB7F8940B8FEA8920
:1006E000FB8980818062CFCFCF93DF93EC01888D2F
:1006F0008823B9F0AA89BB89E889F9898C9185FD9D
:1007000003C0808186FD0DC00FB607FCF7CF8C912A
:1007100085FFF2CF808185FFEDCFCE010E940503DA
:10072000E9CFDF91CF91089580E090E0892B29F007
:100730000E94FB0281110E94000080E090E0892B62
:1007400049F080E090E0892B29F00E94000081119F
:100750000E94000080E090E0892B49F080E090E06A
:10076000892B29F00E94000081110E94000080E086
:1007700090E0892B49F080E090E0892B29F00E94DD
:10078000000081110C940000089580910202909164
:10079000030220918504222309F18031910520F480
:1007A000FC01EC50FC4F10828031910520F4FC01DB
:1007B000EC50FC4F108A9C01215031092031310549
:1007C00020F4F901EC50FC4F108A0297803191051A
:1007D000F0F48C509C4FFC01108A19C080319105B7
:1007E00020F4FC01EC50FC4F108297FD04C0FC018A
:1007F000EC50FC4F108A9C012F5F3F4F37FD04C027
:10080000F901EC50FC4F108A029697FFE2CF30932B
:1008100003022093020208950F931F93CF938C013C
:10082000C62F85E20115110521F00130110549F4AB
:1008300084E20E941A026C2F80E205301105E9F073
:1008400006C00230110549F483E20E941A026C2F9F
:100850008FE10630110589F006C00330110549F417
:1008600082E20E941A020730110561F46C2F8EE1BA
:1008700004C081E204301105F1F6CF911F910F9170
:100880000C941A02CF911F910F910895CF93DF938B
:10089000EC01892B39F560E08DE10E941A0261E0DC
:1008A0008CE10E941A02C230D10539F560E08BE17B
:1008B0000E941A0261E08AE10E941A02C430D10546
:1008C00039F560E089E10E941A0261E088E10E9446
:1008D0001A02C630D10539F560E087E10E941A029C
:1008E00061E028C061E08DE10E941A02C130D105AB
:1008F000B1F660E08CE10E941A0261E08BE10E9497
:100900001A02C330D105B1F660E08AE10E941A02F2
:1009100061E089E10E941A02C530D105B1F660E0BC
:1009200088E10E941A0261E087E10E941A0260E0F9
:100930002797B1F686E1DF91CF910C941A02CF92FE
:10094000DF92EF92FF920F931F93CF93DF931F924B
:100950001F92CDB7DEB769834A83880F991F009134
:10096000960510919705000F111FE0E4F5E09F0137
:10097000205435402017310714F41192F8CF298103
:10098000FC01E05CFA4F21838A81808360E08091E2
:1009900094050E941A021016110604F5015011095F
:1009A000F801E05CFA4FE080D0909205C09090058D
:1009B00088E0F82E6E2D661F6627661F8C2D0E941C
:1009C0001A02EE0C61E08D2D0E941A0260E08D2D5E
:1009D0000E941A02FA94F110EDCFDDCF61E0809110
:1009E00094050F900F90DF91CF911F910F91FF9081
:1009F000EF90DF90CF900C941A02EF92FF920F933A
:100A00001F93CF937C018C0183E0000F111F8A9507
:100A1000E1F7005B1A4FC1E0F80111928F0140E04D
:100A20006C2FC7010E949F04CF5FC930A9F7CF91F7
:100A30001F910F91FF90EF900895209196053091AE
:100A4000970512161306E4F488309105C9F020E8E2
:100A500030E002C0359527956A95E2F7FC01E05C2D
:100A6000FA4F5089442349F0252B208B61E0680F11
:100A7000408990E080E00C949F0420952523F5CFD9
:100A80000895CF93DF93EC0180913A0590913B0557
:100A9000009759F020913C0530913D052C173D07FA
:100AA00020F081E0DF91CF910895BE016F5F7F4F0D
:100AB0000E94660F009789F090933B0580933A055A
:100AC000D0933D05C0933C0520913E0530913F05F4
:100AD000232B39F7FC011082E4CF80E0E3CF0F93A2
:100AE0001F93CF93DF938C01EC0109900020E9F76D
:100AF0002197C81BD90BCE010E94410520913A05D0
:100B000030913B05811117C02115310519F0C9013C
:100B10000E94DD0E10923B0510923A0510923F059F
:100B200010923E0510923D0510923C05DF91CF9149
:100B30001F910F910895D0933F05C0933E05B801D2
:100B4000C901DF91CF911F910F910C945910209101
:100B50003E0530913F05232B39F421E0FC018081D3
:100B6000882361F020E00AC0BC0180913A05909191
:100B70003B050E94501021E0892BA1F7822F089598
:100B80001F920F920FB60F9211242F933F938F93C2
:100B90009F93AF93BF938091910490919204A09101
:100BA0009304B09194043091900423E0230F2D37E7
:100BB00058F50196A11DB11D2093900480939104D6
:100BC00090939204A0939304B0939404809195041D
:100BD00090919604A0919704B09198040196A11D5C
:100BE000B11D8093950490939604A0939704B093BD
:100BF0009804BF91AF919F918F913F912F910F904A
:100C00000FBE0F901F90189526E8230F0296A11D86
:100C1000B11DD2CF1F920F920FB60F9211240BB6B7
:100C20000F922F933F934F935F936F937F938F9385
:100C30009F93AF93BF93EF93FF9389E994E00E9452
:100C40000503FF91EF91BF91AF919F918F917F919C
:100C50006F915F914F913F912F910F900BBE0F902D
:100C60000FBE0F901F9018951F920F920FB60F9204
:100C700011240BB60F922F938F939F93EF93FF93B3
:100C8000E091A904F091AA048081E091AF04F09171
:100C9000B00482FD1DC090818091B2048F5F8F737C
:100CA0002091B304821741F0E091B204F0E0E756DE
:100CB000FB4F958F8093B204FF91EF919F918F919D
:100CC0002F910F900BBE0F900FBE0F901F90189595
:100CD0008081F2CFCF93DF9310929C0410929B04FB
:100CE00088EE93E0A0E0B0E080939D0490939E0492
:100CF000A0939F04B093A00482EB93E090939A0496
:100D00008093990485EC90E09093A6048093A504C9
:100D100084EC90E09093A8048093A70480EC90E08A
:100D20009093AA048093A90481EC90E09093AC0482
:100D30008093AB0482EC90E09093AE048093AD047A
:100D400086EC90E09093B0048093AF041092B204CC
:100D50001092B3041092B4041092B504C3E3D0E02F
:100D6000D0939105C093900585E390E0909393050F
:100D70008093920584E390E0909395058093940589
:100D800081E090E0909397058093960583E30E941D
:100D90006B01809192050E946B01809194050E94E5
:100DA0006B0161E0809194050E941A02D093910535
:100DB000C0939005E0E5F5E0119285E0E039F80791
:100DC000D9F7D0E0C0E08091960590919705C817BB
:100DD000D90774F540E06FE0CE010E949F04809136
:100DE000960590919705C817D9072CF447E06BE05A
:100DF000CE010E949F0440E069E0CE010E949F0462
:100E00008091960590919705C817D9071CF4CE01DB
:100E10000E94FD048091960590919705C817D90707
:100E20002CF440E06CE0CE010E949F042196CBCFD1
:100E300010923B0510923A0510923D0510923C0528
:100E400010923F0510923E0587E090E00E94410518
:100E500020913A0530913B05811120C021153105C3
:100E600019F0C9010E94DD0E10923B0510923A055F
:100E700010923F0510923E0510923D0510923C05E0
:100E80000E9485026093360570933705809338057C
:100E900090933905DF91CF910C94850287E090E023
:100EA00090933F0580933E0560EC73E0C9010E947A
:100EB0005910E6CFCF93DF9300D000D0CDB7DEB787
:100EC000789484B5826084BD84B5816084BD85B525
:100ED000826085BD85B5816085BD80916E00816031
:100EE00080936E00109281008091810082608093D7
:100EF00081008091810081608093810080918000D9
:100F00008160809380008091B10084608093B10003
:100F10008091B00081608093B000809191008260E8
:100F200080939100809191008160809391008091E5
:100F300090008160809390008091A10082608093F6
:100F4000A1008091A10081608093A1008091A00008
:100F500081608093A00080912101826080932101B3
:100F60008091210181608093210180912001816025
:100F70008093200180917A00846080937A00809130
:100F80007A00826080937A0080917A0081608093F9
:100F90007A0080917A00806880937A001092C10074
:100FA0002EE532E03A8329830EE412E0E981FA81EA
:100FB00080813296FA83E9830E946B01F801808177
:100FC0000E5F1F4F0E946B0129813A812E563240DD
:100FD00069F7E091A904F091AA0482E08083E0918E
:100FE000A504F091A6041082E091A704F091A80452
:100FF0008FEC80831092B104E091AD04F091AE04C7
:1010000086E08083E091AB04F091AC048081806144
:101010008083E091AB04F091AC0480818860808390
:10102000E091AB04F091AC04808180688083E09112
:10103000AB04F091AC0480818F7D80838091960514
:10104000909197051816190634F441E06CE090E091
:1010500080E00E949F048091960590919705181654
:10106000190634F448E06AE090E080E00E949F04B2
:1010700080919605909197051816190624F490E032
:1010800080E00E94FD04EE24EA94FE2C34E0432E1E
:10109000512C612C712C80EC93E00E94A7058823D1
:1010A00009F4B7C10E9485020091360510913705F9
:1010B0002091380530913905601B710B820B930B21
:1010C000683C7105810591059CF080918E0490919A
:1010D0008F04019690938F0480938E040E94850262
:1010E00060933605709337058093380590933905E2
:1010F000D12CC12C98E1892EC6010E94460410E033
:1011000000E08C9CC0018D9C900D1124FC01E259E3
:10111000FD4F5F0120918E0430918F043E832D831B
:101120002831310514F01E821D824D815E8150935D
:101130008F0440938E0490907E04992009F455C149
:10114000CA01800F911F68E170E00E94110EF50145
:10115000E80FF91F6081C8010E940C040F5F1F4F48
:1011600008301105B9F60E946D02FFEFCF1ADF0AB1
:1011700029E0C216D10409F0BFCF4D815E81440F32
:10118000551F5A83498310E000E088E1882E8D8145
:101190009E8109979C838B83A8E0AA2EB12CED81B8
:1011A000FE81AE1ABF0AB7E0CB2ED12C809EC001C3
:1011B000819E900D11249C0122593D4F19019920C7
:1011C00009F422C189819A818A0D9B1D883191057C
:1011D00024F08B819C818C199D09820D931DFC014B
:1011E0004081B601C8010E941D05F1E0CF1AD10867
:1011F0002FEFA21AB20A3FEFC316D30601F70F5F13
:101200001F4F0830110541F68FE20E94F1018090D6
:10121000740490907504A0907604B09077040197C0
:1012200009F030C389288A288B2851F40E9485024E
:10123000609374047093750480937604909377049C
:1012400081E30E94F1019A83898380917D04E98181
:10125000FA818E171F0651F00E948502609379046F
:1012600070937A0480937B0490937C040E9485029F
:1012700011E029813A81232B09F410E08090790450
:1012800090907A04A0907B04B0907C04681979094E
:101290008A099B096333710581059105A0F080914E
:1012A000780449815A818417150669F010937804EF
:1012B000452B49F480EC93E00E94A705882309F4AC
:1012C0002CC310927E0410937D0480E30E94F101F0
:1012D0009A83898380918404E981FA818E171F069D
:1012E00051F00E9485026093800470938104809382
:1012F0008204909383040E94850211E029813A813F
:10130000232B09F410E08090800490908104A09039
:101310008204B0908304681979098A099B096333B0
:10132000710581059105A8F080917F0449815A815A
:101330008417150671F010937F04452B51F480EC4F
:1013400093E00E94A705882309F4FEC281E0809300
:101350007E041093840482E30E94F1019A838983BE
:1013600080918B04E981FA818E171F0651F00E944B
:101370008502609387047093880480938904909316
:101380008A040E94850211E029813A81232B09F405
:1013900010E08090870490908804A0908904B09019
:1013A0008A04681979098A099B09633371058105E3
:1013B0009105B0F08091860449815A818417150601
:1013C00079F010938604452B59F488EC93E00E9441
:1013D000A705882309F4D0C287EE93E00E946F0529
:1013E00010938B040E94940356CEC801ED81FE81B8
:1013F0008E1B9F0B97FF04C0C80148968E1B9F0B46
:101400008A0D9B1DFC01A6CEC501B7FEE6CE48960F
:10141000E4CE88EC93E00E94A705882309F450C02D
:10142000FEE2CF2EF3E0DF2E560110E000E0C8010F
:101430000E9446041A821982E981FA81EA0DFB1D95
:10144000608189819A810E940C0449815A814F5F91
:101450005F4F5A8349834830510571F70E946D02EE
:101460000F5F1F4F50E1A50EB11C09301105F9F6B1
:1014700010E000E0EFE0AE2EB12C88E090E09A831F
:101480008983E981FA81EC0DFD1DB50129813A813D
:10149000621B730B4081C8010E941D0549815A815E
:1014A0004F5F5F4F5A8349834031510551F70F5FBA
:1014B0001F4F50E1C50ED11C08301105F1F6A4CE26
:1014C0008DEC93E00E94A705882309F49DCE8091BE
:1014D0008C0490918D04892B09F040C0009100028A
:1014E000109101020E5F1F4F10938D0400938C0426
:1014F000DD24D394101611068CF50E94560D20E1C0
:1015000030E040E050E00E94AE0D4B010E94560DCD
:10151000F401EC50FC4FFA83E983E059FF4F20813E
:101520002111E8CFA30192010E94AE0D6F5F7F4FA2
:101530008F4F9F4F90E080E029813A8120513109FF
:101540003A8329838617970734F4F901E058FF4F4F
:10155000D0820196F1CF01501109CCCF0E948502B3
:1015600000913605109137052091380530913905E5
:10157000601B710B820B930B683C71058105910513
:101580000CF496C080918E0490918F0401969093F4
:101590008F0480938E040E948502609336057093B9
:1015A0003705809338059093390544E052E05A831B
:1015B000498304E412E0E981FA81408151814F3F7F
:1015C000540709F469C0E981FA81228133812F3FF0
:1015D000320709F461C0CA010196FA0174E0EE0F06
:1015E000FF1F7A95E1F7EC5EFB4FE20FF31F60817E
:1015F000662309F401C1DA0164E0AA0FBB1F6A95F2
:10160000E1F7A20FB31F70E060E06F5F7F4FFA0158
:10161000E60FF71F38976CF4FB01E295F295F07F27
:10162000FE27E07FFE27EA0FFB1FEC50FC4F1082E5
:10163000ECCFF4E0880F991FFA95E1F78C509C4F9E
:10164000820F931FFC011082E981FA81F182E0820E
:10165000F382E28280918C0490918D0401979093A3
:101660008D0480938C04892BB9F4D09085048091EB
:101670000002909101020196909301028093000272
:101680000E94C50382E190E0D11002C08DEF9FEF70
:10169000909303028093020229813A812C5F3F4F8D
:1016A0003A8329830217130709F085CF0E94C503E7
:1016B000809102029091030220918504222309F473
:1016C000B4C08031910528F421E0FC01EC50FC4FBE
:1016D00020838031910528F421E0FC01EC50FC4F7F
:1016E000208B9C01215031092031310528F42C50E8
:1016F0003C4F41E0F901408B9C01225031092031DF
:10170000310528F42C503C4F41E0F901408B97FF04
:1017100002C082E190E09093030280930202A4E071
:10172000B2E021E0ED91FC911197EF3FFE0789F0C7
:1017300012968D919C9113978F3F980751F064E01A
:10174000EE0FFF1F6A95E1F7EC5FFB4FE80FF91F03
:101750002083149652E0A434B50721F754EFC52E28
:1017600053E0D52E560110E000E0C8010E94460467
:101770001A821982E981FA81EA0DFB1D6081898153
:101780009A810E940C0489819A8101969A838983A7
:10179000089781F70E946D020F5F1F4F90E1A90E1D
:1017A000B11C0930110509F710E000E04FE0A42E4C
:1017B000B12CE8E0F0E0FA83E983E981FA81EC0DED
:1017C000FD1DB50129813A81621B730B4081C8015F
:1017D0000E941D0549815A814F5F5F4F5A8349839B
:1017E0004031510551F70F5F1F4F50E1C50ED11C1D
:1017F00008301105F1F608CDBC01E4E0660F771F53
:10180000EA95E1F76C507C4F620F731FFB01108269
:10181000E981FA81463051052CF0F182E082F382B1
:10182000E2823ACF9183808337CF8031910528F4CB
:1018300021E0FC01EC50FC4F20838031910528F41D
:1018400021E0FC01EC50FC4F208B9C012F5F3F4FAF
:101850002031310528F42C503C4F41E0F901408BF8
:101860009C012E5F3F4F2031310528F42C503C4F16
:1018700041E0F901408B813191050CF44CCF8DEFA3
:101880009FEF49CF81149104A104B10409F4D8CC8D
:101890000E9485029B01AC01281939094A095B099C
:1018A00049015A0110927404109275041092760442
:1018B0001092770480EC93E00E94A705882349F0FA
:1018C00088EC93E030ED831637E09306A104B10471
:1018D00008F58DEC93E00E94A705882339F040EDD0
:1018E000841647E09406A104B10490F483ED93E0DC
:1018F0000E94A705882309F4A3CC50ED851657E074
:101900009506A104B10408F49BCC8DEC93E002C0D1
:1019100083ED93E00E946F0593CC88EC93E00E94E6
:10192000A705882329F089ED93E00E946F05CBCCB1
:101930008DEC93E00E94A705882309F4C4CC0E9493
:10194000C50310928504BFCC88EC93E00E94A705E4
:10195000882329F08DEC93E00E946F05FACC8DEC82
:1019600093E00E94A705882309F4F3CC0E94C503E5
:1019700081E080938504EDCC8DEC93E00E94A70577
:10198000882309F42DCDE4E0F2E080819181019675
:1019900069F582819381019649F5809102029091C7
:1019A00003022091850449815A81440F551F440F39
:1019B000551F5A834983222399F0FA01EC5FFD4FAA
:1019C00001979383828389819A818C5F9D4F9A834B
:1019D000898381E090E0E981FA819183808300CD61
:1019E000E981FA81EC5FFD4F0196EBCF29813A81C5
:1019F0002F5F3F4F3A83298334962031310529F6F2
:101A0000EFCC80913A0590913B05009711F00C9432
:101A1000DD0E08958F929F92AF92BF92CF92DF9288
:101A2000EF92FF92CF93DF93EC01688179818A81F5
:101A30009B81611571058105910521F464E279EDC1
:101A40008BE597E02DE133EF41E050E00E94AE0DD1
:101A500049015A019B01AC01A7EAB1E40E94CD0DF6
:101A60006B017C01ACEEB4EFA50194010E94DB0D8B
:101A7000C60ED71EE81EF91EF7FE06C081E0C81A82
:101A8000D108E10880E8F80AC882D982EA82FB829C
:101A9000C701B6019F77DF91CF91FF90EF90DF9064
:101AA000CF90BF90AF909F908F9008958F929F920C
:101AB000AF92BF92CF92DF92EF92FF926091440279
:101AC000709145028091460290914702611571051F
:101AD0008105910521F464E279ED8BE597E02DE134
:101AE00033EF41E050E00E94AE0D49015A019B01E5
:101AF000AC01A7EAB1E40E94CD0D6B017C01ACEE14
:101B0000B4EFA50194010E94DB0DC60ED71EE81E9E
:101B1000F91EF7FE06C081E0C81AD108E10880E886
:101B2000F80AC0924402D0924502E0924602F09236
:101B30004702C701B6019F77FF90EF90DF90CF90EB
:101B4000BF90AF909F908F900895609344027093E0
:101B5000450280934602909347020895052E97FB15
:101B60001EF400940E94C50D57FD07D00E94E00DA1
:101B700007FC03D04EF40C94C50D5095409530955C
:101B800021953F4F4F4F5F4F0895909580957095E9
:101B900061957F4F8F4F9F4F08950E94020EA59F22
:101BA000900DB49F900DA49F800D911D1124089558
:101BB000B7FF0C94CD0D0E94CD0D821B930B0895A1
:101BC000A1E21A2EAA1BBB1BFD010DC0AA1FBB1F41
:101BD000EE1FFF1FA217B307E407F50720F0A21BB3
:101BE000B30BE40BF50B661F771F881F991F1A9420
:101BF00069F760957095809590959B01AC01BD014A
:101C0000CF010895A29FB001B39FC001A39F700DA3
:101C1000811D1124911DB29F700D811D1124911DF4
:101C2000089597FB072E16F4009407D077FD09D08E
:101C30000E942D0E07FC05D03EF4909581959F4F94
:101C40000895709561957F4F0895EE0FFF1F881FCF
:101C50008BBF0790F691E02D1994AA1BBB1B51E195
:101C600007C0AA1FBB1FA617B70710F0A61BB70B0C
:101C7000881F991F5A95A9F780959095BC01CD01B1
:101C800008950F931F93CF93DF938230910510F443
:101C900082E090E0E0919A05F0919B0530E020E031
:101CA000B0E0A0E0309799F42115310509F44AC05D
:101CB000281B390B24303105D8F58A819B816115A9
:101CC000710589F1FB0193838283FE0111C040817C
:101CD00051810281138148175907E0F048175907CD
:101CE00099F4109761F012960C93129713961C9327
:101CF0003296CF01DF91CF911F910F9108950093FC
:101D00009A0510939B05F4CF2115310551F0421728
:101D1000530738F0A901DB019A01BD01DF01F80189
:101D2000C1CFEF01F9CF90939B0580939A05CDCF5A
:101D3000FE01E20FF31F8193919322503109398301
:101D40002883D7CF2091980530919905232B41F412
:101D500020914A0230914B023093990520939805C7
:101D600020914802309149022115310541F42DB7E7
:101D70003EB740914C0250914D02241B350BE0912F
:101D80009805F0919905E217F307A0F42E1B3F0B7D
:101D90002817390778F0AC014E5F5F4F24173507DD
:101DA00048F04E0F5F1F509399054093980581931B
:101DB00091939FCFF0E0E0E09CCFCF93DF9300972B
:101DC000E9F0FC01329713821282A0919A05B0913A
:101DD0009B05ED0130E020E01097A1F420813181D6
:101DE000820F931F20919805309199052817390784
:101DF00009F061C0F0939905E0939805DF91CF91C8
:101E00000895EA01CE17DF07E8F54A815B819E015C
:101E100041155105B1F7E901FB83EA8349915991D5
:101E2000C40FD51FEC17FD0761F4808191810296E4
:101E3000840F951FE90199838883828193819B8315
:101E40008A83F0E0E0E012968D919C9113970097C1
:101E5000B9F52D913C911197CD010296820F931FF8
:101E600020919805309199052817390739F6309750
:101E700051F510929B0510929A05B0939905A09385
:101E80009805BCCFD383C28340815181840F951FB5
:101E9000C817D90761F44E5F5F4F88819981480F59
:101EA000591F518340838A819B81938382832115AB
:101EB000310509F0B0CFF0939B05E0939A059ECFD2
:101EC000FD01DC01C0CF13821282D7CF4F925F9207
:101ED0006F927F928F929F92AF92BF92CF92DF923A
:101EE000EF92FF920F931F93CF93DF938C01009794
:101EF00099F4CB01DF91CF911F910F91FF90EF905B
:101F0000DF90CF90BF90AF909F908F907F906F9019
:101F10005F904F900C94410EFC01E60FF71F9C015F
:101F200022503109E217F30708F4AEC0D901CD9170
:101F3000DC911197C617D70720F1C530D10578F08D
:101F4000CE0104978617970750F0C61BD70B229730
:101F5000C193D1936D937C93CF010E94DD0EC80194
:101F6000DF91CF911F910F91FF90EF90DF90CF9075
:101F7000BF90AF909F908F907F906F905F904F90A9
:101F800008955B01AC1ABD0A4C018C0E9D1EA091F8
:101F90009A05B0919B05512C412CF12CE12C109706
:101FA00031F580919805909199058815990509F06A
:101FB0005CC04616570608F058C0809148029091C0
:101FC0004902009741F48DB79EB740914C02509161
:101FD0004D02841B950BE817F90708F055C0F093E4
:101FE0009905E0939805F90171836083B8CF8D91CD
:101FF0009C91119712966C90129713967C90139760
:10200000A815B90559F56C0142E0C40ED11CCA14DB
:10201000DB0420F1AC014A195B09DA01129615972D
:1020200080F06282738251834083D9016D937C93E7
:10203000E114F10471F0D7011396FC93EE9312971B
:102040008ECF22968C0F9D1FF90191838083F3011F
:10205000EFCFF0939B05E0939A0581CF4816590680
:1020600008F42C017D01D3019ACFCB010E94410ECF
:102070007C01009749F0AE01B8010E944710C801E9
:102080000E94DD0E87016BCF10E000E068CFFB01FE
:10209000DC0102C001900D9241505040D8F70895E4
:1020A000FB01DC018D91019080190110D9F3990B8E
:1020B0000895FB01DC0101900D920020E1F70895E5
:1020C00011E0C7E3D1E000E006C0802FFE010E94CE
:1020D000250E2196011DC833D10780E00807A9F716
:0420E000F894FFCFA2
:1020E4000100FDFFFFFFFFFFFFFFFFFFFFFFFFFFFB
:1020F400FFFFFFFFFFFFFFFFFFFFFFFFFFFFFFFFEC
:10210400FFFFFFFFFFFFFFFFFFFFFFFFFFFFFFFFDB
:10211400FFFFFFFFFFFFFFFFFFFFFFFFFFFFFFFFCB
:10212400FFFFFFFF0100000000009C058000250068
:10213400240023002200210020001F001E001D0097
:102144001C001B001A0019001800170016000100DB
:102154000000010000010101000001000000000076
:102164000001010100000100000001000100000065
:102174000100010000000000010000000100010056
:102184000000010001000000010001000000000047
:102194000100000001000101010101000100000033
:1021A4000100010000000000010000000100010125
:1021B4000101010001000000010001000000000015
:1021C4000101010101000100000001000100000003
:1021D40001000100000000000100000001000100F6
:1021E40000000100010000000100010000000000E7
:1021F40001000000010001000000010000010101D4
:1022040000000101010101000100000001000000C3
:1022140000000001010101010100000000000000B4
:1022240000000001010101010100000000000001A3
:102234000000000100010101010000010100000192
:102244000101000100010100010001000000000083
:102254000000000100000100010001000000000076
:102264000100000100000000010000010100000065
:102274000000000101010101010000000000000054
:102284000000000101010101010000000000000044
:10229400000027039102BE027403EF02CD02E102A3
:1022A4004D454E53414A45004D454E55004A55470C
:1022B400415200504155534100434F4E4649475502
:1022C400524143494F4E00455354414449535449A4
:0422D4004341000082
:00000001FF
